{
  "contractName": "LiquidityValueCalculator",
  "abi": [
    {
      "inputs": [
        {
          "internalType": "address",
          "name": "factory_",
          "type": "address"
        }
      ],
      "stateMutability": "nonpayable",
      "type": "constructor"
    },
    {
      "inputs": [],
      "name": "factory",
      "outputs": [
        {
          "internalType": "address",
          "name": "",
          "type": "address"
        }
      ],
      "stateMutability": "view",
      "type": "function"
    },
    {
      "inputs": [
        {
          "internalType": "uint256",
          "name": "liquidity",
          "type": "uint256"
        },
        {
          "internalType": "address",
          "name": "tokenA",
          "type": "address"
        },
        {
          "internalType": "address",
          "name": "tokenB",
          "type": "address"
        }
      ],
      "name": "computeLiquidityShareValue",
      "outputs": [
        {
          "internalType": "uint256",
          "name": "tokenAAmount",
          "type": "uint256"
        },
        {
          "internalType": "uint256",
          "name": "tokenBAmount",
          "type": "uint256"
        }
      ],
      "stateMutability": "nonpayable",
      "type": "function"
    }
  ],
  "bytecode": "0x608060405234801561001057600080fd5b506040516102573803806102578339818101604052602081101561003357600080fd5b8101908080519060200190929190505050806000806101000a81548173ffffffffffffffffffffffffffffffffffffffff021916908373ffffffffffffffffffffffffffffffffffffffff160217905550506101c3806100946000396000f3fe608060405234801561001057600080fd5b50600436106100365760003560e01c80634ef0c6cc1461003b578063c45a0155146100c4575b600080fd5b6100a76004803603606081101561005157600080fd5b8101908080359060200190929190803573ffffffffffffffffffffffffffffffffffffffff169060200190929190803573ffffffffffffffffffffffffffffffffffffffff1690602001909291905050506100f8565b604051808381526020018281526020019250505060405180910390f35b6100cc610169565b604051808273ffffffffffffffffffffffffffffffffffffffff16815260200191505060405180910390f35b6000806040517f08c379a00000000000000000000000000000000000000000000000000000000081526004018080602001828103825260048152602001807f544f444f0000000000000000000000000000000000000000000000000000000081525060200191505060405180910390fd5b60008054906101000a900473ffffffffffffffffffffffffffffffffffffffff168156fea2646970667358221220a42fe90fd85a4288c336720a678252a2c1330159c1c1fcb345c91299b082d50064736f6c63430007060033",
  "immutableReferences": {},
  "source": "// SPDX-License-Identifier: UNLICENSED\r\npragma solidity 0.7.6;\r\n\r\nimport '../interfaces/ILiquidityValueCalculator.sol';\r\nimport '@uniswap/v2-periphery/contracts/libraries/UniswapV2Library.sol';\r\nimport '@uniswap/v2-core/contracts/interfaces/IUniswapV2Pair.sol';\r\n\r\ncontract LiquidityValueCalculator is ILiquidityValueCalculator {\r\n    address public factory;\r\n    constructor(address factory_) public {\r\n        factory = factory_;\r\n    }\r\n\r\n    function pairInfo(address tokenA, address tokenB) internal view returns (uint reserveA, uint reserveB, uint totalSupply) {\r\n        IUniswapV2Pair pair = IUniswapV2Pair(UniswapV2Library.pairFor(factory, tokenA, tokenB));\r\n        totalSupply = pair.totalSupply();\r\n        (uint reserves0, uint reserves1,) = pair.getReserves();\r\n        (reserveA, reserveB) = tokenA == pair.token0() ? (reserves0, reserves1) : (reserves1, reserves0);\r\n    } \r\n    \r\n    function computeLiquidityShareValue(uint liquidity, address tokenA, address tokenB) external override returns (uint tokenAAmount, uint tokenBAmount) {\r\n        revert('TODO');\r\n    }    \r\n}",
  "sourcePath": "C:/Repos/token_chop/contracts/LiquidityValueCalculator.sol",
  "compiler": {
    "name": "solc",
    "version": "0.7.6+commit.7338295f.Emscripten.clang"
  },
  "schemaVersion": "3.3.3",
  "updatedAt": "2021-01-30T00:55:46.320Z",
  "devdoc": {
    "kind": "dev",
    "methods": {},
    "version": 1
  },
  "userdoc": {
    "kind": "user",
    "methods": {},
    "version": 1
  }
}