{
  "contractName": "Math",
  "abi": [
    {
      "inputs": [
        {
          "internalType": "uint256",
          "name": "x",
          "type": "uint256"
        },
        {
          "internalType": "uint256",
          "name": "y",
          "type": "uint256"
        },
        {
          "internalType": "uint256",
          "name": "z",
          "type": "uint256"
        }
      ],
      "name": "mulDiv",
      "outputs": [
        {
          "internalType": "uint256",
          "name": "",
          "type": "uint256"
        }
      ],
      "stateMutability": "pure",
      "type": "function",
      "constant": true
    }
  ],
  "bytecode": "0x61011c610026600b82828239805160001a60731461001957fe5b30600052607381538281f3fe730000000000000000000000000000000000000000301460806040526004361060335760003560e01c8063aa9a0912146038575b600080fd5b607560048036036060811015604c57600080fd5b81019080803590602001909291908035906020019092919080359060200190929190505050608b565b6040518082815260200191505060405180910390f35b600080828581609657fe5b049050600083868160a357fe5b069050600084868160b057fe5b049050600085878160bd57fe5b069050858184028160ca57fe5b048284028286028886880202010101945050505050939250505056fea264697066735822122060f8ebb7a78ef78a3f52691b3dc5b1407f10613d4f00d10f428e2a69cfaff50564736f6c63430007060033",
  "immutableReferences": {},
  "source": "// SPDX-License-Identifier: MIT\r\npragma solidity >=0.6.0 <0.8.0;\r\n\r\nlibrary Math {\r\n\r\n    function max(int256 a, int256 b) internal pure returns (int256) {\r\n        return a >= b ? a : b;\r\n    }    \r\n\r\n    function percent(uint256 numerator, uint256 denominator, uint8 decimals) internal pure returns(uint256 value) {\r\n        uint _numerator  = numerator * 10 ** (decimals + 1);\r\n        uint _quotient =  ((_numerator / denominator) + 5) / 10; // with rounding of last digit\r\n        return ( _quotient);\r\n    }    \r\n\r\n    // todo find something better\r\n    // https://medium.com/coinmonks/math-in-solidity-part-3-percents-and-proportions-4db014e080b1\r\n    // x*y/z\r\n    function mulDiv (uint256 x, uint256 y, uint256 z) public pure returns (uint256) {\r\n        uint a = x / z; uint b = x % z; // x = a * z + b\r\n        uint c = y / z; uint d = y % z; // y = c * z + d\r\n        return a * b * z + a * d + b * c + b * d / z;\r\n    }\r\n\r\n// pragma solidity 0.5.9;\r\n\r\n// import \"openzeppelin-solidity/contracts/math/SafeMath.sol\";\r\n\r\n\r\n// /// \"Fractional\" library facilitate fixed point decimal computation. In Band Protocol, fixed point decimal can be\r\n// /// represented using `uint256` data type. The decimal is fixed at 18 digits and `mulFrac` can be used to multiply\r\n// /// the fixed point decimal with an ordinary `uint256` value.\r\n// library Fractional {\r\n//   using SafeMath for uint256;\r\n//   uint256 internal constant DENOMINATOR = 1e18;\r\n\r\n//   function getDenominator() internal pure returns (uint256) {\r\n//     return DENOMINATOR;\r\n//   }\r\n\r\n//   function mulFrac(uint256 numerator, uint256 value) internal pure returns(uint256) {\r\n//     return numerator.mul(value).div(DENOMINATOR);\r\n//   }\r\n// }\r\n\r\n\r\n}",
  "sourcePath": "C:\\Repos\\token_chop\\contracts\\libs\\Math.sol",
  "compiler": {
    "name": "solc",
    "version": "0.7.6+commit.7338295f.Emscripten.clang"
  },
  "schemaVersion": "3.3.3",
  "updatedAt": "2021-02-09T07:26:42.422Z",
  "networkType": "ethereum",
  "devdoc": {
    "kind": "dev",
    "methods": {},
    "version": 1
  },
  "userdoc": {
    "kind": "user",
    "methods": {},
    "version": 1
  }
}