{
  "contractName": "MockBandProtocol",
  "abi": [
    {
      "inputs": [
        {
          "internalType": "string",
          "name": "_base",
          "type": "string"
        },
        {
          "internalType": "string",
          "name": "_quote",
          "type": "string"
        }
      ],
      "name": "getReferenceData",
      "outputs": [
        {
          "components": [
            {
              "internalType": "uint256",
              "name": "rate",
              "type": "uint256"
            },
            {
              "internalType": "uint256",
              "name": "lastUpdatedBase",
              "type": "uint256"
            },
            {
              "internalType": "uint256",
              "name": "lastUpdatedQuote",
              "type": "uint256"
            }
          ],
          "internalType": "struct MockBandProtocol.ReferenceData",
          "name": "",
          "type": "tuple"
        }
      ],
      "stateMutability": "view",
      "type": "function",
      "constant": true
    }
  ],
  "bytecode": "0x608060405234801561001057600080fd5b50610389806100206000396000f3fe608060405234801561001057600080fd5b506004361061002b5760003560e01c806365555bcc14610030575b600080fd5b61004a600480360381019061004591906101ff565b610060565b60405161005791906102bc565b60405180910390f35b610068610176565b60006006438161007457fe5b06905060006040518060c00160405280604051806060016040528062989680815260200142815260200142815250815260200160405180606001604052806301312d00815260200142815260200142815250815260200160405180606001604052806301c9c380815260200142815260200142815250815260200160405180606001604052806302625a00815260200142815260200142815250815260200160405180606001604052806302faf080815260200142815260200142815250815260200160405180606001604052806303938700815260200142815260200142815250815250905080826006811061016757fe5b60200201519250505092915050565b60405180606001604052806000815260200160008152602001600081525090565b60006101aa6101a584610308565b6102d7565b9050828152602081018484840111156101c257600080fd5b6101cd848285610342565b509392505050565b600082601f8301126101e657600080fd5b81356101f6848260208601610197565b91505092915050565b6000806040838503121561021257600080fd5b600083013567ffffffffffffffff81111561022c57600080fd5b610238858286016101d5565b925050602083013567ffffffffffffffff81111561025557600080fd5b610261858286016101d5565b9150509250929050565b60608201600082015161028160008501826102ad565b50602082015161029460208501826102ad565b5060408201516102a760408501826102ad565b50505050565b6102b681610338565b82525050565b60006060820190506102d1600083018461026b565b92915050565b6000604051905081810181811067ffffffffffffffff821117156102fe576102fd610351565b5b8060405250919050565b600067ffffffffffffffff82111561032357610322610351565b5b601f19601f8301169050602081019050919050565b6000819050919050565b82818337600083830152505050565bfefea26469706673582212208d1f4a50e5c7b3d124c085ff0d753149e60bb60ad0f439608cbe7400dec20adf64736f6c63430007060033",
  "immutableReferences": {},
  "source": "// SPDX-License-Identifier: MIT\r\npragma solidity =0.7.6;\r\npragma abicoder v2;\r\n\r\ncontract MockBandProtocol {\r\n\r\n    struct ReferenceData {\r\n        uint256 rate;\r\n        uint256 lastUpdatedBase;\r\n        uint256 lastUpdatedQuote;\r\n    }\r\n\r\n    function getReferenceData(string memory _base, string memory _quote) external view returns (ReferenceData memory) {\r\n        uint pick = block.number % 6;\r\n        ReferenceData[6] memory values = [\r\n            ReferenceData(10000000, block.timestamp, block.timestamp),\r\n            ReferenceData(20000000, block.timestamp, block.timestamp),\r\n            ReferenceData(30000000, block.timestamp, block.timestamp),\r\n            ReferenceData(40000000, block.timestamp, block.timestamp),           \r\n            ReferenceData(50000000, block.timestamp, block.timestamp),           \r\n            ReferenceData(60000000, block.timestamp, block.timestamp)\r\n        ];\r\n        return values[pick];\r\n    }\r\n\r\n}\r\n",
  "sourcePath": "C:/Repos/tokenchop/contracts/test/MockBandProtocol.sol",
  "compiler": {
    "name": "solc",
    "version": "0.7.6+commit.7338295f.Emscripten.clang"
  },
  "schemaVersion": "3.3.3",
  "updatedAt": "2021-02-11T09:04:48.112Z",
  "networkType": "ethereum",
  "devdoc": {
    "kind": "dev",
    "methods": {},
    "version": 1
  },
  "userdoc": {
    "kind": "user",
    "methods": {},
    "version": 1
  }
}