{
  "contractName": "MockMathLib",
  "abi": [
    {
      "inputs": [
        {
          "internalType": "uint256",
          "name": "value",
          "type": "uint256"
        },
        {
          "internalType": "uint256",
          "name": "numerator",
          "type": "uint256"
        },
        {
          "internalType": "uint256",
          "name": "denominator",
          "type": "uint256"
        }
      ],
      "name": "mulDiv",
      "outputs": [
        {
          "internalType": "uint256",
          "name": "",
          "type": "uint256"
        }
      ],
      "stateMutability": "view",
      "type": "function",
      "constant": true
    }
  ],
  "bytecode": "0x608060405234801561001057600080fd5b50610124806100206000396000f3fe6080604052348015600f57600080fd5b506004361060285760003560e01c8063aa9a091214602d575b600080fd5b606a60048036036060811015604157600080fd5b810190808035906020019092919080359060200190929190803590602001909291905050506080565b6040518082815260200191505060405180910390f35b6000608b8484846094565b90509392505050565b6000700100000000000000000000000000000000841060b257600080fd5b700100000000000000000000000000000000831060ce57600080fd5b8183111560da57600080fd5b818385028160e457fe5b049050939250505056fea264697066735822122068f810c3ea9bf9da9749ae0ed4931a99293bd50eb321eea4287bf12a2eacad8664736f6c63430007060033",
  "immutableReferences": {},
  "source": "// SPDX-License-Identifier: MIT\r\npragma solidity =0.7.6;\r\n\r\nimport \"../libs/Math.sol\";\r\n\r\ncontract MockMathLib {\r\n\r\n    function mulDiv(uint256 value, uint256 numerator, uint256 denominator) external view returns (uint256) {\r\n        return Math.mulDiv(value, numerator, denominator);\r\n    }\r\n\r\n}\r\n",
  "sourcePath": "C:/Repos/tokenchop/contracts/test/MockMathLib.sol",
  "compiler": {
    "name": "solc",
    "version": "0.7.6+commit.7338295f.Emscripten.clang"
  },
  "schemaVersion": "3.3.3",
  "updatedAt": "2021-02-10T09:30:55.752Z",
  "networkType": "ethereum",
  "devdoc": {
    "kind": "dev",
    "methods": {},
    "version": 1
  },
  "userdoc": {
    "kind": "user",
    "methods": {},
    "version": 1
  }
}