{
  "contractName": "MockBandProtocol",
  "abi": [
    {
      "anonymous": false,
      "inputs": [
        {
          "indexed": false,
          "internalType": "uint256",
          "name": "price",
          "type": "uint256"
        }
      ],
      "name": "PriceEvent",
      "type": "event"
    },
    {
      "inputs": [],
      "name": "nonce",
      "outputs": [
        {
          "internalType": "uint8",
          "name": "",
          "type": "uint8"
        }
      ],
      "stateMutability": "view",
      "type": "function",
      "constant": true
    },
    {
      "inputs": [
        {
          "internalType": "string",
          "name": "_base",
          "type": "string"
        },
        {
          "internalType": "string",
          "name": "_quote",
          "type": "string"
        }
      ],
      "name": "getReferenceData",
      "outputs": [
        {
          "components": [
            {
              "internalType": "uint256",
              "name": "rate",
              "type": "uint256"
            },
            {
              "internalType": "uint256",
              "name": "lastUpdatedBase",
              "type": "uint256"
            },
            {
              "internalType": "uint256",
              "name": "lastUpdatedQuote",
              "type": "uint256"
            }
          ],
          "internalType": "struct MockBandProtocol.ReferenceData",
          "name": "",
          "type": "tuple"
        }
      ],
      "stateMutability": "nonpayable",
      "type": "function"
    }
  ],
  "bytecode": "0x608060405260008060006101000a81548160ff021916908360ff16021790555034801561002b57600080fd5b506104b08061003b6000396000f3fe608060405234801561001057600080fd5b50600436106100365760003560e01c806365555bcc1461003b578063affed0e01461006b575b600080fd5b610055600480360381019061005091906102c5565b610089565b60405161006291906103a0565b60405180910390f35b61007361022b565b60405161008091906103d6565b60405180910390f35b61009161023c565b60008081819054906101000a900460ff168092919060010191906101000a81548160ff021916908360ff1602179055505060006040518060c00160405280604051806060016040528062989680815260200142815260200142815250815260200160405180606001604052806301312d00815260200142815260200142815250815260200160405180606001604052806301c9c380815260200142815260200142815250815260200160405180606001604052806302625a00815260200142815260200142815250815260200160405180606001604052806302faf08081526020014281526020014281525081526020016040518060600160405280630393870081526020014281526020014281525081525090507f2a532808f862e313781c16aa4651532207bbb8932378c7b0016fab13dd60e79e8160008054906101000a900460ff1660ff16600681106101e357fe5b6020020151600001516040516101f991906103bb565b60405180910390a18060008054906101000a900460ff1660ff166006811061021d57fe5b602002015191505092915050565b60008054906101000a900460ff1681565b60405180606001604052806000815260200160008152602001600081525090565b600061027061026b84610422565b6103f1565b90508281526020810184848401111561028857600080fd5b610293848285610469565b509392505050565b600082601f8301126102ac57600080fd5b81356102bc84826020860161025d565b91505092915050565b600080604083850312156102d857600080fd5b600083013567ffffffffffffffff8111156102f257600080fd5b6102fe8582860161029b565b925050602083013567ffffffffffffffff81111561031b57600080fd5b6103278582860161029b565b9150509250929050565b6060820160008201516103476000850182610373565b50602082015161035a6020850182610373565b50604082015161036d6040850182610373565b50505050565b61037c81610452565b82525050565b61038b81610452565b82525050565b61039a8161045c565b82525050565b60006060820190506103b56000830184610331565b92915050565b60006020820190506103d06000830184610382565b92915050565b60006020820190506103eb6000830184610391565b92915050565b6000604051905081810181811067ffffffffffffffff8211171561041857610417610478565b5b8060405250919050565b600067ffffffffffffffff82111561043d5761043c610478565b5b601f19601f8301169050602081019050919050565b6000819050919050565b600060ff82169050919050565b82818337600083830152505050565bfefea264697066735822122000af60a3b51c44dcde9b318f5c3bc31204ff3801eeb4f912c579093fc424d12064736f6c63430007060033",
  "immutableReferences": {},
  "source": "// SPDX-License-Identifier: MIT\r\npragma solidity =0.7.6;\r\npragma abicoder v2;\r\n\r\ncontract MockBandProtocol {\r\n\r\n    struct ReferenceData {\r\n        uint256 rate; // base/quote exchange rate, multiplied by 1e18.\r\n        uint256 lastUpdatedBase; // UNIX epoch of the last time when base price gets updated.\r\n        uint256 lastUpdatedQuote; // UNIX epoch of the last time when quote price gets updated.\r\n    }\r\n\r\n    event PriceEvent(uint256 price);\r\n\r\n    uint8 public nonce = 0;\r\n\r\n    function getReferenceData(string memory _base, string memory _quote) external returns (ReferenceData memory) {\r\n        nonce++;\r\n        ReferenceData[6] memory values = [\r\n            ReferenceData(10000000, block.timestamp, block.timestamp),\r\n            ReferenceData(20000000, block.timestamp, block.timestamp),\r\n            ReferenceData(30000000, block.timestamp, block.timestamp),\r\n            ReferenceData(40000000, block.timestamp, block.timestamp),           \r\n            ReferenceData(50000000, block.timestamp, block.timestamp),           \r\n            ReferenceData(60000000, block.timestamp, block.timestamp)\r\n        ];\r\n        emit PriceEvent(values[nonce].rate);\r\n        return values[nonce];\r\n    }\r\n\r\n}\r\n",
  "sourcePath": "C:/Repos/tokenchop/contracts/test/MockBandProtocol.sol",
  "compiler": {
    "name": "solc",
    "version": "0.7.6+commit.7338295f.Emscripten.clang"
  },
  "schemaVersion": "3.3.3",
  "updatedAt": "2021-02-10T09:30:55.757Z",
  "networkType": "ethereum",
  "devdoc": {
    "kind": "dev",
    "methods": {},
    "version": 1
  },
  "userdoc": {
    "kind": "user",
    "methods": {},
    "version": 1
  }
}