{
  "contractName": "TokenChopFactory",
  "abi": [
    {
      "inputs": [
        {
          "internalType": "address",
          "name": "_feeToSetter",
          "type": "address"
        },
        {
          "internalType": "address",
          "name": "_bandAddr",
          "type": "address"
        }
      ],
      "stateMutability": "nonpayable",
      "type": "constructor"
    },
    {
      "anonymous": false,
      "inputs": [
        {
          "indexed": true,
          "internalType": "address",
          "name": "base",
          "type": "address"
        },
        {
          "indexed": true,
          "internalType": "address",
          "name": "quote",
          "type": "address"
        },
        {
          "indexed": false,
          "internalType": "address",
          "name": "stable",
          "type": "address"
        },
        {
          "indexed": false,
          "internalType": "address",
          "name": "spec",
          "type": "address"
        },
        {
          "indexed": false,
          "internalType": "uint256",
          "name": "",
          "type": "uint256"
        }
      ],
      "name": "PairCreated",
      "type": "event"
    },
    {
      "inputs": [
        {
          "internalType": "uint256",
          "name": "",
          "type": "uint256"
        }
      ],
      "name": "allSpec",
      "outputs": [
        {
          "internalType": "address",
          "name": "",
          "type": "address"
        }
      ],
      "stateMutability": "view",
      "type": "function",
      "constant": true
    },
    {
      "inputs": [
        {
          "internalType": "uint256",
          "name": "",
          "type": "uint256"
        }
      ],
      "name": "allStable",
      "outputs": [
        {
          "internalType": "address",
          "name": "",
          "type": "address"
        }
      ],
      "stateMutability": "view",
      "type": "function",
      "constant": true
    },
    {
      "inputs": [],
      "name": "bandAddr",
      "outputs": [
        {
          "internalType": "address",
          "name": "",
          "type": "address"
        }
      ],
      "stateMutability": "view",
      "type": "function",
      "constant": true
    },
    {
      "inputs": [],
      "name": "feeTo",
      "outputs": [
        {
          "internalType": "address",
          "name": "",
          "type": "address"
        }
      ],
      "stateMutability": "view",
      "type": "function",
      "constant": true
    },
    {
      "inputs": [],
      "name": "feeToSetter",
      "outputs": [
        {
          "internalType": "address",
          "name": "",
          "type": "address"
        }
      ],
      "stateMutability": "view",
      "type": "function",
      "constant": true
    },
    {
      "inputs": [
        {
          "internalType": "address",
          "name": "",
          "type": "address"
        },
        {
          "internalType": "address",
          "name": "",
          "type": "address"
        }
      ],
      "name": "getSpecAddress",
      "outputs": [
        {
          "internalType": "address",
          "name": "",
          "type": "address"
        }
      ],
      "stateMutability": "view",
      "type": "function",
      "constant": true
    },
    {
      "inputs": [
        {
          "internalType": "address",
          "name": "",
          "type": "address"
        },
        {
          "internalType": "address",
          "name": "",
          "type": "address"
        }
      ],
      "name": "getStableAddress",
      "outputs": [
        {
          "internalType": "address",
          "name": "",
          "type": "address"
        }
      ],
      "stateMutability": "view",
      "type": "function",
      "constant": true
    },
    {
      "inputs": [],
      "name": "allPairsLength",
      "outputs": [
        {
          "internalType": "uint256",
          "name": "",
          "type": "uint256"
        }
      ],
      "stateMutability": "view",
      "type": "function",
      "constant": true
    },
    {
      "inputs": [
        {
          "internalType": "address",
          "name": "_base",
          "type": "address"
        },
        {
          "internalType": "address",
          "name": "_quote",
          "type": "address"
        }
      ],
      "name": "createPair",
      "outputs": [
        {
          "internalType": "address",
          "name": "stable",
          "type": "address"
        },
        {
          "internalType": "address",
          "name": "spec",
          "type": "address"
        }
      ],
      "stateMutability": "nonpayable",
      "type": "function"
    },
    {
      "inputs": [
        {
          "internalType": "address",
          "name": "_feeTo",
          "type": "address"
        }
      ],
      "name": "setFeeTo",
      "outputs": [],
      "stateMutability": "nonpayable",
      "type": "function"
    },
    {
      "inputs": [
        {
          "internalType": "address",
          "name": "_feeToSetter",
          "type": "address"
        }
      ],
      "name": "setFeeToSetter",
      "outputs": [],
      "stateMutability": "nonpayable",
      "type": "function"
    }
  ],
  "bytecode": "0x608060405234801561001057600080fd5b50604051617ad2380380617ad28339818101604052604081101561003357600080fd5b81019080805190602001909291908051906020019092919050505081600160006101000a81548173ffffffffffffffffffffffffffffffffffffffff021916908373ffffffffffffffffffffffffffffffffffffffff16021790555080600260006101000a81548173ffffffffffffffffffffffffffffffffffffffff021916908373ffffffffffffffffffffffffffffffffffffffff16021790555050506179f1806100e16000396000f3fe608060405234801561001057600080fd5b50600436106100a95760003560e01c8063574f2ba311610071578063574f2ba314610254578063a2e74af614610272578063c14acd65146102b6578063c9c6539614610344578063cee02166146103ef578063f46901ed14610423576100a9565b8063017e7e58146100ae578063094b7415146100e25780632a3672cd146101165780634fefba731461016e57806352df6096146101fc575b600080fd5b6100b6610467565b604051808273ffffffffffffffffffffffffffffffffffffffff16815260200191505060405180910390f35b6100ea61048b565b604051808273ffffffffffffffffffffffffffffffffffffffff16815260200191505060405180910390f35b6101426004803603602081101561012c57600080fd5b81019080803590602001909291905050506104b1565b604051808273ffffffffffffffffffffffffffffffffffffffff16815260200191505060405180910390f35b6101d06004803603604081101561018457600080fd5b81019080803573ffffffffffffffffffffffffffffffffffffffff169060200190929190803573ffffffffffffffffffffffffffffffffffffffff1690602001909291905050506104f0565b604051808273ffffffffffffffffffffffffffffffffffffffff16815260200191505060405180910390f35b6102286004803603602081101561021257600080fd5b8101908080359060200190929190505050610532565b604051808273ffffffffffffffffffffffffffffffffffffffff16815260200191505060405180910390f35b61025c610571565b6040518082815260200191505060405180910390f35b6102b46004803603602081101561028857600080fd5b81019080803573ffffffffffffffffffffffffffffffffffffffff16906020019092919050505061057e565b005b610318600480360360408110156102cc57600080fd5b81019080803573ffffffffffffffffffffffffffffffffffffffff169060200190929190803573ffffffffffffffffffffffffffffffffffffffff169060200190929190505050610685565b604051808273ffffffffffffffffffffffffffffffffffffffff16815260200191505060405180910390f35b6103a66004803603604081101561035a57600080fd5b81019080803573ffffffffffffffffffffffffffffffffffffffff169060200190929190803573ffffffffffffffffffffffffffffffffffffffff1690602001909291905050506106c7565b604051808373ffffffffffffffffffffffffffffffffffffffff1681526020018273ffffffffffffffffffffffffffffffffffffffff1681526020019250505060405180910390f35b6103f76110b8565b604051808273ffffffffffffffffffffffffffffffffffffffff16815260200191505060405180910390f35b6104656004803603602081101561043957600080fd5b81019080803573ffffffffffffffffffffffffffffffffffffffff1690602001909291905050506110de565b005b60008054906101000a900473ffffffffffffffffffffffffffffffffffffffff1681565b600160009054906101000a900473ffffffffffffffffffffffffffffffffffffffff1681565b600581815481106104c157600080fd5b906000526020600020016000915054906101000a900473ffffffffffffffffffffffffffffffffffffffff1681565b60046020528160005260406000206020528060005260406000206000915091509054906101000a900473ffffffffffffffffffffffffffffffffffffffff1681565b6006818154811061054257600080fd5b906000526020600020016000915054906101000a900473ffffffffffffffffffffffffffffffffffffffff1681565b6000600580549050905090565b600160009054906101000a900473ffffffffffffffffffffffffffffffffffffffff1673ffffffffffffffffffffffffffffffffffffffff163373ffffffffffffffffffffffffffffffffffffffff1614610641576040517f08c379a00000000000000000000000000000000000000000000000000000000081526004018080602001828103825260148152602001807f546f6b656e43686f703a20464f5242494444454e00000000000000000000000081525060200191505060405180910390fd5b80600160006101000a81548173ffffffffffffffffffffffffffffffffffffffff021916908373ffffffffffffffffffffffffffffffffffffffff16021790555050565b60036020528160005260406000206020528060005260406000206000915091509054906101000a900473ffffffffffffffffffffffffffffffffffffffff1681565b6000808273ffffffffffffffffffffffffffffffffffffffff168473ffffffffffffffffffffffffffffffffffffffff16141561076c576040517f08c379a000000000000000000000000000000000000000000000000000000000815260040180806020018281038252601e8152602001807f546f6b656e43686f703a204944454e544943414c5f414444524553534553000081525060200191505060405180910390fd5b600073ffffffffffffffffffffffffffffffffffffffff168473ffffffffffffffffffffffffffffffffffffffff16141580156107d65750600073ffffffffffffffffffffffffffffffffffffffff168373ffffffffffffffffffffffffffffffffffffffff1614155b610848576040517f08c379a00000000000000000000000000000000000000000000000000000000081526004018080602001828103825260178152602001807f546f6b656e43686f703a205a45524f5f4144445245535300000000000000000081525060200191505060405180910390fd5b600073ffffffffffffffffffffffffffffffffffffffff16600360008673ffffffffffffffffffffffffffffffffffffffff1673ffffffffffffffffffffffffffffffffffffffff16815260200190815260200160002060008573ffffffffffffffffffffffffffffffffffffffff1673ffffffffffffffffffffffffffffffffffffffff16815260200190815260200160002060009054906101000a900473ffffffffffffffffffffffffffffffffffffffff1673ffffffffffffffffffffffffffffffffffffffff1614610986576040517f08c379a00000000000000000000000000000000000000000000000000000000081526004018080602001828103825260188152602001807f546f6b656e43686f703a20535441424c455f455849535453000000000000000081525060200191505060405180910390fd5b600073ffffffffffffffffffffffffffffffffffffffff16600460008673ffffffffffffffffffffffffffffffffffffffff1673ffffffffffffffffffffffffffffffffffffffff16815260200190815260200160002060008573ffffffffffffffffffffffffffffffffffffffff1673ffffffffffffffffffffffffffffffffffffffff16815260200190815260200160002060009054906101000a900473ffffffffffffffffffffffffffffffffffffffff1673ffffffffffffffffffffffffffffffffffffffff1614610ac4576040517f08c379a00000000000000000000000000000000000000000000000000000000081526004018080602001828103825260168152602001807f546f6b656e43686f703a20535045435f4558495354530000000000000000000081525060200191505060405180910390fd5b600060405180602001610ad6906111e4565b6020820181038252601f19601f8201166040525090506000858560405160200180807f537461626c6500000000000000000000000000000000000000000000000000008152506006018373ffffffffffffffffffffffffffffffffffffffff1660601b81526014018273ffffffffffffffffffffffffffffffffffffffff1660601b8152601401925050506040516020818303038152906040528051906020012090506000818351602085016000f5905060008060405180602001610b9a906111f1565b6020820181038252601f19601f8201166040525090506000898960405160200180807f53706563000000000000000000000000000000000000000000000000000000008152506004018373ffffffffffffffffffffffffffffffffffffffff1660601b81526014018273ffffffffffffffffffffffffffffffffffffffff1660601b815260140192505050604051602081830303815290604052805190602001209050808251602084016000f592508373ffffffffffffffffffffffffffffffffffffffff1663c0c53b8b8b8b866040518463ffffffff1660e01b8152600401808473ffffffffffffffffffffffffffffffffffffffff1681526020018373ffffffffffffffffffffffffffffffffffffffff1681526020018273ffffffffffffffffffffffffffffffffffffffff1681526020019350505050600060405180830381600087803b158015610cee57600080fd5b505af1158015610d02573d6000803e3d6000fd5b505050508273ffffffffffffffffffffffffffffffffffffffff1663c0c53b8b8b8b876040518463ffffffff1660e01b8152600401808473ffffffffffffffffffffffffffffffffffffffff1681526020018373ffffffffffffffffffffffffffffffffffffffff1681526020018273ffffffffffffffffffffffffffffffffffffffff1681526020019350505050600060405180830381600087803b158015610dab57600080fd5b505af1158015610dbf573d6000803e3d6000fd5b5050505083600360008c73ffffffffffffffffffffffffffffffffffffffff1673ffffffffffffffffffffffffffffffffffffffff16815260200190815260200160002060008b73ffffffffffffffffffffffffffffffffffffffff1673ffffffffffffffffffffffffffffffffffffffff16815260200190815260200160002060006101000a81548173ffffffffffffffffffffffffffffffffffffffff021916908373ffffffffffffffffffffffffffffffffffffffff16021790555082600460008c73ffffffffffffffffffffffffffffffffffffffff1673ffffffffffffffffffffffffffffffffffffffff16815260200190815260200160002060008b73ffffffffffffffffffffffffffffffffffffffff1673ffffffffffffffffffffffffffffffffffffffff16815260200190815260200160002060006101000a81548173ffffffffffffffffffffffffffffffffffffffff021916908373ffffffffffffffffffffffffffffffffffffffff1602179055506005849080600181540180825580915050600190039060005260206000200160009091909190916101000a81548173ffffffffffffffffffffffffffffffffffffffff021916908373ffffffffffffffffffffffffffffffffffffffff1602179055506006839080600181540180825580915050600190039060005260206000200160009091909190916101000a81548173ffffffffffffffffffffffffffffffffffffffff021916908373ffffffffffffffffffffffffffffffffffffffff1602179055508873ffffffffffffffffffffffffffffffffffffffff168a73ffffffffffffffffffffffffffffffffffffffff167fa2d65e38bd2bf6cb3385fb3f58bfe90caadcea402ec5d5808da6ea171f11bba18686600580549050604051808473ffffffffffffffffffffffffffffffffffffffff1681526020018373ffffffffffffffffffffffffffffffffffffffff168152602001828152602001935050505060405180910390a38383975097505050505050509250929050565b600260009054906101000a900473ffffffffffffffffffffffffffffffffffffffff1681565b600160009054906101000a900473ffffffffffffffffffffffffffffffffffffffff1673ffffffffffffffffffffffffffffffffffffffff163373ffffffffffffffffffffffffffffffffffffffff16146111a1576040517f08c379a00000000000000000000000000000000000000000000000000000000081526004018080602001828103825260148152602001807f546f6b656e43686f703a20464f5242494444454e00000000000000000000000081525060200191505060405180910390fd5b806000806101000a81548173ffffffffffffffffffffffffffffffffffffffff021916908373ffffffffffffffffffffffffffffffffffffffff16021790555050565b61382d806111ff83390190565b612f9080614a2c8339019056fe60806040526000600e60146101000a81548160ff02191690831515021790555034801561002b57600080fd5b5033600960006101000a81548173ffffffffffffffffffffffffffffffffffffffff021916908373ffffffffffffffffffffffffffffffffffffffff1602179055506137b18061007c6000396000f3fe608060405234801561001057600080fd5b50600436106101cf5760003560e01c8063893d20e811610104578063a9ed003d116100a2578063cd0b4aed11610071578063cd0b4aed14610504578063d8dfeb4514610534578063dd62ed3e14610552578063f8ac93e814610582576101cf565b8063a9ed003d1461048e578063b1dd61b6146104ac578063c0c53b8b146104ca578063c45a0155146104e6576101cf565b806395d89b41116100de57806395d89b4114610404578063999b93af14610422578063a035b1fe14610440578063a9059cbb1461045e576101cf565b8063893d20e8146103aa5780638f940f63146103c8578063914e245a146103e6576101cf565b806342966c681161017157806365f4fea71161014b57806365f4fea7146103345780636fea6b1c1461033e57806370a082311461035c57806380583be71461038c576101cf565b806342966c68146102c85780635001f3b5146102f857806360d6df6e14610316576101cf565b806318160ddd116101ad57806318160ddd1461024057806323b872dd1461025e5780632e4e3d111461028e578063313ce567146102aa576101cf565b806305300b28146101d457806306fdde03146101f2578063095ea7b314610210575b600080fd5b6101dc61058c565b6040516101e99190613581565b60405180910390f35b6101fa610591565b6040516102079190613364565b60405180910390f35b61022a60048036038101906102259190612a41565b61062f565b6040516102379190613320565b60405180910390f35b610248610646565b604051610255919061353d565b60405180910390f35b610278600480360381019061027391906129f2565b61064c565b6040516102859190613320565b60405180910390f35b6102a860048036038101906102a3919061293e565b6107ac565b005b6102b2610880565b6040516102bf9190613581565b60405180910390f35b6102e260048036038101906102dd9190612b10565b610889565b6040516102ef9190613320565b60405180910390f35b610300610bac565b60405161030d91906132a5565b60405180910390f35b61031e610bd2565b60405161032b9190613364565b60405180910390f35b61033c610c70565b005b610346610d0a565b60405161035391906132a5565b60405180910390f35b6103766004803603810190610371919061293e565b610d30565b604051610383919061353d565b60405180910390f35b610394610d48565b6040516103a19190613364565b60405180910390f35b6103b2610de6565b6040516103bf91906132a5565b60405180910390f35b6103d0610e10565b6040516103dd9190613581565b60405180910390f35b6103ee610e15565b6040516103fb919061353d565b60405180910390f35b61040c610e1b565b6040516104199190613364565b60405180910390f35b61042a610eb9565b60405161043791906132a5565b60405180910390f35b610448610edf565b604051610455919061353d565b60405180910390f35b61047860048036038101906104739190612a41565b610ee5565b6040516104859190613320565b60405180910390f35b610496610efc565b6040516104a391906132a5565b60405180910390f35b6104b4610f22565b6040516104c19190613364565b60405180910390f35b6104e460048036038101906104df91906129a3565b610f5b565b005b6104ee61150d565b6040516104fb91906132a5565b60405180910390f35b61051e60048036038101906105199190612b10565b611533565b60405161052b9190613320565b60405180910390f35b61053c6117b7565b604051610549919061353d565b60405180910390f35b61056c60048036038101906105679190612967565b6117bd565b604051610579919061353d565b60405180910390f35b61058a6117e2565b005b601281565b60028054600181600116156101000203166002900480601f0160208091040260200160405190810160405280929190818152602001828054600181600116156101000203166002900480156106275780601f106105fc57610100808354040283529160200191610627565b820191906000526020600020905b81548152906001019060200180831161060a57829003601f168201915b505050505081565b600061063c3384846117f4565b6001905092915050565b600d5481565b60006106598484846119bf565b81600160008673ffffffffffffffffffffffffffffffffffffffff1673ffffffffffffffffffffffffffffffffffffffff16815260200190815260200160002060003373ffffffffffffffffffffffffffffffffffffffff1673ffffffffffffffffffffffffffffffffffffffff168152602001908152602001600020541015610718576040517f08c379a000000000000000000000000000000000000000000000000000000000815260040161070f9061347d565b60405180910390fd5b6107a1843384600160008973ffffffffffffffffffffffffffffffffffffffff1673ffffffffffffffffffffffffffffffffffffffff16815260200190815260200160002060003373ffffffffffffffffffffffffffffffffffffffff1673ffffffffffffffffffffffffffffffffffffffff16815260200190815260200160002054036117f4565b600190509392505050565b600960009054906101000a900473ffffffffffffffffffffffffffffffffffffffff1673ffffffffffffffffffffffffffffffffffffffff163373ffffffffffffffffffffffffffffffffffffffff161461083c576040517f08c379a0000000000000000000000000000000000000000000000000000000008152600401610833906134dd565b60405180910390fd5b80600e60006101000a81548173ffffffffffffffffffffffffffffffffffffffff021916908373ffffffffffffffffffffffffffffffffffffffff16021790555050565b60006012905090565b6000610893611cb0565b61089b611e05565b6000803373ffffffffffffffffffffffffffffffffffffffff1673ffffffffffffffffffffffffffffffffffffffff1681526020019081526020016000205482111561091c576040517f08c379a0000000000000000000000000000000000000000000000000000000008152600401610913906133bd565b60405180910390fd5b7f92664190cca12aca9cd5309d87194bdda75bb51362d71c06e1a6f75c7c76571160048060405161094e92919061333b565b60405180910390a16109a7826000803373ffffffffffffffffffffffffffffffffffffffff1673ffffffffffffffffffffffffffffffffffffffff1681526020019081526020016000205461202b90919063ffffffff16565b6000803373ffffffffffffffffffffffffffffffffffffffff1673ffffffffffffffffffffffffffffffffffffffff1681526020019081526020016000208190555060006109f7600c548461204b565b9050600660009054906101000a900473ffffffffffffffffffffffffffffffffffffffff1673ffffffffffffffffffffffffffffffffffffffff166370a08231306040518263ffffffff1660e01b8152600401610a5491906132a5565b60206040518083038186803b158015610a6c57600080fd5b505afa158015610a80573d6000803e3d6000fd5b505050506040513d601f19601f82011682018060405250810190610aa49190612b39565b600a81905550610ad7600660009054906101000a900473ffffffffffffffffffffffffffffffffffffffff1633836120de565b600073ffffffffffffffffffffffffffffffffffffffff163373ffffffffffffffffffffffffffffffffffffffff167fddf252ad1be2c89b69c2b068fc378daa952ba7f163c4a11628f55a4df523b3ef85604051610b35919061353d565b60405180910390a33373ffffffffffffffffffffffffffffffffffffffff163073ffffffffffffffffffffffffffffffffffffffff167f14395d6fb6ac3870af345d12d989b966ccf04dcdd9e02b95722d12dca39eb4b083604051610b9a919061353d565b60405180910390a36001915050919050565b600660009054906101000a900473ffffffffffffffffffffffffffffffffffffffff1681565b60058054600181600116156101000203166002900480601f016020809104026020016040519081016040528092919081815260200182805460018160011615610100020316600290048015610c685780601f10610c3d57610100808354040283529160200191610c68565b820191906000526020600020905b815481529060010190602001808311610c4b57829003601f168201915b505050505081565b600860009054906101000a900473ffffffffffffffffffffffffffffffffffffffff1673ffffffffffffffffffffffffffffffffffffffff163373ffffffffffffffffffffffffffffffffffffffff1614610d00576040517f08c379a0000000000000000000000000000000000000000000000000000000008152600401610cf7906134dd565b60405180910390fd5b610d08611cb0565b565b600e60009054906101000a900473ffffffffffffffffffffffffffffffffffffffff1681565b60006020528060005260406000206000915090505481565b60048054600181600116156101000203166002900480601f016020809104026020016040519081016040528092919081815260200182805460018160011615610100020316600290048015610dde5780601f10610db357610100808354040283529160200191610dde565b820191906000526020600020905b815481529060010190602001808311610dc157829003601f168201915b505050505081565b6000600960009054906101000a900473ffffffffffffffffffffffffffffffffffffffff16905090565b600081565b600b5481565b60038054600181600116156101000203166002900480601f016020809104026020016040519081016040528092919081815260200182805460018160011615610100020316600290048015610eb15780601f10610e8657610100808354040283529160200191610eb1565b820191906000526020600020905b815481529060010190602001808311610e9457829003601f168201915b505050505081565b600760009054906101000a900473ffffffffffffffffffffffffffffffffffffffff1681565b600c5481565b6000610ef23384846119bf565b6001905092915050565b600860009054906101000a900473ffffffffffffffffffffffffffffffffffffffff1681565b6040518060400160405280600681526020017f537461626c65000000000000000000000000000000000000000000000000000081525081565b600960009054906101000a900473ffffffffffffffffffffffffffffffffffffffff1673ffffffffffffffffffffffffffffffffffffffff163373ffffffffffffffffffffffffffffffffffffffff1614610feb576040517f08c379a0000000000000000000000000000000000000000000000000000000008152600401610fe2906134dd565b60405180910390fd5b73da7a001b254cd22e46d3eab04d937489c93174c3600e60006101000a81548173ffffffffffffffffffffffffffffffffffffffff021916908373ffffffffffffffffffffffffffffffffffffffff16021790555082600660006101000a81548173ffffffffffffffffffffffffffffffffffffffff021916908373ffffffffffffffffffffffffffffffffffffffff16021790555081600760006101000a81548173ffffffffffffffffffffffffffffffffffffffff021916908373ffffffffffffffffffffffffffffffffffffffff16021790555080600860006101000a81548173ffffffffffffffffffffffffffffffffffffffff021916908373ffffffffffffffffffffffffffffffffffffffff160217905550600660009054906101000a900473ffffffffffffffffffffffffffffffffffffffff1673ffffffffffffffffffffffffffffffffffffffff166395d89b416040518163ffffffff1660e01b815260040160006040518083038186803b15801561116b57600080fd5b505afa15801561117f573d6000803e3d6000fd5b505050506040513d6000823e3d601f19601f820116820180604052508101906111a89190612aa6565b600490805190602001906111bd929190612777565b506040516020016111cd90613290565b6040516020818303038152906040528051906020012060046040516020016111f59190613279565b60405160208183030381529060405280519060200120146112b05760048054600181600116156101000203166002900480601f0160208091040260200160405190810160405280929190818152602001828054600181600116156101000203166002900480156112a65780601f1061127b576101008083540402835291602001916112a6565b820191906000526020600020905b81548152906001019060200180831161128957829003601f168201915b50505050506112e7565b6040518060400160405280600381526020017f424e4200000000000000000000000000000000000000000000000000000000008152505b600490805190602001906112fc929190612777565b50600760009054906101000a900473ffffffffffffffffffffffffffffffffffffffff1673ffffffffffffffffffffffffffffffffffffffff166395d89b416040518163ffffffff1660e01b815260040160006040518083038186803b15801561136557600080fd5b505afa158015611379573d6000803e3d6000fd5b505050506040513d6000823e3d601f19601f820116820180604052508101906113a29190612aa6565b600590805190602001906113b7929190612777565b506040518060400160405280600b81526020017f546f6b656e43686f703a2000000000000000000000000000000000000000000081525060046040518060400160405280600181526020017f2f0000000000000000000000000000000000000000000000000000000000000081525060056040518060400160405280600781526020017f20537461626c65000000000000000000000000000000000000000000000000008152506040516020016114729594939291906131fd565b60405160208183030381529060405260029080519060200190611496929190612777565b50600460056040518060400160405280600181526020017f30000000000000000000000000000000000000000000000000000000000000008152506040516020016114e393929190613248565b60405160208183030381529060405260039080519060200190611507929190612777565b50505050565b600960009054906101000a900473ffffffffffffffffffffffffffffffffffffffff1681565b600061153d611cb0565b611545611e05565b611573600660009054906101000a900473ffffffffffffffffffffffffffffffffffffffff16333085612268565b6000611581600c54846123d8565b90506115d4816000803373ffffffffffffffffffffffffffffffffffffffff1673ffffffffffffffffffffffffffffffffffffffff168152602001908152602001600020546123f590919063ffffffff16565b6000803373ffffffffffffffffffffffffffffffffffffffff1673ffffffffffffffffffffffffffffffffffffffff1681526020019081526020016000208190555061162b81600d546123f590919063ffffffff16565b600d81905550600660009054906101000a900473ffffffffffffffffffffffffffffffffffffffff1673ffffffffffffffffffffffffffffffffffffffff166370a08231306040518263ffffffff1660e01b815260040161168c91906132a5565b60206040518083038186803b1580156116a457600080fd5b505afa1580156116b8573d6000803e3d6000fd5b505050506040513d601f19601f820116820180604052508101906116dc9190612b39565b600a819055503373ffffffffffffffffffffffffffffffffffffffff16600073ffffffffffffffffffffffffffffffffffffffff167fddf252ad1be2c89b69c2b068fc378daa952ba7f163c4a11628f55a4df523b3ef83604051611740919061353d565b60405180910390a33073ffffffffffffffffffffffffffffffffffffffff163373ffffffffffffffffffffffffffffffffffffffff167f14395d6fb6ac3870af345d12d989b966ccf04dcdd9e02b95722d12dca39eb4b0856040516117a5919061353d565b60405180910390a36001915050919050565b600a5481565b6001602052816000526040600020602052806000526040600020600091509150505481565b6117ea611cb0565b6117f2611e05565b565b600073ffffffffffffffffffffffffffffffffffffffff168373ffffffffffffffffffffffffffffffffffffffff161415611864576040517f08c379a000000000000000000000000000000000000000000000000000000000815260040161185b906133fd565b60405180910390fd5b600073ffffffffffffffffffffffffffffffffffffffff168273ffffffffffffffffffffffffffffffffffffffff1614156118d4576040517f08c379a00000000000000000000000000000000000000000000000000000000081526004016118cb9061351d565b60405180910390fd5b80600160008573ffffffffffffffffffffffffffffffffffffffff1673ffffffffffffffffffffffffffffffffffffffff16815260200190815260200160002060008473ffffffffffffffffffffffffffffffffffffffff1673ffffffffffffffffffffffffffffffffffffffff168152602001908152602001600020819055508173ffffffffffffffffffffffffffffffffffffffff168373ffffffffffffffffffffffffffffffffffffffff167f8c5be1e5ebec7d5bd14f71427d1e84f3dd0314c0f7b2291e5b200ac8c7c3b925836040516119b2919061353d565b60405180910390a3505050565b600073ffffffffffffffffffffffffffffffffffffffff168373ffffffffffffffffffffffffffffffffffffffff161415611a2f576040517f08c379a0000000000000000000000000000000000000000000000000000000008152600401611a26906133dd565b60405180910390fd5b600073ffffffffffffffffffffffffffffffffffffffff168273ffffffffffffffffffffffffffffffffffffffff161415611a9f576040517f08c379a0000000000000000000000000000000000000000000000000000000008152600401611a96906134bd565b60405180910390fd5b806000808573ffffffffffffffffffffffffffffffffffffffff1673ffffffffffffffffffffffffffffffffffffffff168152602001908152602001600020541015611b20576040517f08c379a0000000000000000000000000000000000000000000000000000000008152600401611b179061349d565b60405180910390fd5b611b71816000808673ffffffffffffffffffffffffffffffffffffffff1673ffffffffffffffffffffffffffffffffffffffff1681526020019081526020016000205461202b90919063ffffffff16565b6000808573ffffffffffffffffffffffffffffffffffffffff1673ffffffffffffffffffffffffffffffffffffffff16815260200190815260200160002081905550611c04816000808573ffffffffffffffffffffffffffffffffffffffff1673ffffffffffffffffffffffffffffffffffffffff168152602001908152602001600020546123f590919063ffffffff16565b6000808473ffffffffffffffffffffffffffffffffffffffff1673ffffffffffffffffffffffffffffffffffffffff168152602001908152602001600020819055508173ffffffffffffffffffffffffffffffffffffffff168373ffffffffffffffffffffffffffffffffffffffff167fddf252ad1be2c89b69c2b068fc378daa952ba7f163c4a11628f55a4df523b3ef83604051611ca3919061353d565b60405180910390a3505050565b6000600e60009054906101000a900473ffffffffffffffffffffffffffffffffffffffff16905060008173ffffffffffffffffffffffffffffffffffffffff166365555bcc600460056040518363ffffffff1660e01b8152600401611d16929190613386565b60606040518083038186803b158015611d2e57600080fd5b505afa158015611d42573d6000803e3d6000fd5b505050506040513d601f19601f82011682018060405250810190611d669190612ae7565b90506000816000015190506000811415611db5576040517f08c379a0000000000000000000000000000000000000000000000000000000008152600401611dac906134fd565b60405180910390fd5b7f92664190cca12aca9cd5309d87194bdda75bb51362d71c06e1a6f75c7c765711600c5482604051611de8929190613558565b60405180910390a1600c54600b8190555080600c81905550505050565b600e60149054906101000a900460ff1615611e55576040517f08c379a0000000000000000000000000000000000000000000000000000000008152600401611e4c9061343d565b60405180910390fd5b6001600e60146101000a81548160ff0219169083151502179055506000611e80600c54600a546123d8565b9050600d54811415611e925750612029565b600d54811015611f37576000611eb382600d5461202b90919063ffffffff16565b90506000611ec082612414565b905081811015611f30576000611ef382611ee585600d5461202b90919063ffffffff16565b6123f590919063ffffffff16565b90507fb07e3bc4c23a2d5a3367eec63320a439a69fa5b14b5619ba643e23b3ab6ef8058383604051611f26929190613558565b60405180910390a1505b5050611f5b565b6000611f4e600d548361202b90919063ffffffff16565b9050611f59816124f1565b505b600660009054906101000a900473ffffffffffffffffffffffffffffffffffffffff1673ffffffffffffffffffffffffffffffffffffffff166370a08231306040518263ffffffff1660e01b8152600401611fb691906132a5565b60206040518083038186803b158015611fce57600080fd5b505afa158015611fe2573d6000803e3d6000fd5b505050506040513d601f19601f820116820180604052508101906120069190612b39565b600a819055506000600e60146101000a81548160ff021916908315150217905550505b565b60008282111561203a57600080fd5b600082840390508091505092915050565b6000808314156120c3576040517f08c379a00000000000000000000000000000000000000000000000000000000081526004018080602001828103825260138152602001807f7072696365206d757374206e6f7420626520300000000000000000000000000081525060200191505060405180910390fd5b6120d682670de0b6b3a7640000856125db565b905092915050565b6000808473ffffffffffffffffffffffffffffffffffffffff166040518060400160405280601981526020017f7472616e7366657228616464726573732c75696e7432353629000000000000008152508051906020012085856040516024016121489291906132f7565b604051602081830303815290604052907bffffffffffffffffffffffffffffffffffffffffffffffffffffffff19166020820180517bffffffffffffffffffffffffffffffffffffffffffffffffffffffff83818316178352505050506040516121b291906131e6565b6000604051808303816000865af19150503d80600081146121ef576040519150601f19603f3d011682016040523d82523d6000602084013e6121f4565b606091505b509150915081801561222257506000815114806122215750808060200190518101906122209190612a7d565b5b5b612261576040517f08c379a00000000000000000000000000000000000000000000000000000000081526004016122589061345d565b60405180910390fd5b5050505050565b6000808573ffffffffffffffffffffffffffffffffffffffff1660405180606001604052806025815260200161375760259139805190602001208686866040516024016122b7939291906132c0565b604051602081830303815290604052907bffffffffffffffffffffffffffffffffffffffffffffffffffffffff19166020820180517bffffffffffffffffffffffffffffffffffffffffffffffffffffffff838183161783525050505060405161232191906131e6565b6000604051808303816000865af19150503d806000811461235e576040519150601f19603f3d011682016040523d82523d6000602084013e612363565b606091505b5091509150818015612391575060008151148061239057508080602001905181019061238f9190612a7d565b5b5b6123d0576040517f08c379a00000000000000000000000000000000000000000000000000000000081526004016123c79061341d565b60405180910390fd5b505050505050565b60006123ed8284670de0b6b3a76400006125db565b905092915050565b60008082840190508381101561240a57600080fd5b8091505092915050565b600080612423600c548461204b565b90506000600860009054906101000a900473ffffffffffffffffffffffffffffffffffffffff16905060008173ffffffffffffffffffffffffffffffffffffffff1663f33ab2b8846040518263ffffffff1660e01b8152600401612487919061353d565b602060405180830381600087803b1580156124a157600080fd5b505af11580156124b5573d6000803e3d6000fd5b505050506040513d601f19601f820116820180604052508101906124d99190612b39565b90506124e7600c54826123d8565b9350505050919050565b60006124ff600c548361204b565b9050612550600660009054906101000a900473ffffffffffffffffffffffffffffffffffffffff16600860009054906101000a900473ffffffffffffffffffffffffffffffffffffffff16836120de565b600860009054906101000a900473ffffffffffffffffffffffffffffffffffffffff1673ffffffffffffffffffffffffffffffffffffffff163073ffffffffffffffffffffffffffffffffffffffff167f14395d6fb6ac3870af345d12d989b966ccf04dcdd9e02b95722d12dca39eb4b0836040516125cf919061353d565b60405180910390a35050565b60007001000000000000000000000000000000008410612663576040517f08c379a000000000000000000000000000000000000000000000000000000000815260040180806020018281038252600f8152602001807f56616c756520746f6f206c61726765000000000000000000000000000000000081525060200191505060405180910390fd5b70010000000000000000000000000000000083106126e9576040517f08c379a00000000000000000000000000000000000000000000000000000000081526004018080602001828103825260148152602001807f4e756d657261746f7220746f6f206c617267652000000000000000000000000081525060200191505060405180910390fd5b61270e82612700858761271790919063ffffffff16565b61275190919063ffffffff16565b90509392505050565b60008083141561272a576000905061274b565b600082840290508284828161273b57fe5b041461274657600080fd5b809150505b92915050565b600080821161275f57600080fd5b600082848161276a57fe5b0490508091505092915050565b828054600181600116156101000203166002900490600052602060002090601f0160209004810192826127ad57600085556127f4565b82601f106127c657805160ff19168380011785556127f4565b828001600101855582156127f4579182015b828111156127f35782518255916020019190600101906127d8565b5b5090506128019190612805565b5090565b5b8082111561281e576000816000905550600101612806565b5090565b6000612835612830846135cd565b61359c565b90508281526020810184848401111561284d57600080fd5b6128588482856136cb565b509392505050565b60008135905061286f81613711565b92915050565b60008151905061288481613728565b92915050565b600082601f83011261289b57600080fd5b81516128ab848260208601612822565b91505092915050565b6000606082840312156128c657600080fd5b6128d0606061359c565b905060006128e084828501612929565b60008301525060206128f484828501612929565b602083015250604061290884828501612929565b60408301525092915050565b6000813590506129238161373f565b92915050565b6000815190506129388161373f565b92915050565b60006020828403121561295057600080fd5b600061295e84828501612860565b91505092915050565b6000806040838503121561297a57600080fd5b600061298885828601612860565b925050602061299985828601612860565b9150509250929050565b6000806000606084860312156129b857600080fd5b60006129c686828701612860565b93505060206129d786828701612860565b92505060406129e886828701612860565b9150509250925092565b600080600060608486031215612a0757600080fd5b6000612a1586828701612860565b9350506020612a2686828701612860565b9250506040612a3786828701612914565b9150509250925092565b60008060408385031215612a5457600080fd5b6000612a6285828601612860565b9250506020612a7385828601612914565b9150509250929050565b600060208284031215612a8f57600080fd5b6000612a9d84828501612875565b91505092915050565b600060208284031215612ab857600080fd5b600082015167ffffffffffffffff811115612ad257600080fd5b612ade8482850161288a565b91505092915050565b600060608284031215612af957600080fd5b6000612b07848285016128b4565b91505092915050565b600060208284031215612b2257600080fd5b6000612b3084828501612914565b91505092915050565b600060208284031215612b4b57600080fd5b6000612b5984828501612929565b91505092915050565b612b6b81613664565b82525050565b612b7a81613676565b82525050565b6000612b8b82613627565b612b95818561363d565b9350612ba58185602086016136cb565b80840191505092915050565b600081546001811660008114612bce5760018114612bf357612c37565b607f6002830416612bdf818761363d565b955060ff1983168652808601935050612c37565b60028204612c01818761363d565b9550612c0c856135fd565b60005b82811015612c2e57815481890152600182019150602081019050612c0f565b82880195505050505b505092915050565b612c48816136b9565b82525050565b6000612c5982613632565b612c638185613648565b9350612c738185602086016136cb565b612c7c81613700565b840191505092915050565b600081546001811660008114612ca45760018114612cca57612d0e565b607f6002830416612cb58187613648565b955060ff198316865260208601935050612d0e565b60028204612cd88187613648565b9550612ce385613612565b60005b82811015612d0557815481890152600182019150602081019050612ce6565b80880195505050505b505092915050565b600081546001811660008114612d335760018114612d5857612d9c565b607f6002830416612d448187613659565b955060ff1983168652808601935050612d9c565b60028204612d668187613659565b9550612d7185613612565b60005b82811015612d9357815481890152600182019150602081019050612d74565b82880195505050505b505092915050565b6000612db1601083613648565b91507f4261642071756f746520616d6f756e74000000000000000000000000000000006000830152602082019050919050565b6000612df1602583613648565b91507f42455032303a207472616e736665722066726f6d20746865207a65726f20616460008301527f64726573730000000000000000000000000000000000000000000000000000006020830152604082019050919050565b6000612e57602483613648565b91507f42455032303a20617070726f76652066726f6d20746865207a65726f2061646460008301527f72657373000000000000000000000000000000000000000000000000000000006020830152604082019050919050565b6000612ebd601f83613648565b91507f546f6b656e43686f703a205452414e534645525f46524f4d5f4641494c4544006000830152602082019050919050565b6000612efd601d83613648565b91507f55706461746520636f6c6c61746572616c20696e2070726f67726573730000006000830152602082019050919050565b6000612f3d601a83613648565b91507f546f6b656e43686f703a205452414e534645525f4641494c45440000000000006000830152602082019050919050565b6000612f7d602883613648565b91507f42455032303a207472616e7366657220616d6f756e742065786365656473206160008301527f6c6c6f77616e63650000000000000000000000000000000000000000000000006020830152604082019050919050565b6000612fe3600483613659565b91507f57424e42000000000000000000000000000000000000000000000000000000006000830152600482019050919050565b6000613023602683613648565b91507f42455032303a207472616e7366657220616d6f756e742065786365656473206260008301527f616c616e636500000000000000000000000000000000000000000000000000006020830152604082019050919050565b6000613089602383613648565b91507f42455032303a207472616e7366657220746f20746865207a65726f206164647260008301527f65737300000000000000000000000000000000000000000000000000000000006020830152604082019050919050565b60006130ef601483613648565b91507f546f6b656e43686f703a20464f5242494444454e0000000000000000000000006000830152602082019050919050565b600061312f601e83613648565b91507f546f6b656e43686f703a20507269636520757064617465204661696c656400006000830152602082019050919050565b600061316f602283613648565b91507f42455032303a20617070726f766520746f20746865207a65726f20616464726560008301527f73730000000000000000000000000000000000000000000000000000000000006020830152604082019050919050565b6131d1816136a2565b82525050565b6131e0816136ac565b82525050565b60006131f28284612b80565b915081905092915050565b60006132098288612b80565b91506132158287612bb1565b91506132218286612b80565b915061322d8285612bb1565b91506132398284612b80565b91508190509695505050505050565b60006132548286612bb1565b91506132608285612bb1565b915061326c8284612b80565b9150819050949350505050565b60006132858284612d16565b915081905092915050565b600061329b82612fd6565b9150819050919050565b60006020820190506132ba6000830184612b62565b92915050565b60006060820190506132d56000830186612b62565b6132e26020830185612b62565b6132ef60408301846131c8565b949350505050565b600060408201905061330c6000830185612b62565b61331960208301846131c8565b9392505050565b60006020820190506133356000830184612b71565b92915050565b60006040820190506133506000830185612c3f565b61335d6020830184612c3f565b9392505050565b6000602082019050818103600083015261337e8184612c4e565b905092915050565b600060408201905081810360008301526133a08185612c87565b905081810360208301526133b48184612c87565b90509392505050565b600060208201905081810360008301526133d681612da4565b9050919050565b600060208201905081810360008301526133f681612de4565b9050919050565b6000602082019050818103600083015261341681612e4a565b9050919050565b6000602082019050818103600083015261343681612eb0565b9050919050565b6000602082019050818103600083015261345681612ef0565b9050919050565b6000602082019050818103600083015261347681612f30565b9050919050565b6000602082019050818103600083015261349681612f70565b9050919050565b600060208201905081810360008301526134b681613016565b9050919050565b600060208201905081810360008301526134d68161307c565b9050919050565b600060208201905081810360008301526134f6816130e2565b9050919050565b6000602082019050818103600083015261351681613122565b9050919050565b6000602082019050818103600083015261353681613162565b9050919050565b600060208201905061355260008301846131c8565b92915050565b600060408201905061356d60008301856131c8565b61357a60208301846131c8565b9392505050565b600060208201905061359660008301846131d7565b92915050565b6000604051905081810181811067ffffffffffffffff821117156135c3576135c26136fe565b5b8060405250919050565b600067ffffffffffffffff8211156135e8576135e76136fe565b5b601f19601f8301169050602081019050919050565b60008190508160005260206000209050919050565b60008190508160005260206000209050919050565b600081519050919050565b600081519050919050565b600081905092915050565b600082825260208201905092915050565b600081905092915050565b600061366f82613682565b9050919050565b60008115159050919050565b600073ffffffffffffffffffffffffffffffffffffffff82169050919050565b6000819050919050565b600060ff82169050919050565b60006136c4826136a2565b9050919050565b60005b838110156136e95780820151818401526020810190506136ce565b838111156136f8576000848401525b50505050565bfe5b6000601f19601f8301169050919050565b61371a81613664565b811461372557600080fd5b50565b61373181613676565b811461373c57600080fd5b50565b613748816136a2565b811461375357600080fd5b5056fe7472616e7366657246726f6d28616464726573732c616464726573732c75696e7432353629a264697066735822122007a44db21a1f3c599c460ee955325f8114b40675a0293047af98feedf6e0104764736f6c63430007060033608060405234801561001057600080fd5b5033600960006101000a81548173ffffffffffffffffffffffffffffffffffffffff021916908373ffffffffffffffffffffffffffffffffffffffff160217905550612f2f806100616000396000f3fe608060405234801561001057600080fd5b506004361061018e5760003560e01c806395d89b41116100de578063c0c53b8b11610097578063d8dfeb4511610071578063d8dfeb4514610491578063dd62ed3e146104af578063f33ab2b8146104df578063f8ac93e81461050f5761018e565b8063c0c53b8b14610427578063c45a015514610443578063cd0b4aed146104615761018e565b806395d89b4114610361578063999b93af1461037f578063a035b1fe1461039d578063a9059cbb146103bb578063a9ed003d146103eb578063b1dd61b6146104095761018e565b80635001f3b51161014b57806380583be71161012557806380583be7146102e9578063893d20e8146103075780638f940f6314610325578063914e245a146103435761018e565b80635001f3b51461027d57806360d6df6e1461029b57806370a08231146102b95761018e565b806306fdde0314610193578063095ea7b3146101b157806318160ddd146101e157806323b872dd146101ff578063313ce5671461022f57806342966c681461024d575b600080fd5b61019b610519565b6040516101a89190612bd4565b60405180910390f35b6101cb60048036038101906101c6919061255b565b6105b7565b6040516101d89190612bb9565b60405180910390f35b6101e96105ce565b6040516101f69190612d16565b60405180910390f35b6102196004803603810190610214919061250c565b6105d4565b6040516102269190612bb9565b60405180910390f35b610237610734565b6040516102449190612d31565b60405180910390f35b61026760048036038101906102629190612601565b61073d565b6040516102749190612bb9565b60405180910390f35b610285610a9c565b6040516102929190612b3e565b60405180910390f35b6102a3610ac2565b6040516102b09190612bd4565b60405180910390f35b6102d360048036038101906102ce9190612458565b610b60565b6040516102e09190612d16565b60405180910390f35b6102f1610b78565b6040516102fe9190612bd4565b60405180910390f35b61030f610c16565b60405161031c9190612b3e565b60405180910390f35b61032d610c40565b60405161033a9190612d31565b60405180910390f35b61034b610c45565b6040516103589190612d16565b60405180910390f35b610369610c4b565b6040516103769190612bd4565b60405180910390f35b610387610ce9565b6040516103949190612b3e565b60405180910390f35b6103a5610d0f565b6040516103b29190612d16565b60405180910390f35b6103d560048036038101906103d0919061255b565b610d15565b6040516103e29190612bb9565b60405180910390f35b6103f3610d2c565b6040516104009190612b3e565b60405180910390f35b610411610d52565b60405161041e9190612bd4565b60405180910390f35b610441600480360381019061043c91906124bd565b610d8b565b005b61044b6111a9565b6040516104589190612b3e565b60405180910390f35b61047b60048036038101906104769190612601565b6111cf565b6040516104889190612bb9565b60405180910390f35b6104996114ff565b6040516104a69190612d16565b60405180910390f35b6104c960048036038101906104c49190612481565b611505565b6040516104d69190612d16565b60405180910390f35b6104f960048036038101906104f49190612601565b61152a565b6040516105069190612d16565b60405180910390f35b610517611763565b005b60028054600181600116156101000203166002900480601f0160208091040260200160405190810160405280929190818152602001828054600181600116156101000203166002900480156105af5780601f10610584576101008083540402835291602001916105af565b820191906000526020600020905b81548152906001019060200180831161059257829003601f168201915b505050505081565b60006105c433848461181e565b6001905092915050565b600d5481565b60006105e18484846119e9565b81600160008673ffffffffffffffffffffffffffffffffffffffff1673ffffffffffffffffffffffffffffffffffffffff16815260200190815260200160002060003373ffffffffffffffffffffffffffffffffffffffff1673ffffffffffffffffffffffffffffffffffffffff1681526020019081526020016000205410156106a0576040517f08c379a000000000000000000000000000000000000000000000000000000000815260040161069790612c76565b60405180910390fd5b610729843384600160008973ffffffffffffffffffffffffffffffffffffffff1673ffffffffffffffffffffffffffffffffffffffff16815260200190815260200160002060003373ffffffffffffffffffffffffffffffffffffffff1673ffffffffffffffffffffffffffffffffffffffff168152602001908152602001600020540361181e565b600190509392505050565b60006012905090565b60008060003373ffffffffffffffffffffffffffffffffffffffff1673ffffffffffffffffffffffffffffffffffffffff1681526020019081526020016000205482111561078a57600080fd5b6107db826000803373ffffffffffffffffffffffffffffffffffffffff1673ffffffffffffffffffffffffffffffffffffffff16815260200190815260200160002054611cda90919063ffffffff16565b6000803373ffffffffffffffffffffffffffffffffffffffff1673ffffffffffffffffffffffffffffffffffffffff16815260200190815260200160002081905550610825611cfa565b600660009054906101000a900473ffffffffffffffffffffffffffffffffffffffff1673ffffffffffffffffffffffffffffffffffffffff166370a08231306040518263ffffffff1660e01b81526004016108809190612b3e565b60206040518083038186803b15801561089857600080fd5b505afa1580156108ac573d6000803e3d6000fd5b505050506040513d601f19601f820116820180604052508101906108d0919061262a565b600a8190555060006108e7600d54600a5485611d7e565b9050610916600660009054906101000a900473ffffffffffffffffffffffffffffffffffffffff163383611e0a565b600660009054906101000a900473ffffffffffffffffffffffffffffffffffffffff1673ffffffffffffffffffffffffffffffffffffffff166370a08231306040518263ffffffff1660e01b81526004016109719190612b3e565b60206040518083038186803b15801561098957600080fd5b505afa15801561099d573d6000803e3d6000fd5b505050506040513d601f19601f820116820180604052508101906109c1919061262a565b600a81905550600073ffffffffffffffffffffffffffffffffffffffff163373ffffffffffffffffffffffffffffffffffffffff167fddf252ad1be2c89b69c2b068fc378daa952ba7f163c4a11628f55a4df523b3ef85604051610a259190612d16565b60405180910390a33373ffffffffffffffffffffffffffffffffffffffff163073ffffffffffffffffffffffffffffffffffffffff167f14395d6fb6ac3870af345d12d989b966ccf04dcdd9e02b95722d12dca39eb4b083604051610a8a9190612d16565b60405180910390a36001915050919050565b600660009054906101000a900473ffffffffffffffffffffffffffffffffffffffff1681565b60058054600181600116156101000203166002900480601f016020809104026020016040519081016040528092919081815260200182805460018160011615610100020316600290048015610b585780601f10610b2d57610100808354040283529160200191610b58565b820191906000526020600020905b815481529060010190602001808311610b3b57829003601f168201915b505050505081565b60006020528060005260406000206000915090505481565b60048054600181600116156101000203166002900480601f016020809104026020016040519081016040528092919081815260200182805460018160011615610100020316600290048015610c0e5780601f10610be357610100808354040283529160200191610c0e565b820191906000526020600020905b815481529060010190602001808311610bf157829003601f168201915b505050505081565b6000600960009054906101000a900473ffffffffffffffffffffffffffffffffffffffff16905090565b600181565b600b5481565b60038054600181600116156101000203166002900480601f016020809104026020016040519081016040528092919081815260200182805460018160011615610100020316600290048015610ce15780601f10610cb657610100808354040283529160200191610ce1565b820191906000526020600020905b815481529060010190602001808311610cc457829003601f168201915b505050505081565b600760009054906101000a900473ffffffffffffffffffffffffffffffffffffffff1681565b600c5481565b6000610d223384846119e9565b6001905092915050565b600860009054906101000a900473ffffffffffffffffffffffffffffffffffffffff1681565b6040518060400160405280600481526020017f537065630000000000000000000000000000000000000000000000000000000081525081565b600960009054906101000a900473ffffffffffffffffffffffffffffffffffffffff1673ffffffffffffffffffffffffffffffffffffffff163373ffffffffffffffffffffffffffffffffffffffff1614610e1b576040517f08c379a0000000000000000000000000000000000000000000000000000000008152600401610e1290612cd6565b60405180910390fd5b82600660006101000a81548173ffffffffffffffffffffffffffffffffffffffff021916908373ffffffffffffffffffffffffffffffffffffffff16021790555081600760006101000a81548173ffffffffffffffffffffffffffffffffffffffff021916908373ffffffffffffffffffffffffffffffffffffffff16021790555080600860006101000a81548173ffffffffffffffffffffffffffffffffffffffff021916908373ffffffffffffffffffffffffffffffffffffffff160217905550600660009054906101000a900473ffffffffffffffffffffffffffffffffffffffff1673ffffffffffffffffffffffffffffffffffffffff166395d89b416040518163ffffffff1660e01b815260040160006040518083038186803b158015610f4657600080fd5b505afa158015610f5a573d6000803e3d6000fd5b505050506040513d6000823e3d601f19601f82011682018060405250810190610f8391906125c0565b60049080519060200190610f989291906122f1565b50600760009054906101000a900473ffffffffffffffffffffffffffffffffffffffff1673ffffffffffffffffffffffffffffffffffffffff166395d89b416040518163ffffffff1660e01b815260040160006040518083038186803b15801561100157600080fd5b505afa158015611015573d6000803e3d6000fd5b505050506040513d6000823e3d601f19601f8201168201806040525081019061103e91906125c0565b600590805190602001906110539291906122f1565b506040518060400160405280600b81526020017f546f6b656e43686f703a2000000000000000000000000000000000000000000081525060046040518060400160405280600181526020017f2f0000000000000000000000000000000000000000000000000000000000000081525060056040518060400160405280600581526020017f205370656300000000000000000000000000000000000000000000000000000081525060405160200161110e959493929190612ac2565b604051602081830303815290604052600290805190602001906111329291906122f1565b50600460056040518060400160405280600181526020017f310000000000000000000000000000000000000000000000000000000000000081525060405160200161117f93929190612b0d565b604051602081830303815290604052600390805190602001906111a39291906122f1565b50505050565b600960009054906101000a900473ffffffffffffffffffffffffffffffffffffffff1681565b60006111d9611cfa565b600660009054906101000a900473ffffffffffffffffffffffffffffffffffffffff1673ffffffffffffffffffffffffffffffffffffffff166370a08231306040518263ffffffff1660e01b81526004016112349190612b3e565b60206040518083038186803b15801561124c57600080fd5b505afa158015611260573d6000803e3d6000fd5b505050506040513d601f19601f82011682018060405250810190611284919061262a565b600a81905550600061129b600d54600a5485611f94565b90506112cb600660009054906101000a900473ffffffffffffffffffffffffffffffffffffffff16333086611fc6565b61131c816000803373ffffffffffffffffffffffffffffffffffffffff1673ffffffffffffffffffffffffffffffffffffffff1681526020019081526020016000205461213690919063ffffffff16565b6000803373ffffffffffffffffffffffffffffffffffffffff1673ffffffffffffffffffffffffffffffffffffffff1681526020019081526020016000208190555061137381600d5461213690919063ffffffff16565b600d81905550600660009054906101000a900473ffffffffffffffffffffffffffffffffffffffff1673ffffffffffffffffffffffffffffffffffffffff166370a08231306040518263ffffffff1660e01b81526004016113d49190612b3e565b60206040518083038186803b1580156113ec57600080fd5b505afa158015611400573d6000803e3d6000fd5b505050506040513d601f19601f82011682018060405250810190611424919061262a565b600a819055503373ffffffffffffffffffffffffffffffffffffffff16600073ffffffffffffffffffffffffffffffffffffffff167fddf252ad1be2c89b69c2b068fc378daa952ba7f163c4a11628f55a4df523b3ef836040516114889190612d16565b60405180910390a33073ffffffffffffffffffffffffffffffffffffffff163373ffffffffffffffffffffffffffffffffffffffff167f14395d6fb6ac3870af345d12d989b966ccf04dcdd9e02b95722d12dca39eb4b0856040516114ed9190612d16565b60405180910390a36001915050919050565b600a5481565b6001602052816000526040600020602052806000526040600020600091509150505481565b6000600860009054906101000a900473ffffffffffffffffffffffffffffffffffffffff1673ffffffffffffffffffffffffffffffffffffffff163373ffffffffffffffffffffffffffffffffffffffff16146115bc576040517f08c379a00000000000000000000000000000000000000000000000000000000081526004016115b390612cd6565b60405180910390fd5b600082600a54106115cd57826115d1565b600a545b9050611622600660009054906101000a900473ffffffffffffffffffffffffffffffffffffffff16600860009054906101000a900473ffffffffffffffffffffffffffffffffffffffff1683611e0a565b600660009054906101000a900473ffffffffffffffffffffffffffffffffffffffff1673ffffffffffffffffffffffffffffffffffffffff166370a08231306040518263ffffffff1660e01b815260040161167d9190612b3e565b60206040518083038186803b15801561169557600080fd5b505afa1580156116a9573d6000803e3d6000fd5b505050506040513d601f19601f820116820180604052508101906116cd919061262a565b600a81905550600860009054906101000a900473ffffffffffffffffffffffffffffffffffffffff1673ffffffffffffffffffffffffffffffffffffffff163073ffffffffffffffffffffffffffffffffffffffff167f14395d6fb6ac3870af345d12d989b966ccf04dcdd9e02b95722d12dca39eb4b0836040516117529190612d16565b60405180910390a380915050919050565b61176b611cfa565b600660009054906101000a900473ffffffffffffffffffffffffffffffffffffffff1673ffffffffffffffffffffffffffffffffffffffff166370a08231306040518263ffffffff1660e01b81526004016117c69190612b3e565b60206040518083038186803b1580156117de57600080fd5b505afa1580156117f2573d6000803e3d6000fd5b505050506040513d601f19601f82011682018060405250810190611816919061262a565b600a81905550565b600073ffffffffffffffffffffffffffffffffffffffff168373ffffffffffffffffffffffffffffffffffffffff16141561188e576040517f08c379a000000000000000000000000000000000000000000000000000000000815260040161188590612c16565b60405180910390fd5b600073ffffffffffffffffffffffffffffffffffffffff168273ffffffffffffffffffffffffffffffffffffffff1614156118fe576040517f08c379a00000000000000000000000000000000000000000000000000000000081526004016118f590612cf6565b60405180910390fd5b80600160008573ffffffffffffffffffffffffffffffffffffffff1673ffffffffffffffffffffffffffffffffffffffff16815260200190815260200160002060008473ffffffffffffffffffffffffffffffffffffffff1673ffffffffffffffffffffffffffffffffffffffff168152602001908152602001600020819055508173ffffffffffffffffffffffffffffffffffffffff168373ffffffffffffffffffffffffffffffffffffffff167f8c5be1e5ebec7d5bd14f71427d1e84f3dd0314c0f7b2291e5b200ac8c7c3b925836040516119dc9190612d16565b60405180910390a3505050565b600073ffffffffffffffffffffffffffffffffffffffff168373ffffffffffffffffffffffffffffffffffffffff161415611a59576040517f08c379a0000000000000000000000000000000000000000000000000000000008152600401611a5090612bf6565b60405180910390fd5b600073ffffffffffffffffffffffffffffffffffffffff168273ffffffffffffffffffffffffffffffffffffffff161415611ac9576040517f08c379a0000000000000000000000000000000000000000000000000000000008152600401611ac090612cb6565b60405180910390fd5b806000808573ffffffffffffffffffffffffffffffffffffffff1673ffffffffffffffffffffffffffffffffffffffff168152602001908152602001600020541015611b4a576040517f08c379a0000000000000000000000000000000000000000000000000000000008152600401611b4190612c96565b60405180910390fd5b611b9b816000808673ffffffffffffffffffffffffffffffffffffffff1673ffffffffffffffffffffffffffffffffffffffff16815260200190815260200160002054611cda90919063ffffffff16565b6000808573ffffffffffffffffffffffffffffffffffffffff1673ffffffffffffffffffffffffffffffffffffffff16815260200190815260200160002081905550611c2e816000808573ffffffffffffffffffffffffffffffffffffffff1673ffffffffffffffffffffffffffffffffffffffff1681526020019081526020016000205461213690919063ffffffff16565b6000808473ffffffffffffffffffffffffffffffffffffffff1673ffffffffffffffffffffffffffffffffffffffff168152602001908152602001600020819055508173ffffffffffffffffffffffffffffffffffffffff168373ffffffffffffffffffffffffffffffffffffffff167fddf252ad1be2c89b69c2b068fc378daa952ba7f163c4a11628f55a4df523b3ef83604051611ccd9190612d16565b60405180910390a3505050565b600082821115611ce957600080fd5b600082840390508091505092915050565b600860009054906101000a900473ffffffffffffffffffffffffffffffffffffffff1673ffffffffffffffffffffffffffffffffffffffff166365f4fea76040518163ffffffff1660e01b8152600401600060405180830381600087803b158015611d6457600080fd5b505af1158015611d78573d6000803e3d6000fd5b50505050565b600080841415611df6576040517f08c379a000000000000000000000000000000000000000000000000000000000815260040180806020018281038252601a8152602001807f737570706c79416d6f756e74206d757374206e6f74206265203000000000000081525060200191505060405180910390fd5b611e01828486612155565b90509392505050565b6000808473ffffffffffffffffffffffffffffffffffffffff166040518060400160405280601981526020017f7472616e7366657228616464726573732c75696e743235362900000000000000815250805190602001208585604051602401611e74929190612b90565b604051602081830303815290604052907bffffffffffffffffffffffffffffffffffffffffffffffffffffffff19166020820180517bffffffffffffffffffffffffffffffffffffffffffffffffffffffff8381831617835250505050604051611ede9190612aab565b6000604051808303816000865af19150503d8060008114611f1b576040519150601f19603f3d011682016040523d82523d6000602084013e611f20565b606091505b5091509150818015611f4e5750600081511480611f4d575080806020019051810190611f4c9190612597565b5b5b611f8d576040517f08c379a0000000000000000000000000000000000000000000000000000000008152600401611f8490612c56565b60405180910390fd5b5050505050565b600080831480611fa45750600084145b15611fb157819050611fbf565b611fbc828585612155565b90505b9392505050565b6000808573ffffffffffffffffffffffffffffffffffffffff16604051806060016040528060258152602001612ed5602591398051906020012086868660405160240161201593929190612b59565b604051602081830303815290604052907bffffffffffffffffffffffffffffffffffffffffffffffffffffffff19166020820180517bffffffffffffffffffffffffffffffffffffffffffffffffffffffff838183161783525050505060405161207f9190612aab565b6000604051808303816000865af19150503d80600081146120bc576040519150601f19603f3d011682016040523d82523d6000602084013e6120c1565b606091505b50915091508180156120ef57506000815114806120ee5750808060200190518101906120ed9190612597565b5b5b61212e576040517f08c379a000000000000000000000000000000000000000000000000000000000815260040161212590612c36565b60405180910390fd5b505050505050565b60008082840190508381101561214b57600080fd5b8091505092915050565b600070010000000000000000000000000000000084106121dd576040517f08c379a000000000000000000000000000000000000000000000000000000000815260040180806020018281038252600f8152602001807f56616c756520746f6f206c61726765000000000000000000000000000000000081525060200191505060405180910390fd5b7001000000000000000000000000000000008310612263576040517f08c379a00000000000000000000000000000000000000000000000000000000081526004018080602001828103825260148152602001807f4e756d657261746f7220746f6f206c617267652000000000000000000000000081525060200191505060405180910390fd5b6122888261227a858761229190919063ffffffff16565b6122cb90919063ffffffff16565b90509392505050565b6000808314156122a457600090506122c5565b60008284029050828482816122b557fe5b04146122c057600080fd5b809150505b92915050565b60008082116122d957600080fd5b60008284816122e457fe5b0490508091505092915050565b828054600181600116156101000203166002900490600052602060002090601f016020900481019282612327576000855561236e565b82601f1061234057805160ff191683800117855561236e565b8280016001018555821561236e579182015b8281111561236d578251825591602001919060010190612352565b5b50905061237b919061237f565b5090565b5b80821115612398576000816000905550600101612380565b5090565b60006123af6123aa84612d7d565b612d4c565b9050828152602081018484840111156123c757600080fd5b6123d2848285612e49565b509392505050565b6000813590506123e981612e8f565b92915050565b6000815190506123fe81612ea6565b92915050565b600082601f83011261241557600080fd5b815161242584826020860161239c565b91505092915050565b60008135905061243d81612ebd565b92915050565b60008151905061245281612ebd565b92915050565b60006020828403121561246a57600080fd5b6000612478848285016123da565b91505092915050565b6000806040838503121561249457600080fd5b60006124a2858286016123da565b92505060206124b3858286016123da565b9150509250929050565b6000806000606084860312156124d257600080fd5b60006124e0868287016123da565b93505060206124f1868287016123da565b9250506040612502868287016123da565b9150509250925092565b60008060006060848603121561252157600080fd5b600061252f868287016123da565b9350506020612540868287016123da565b92505060406125518682870161242e565b9150509250925092565b6000806040838503121561256e57600080fd5b600061257c858286016123da565b925050602061258d8582860161242e565b9150509250929050565b6000602082840312156125a957600080fd5b60006125b7848285016123ef565b91505092915050565b6000602082840312156125d257600080fd5b600082015167ffffffffffffffff8111156125ec57600080fd5b6125f884828501612404565b91505092915050565b60006020828403121561261357600080fd5b60006126218482850161242e565b91505092915050565b60006020828403121561263c57600080fd5b600061264a84828501612443565b91505092915050565b61265c81612df4565b82525050565b61266b81612e06565b82525050565b600061267c82612dc2565b6126868185612dd8565b9350612696818560208601612e49565b80840191505092915050565b6000815460018116600081146126bf57600181146126e457612728565b607f60028304166126d08187612dd8565b955060ff1983168652808601935050612728565b600282046126f28187612dd8565b95506126fd85612dad565b60005b8281101561271f57815481890152600182019150602081019050612700565b82880195505050505b505092915050565b600061273b82612dcd565b6127458185612de3565b9350612755818560208601612e49565b61275e81612e7e565b840191505092915050565b6000612776602583612de3565b91507f42455032303a207472616e736665722066726f6d20746865207a65726f20616460008301527f64726573730000000000000000000000000000000000000000000000000000006020830152604082019050919050565b60006127dc602483612de3565b91507f42455032303a20617070726f76652066726f6d20746865207a65726f2061646460008301527f72657373000000000000000000000000000000000000000000000000000000006020830152604082019050919050565b6000612842601f83612de3565b91507f546f6b656e43686f703a205452414e534645525f46524f4d5f4641494c4544006000830152602082019050919050565b6000612882601a83612de3565b91507f546f6b656e43686f703a205452414e534645525f4641494c45440000000000006000830152602082019050919050565b60006128c2602883612de3565b91507f42455032303a207472616e7366657220616d6f756e742065786365656473206160008301527f6c6c6f77616e63650000000000000000000000000000000000000000000000006020830152604082019050919050565b6000612928602683612de3565b91507f42455032303a207472616e7366657220616d6f756e742065786365656473206260008301527f616c616e636500000000000000000000000000000000000000000000000000006020830152604082019050919050565b600061298e602383612de3565b91507f42455032303a207472616e7366657220746f20746865207a65726f206164647260008301527f65737300000000000000000000000000000000000000000000000000000000006020830152604082019050919050565b60006129f4601483612de3565b91507f546f6b656e43686f703a20464f5242494444454e0000000000000000000000006000830152602082019050919050565b6000612a34602283612de3565b91507f42455032303a20617070726f766520746f20746865207a65726f20616464726560008301527f73730000000000000000000000000000000000000000000000000000000000006020830152604082019050919050565b612a9681612e32565b82525050565b612aa581612e3c565b82525050565b6000612ab78284612671565b915081905092915050565b6000612ace8288612671565b9150612ada82876126a2565b9150612ae68286612671565b9150612af282856126a2565b9150612afe8284612671565b91508190509695505050505050565b6000612b1982866126a2565b9150612b2582856126a2565b9150612b318284612671565b9150819050949350505050565b6000602082019050612b536000830184612653565b92915050565b6000606082019050612b6e6000830186612653565b612b7b6020830185612653565b612b886040830184612a8d565b949350505050565b6000604082019050612ba56000830185612653565b612bb26020830184612a8d565b9392505050565b6000602082019050612bce6000830184612662565b92915050565b60006020820190508181036000830152612bee8184612730565b905092915050565b60006020820190508181036000830152612c0f81612769565b9050919050565b60006020820190508181036000830152612c2f816127cf565b9050919050565b60006020820190508181036000830152612c4f81612835565b9050919050565b60006020820190508181036000830152612c6f81612875565b9050919050565b60006020820190508181036000830152612c8f816128b5565b9050919050565b60006020820190508181036000830152612caf8161291b565b9050919050565b60006020820190508181036000830152612ccf81612981565b9050919050565b60006020820190508181036000830152612cef816129e7565b9050919050565b60006020820190508181036000830152612d0f81612a27565b9050919050565b6000602082019050612d2b6000830184612a8d565b92915050565b6000602082019050612d466000830184612a9c565b92915050565b6000604051905081810181811067ffffffffffffffff82111715612d7357612d72612e7c565b5b8060405250919050565b600067ffffffffffffffff821115612d9857612d97612e7c565b5b601f19601f8301169050602081019050919050565b60008190508160005260206000209050919050565b600081519050919050565b600081519050919050565b600081905092915050565b600082825260208201905092915050565b6000612dff82612e12565b9050919050565b60008115159050919050565b600073ffffffffffffffffffffffffffffffffffffffff82169050919050565b6000819050919050565b600060ff82169050919050565b60005b83811015612e67578082015181840152602081019050612e4c565b83811115612e76576000848401525b50505050565bfe5b6000601f19601f8301169050919050565b612e9881612df4565b8114612ea357600080fd5b50565b612eaf81612e06565b8114612eba57600080fd5b50565b612ec681612e32565b8114612ed157600080fd5b5056fe7472616e7366657246726f6d28616464726573732c616464726573732c75696e7432353629a264697066735822122006bdd945436dd7f98247c89bf41ab6685eed7721f238cdff5acc572a90b69ae664736f6c63430007060033a2646970667358221220f23945c0ea7f9246cf0f92b7a3e9d3db000295933c87f26664ec1594c83b27e164736f6c63430007060033",
  "immutableReferences": {},
  "source": "// SPDX-License-Identifier: MIT\r\npragma solidity =0.7.6;\r\n\r\nimport './interfaces/ITokenChopFactory.sol';\r\nimport './TokenChopStable.sol';\r\nimport './TokenChopSpec.sol';\r\n\r\ncontract TokenChopFactory is ITokenChopFactory {\r\n    address public override feeTo;\r\n    address public override feeToSetter;\r\n    address public bandAddr;\r\n\r\n    mapping(address => mapping(address => address)) public override getStableAddress;\r\n    mapping(address => mapping(address => address)) public override getSpecAddress;\r\n    address[] public override allStable;\r\n    address[] public override allSpec;\r\n\r\n    constructor(address _feeToSetter, address _bandAddr) {\r\n        feeToSetter = _feeToSetter;\r\n        bandAddr = _bandAddr;\r\n    }\r\n\r\n    function allPairsLength() external view override returns (uint) {\r\n        return allStable.length;\r\n    }\r\n    \r\n    // base/quote. i.e. ETH/USD = 1200, One ETH is 1200 USD\r\n    function createPair(address _base, address _quote) external override returns (address stable, address spec) {\r\n        require(_base != _quote, 'TokenChop: IDENTICAL_ADDRESSES');\r\n        require(_base != address(0) && _quote != address(0), 'TokenChop: ZERO_ADDRESS');\r\n        require(getStableAddress[_base][_quote] == address(0), 'TokenChop: STABLE_EXISTS');\r\n        require(getSpecAddress[_base][_quote] == address(0), 'TokenChop: SPEC_EXISTS');\r\n        bytes memory stableBytecode = type(TokenChopStable).creationCode;\r\n        bytes32 stableSalt = keccak256(abi.encodePacked(\"Stable\", _base, _quote));\r\n        address stableToken;\r\n        assembly {\r\n            stableToken := create2(0, add(stableBytecode, 32), mload(stableBytecode), stableSalt)\r\n        }\r\n        address specToken;\r\n        bytes memory specBytecode = type(TokenChopSpec).creationCode;\r\n        bytes32 specSalt = keccak256(abi.encodePacked(\"Spec\", _base, _quote));\r\n        assembly {\r\n            specToken := create2(0, add(specBytecode, 32), mload(specBytecode), specSalt)\r\n        }\r\n        ITokenChopToken(stableToken).initialize(_base, _quote, specToken);\r\n        //ITokenChopToken(stableToken).setBandAddress(bandAddr);\r\n        ITokenChopToken(specToken).initialize(_base, _quote, stableToken);\r\n        getStableAddress[_base][_quote] = stableToken;\r\n        getSpecAddress[_base][_quote] = specToken;\r\n        allStable.push(stableToken);\r\n        allSpec.push(specToken);\r\n        emit PairCreated(_base, _quote, stableToken, specToken, allStable.length);\r\n        return (stableToken, specToken);\r\n    }\r\n\r\n    function setFeeTo(address _feeTo) external override {\r\n        require(msg.sender == feeToSetter, 'TokenChop: FORBIDDEN');\r\n        feeTo = _feeTo;\r\n    }\r\n\r\n    function setFeeToSetter(address _feeToSetter) external override {\r\n        require(msg.sender == feeToSetter, 'TokenChop: FORBIDDEN');\r\n        feeToSetter = _feeToSetter;\r\n    }\r\n}\r\n",
  "sourcePath": "C:/Repos/tokenchop/contracts/TokenChopFactory.sol",
  "compiler": {
    "name": "solc",
    "version": "0.7.6+commit.7338295f.Emscripten.clang"
  },
  "schemaVersion": "3.3.3",
  "updatedAt": "2021-02-12T20:42:14.210Z",
  "networkType": "ethereum",
  "devdoc": {
    "kind": "dev",
    "methods": {},
    "version": 1
  },
  "userdoc": {
    "kind": "user",
    "methods": {},
    "version": 1
  }
}