{
  "contractName": "TokenChopFactory",
  "abi": [
    {
      "inputs": [
        {
          "internalType": "address",
          "name": "_feeToSetter",
          "type": "address"
        },
        {
          "internalType": "address",
          "name": "_bandAddr",
          "type": "address"
        }
      ],
      "stateMutability": "nonpayable",
      "type": "constructor"
    },
    {
      "anonymous": false,
      "inputs": [
        {
          "indexed": true,
          "internalType": "address",
          "name": "base",
          "type": "address"
        },
        {
          "indexed": true,
          "internalType": "address",
          "name": "quote",
          "type": "address"
        },
        {
          "indexed": false,
          "internalType": "address",
          "name": "stable",
          "type": "address"
        },
        {
          "indexed": false,
          "internalType": "address",
          "name": "spec",
          "type": "address"
        },
        {
          "indexed": false,
          "internalType": "uint256",
          "name": "",
          "type": "uint256"
        }
      ],
      "name": "PairCreated",
      "type": "event"
    },
    {
      "inputs": [
        {
          "internalType": "uint256",
          "name": "",
          "type": "uint256"
        }
      ],
      "name": "allSpec",
      "outputs": [
        {
          "internalType": "address",
          "name": "",
          "type": "address"
        }
      ],
      "stateMutability": "view",
      "type": "function",
      "constant": true
    },
    {
      "inputs": [
        {
          "internalType": "uint256",
          "name": "",
          "type": "uint256"
        }
      ],
      "name": "allStable",
      "outputs": [
        {
          "internalType": "address",
          "name": "",
          "type": "address"
        }
      ],
      "stateMutability": "view",
      "type": "function",
      "constant": true
    },
    {
      "inputs": [],
      "name": "bandAddr",
      "outputs": [
        {
          "internalType": "address",
          "name": "",
          "type": "address"
        }
      ],
      "stateMutability": "view",
      "type": "function",
      "constant": true
    },
    {
      "inputs": [],
      "name": "feeTo",
      "outputs": [
        {
          "internalType": "address",
          "name": "",
          "type": "address"
        }
      ],
      "stateMutability": "view",
      "type": "function",
      "constant": true
    },
    {
      "inputs": [],
      "name": "feeToSetter",
      "outputs": [
        {
          "internalType": "address",
          "name": "",
          "type": "address"
        }
      ],
      "stateMutability": "view",
      "type": "function",
      "constant": true
    },
    {
      "inputs": [
        {
          "internalType": "address",
          "name": "",
          "type": "address"
        },
        {
          "internalType": "address",
          "name": "",
          "type": "address"
        }
      ],
      "name": "getSpecAddress",
      "outputs": [
        {
          "internalType": "address",
          "name": "",
          "type": "address"
        }
      ],
      "stateMutability": "view",
      "type": "function",
      "constant": true
    },
    {
      "inputs": [
        {
          "internalType": "address",
          "name": "",
          "type": "address"
        },
        {
          "internalType": "address",
          "name": "",
          "type": "address"
        }
      ],
      "name": "getStableAddress",
      "outputs": [
        {
          "internalType": "address",
          "name": "",
          "type": "address"
        }
      ],
      "stateMutability": "view",
      "type": "function",
      "constant": true
    },
    {
      "inputs": [],
      "name": "allPairsLength",
      "outputs": [
        {
          "internalType": "uint256",
          "name": "",
          "type": "uint256"
        }
      ],
      "stateMutability": "view",
      "type": "function",
      "constant": true
    },
    {
      "inputs": [
        {
          "internalType": "address",
          "name": "_base",
          "type": "address"
        },
        {
          "internalType": "address",
          "name": "_quote",
          "type": "address"
        }
      ],
      "name": "createPair",
      "outputs": [
        {
          "internalType": "address",
          "name": "stable",
          "type": "address"
        },
        {
          "internalType": "address",
          "name": "spec",
          "type": "address"
        }
      ],
      "stateMutability": "nonpayable",
      "type": "function"
    },
    {
      "inputs": [
        {
          "internalType": "address",
          "name": "_feeTo",
          "type": "address"
        }
      ],
      "name": "setFeeTo",
      "outputs": [],
      "stateMutability": "nonpayable",
      "type": "function"
    },
    {
      "inputs": [
        {
          "internalType": "address",
          "name": "_feeToSetter",
          "type": "address"
        }
      ],
      "name": "setFeeToSetter",
      "outputs": [],
      "stateMutability": "nonpayable",
      "type": "function"
    }
  ],
  "bytecode": "0x608060405234801561001057600080fd5b506040516173103803806173108339818101604052604081101561003357600080fd5b81019080805190602001909291908051906020019092919050505081600160006101000a81548173ffffffffffffffffffffffffffffffffffffffff021916908373ffffffffffffffffffffffffffffffffffffffff16021790555080600260006101000a81548173ffffffffffffffffffffffffffffffffffffffff021916908373ffffffffffffffffffffffffffffffffffffffff160217905550505061722f806100e16000396000f3fe608060405234801561001057600080fd5b50600436106100a95760003560e01c8063574f2ba311610071578063574f2ba314610254578063a2e74af614610272578063c14acd65146102b6578063c9c6539614610344578063cee02166146103ef578063f46901ed14610423576100a9565b8063017e7e58146100ae578063094b7415146100e25780632a3672cd146101165780634fefba731461016e57806352df6096146101fc575b600080fd5b6100b6610467565b604051808273ffffffffffffffffffffffffffffffffffffffff16815260200191505060405180910390f35b6100ea61048b565b604051808273ffffffffffffffffffffffffffffffffffffffff16815260200191505060405180910390f35b6101426004803603602081101561012c57600080fd5b81019080803590602001909291905050506104b1565b604051808273ffffffffffffffffffffffffffffffffffffffff16815260200191505060405180910390f35b6101d06004803603604081101561018457600080fd5b81019080803573ffffffffffffffffffffffffffffffffffffffff169060200190929190803573ffffffffffffffffffffffffffffffffffffffff1690602001909291905050506104f0565b604051808273ffffffffffffffffffffffffffffffffffffffff16815260200191505060405180910390f35b6102286004803603602081101561021257600080fd5b8101908080359060200190929190505050610532565b604051808273ffffffffffffffffffffffffffffffffffffffff16815260200191505060405180910390f35b61025c610571565b6040518082815260200191505060405180910390f35b6102b46004803603602081101561028857600080fd5b81019080803573ffffffffffffffffffffffffffffffffffffffff16906020019092919050505061057e565b005b610318600480360360408110156102cc57600080fd5b81019080803573ffffffffffffffffffffffffffffffffffffffff169060200190929190803573ffffffffffffffffffffffffffffffffffffffff169060200190929190505050610685565b604051808273ffffffffffffffffffffffffffffffffffffffff16815260200191505060405180910390f35b6103a66004803603604081101561035a57600080fd5b81019080803573ffffffffffffffffffffffffffffffffffffffff169060200190929190803573ffffffffffffffffffffffffffffffffffffffff1690602001909291905050506106c7565b604051808373ffffffffffffffffffffffffffffffffffffffff1681526020018273ffffffffffffffffffffffffffffffffffffffff1681526020019250505060405180910390f35b6103f76111fe565b604051808273ffffffffffffffffffffffffffffffffffffffff16815260200191505060405180910390f35b6104656004803603602081101561043957600080fd5b81019080803573ffffffffffffffffffffffffffffffffffffffff169060200190929190505050611224565b005b60008054906101000a900473ffffffffffffffffffffffffffffffffffffffff1681565b600160009054906101000a900473ffffffffffffffffffffffffffffffffffffffff1681565b600581815481106104c157600080fd5b906000526020600020016000915054906101000a900473ffffffffffffffffffffffffffffffffffffffff1681565b60046020528160005260406000206020528060005260406000206000915091509054906101000a900473ffffffffffffffffffffffffffffffffffffffff1681565b6006818154811061054257600080fd5b906000526020600020016000915054906101000a900473ffffffffffffffffffffffffffffffffffffffff1681565b6000600580549050905090565b600160009054906101000a900473ffffffffffffffffffffffffffffffffffffffff1673ffffffffffffffffffffffffffffffffffffffff163373ffffffffffffffffffffffffffffffffffffffff1614610641576040517f08c379a00000000000000000000000000000000000000000000000000000000081526004018080602001828103825260148152602001807f546f6b656e43686f703a20464f5242494444454e00000000000000000000000081525060200191505060405180910390fd5b80600160006101000a81548173ffffffffffffffffffffffffffffffffffffffff021916908373ffffffffffffffffffffffffffffffffffffffff16021790555050565b60036020528160005260406000206020528060005260406000206000915091509054906101000a900473ffffffffffffffffffffffffffffffffffffffff1681565b6000808273ffffffffffffffffffffffffffffffffffffffff168473ffffffffffffffffffffffffffffffffffffffff16141561076c576040517f08c379a000000000000000000000000000000000000000000000000000000000815260040180806020018281038252601e8152602001807f546f6b656e43686f703a204944454e544943414c5f414444524553534553000081525060200191505060405180910390fd5b600073ffffffffffffffffffffffffffffffffffffffff168473ffffffffffffffffffffffffffffffffffffffff16141580156107d65750600073ffffffffffffffffffffffffffffffffffffffff168373ffffffffffffffffffffffffffffffffffffffff1614155b610848576040517f08c379a00000000000000000000000000000000000000000000000000000000081526004018080602001828103825260178152602001807f546f6b656e43686f703a205a45524f5f4144445245535300000000000000000081525060200191505060405180910390fd5b600073ffffffffffffffffffffffffffffffffffffffff16600360008673ffffffffffffffffffffffffffffffffffffffff1673ffffffffffffffffffffffffffffffffffffffff16815260200190815260200160002060008573ffffffffffffffffffffffffffffffffffffffff1673ffffffffffffffffffffffffffffffffffffffff16815260200190815260200160002060009054906101000a900473ffffffffffffffffffffffffffffffffffffffff1673ffffffffffffffffffffffffffffffffffffffff1614610986576040517f08c379a00000000000000000000000000000000000000000000000000000000081526004018080602001828103825260188152602001807f546f6b656e43686f703a20535441424c455f455849535453000000000000000081525060200191505060405180910390fd5b600073ffffffffffffffffffffffffffffffffffffffff16600460008673ffffffffffffffffffffffffffffffffffffffff1673ffffffffffffffffffffffffffffffffffffffff16815260200190815260200160002060008573ffffffffffffffffffffffffffffffffffffffff1673ffffffffffffffffffffffffffffffffffffffff16815260200190815260200160002060009054906101000a900473ffffffffffffffffffffffffffffffffffffffff1673ffffffffffffffffffffffffffffffffffffffff1614610ac4576040517f08c379a00000000000000000000000000000000000000000000000000000000081526004018080602001828103825260168152602001807f546f6b656e43686f703a20535045435f4558495354530000000000000000000081525060200191505060405180910390fd5b600060405180602001610ad69061132a565b6020820181038252601f19601f8201166040525090506000858560405160200180807f537461626c6500000000000000000000000000000000000000000000000000008152506006018373ffffffffffffffffffffffffffffffffffffffff1660601b81526014018273ffffffffffffffffffffffffffffffffffffffff1660601b8152601401925050506040516020818303038152906040528051906020012090506000818351602085016000f5905060008060405180602001610b9a90611337565b6020820181038252601f19601f8201166040525090506000898960405160200180807f53706563000000000000000000000000000000000000000000000000000000008152506004018373ffffffffffffffffffffffffffffffffffffffff1660601b81526014018273ffffffffffffffffffffffffffffffffffffffff1660601b815260140192505050604051602081830303815290604052805190602001209050808251602084016000f592508373ffffffffffffffffffffffffffffffffffffffff1663c0c53b8b8b8b866040518463ffffffff1660e01b8152600401808473ffffffffffffffffffffffffffffffffffffffff1681526020018373ffffffffffffffffffffffffffffffffffffffff1681526020018273ffffffffffffffffffffffffffffffffffffffff1681526020019350505050600060405180830381600087803b158015610cee57600080fd5b505af1158015610d02573d6000803e3d6000fd5b505050508373ffffffffffffffffffffffffffffffffffffffff16632e4e3d11600260009054906101000a900473ffffffffffffffffffffffffffffffffffffffff166040518263ffffffff1660e01b8152600401808273ffffffffffffffffffffffffffffffffffffffff168152602001915050600060405180830381600087803b158015610d9157600080fd5b505af1158015610da5573d6000803e3d6000fd5b505050508273ffffffffffffffffffffffffffffffffffffffff1663c0c53b8b8b8b876040518463ffffffff1660e01b8152600401808473ffffffffffffffffffffffffffffffffffffffff1681526020018373ffffffffffffffffffffffffffffffffffffffff1681526020018273ffffffffffffffffffffffffffffffffffffffff1681526020019350505050600060405180830381600087803b158015610e4e57600080fd5b505af1158015610e62573d6000803e3d6000fd5b505050508273ffffffffffffffffffffffffffffffffffffffff16632e4e3d11600260009054906101000a900473ffffffffffffffffffffffffffffffffffffffff166040518263ffffffff1660e01b8152600401808273ffffffffffffffffffffffffffffffffffffffff168152602001915050600060405180830381600087803b158015610ef157600080fd5b505af1158015610f05573d6000803e3d6000fd5b5050505083600360008c73ffffffffffffffffffffffffffffffffffffffff1673ffffffffffffffffffffffffffffffffffffffff16815260200190815260200160002060008b73ffffffffffffffffffffffffffffffffffffffff1673ffffffffffffffffffffffffffffffffffffffff16815260200190815260200160002060006101000a81548173ffffffffffffffffffffffffffffffffffffffff021916908373ffffffffffffffffffffffffffffffffffffffff16021790555082600460008c73ffffffffffffffffffffffffffffffffffffffff1673ffffffffffffffffffffffffffffffffffffffff16815260200190815260200160002060008b73ffffffffffffffffffffffffffffffffffffffff1673ffffffffffffffffffffffffffffffffffffffff16815260200190815260200160002060006101000a81548173ffffffffffffffffffffffffffffffffffffffff021916908373ffffffffffffffffffffffffffffffffffffffff1602179055506005849080600181540180825580915050600190039060005260206000200160009091909190916101000a81548173ffffffffffffffffffffffffffffffffffffffff021916908373ffffffffffffffffffffffffffffffffffffffff1602179055506006839080600181540180825580915050600190039060005260206000200160009091909190916101000a81548173ffffffffffffffffffffffffffffffffffffffff021916908373ffffffffffffffffffffffffffffffffffffffff1602179055508873ffffffffffffffffffffffffffffffffffffffff168a73ffffffffffffffffffffffffffffffffffffffff167fa2d65e38bd2bf6cb3385fb3f58bfe90caadcea402ec5d5808da6ea171f11bba18686600580549050604051808473ffffffffffffffffffffffffffffffffffffffff1681526020018373ffffffffffffffffffffffffffffffffffffffff168152602001828152602001935050505060405180910390a38383975097505050505050509250929050565b600260009054906101000a900473ffffffffffffffffffffffffffffffffffffffff1681565b600160009054906101000a900473ffffffffffffffffffffffffffffffffffffffff1673ffffffffffffffffffffffffffffffffffffffff163373ffffffffffffffffffffffffffffffffffffffff16146112e7576040517f08c379a00000000000000000000000000000000000000000000000000000000081526004018080602001828103825260148152602001807f546f6b656e43686f703a20464f5242494444454e00000000000000000000000081525060200191505060405180910390fd5b806000806101000a81548173ffffffffffffffffffffffffffffffffffffffff021916908373ffffffffffffffffffffffffffffffffffffffff16021790555050565b6132988061134583390190565b612c1d806145dd8339019056fe608060405234801561001057600080fd5b5033600960006101000a81548173ffffffffffffffffffffffffffffffffffffffff021916908373ffffffffffffffffffffffffffffffffffffffff160217905550613237806100616000396000f3fe608060405234801561001057600080fd5b50600436106101c45760003560e01c80638f940f63116100f9578063b1dd61b611610097578063c6950a7c11610071578063c6950a7c146104ef578063cd0b4aed146104f9578063d8dfeb4514610529578063dd62ed3e14610547576101c4565b8063b1dd61b614610497578063c0c53b8b146104b5578063c45a0155146104d1576101c4565b8063999b93af116100d3578063999b93af1461040d578063a035b1fe1461042b578063a9059cbb14610449578063a9ed003d14610479576101c4565b80638f940f63146103b3578063914e245a146103d157806395d89b41146103ef576101c4565b806342966c68116101665780636fea6b1c116101405780636fea6b1c1461032957806370a082311461034757806380583be714610377578063893d20e814610395576101c4565b806342966c68146102bd5780635001f3b5146102ed57806360d6df6e1461030b576101c4565b806318160ddd116101a257806318160ddd1461023557806323b872dd146102535780632e4e3d1114610283578063313ce5671461029f576101c4565b806305300b28146101c957806306fdde03146101e7578063095ea7b314610205575b600080fd5b6101d1610577565b6040516101de9190613019565b60405180910390f35b6101ef61057c565b6040516101fc9190612e3c565b60405180910390f35b61021f600480360381019061021a91906125d1565b61061a565b60405161022c9190612e21565b60405180910390f35b61023d610631565b60405161024a9190612fd5565b60405180910390f35b61026d60048036038101906102689190612582565b610637565b60405161027a9190612e21565b60405180910390f35b61029d600480360381019061029891906124ce565b610797565b005b6102a761086b565b6040516102b49190613019565b60405180910390f35b6102d760048036038101906102d291906126a0565b610874565b6040516102e49190612e21565b60405180910390f35b6102f5610a91565b6040516103029190612da6565b60405180910390f35b610313610ab7565b6040516103209190612e3c565b60405180910390f35b610331610b55565b60405161033e9190612da6565b60405180910390f35b610361600480360381019061035c91906124ce565b610b7b565b60405161036e9190612fd5565b60405180910390f35b61037f610b93565b60405161038c9190612e3c565b60405180910390f35b61039d610c31565b6040516103aa9190612da6565b60405180910390f35b6103bb610c5b565b6040516103c89190613019565b60405180910390f35b6103d9610c60565b6040516103e69190612fd5565b60405180910390f35b6103f7610c66565b6040516104049190612e3c565b60405180910390f35b610415610d04565b6040516104229190612da6565b60405180910390f35b610433610d2a565b6040516104409190612fd5565b60405180910390f35b610463600480360381019061045e91906125d1565b610d30565b6040516104709190612e21565b60405180910390f35b610481610d47565b60405161048e9190612da6565b60405180910390f35b61049f610d6d565b6040516104ac9190612e3c565b60405180910390f35b6104cf60048036038101906104ca9190612533565b610da6565b005b6104d9611358565b6040516104e69190612da6565b60405180910390f35b6104f761137e565b005b610513600480360381019061050e91906126a0565b611420565b6040516105209190612e21565b60405180910390f35b61053161160e565b60405161053e9190612fd5565b60405180910390f35b610561600480360381019061055c91906124f7565b611614565b60405161056e9190612fd5565b60405180910390f35b601281565b60028054600181600116156101000203166002900480601f0160208091040260200160405190810160405280929190818152602001828054600181600116156101000203166002900480156106125780601f106105e757610100808354040283529160200191610612565b820191906000526020600020905b8154815290600101906020018083116105f557829003601f168201915b505050505081565b6000610627338484611639565b6001905092915050565b600d5481565b6000610644848484611804565b81600160008673ffffffffffffffffffffffffffffffffffffffff1673ffffffffffffffffffffffffffffffffffffffff16815260200190815260200160002060003373ffffffffffffffffffffffffffffffffffffffff1673ffffffffffffffffffffffffffffffffffffffff168152602001908152602001600020541015610703576040517f08c379a00000000000000000000000000000000000000000000000000000000081526004016106fa90612f15565b60405180910390fd5b61078c843384600160008973ffffffffffffffffffffffffffffffffffffffff1673ffffffffffffffffffffffffffffffffffffffff16815260200190815260200160002060003373ffffffffffffffffffffffffffffffffffffffff1673ffffffffffffffffffffffffffffffffffffffff1681526020019081526020016000205403611639565b600190509392505050565b600960009054906101000a900473ffffffffffffffffffffffffffffffffffffffff1673ffffffffffffffffffffffffffffffffffffffff163373ffffffffffffffffffffffffffffffffffffffff1614610827576040517f08c379a000000000000000000000000000000000000000000000000000000000815260040161081e90612f75565b60405180910390fd5b80600e60006101000a81548173ffffffffffffffffffffffffffffffffffffffff021916908373ffffffffffffffffffffffffffffffffffffffff16021790555050565b60006012905090565b600061087e611af5565b610886611c4a565b6000803373ffffffffffffffffffffffffffffffffffffffff1673ffffffffffffffffffffffffffffffffffffffff168152602001908152602001600020548211156108d157600080fd5b610922826000803373ffffffffffffffffffffffffffffffffffffffff1673ffffffffffffffffffffffffffffffffffffffff16815260200190815260200160002054611d3990919063ffffffff16565b6000803373ffffffffffffffffffffffffffffffffffffffff1673ffffffffffffffffffffffffffffffffffffffff168152602001908152602001600020819055506000610972600c5484611d59565b905061098981600a54611d3990919063ffffffff16565b600a819055506109bc600660009054906101000a900473ffffffffffffffffffffffffffffffffffffffff163383611d76565b600073ffffffffffffffffffffffffffffffffffffffff163373ffffffffffffffffffffffffffffffffffffffff167fddf252ad1be2c89b69c2b068fc378daa952ba7f163c4a11628f55a4df523b3ef85604051610a1a9190612fd5565b60405180910390a33373ffffffffffffffffffffffffffffffffffffffff163073ffffffffffffffffffffffffffffffffffffffff167f14395d6fb6ac3870af345d12d989b966ccf04dcdd9e02b95722d12dca39eb4b083604051610a7f9190612fd5565b60405180910390a36001915050919050565b600660009054906101000a900473ffffffffffffffffffffffffffffffffffffffff1681565b60058054600181600116156101000203166002900480601f016020809104026020016040519081016040528092919081815260200182805460018160011615610100020316600290048015610b4d5780601f10610b2257610100808354040283529160200191610b4d565b820191906000526020600020905b815481529060010190602001808311610b3057829003601f168201915b505050505081565b600e60009054906101000a900473ffffffffffffffffffffffffffffffffffffffff1681565b60006020528060005260406000206000915090505481565b60048054600181600116156101000203166002900480601f016020809104026020016040519081016040528092919081815260200182805460018160011615610100020316600290048015610c295780601f10610bfe57610100808354040283529160200191610c29565b820191906000526020600020905b815481529060010190602001808311610c0c57829003601f168201915b505050505081565b6000600960009054906101000a900473ffffffffffffffffffffffffffffffffffffffff16905090565b600081565b600b5481565b60038054600181600116156101000203166002900480601f016020809104026020016040519081016040528092919081815260200182805460018160011615610100020316600290048015610cfc5780601f10610cd157610100808354040283529160200191610cfc565b820191906000526020600020905b815481529060010190602001808311610cdf57829003601f168201915b505050505081565b600760009054906101000a900473ffffffffffffffffffffffffffffffffffffffff1681565b600c5481565b6000610d3d338484611804565b6001905092915050565b600860009054906101000a900473ffffffffffffffffffffffffffffffffffffffff1681565b6040518060400160405280600681526020017f537461626c65000000000000000000000000000000000000000000000000000081525081565b600960009054906101000a900473ffffffffffffffffffffffffffffffffffffffff1673ffffffffffffffffffffffffffffffffffffffff163373ffffffffffffffffffffffffffffffffffffffff1614610e36576040517f08c379a0000000000000000000000000000000000000000000000000000000008152600401610e2d90612f75565b60405180910390fd5b73da7a001b254cd22e46d3eab04d937489c93174c3600e60006101000a81548173ffffffffffffffffffffffffffffffffffffffff021916908373ffffffffffffffffffffffffffffffffffffffff16021790555082600660006101000a81548173ffffffffffffffffffffffffffffffffffffffff021916908373ffffffffffffffffffffffffffffffffffffffff16021790555081600760006101000a81548173ffffffffffffffffffffffffffffffffffffffff021916908373ffffffffffffffffffffffffffffffffffffffff16021790555080600860006101000a81548173ffffffffffffffffffffffffffffffffffffffff021916908373ffffffffffffffffffffffffffffffffffffffff160217905550600660009054906101000a900473ffffffffffffffffffffffffffffffffffffffff1673ffffffffffffffffffffffffffffffffffffffff166395d89b416040518163ffffffff1660e01b815260040160006040518083038186803b158015610fb657600080fd5b505afa158015610fca573d6000803e3d6000fd5b505050506040513d6000823e3d601f19601f82011682018060405250810190610ff39190612636565b60049080519060200190611008929190612307565b5060405160200161101890612d91565b6040516020818303038152906040528051906020012060046040516020016110409190612d7a565b60405160208183030381529060405280519060200120146110fb5760048054600181600116156101000203166002900480601f0160208091040260200160405190810160405280929190818152602001828054600181600116156101000203166002900480156110f15780601f106110c6576101008083540402835291602001916110f1565b820191906000526020600020905b8154815290600101906020018083116110d457829003601f168201915b5050505050611132565b6040518060400160405280600381526020017f424e4200000000000000000000000000000000000000000000000000000000008152505b60049080519060200190611147929190612307565b50600760009054906101000a900473ffffffffffffffffffffffffffffffffffffffff1673ffffffffffffffffffffffffffffffffffffffff166395d89b416040518163ffffffff1660e01b815260040160006040518083038186803b1580156111b057600080fd5b505afa1580156111c4573d6000803e3d6000fd5b505050506040513d6000823e3d601f19601f820116820180604052508101906111ed9190612636565b60059080519060200190611202929190612307565b506040518060400160405280600b81526020017f546f6b656e43686f703a2000000000000000000000000000000000000000000081525060046040518060400160405280600181526020017f2f0000000000000000000000000000000000000000000000000000000000000081525060056040518060400160405280600781526020017f20537461626c65000000000000000000000000000000000000000000000000008152506040516020016112bd959493929190612cfe565b604051602081830303815290604052600290805190602001906112e1929190612307565b50600460056040518060400160405280600181526020017f300000000000000000000000000000000000000000000000000000000000000081525060405160200161132e93929190612d49565b60405160208183030381529060405260039080519060200190611352929190612307565b50505050565b600960009054906101000a900473ffffffffffffffffffffffffffffffffffffffff1681565b600860009054906101000a900473ffffffffffffffffffffffffffffffffffffffff1673ffffffffffffffffffffffffffffffffffffffff163373ffffffffffffffffffffffffffffffffffffffff161461140e576040517f08c379a000000000000000000000000000000000000000000000000000000000815260040161140590612f75565b60405180910390fd5b611416611af5565b61141e611c4a565b565b600061142a611af5565b611432611c4a565b611460600660009054906101000a900473ffffffffffffffffffffffffffffffffffffffff16333085611f00565b600061146e600c5484612070565b90506114c1816000803373ffffffffffffffffffffffffffffffffffffffff1673ffffffffffffffffffffffffffffffffffffffff1681526020019081526020016000205461208d90919063ffffffff16565b6000803373ffffffffffffffffffffffffffffffffffffffff1673ffffffffffffffffffffffffffffffffffffffff1681526020019081526020016000208190555061151881600d5461208d90919063ffffffff16565b600d8190555061153383600a5461208d90919063ffffffff16565b600a819055503373ffffffffffffffffffffffffffffffffffffffff16600073ffffffffffffffffffffffffffffffffffffffff167fddf252ad1be2c89b69c2b068fc378daa952ba7f163c4a11628f55a4df523b3ef836040516115979190612fd5565b60405180910390a33073ffffffffffffffffffffffffffffffffffffffff163373ffffffffffffffffffffffffffffffffffffffff167f14395d6fb6ac3870af345d12d989b966ccf04dcdd9e02b95722d12dca39eb4b0856040516115fc9190612fd5565b60405180910390a36001915050919050565b600a5481565b6001602052816000526040600020602052806000526040600020600091509150505481565b600073ffffffffffffffffffffffffffffffffffffffff168373ffffffffffffffffffffffffffffffffffffffff1614156116a9576040517f08c379a00000000000000000000000000000000000000000000000000000000081526004016116a090612eb5565b60405180910390fd5b600073ffffffffffffffffffffffffffffffffffffffff168273ffffffffffffffffffffffffffffffffffffffff161415611719576040517f08c379a000000000000000000000000000000000000000000000000000000000815260040161171090612fb5565b60405180910390fd5b80600160008573ffffffffffffffffffffffffffffffffffffffff1673ffffffffffffffffffffffffffffffffffffffff16815260200190815260200160002060008473ffffffffffffffffffffffffffffffffffffffff1673ffffffffffffffffffffffffffffffffffffffff168152602001908152602001600020819055508173ffffffffffffffffffffffffffffffffffffffff168373ffffffffffffffffffffffffffffffffffffffff167f8c5be1e5ebec7d5bd14f71427d1e84f3dd0314c0f7b2291e5b200ac8c7c3b925836040516117f79190612fd5565b60405180910390a3505050565b600073ffffffffffffffffffffffffffffffffffffffff168373ffffffffffffffffffffffffffffffffffffffff161415611874576040517f08c379a000000000000000000000000000000000000000000000000000000000815260040161186b90612e95565b60405180910390fd5b600073ffffffffffffffffffffffffffffffffffffffff168273ffffffffffffffffffffffffffffffffffffffff1614156118e4576040517f08c379a00000000000000000000000000000000000000000000000000000000081526004016118db90612f55565b60405180910390fd5b806000808573ffffffffffffffffffffffffffffffffffffffff1673ffffffffffffffffffffffffffffffffffffffff168152602001908152602001600020541015611965576040517f08c379a000000000000000000000000000000000000000000000000000000000815260040161195c90612f35565b60405180910390fd5b6119b6816000808673ffffffffffffffffffffffffffffffffffffffff1673ffffffffffffffffffffffffffffffffffffffff16815260200190815260200160002054611d3990919063ffffffff16565b6000808573ffffffffffffffffffffffffffffffffffffffff1673ffffffffffffffffffffffffffffffffffffffff16815260200190815260200160002081905550611a49816000808573ffffffffffffffffffffffffffffffffffffffff1673ffffffffffffffffffffffffffffffffffffffff1681526020019081526020016000205461208d90919063ffffffff16565b6000808473ffffffffffffffffffffffffffffffffffffffff1673ffffffffffffffffffffffffffffffffffffffff168152602001908152602001600020819055508173ffffffffffffffffffffffffffffffffffffffff168373ffffffffffffffffffffffffffffffffffffffff167fddf252ad1be2c89b69c2b068fc378daa952ba7f163c4a11628f55a4df523b3ef83604051611ae89190612fd5565b60405180910390a3505050565b6000600e60009054906101000a900473ffffffffffffffffffffffffffffffffffffffff16905060008173ffffffffffffffffffffffffffffffffffffffff166365555bcc600460056040518363ffffffff1660e01b8152600401611b5b929190612e5e565b60606040518083038186803b158015611b7357600080fd5b505afa158015611b87573d6000803e3d6000fd5b505050506040513d601f19601f82011682018060405250810190611bab9190612677565b90506000816000015190506000811415611bfa576040517f08c379a0000000000000000000000000000000000000000000000000000000008152600401611bf190612f95565b60405180910390fd5b7f92664190cca12aca9cd5309d87194bdda75bb51362d71c06e1a6f75c7c765711600c5482604051611c2d929190612ff0565b60405180910390a1600c54600b8190555080600c81905550505050565b6000611c5a600c54600a54612070565b9050600d54811415611c6c5750611d37565b600d54811015611d11576000611c8d82600d54611d3990919063ffffffff16565b90506000611c9a826120ac565b905081811015611d0a576000611ccd82611cbf85600d54611d3990919063ffffffff16565b61208d90919063ffffffff16565b90507fb07e3bc4c23a2d5a3367eec63320a439a69fa5b14b5619ba643e23b3ab6ef8058383604051611d00929190612ff0565b60405180910390a1505b5050611d35565b6000611d28600d5483611d3990919063ffffffff16565b9050611d33816121a4565b505b505b565b600082821115611d4857600080fd5b600082840390508091505092915050565b6000611d6e8284670de0b6b3a76400006122a9565b905092915050565b6000808473ffffffffffffffffffffffffffffffffffffffff166040518060400160405280601981526020017f7472616e7366657228616464726573732c75696e743235362900000000000000815250805190602001208585604051602401611de0929190612df8565b604051602081830303815290604052907bffffffffffffffffffffffffffffffffffffffffffffffffffffffff19166020820180517bffffffffffffffffffffffffffffffffffffffffffffffffffffffff8381831617835250505050604051611e4a9190612ce7565b6000604051808303816000865af19150503d8060008114611e87576040519150601f19603f3d011682016040523d82523d6000602084013e611e8c565b606091505b5091509150818015611eba5750600081511480611eb9575080806020019051810190611eb8919061260d565b5b5b611ef9576040517f08c379a0000000000000000000000000000000000000000000000000000000008152600401611ef090612ef5565b60405180910390fd5b5050505050565b6000808573ffffffffffffffffffffffffffffffffffffffff166040518060600160405280602581526020016131dd6025913980519060200120868686604051602401611f4f93929190612dc1565b604051602081830303815290604052907bffffffffffffffffffffffffffffffffffffffffffffffffffffffff19166020820180517bffffffffffffffffffffffffffffffffffffffffffffffffffffffff8381831617835250505050604051611fb99190612ce7565b6000604051808303816000865af19150503d8060008114611ff6576040519150601f19603f3d011682016040523d82523d6000602084013e611ffb565b606091505b50915091508180156120295750600081511480612028575080806020019051810190612027919061260d565b5b5b612068576040517f08c379a000000000000000000000000000000000000000000000000000000000815260040161205f90612ed5565b60405180910390fd5b505050505050565b600061208582670de0b6b3a7640000856122a9565b905092915050565b6000808284019050838110156120a257600080fd5b8091505092915050565b6000806120bb600c5484611d59565b90506000600860009054906101000a900473ffffffffffffffffffffffffffffffffffffffff16905060008173ffffffffffffffffffffffffffffffffffffffff1663f33ab2b8846040518263ffffffff1660e01b815260040161211f9190612fd5565b602060405180830381600087803b15801561213957600080fd5b505af115801561214d573d6000803e3d6000fd5b505050506040513d601f19601f8201168201806040525081019061217191906126c9565b905061218881600a5461208d90919063ffffffff16565b600a8190555061219a600c5482612070565b9350505050919050565b60006121b2600c5483611d59565b90506121c981600a54611d3990919063ffffffff16565b600a8190555061221e600660009054906101000a900473ffffffffffffffffffffffffffffffffffffffff16600860009054906101000a900473ffffffffffffffffffffffffffffffffffffffff1683611d76565b600860009054906101000a900473ffffffffffffffffffffffffffffffffffffffff1673ffffffffffffffffffffffffffffffffffffffff163073ffffffffffffffffffffffffffffffffffffffff167f14395d6fb6ac3870af345d12d989b966ccf04dcdd9e02b95722d12dca39eb4b08360405161229d9190612fd5565b60405180910390a35050565b600070010000000000000000000000000000000084106122c857600080fd5b70010000000000000000000000000000000083106122e557600080fd5b818311156122f257600080fd5b81838502816122fd57fe5b0490509392505050565b828054600181600116156101000203166002900490600052602060002090601f01602090048101928261233d5760008555612384565b82601f1061235657805160ff1916838001178555612384565b82800160010185558215612384579182015b82811115612383578251825591602001919060010190612368565b5b5090506123919190612395565b5090565b5b808211156123ae576000816000905550600101612396565b5090565b60006123c56123c084613065565b613034565b9050828152602081018484840111156123dd57600080fd5b6123e8848285613151565b509392505050565b6000813590506123ff81613197565b92915050565b600081519050612414816131ae565b92915050565b600082601f83011261242b57600080fd5b815161243b8482602086016123b2565b91505092915050565b60006060828403121561245657600080fd5b6124606060613034565b90506000612470848285016124b9565b6000830152506020612484848285016124b9565b6020830152506040612498848285016124b9565b60408301525092915050565b6000813590506124b3816131c5565b92915050565b6000815190506124c8816131c5565b92915050565b6000602082840312156124e057600080fd5b60006124ee848285016123f0565b91505092915050565b6000806040838503121561250a57600080fd5b6000612518858286016123f0565b9250506020612529858286016123f0565b9150509250929050565b60008060006060848603121561254857600080fd5b6000612556868287016123f0565b9350506020612567868287016123f0565b9250506040612578868287016123f0565b9150509250925092565b60008060006060848603121561259757600080fd5b60006125a5868287016123f0565b93505060206125b6868287016123f0565b92505060406125c7868287016124a4565b9150509250925092565b600080604083850312156125e457600080fd5b60006125f2858286016123f0565b9250506020612603858286016124a4565b9150509250929050565b60006020828403121561261f57600080fd5b600061262d84828501612405565b91505092915050565b60006020828403121561264857600080fd5b600082015167ffffffffffffffff81111561266257600080fd5b61266e8482850161241a565b91505092915050565b60006060828403121561268957600080fd5b600061269784828501612444565b91505092915050565b6000602082840312156126b257600080fd5b60006126c0848285016124a4565b91505092915050565b6000602082840312156126db57600080fd5b60006126e9848285016124b9565b91505092915050565b6126fb816130fc565b82525050565b61270a8161310e565b82525050565b600061271b826130bf565b61272581856130d5565b9350612735818560208601613151565b80840191505092915050565b60008154600181166000811461275e5760018114612783576127c7565b607f600283041661276f81876130d5565b955060ff19831686528086019350506127c7565b6002820461279181876130d5565b955061279c85613095565b60005b828110156127be5781548189015260018201915060208101905061279f565b82880195505050505b505092915050565b60006127da826130ca565b6127e481856130e0565b93506127f4818560208601613151565b6127fd81613186565b840191505092915050565b600081546001811660008114612825576001811461284b5761288f565b607f600283041661283681876130e0565b955060ff19831686526020860193505061288f565b6002820461285981876130e0565b9550612864856130aa565b60005b8281101561288657815481890152600182019150602081019050612867565b80880195505050505b505092915050565b6000815460018116600081146128b457600181146128d95761291d565b607f60028304166128c581876130f1565b955060ff198316865280860193505061291d565b600282046128e781876130f1565b95506128f2856130aa565b60005b82811015612914578154818901526001820191506020810190506128f5565b82880195505050505b505092915050565b60006129326025836130e0565b91507f42455032303a207472616e736665722066726f6d20746865207a65726f20616460008301527f64726573730000000000000000000000000000000000000000000000000000006020830152604082019050919050565b60006129986024836130e0565b91507f42455032303a20617070726f76652066726f6d20746865207a65726f2061646460008301527f72657373000000000000000000000000000000000000000000000000000000006020830152604082019050919050565b60006129fe601f836130e0565b91507f546f6b656e43686f703a205452414e534645525f46524f4d5f4641494c4544006000830152602082019050919050565b6000612a3e601a836130e0565b91507f546f6b656e43686f703a205452414e534645525f4641494c45440000000000006000830152602082019050919050565b6000612a7e6028836130e0565b91507f42455032303a207472616e7366657220616d6f756e742065786365656473206160008301527f6c6c6f77616e63650000000000000000000000000000000000000000000000006020830152604082019050919050565b6000612ae46004836130f1565b91507f57424e42000000000000000000000000000000000000000000000000000000006000830152600482019050919050565b6000612b246026836130e0565b91507f42455032303a207472616e7366657220616d6f756e742065786365656473206260008301527f616c616e636500000000000000000000000000000000000000000000000000006020830152604082019050919050565b6000612b8a6023836130e0565b91507f42455032303a207472616e7366657220746f20746865207a65726f206164647260008301527f65737300000000000000000000000000000000000000000000000000000000006020830152604082019050919050565b6000612bf06014836130e0565b91507f546f6b656e43686f703a20464f5242494444454e0000000000000000000000006000830152602082019050919050565b6000612c30601e836130e0565b91507f546f6b656e43686f703a20507269636520757064617465204661696c656400006000830152602082019050919050565b6000612c706022836130e0565b91507f42455032303a20617070726f766520746f20746865207a65726f20616464726560008301527f73730000000000000000000000000000000000000000000000000000000000006020830152604082019050919050565b612cd28161313a565b82525050565b612ce181613144565b82525050565b6000612cf38284612710565b915081905092915050565b6000612d0a8288612710565b9150612d168287612741565b9150612d228286612710565b9150612d2e8285612741565b9150612d3a8284612710565b91508190509695505050505050565b6000612d558286612741565b9150612d618285612741565b9150612d6d8284612710565b9150819050949350505050565b6000612d868284612897565b915081905092915050565b6000612d9c82612ad7565b9150819050919050565b6000602082019050612dbb60008301846126f2565b92915050565b6000606082019050612dd660008301866126f2565b612de360208301856126f2565b612df06040830184612cc9565b949350505050565b6000604082019050612e0d60008301856126f2565b612e1a6020830184612cc9565b9392505050565b6000602082019050612e366000830184612701565b92915050565b60006020820190508181036000830152612e5681846127cf565b905092915050565b60006040820190508181036000830152612e788185612808565b90508181036020830152612e8c8184612808565b90509392505050565b60006020820190508181036000830152612eae81612925565b9050919050565b60006020820190508181036000830152612ece8161298b565b9050919050565b60006020820190508181036000830152612eee816129f1565b9050919050565b60006020820190508181036000830152612f0e81612a31565b9050919050565b60006020820190508181036000830152612f2e81612a71565b9050919050565b60006020820190508181036000830152612f4e81612b17565b9050919050565b60006020820190508181036000830152612f6e81612b7d565b9050919050565b60006020820190508181036000830152612f8e81612be3565b9050919050565b60006020820190508181036000830152612fae81612c23565b9050919050565b60006020820190508181036000830152612fce81612c63565b9050919050565b6000602082019050612fea6000830184612cc9565b92915050565b60006040820190506130056000830185612cc9565b6130126020830184612cc9565b9392505050565b600060208201905061302e6000830184612cd8565b92915050565b6000604051905081810181811067ffffffffffffffff8211171561305b5761305a613184565b5b8060405250919050565b600067ffffffffffffffff8211156130805761307f613184565b5b601f19601f8301169050602081019050919050565b60008190508160005260206000209050919050565b60008190508160005260206000209050919050565b600081519050919050565b600081519050919050565b600081905092915050565b600082825260208201905092915050565b600081905092915050565b60006131078261311a565b9050919050565b60008115159050919050565b600073ffffffffffffffffffffffffffffffffffffffff82169050919050565b6000819050919050565b600060ff82169050919050565b60005b8381101561316f578082015181840152602081019050613154565b8381111561317e576000848401525b50505050565bfe5b6000601f19601f8301169050919050565b6131a0816130fc565b81146131ab57600080fd5b50565b6131b78161310e565b81146131c257600080fd5b50565b6131ce8161313a565b81146131d957600080fd5b5056fe7472616e7366657246726f6d28616464726573732c616464726573732c75696e7432353629a26469706673582212209ec323c8f8245e0a57b5556f4a6fc9426104522443b4c8e3ff69c63591cb431464736f6c63430007060033608060405234801561001057600080fd5b5033600960006101000a81548173ffffffffffffffffffffffffffffffffffffffff021916908373ffffffffffffffffffffffffffffffffffffffff160217905550612bbc806100616000396000f3fe608060405234801561001057600080fd5b50600436106101a95760003560e01c80638f940f63116100f9578063a9ed003d11610097578063c45a015511610071578063c45a0155146104c8578063d8dfeb45146104e6578063dd62ed3e14610504578063f33ab2b814610534576101a9565b8063a9ed003d14610470578063b1dd61b61461048e578063c0c53b8b146104ac576101a9565b8063999b93af116100d3578063999b93af146103d4578063a035b1fe146103f2578063a0712d6814610410578063a9059cbb14610440576101a9565b80638f940f631461037a578063914e245a1461039857806395d89b41146103b6576101a9565b806342966c68116101665780636fea6b1c116101405780636fea6b1c146102f057806370a082311461030e57806380583be71461033e578063893d20e81461035c576101a9565b806342966c68146102845780635001f3b5146102b457806360d6df6e146102d2576101a9565b806306fdde03146101ae578063095ea7b3146101cc57806318160ddd146101fc57806323b872dd1461021a5780632e4e3d111461024a578063313ce56714610266575b600080fd5b6101b6610564565b6040516101c391906127c1565b60405180910390f35b6101e660048036038101906101e19190611f7f565b610602565b6040516101f391906127a6565b60405180910390f35b610204610619565b604051610211919061295a565b60405180910390f35b610234600480360381019061022f9190611f30565b61061f565b60405161024191906127a6565b60405180910390f35b610264600480360381019061025f9190611e7c565b61077f565b005b61026e610853565b60405161027b919061299e565b60405180910390f35b61029e6004803603810190610299919061204e565b61085c565b6040516102ab91906127a6565b60405180910390f35b6102bc61086f565b6040516102c9919061272b565b60405180910390f35b6102da610895565b6040516102e791906127c1565b60405180910390f35b6102f8610933565b604051610305919061272b565b60405180910390f35b61032860048036038101906103239190611e7c565b610959565b604051610335919061295a565b60405180910390f35b610346610971565b60405161035391906127c1565b60405180910390f35b610364610a0f565b604051610371919061272b565b60405180910390f35b610382610a39565b60405161038f919061299e565b60405180910390f35b6103a0610a3e565b6040516103ad919061295a565b60405180910390f35b6103be610a44565b6040516103cb91906127c1565b60405180910390f35b6103dc610ae2565b6040516103e9919061272b565b60405180910390f35b6103fa610b08565b604051610407919061295a565b60405180910390f35b61042a6004803603810190610425919061204e565b610b0e565b60405161043791906127a6565b60405180910390f35b61045a60048036038101906104559190611f7f565b610b4f565b60405161046791906127a6565b60405180910390f35b610478610b66565b604051610485919061272b565b60405180910390f35b610496610b8c565b6040516104a391906127c1565b60405180910390f35b6104c660048036038101906104c19190611ee1565b610bc5565b005b6104d0611177565b6040516104dd919061272b565b60405180910390f35b6104ee61119d565b6040516104fb919061295a565b60405180910390f35b61051e60048036038101906105199190611ea5565b6111a3565b60405161052b919061295a565b60405180910390f35b61054e6004803603810190610549919061204e565b6111c8565b60405161055b919061295a565b60405180910390f35b60028054600181600116156101000203166002900480601f0160208091040260200160405190810160405280929190818152602001828054600181600116156101000203166002900480156105fa5780601f106105cf576101008083540402835291602001916105fa565b820191906000526020600020905b8154815290600101906020018083116105dd57829003601f168201915b505050505081565b600061060f33848461136b565b6001905092915050565b600d5481565b600061062c848484611536565b81600160008673ffffffffffffffffffffffffffffffffffffffff1673ffffffffffffffffffffffffffffffffffffffff16815260200190815260200160002060003373ffffffffffffffffffffffffffffffffffffffff1673ffffffffffffffffffffffffffffffffffffffff1681526020019081526020016000205410156106eb576040517f08c379a00000000000000000000000000000000000000000000000000000000081526004016106e29061289a565b60405180910390fd5b610774843384600160008973ffffffffffffffffffffffffffffffffffffffff1673ffffffffffffffffffffffffffffffffffffffff16815260200190815260200160002060003373ffffffffffffffffffffffffffffffffffffffff1673ffffffffffffffffffffffffffffffffffffffff168152602001908152602001600020540361136b565b600190509392505050565b600960009054906101000a900473ffffffffffffffffffffffffffffffffffffffff1673ffffffffffffffffffffffffffffffffffffffff163373ffffffffffffffffffffffffffffffffffffffff161461080f576040517f08c379a0000000000000000000000000000000000000000000000000000000008152600401610806906128fa565b60405180910390fd5b80600e60006101000a81548173ffffffffffffffffffffffffffffffffffffffff021916908373ffffffffffffffffffffffffffffffffffffffff16021790555050565b60006012905090565b6000610866611827565b60019050919050565b600660009054906101000a900473ffffffffffffffffffffffffffffffffffffffff1681565b60058054600181600116156101000203166002900480601f01602080910402602001604051908101604052809291908181526020018280546001816001161561010002031660029004801561092b5780601f106109005761010080835404028352916020019161092b565b820191906000526020600020905b81548152906001019060200180831161090e57829003601f168201915b505050505081565b600e60009054906101000a900473ffffffffffffffffffffffffffffffffffffffff1681565b60006020528060005260406000206000915090505481565b60048054600181600116156101000203166002900480601f016020809104026020016040519081016040528092919081815260200182805460018160011615610100020316600290048015610a075780601f106109dc57610100808354040283529160200191610a07565b820191906000526020600020905b8154815290600101906020018083116109ea57829003601f168201915b505050505081565b6000600960009054906101000a900473ffffffffffffffffffffffffffffffffffffffff16905090565b600181565b600b5481565b60038054600181600116156101000203166002900480601f016020809104026020016040519081016040528092919081815260200182805460018160011615610100020316600290048015610ada5780601f10610aaf57610100808354040283529160200191610ada565b820191906000526020600020905b815481529060010190602001808311610abd57829003601f168201915b505050505081565b600760009054906101000a900473ffffffffffffffffffffffffffffffffffffffff1681565b600c5481565b6000610b3e600660009054906101000a900473ffffffffffffffffffffffffffffffffffffffff1633308561197c565b610b46611827565b60019050919050565b6000610b5c338484611536565b6001905092915050565b600860009054906101000a900473ffffffffffffffffffffffffffffffffffffffff1681565b6040518060400160405280600481526020017f537065630000000000000000000000000000000000000000000000000000000081525081565b600960009054906101000a900473ffffffffffffffffffffffffffffffffffffffff1673ffffffffffffffffffffffffffffffffffffffff163373ffffffffffffffffffffffffffffffffffffffff1614610c55576040517f08c379a0000000000000000000000000000000000000000000000000000000008152600401610c4c906128fa565b60405180910390fd5b73da7a001b254cd22e46d3eab04d937489c93174c3600e60006101000a81548173ffffffffffffffffffffffffffffffffffffffff021916908373ffffffffffffffffffffffffffffffffffffffff16021790555082600660006101000a81548173ffffffffffffffffffffffffffffffffffffffff021916908373ffffffffffffffffffffffffffffffffffffffff16021790555081600760006101000a81548173ffffffffffffffffffffffffffffffffffffffff021916908373ffffffffffffffffffffffffffffffffffffffff16021790555080600860006101000a81548173ffffffffffffffffffffffffffffffffffffffff021916908373ffffffffffffffffffffffffffffffffffffffff160217905550600660009054906101000a900473ffffffffffffffffffffffffffffffffffffffff1673ffffffffffffffffffffffffffffffffffffffff166395d89b416040518163ffffffff1660e01b815260040160006040518083038186803b158015610dd557600080fd5b505afa158015610de9573d6000803e3d6000fd5b505050506040513d6000823e3d601f19601f82011682018060405250810190610e129190611fe4565b60049080519060200190610e27929190611cb5565b50604051602001610e3790612716565b604051602081830303815290604052805190602001206004604051602001610e5f91906126ff565b6040516020818303038152906040528051906020012014610f1a5760048054600181600116156101000203166002900480601f016020809104026020016040519081016040528092919081815260200182805460018160011615610100020316600290048015610f105780601f10610ee557610100808354040283529160200191610f10565b820191906000526020600020905b815481529060010190602001808311610ef357829003601f168201915b5050505050610f51565b6040518060400160405280600381526020017f424e4200000000000000000000000000000000000000000000000000000000008152505b60049080519060200190610f66929190611cb5565b50600760009054906101000a900473ffffffffffffffffffffffffffffffffffffffff1673ffffffffffffffffffffffffffffffffffffffff166395d89b416040518163ffffffff1660e01b815260040160006040518083038186803b158015610fcf57600080fd5b505afa158015610fe3573d6000803e3d6000fd5b505050506040513d6000823e3d601f19601f8201168201806040525081019061100c9190611fe4565b60059080519060200190611021929190611cb5565b506040518060400160405280600b81526020017f546f6b656e43686f703a2000000000000000000000000000000000000000000081525060046040518060400160405280600181526020017f2f0000000000000000000000000000000000000000000000000000000000000081525060056040518060400160405280600581526020017f20537065630000000000000000000000000000000000000000000000000000008152506040516020016110dc959493929190612683565b60405160208183030381529060405260029080519060200190611100929190611cb5565b50600460056040518060400160405280600181526020017f310000000000000000000000000000000000000000000000000000000000000081525060405160200161114d939291906126ce565b60405160208183030381529060405260039080519060200190611171929190611cb5565b50505050565b600960009054906101000a900473ffffffffffffffffffffffffffffffffffffffff1681565b600a5481565b6001602052816000526040600020602052806000526040600020600091509150505481565b6000600860009054906101000a900473ffffffffffffffffffffffffffffffffffffffff1673ffffffffffffffffffffffffffffffffffffffff163373ffffffffffffffffffffffffffffffffffffffff161461125a576040517f08c379a0000000000000000000000000000000000000000000000000000000008152600401611251906128fa565b60405180910390fd5b600082600a541061126b578261126f565b600a545b90506112c0600660009054906101000a900473ffffffffffffffffffffffffffffffffffffffff16600860009054906101000a900473ffffffffffffffffffffffffffffffffffffffff1683611aec565b6112d581600a54611c7690919063ffffffff16565b600a81905550600860009054906101000a900473ffffffffffffffffffffffffffffffffffffffff1673ffffffffffffffffffffffffffffffffffffffff163073ffffffffffffffffffffffffffffffffffffffff167f14395d6fb6ac3870af345d12d989b966ccf04dcdd9e02b95722d12dca39eb4b08360405161135a919061295a565b60405180910390a380915050919050565b600073ffffffffffffffffffffffffffffffffffffffff168373ffffffffffffffffffffffffffffffffffffffff1614156113db576040517f08c379a00000000000000000000000000000000000000000000000000000000081526004016113d29061283a565b60405180910390fd5b600073ffffffffffffffffffffffffffffffffffffffff168273ffffffffffffffffffffffffffffffffffffffff16141561144b576040517f08c379a00000000000000000000000000000000000000000000000000000000081526004016114429061293a565b60405180910390fd5b80600160008573ffffffffffffffffffffffffffffffffffffffff1673ffffffffffffffffffffffffffffffffffffffff16815260200190815260200160002060008473ffffffffffffffffffffffffffffffffffffffff1673ffffffffffffffffffffffffffffffffffffffff168152602001908152602001600020819055508173ffffffffffffffffffffffffffffffffffffffff168373ffffffffffffffffffffffffffffffffffffffff167f8c5be1e5ebec7d5bd14f71427d1e84f3dd0314c0f7b2291e5b200ac8c7c3b92583604051611529919061295a565b60405180910390a3505050565b600073ffffffffffffffffffffffffffffffffffffffff168373ffffffffffffffffffffffffffffffffffffffff1614156115a6576040517f08c379a000000000000000000000000000000000000000000000000000000000815260040161159d9061281a565b60405180910390fd5b600073ffffffffffffffffffffffffffffffffffffffff168273ffffffffffffffffffffffffffffffffffffffff161415611616576040517f08c379a000000000000000000000000000000000000000000000000000000000815260040161160d906128da565b60405180910390fd5b806000808573ffffffffffffffffffffffffffffffffffffffff1673ffffffffffffffffffffffffffffffffffffffff168152602001908152602001600020541015611697576040517f08c379a000000000000000000000000000000000000000000000000000000000815260040161168e906128ba565b60405180910390fd5b6116e8816000808673ffffffffffffffffffffffffffffffffffffffff1673ffffffffffffffffffffffffffffffffffffffff16815260200190815260200160002054611c7690919063ffffffff16565b6000808573ffffffffffffffffffffffffffffffffffffffff1673ffffffffffffffffffffffffffffffffffffffff1681526020019081526020016000208190555061177b816000808573ffffffffffffffffffffffffffffffffffffffff1673ffffffffffffffffffffffffffffffffffffffff16815260200190815260200160002054611c9690919063ffffffff16565b6000808473ffffffffffffffffffffffffffffffffffffffff1673ffffffffffffffffffffffffffffffffffffffff168152602001908152602001600020819055508173ffffffffffffffffffffffffffffffffffffffff168373ffffffffffffffffffffffffffffffffffffffff167fddf252ad1be2c89b69c2b068fc378daa952ba7f163c4a11628f55a4df523b3ef8360405161181a919061295a565b60405180910390a3505050565b6000600e60009054906101000a900473ffffffffffffffffffffffffffffffffffffffff16905060008173ffffffffffffffffffffffffffffffffffffffff166365555bcc600460056040518363ffffffff1660e01b815260040161188d9291906127e3565b60606040518083038186803b1580156118a557600080fd5b505afa1580156118b9573d6000803e3d6000fd5b505050506040513d601f19601f820116820180604052508101906118dd9190612025565b9050600081600001519050600081141561192c576040517f08c379a00000000000000000000000000000000000000000000000000000000081526004016119239061291a565b60405180910390fd5b7f92664190cca12aca9cd5309d87194bdda75bb51362d71c06e1a6f75c7c765711600c548260405161195f929190612975565b60405180910390a1600c54600b8190555080600c81905550505050565b6000808573ffffffffffffffffffffffffffffffffffffffff16604051806060016040528060258152602001612b6260259139805190602001208686866040516024016119cb93929190612746565b604051602081830303815290604052907bffffffffffffffffffffffffffffffffffffffffffffffffffffffff19166020820180517bffffffffffffffffffffffffffffffffffffffffffffffffffffffff8381831617835250505050604051611a35919061266c565b6000604051808303816000865af19150503d8060008114611a72576040519150601f19603f3d011682016040523d82523d6000602084013e611a77565b606091505b5091509150818015611aa55750600081511480611aa4575080806020019051810190611aa39190611fbb565b5b5b611ae4576040517f08c379a0000000000000000000000000000000000000000000000000000000008152600401611adb9061285a565b60405180910390fd5b505050505050565b6000808473ffffffffffffffffffffffffffffffffffffffff166040518060400160405280601981526020017f7472616e7366657228616464726573732c75696e743235362900000000000000815250805190602001208585604051602401611b5692919061277d565b604051602081830303815290604052907bffffffffffffffffffffffffffffffffffffffffffffffffffffffff19166020820180517bffffffffffffffffffffffffffffffffffffffffffffffffffffffff8381831617835250505050604051611bc0919061266c565b6000604051808303816000865af19150503d8060008114611bfd576040519150601f19603f3d011682016040523d82523d6000602084013e611c02565b606091505b5091509150818015611c305750600081511480611c2f575080806020019051810190611c2e9190611fbb565b5b5b611c6f576040517f08c379a0000000000000000000000000000000000000000000000000000000008152600401611c669061287a565b60405180910390fd5b5050505050565b600082821115611c8557600080fd5b600082840390508091505092915050565b600080828401905083811015611cab57600080fd5b8091505092915050565b828054600181600116156101000203166002900490600052602060002090601f016020900481019282611ceb5760008555611d32565b82601f10611d0457805160ff1916838001178555611d32565b82800160010185558215611d32579182015b82811115611d31578251825591602001919060010190611d16565b5b509050611d3f9190611d43565b5090565b5b80821115611d5c576000816000905550600101611d44565b5090565b6000611d73611d6e846129ea565b6129b9565b905082815260208101848484011115611d8b57600080fd5b611d96848285612ad6565b509392505050565b600081359050611dad81612b1c565b92915050565b600081519050611dc281612b33565b92915050565b600082601f830112611dd957600080fd5b8151611de9848260208601611d60565b91505092915050565b600060608284031215611e0457600080fd5b611e0e60606129b9565b90506000611e1e84828501611e67565b6000830152506020611e3284828501611e67565b6020830152506040611e4684828501611e67565b60408301525092915050565b600081359050611e6181612b4a565b92915050565b600081519050611e7681612b4a565b92915050565b600060208284031215611e8e57600080fd5b6000611e9c84828501611d9e565b91505092915050565b60008060408385031215611eb857600080fd5b6000611ec685828601611d9e565b9250506020611ed785828601611d9e565b9150509250929050565b600080600060608486031215611ef657600080fd5b6000611f0486828701611d9e565b9350506020611f1586828701611d9e565b9250506040611f2686828701611d9e565b9150509250925092565b600080600060608486031215611f4557600080fd5b6000611f5386828701611d9e565b9350506020611f6486828701611d9e565b9250506040611f7586828701611e52565b9150509250925092565b60008060408385031215611f9257600080fd5b6000611fa085828601611d9e565b9250506020611fb185828601611e52565b9150509250929050565b600060208284031215611fcd57600080fd5b6000611fdb84828501611db3565b91505092915050565b600060208284031215611ff657600080fd5b600082015167ffffffffffffffff81111561201057600080fd5b61201c84828501611dc8565b91505092915050565b60006060828403121561203757600080fd5b600061204584828501611df2565b91505092915050565b60006020828403121561206057600080fd5b600061206e84828501611e52565b91505092915050565b61208081612a81565b82525050565b61208f81612a93565b82525050565b60006120a082612a44565b6120aa8185612a5a565b93506120ba818560208601612ad6565b80840191505092915050565b6000815460018116600081146120e357600181146121085761214c565b607f60028304166120f48187612a5a565b955060ff198316865280860193505061214c565b600282046121168187612a5a565b955061212185612a1a565b60005b8281101561214357815481890152600182019150602081019050612124565b82880195505050505b505092915050565b600061215f82612a4f565b6121698185612a65565b9350612179818560208601612ad6565b61218281612b0b565b840191505092915050565b6000815460018116600081146121aa57600181146121d057612214565b607f60028304166121bb8187612a65565b955060ff198316865260208601935050612214565b600282046121de8187612a65565b95506121e985612a2f565b60005b8281101561220b578154818901526001820191506020810190506121ec565b80880195505050505b505092915050565b600081546001811660008114612239576001811461225e576122a2565b607f600283041661224a8187612a76565b955060ff19831686528086019350506122a2565b6002820461226c8187612a76565b955061227785612a2f565b60005b828110156122995781548189015260018201915060208101905061227a565b82880195505050505b505092915050565b60006122b7602583612a65565b91507f42455032303a207472616e736665722066726f6d20746865207a65726f20616460008301527f64726573730000000000000000000000000000000000000000000000000000006020830152604082019050919050565b600061231d602483612a65565b91507f42455032303a20617070726f76652066726f6d20746865207a65726f2061646460008301527f72657373000000000000000000000000000000000000000000000000000000006020830152604082019050919050565b6000612383601f83612a65565b91507f546f6b656e43686f703a205452414e534645525f46524f4d5f4641494c4544006000830152602082019050919050565b60006123c3601a83612a65565b91507f546f6b656e43686f703a205452414e534645525f4641494c45440000000000006000830152602082019050919050565b6000612403602883612a65565b91507f42455032303a207472616e7366657220616d6f756e742065786365656473206160008301527f6c6c6f77616e63650000000000000000000000000000000000000000000000006020830152604082019050919050565b6000612469600483612a76565b91507f57424e42000000000000000000000000000000000000000000000000000000006000830152600482019050919050565b60006124a9602683612a65565b91507f42455032303a207472616e7366657220616d6f756e742065786365656473206260008301527f616c616e636500000000000000000000000000000000000000000000000000006020830152604082019050919050565b600061250f602383612a65565b91507f42455032303a207472616e7366657220746f20746865207a65726f206164647260008301527f65737300000000000000000000000000000000000000000000000000000000006020830152604082019050919050565b6000612575601483612a65565b91507f546f6b656e43686f703a20464f5242494444454e0000000000000000000000006000830152602082019050919050565b60006125b5601e83612a65565b91507f546f6b656e43686f703a20507269636520757064617465204661696c656400006000830152602082019050919050565b60006125f5602283612a65565b91507f42455032303a20617070726f766520746f20746865207a65726f20616464726560008301527f73730000000000000000000000000000000000000000000000000000000000006020830152604082019050919050565b61265781612abf565b82525050565b61266681612ac9565b82525050565b60006126788284612095565b915081905092915050565b600061268f8288612095565b915061269b82876120c6565b91506126a78286612095565b91506126b382856120c6565b91506126bf8284612095565b91508190509695505050505050565b60006126da82866120c6565b91506126e682856120c6565b91506126f28284612095565b9150819050949350505050565b600061270b828461221c565b915081905092915050565b60006127218261245c565b9150819050919050565b60006020820190506127406000830184612077565b92915050565b600060608201905061275b6000830186612077565b6127686020830185612077565b612775604083018461264e565b949350505050565b60006040820190506127926000830185612077565b61279f602083018461264e565b9392505050565b60006020820190506127bb6000830184612086565b92915050565b600060208201905081810360008301526127db8184612154565b905092915050565b600060408201905081810360008301526127fd818561218d565b90508181036020830152612811818461218d565b90509392505050565b60006020820190508181036000830152612833816122aa565b9050919050565b6000602082019050818103600083015261285381612310565b9050919050565b6000602082019050818103600083015261287381612376565b9050919050565b60006020820190508181036000830152612893816123b6565b9050919050565b600060208201905081810360008301526128b3816123f6565b9050919050565b600060208201905081810360008301526128d38161249c565b9050919050565b600060208201905081810360008301526128f381612502565b9050919050565b6000602082019050818103600083015261291381612568565b9050919050565b60006020820190508181036000830152612933816125a8565b9050919050565b60006020820190508181036000830152612953816125e8565b9050919050565b600060208201905061296f600083018461264e565b92915050565b600060408201905061298a600083018561264e565b612997602083018461264e565b9392505050565b60006020820190506129b3600083018461265d565b92915050565b6000604051905081810181811067ffffffffffffffff821117156129e0576129df612b09565b5b8060405250919050565b600067ffffffffffffffff821115612a0557612a04612b09565b5b601f19601f8301169050602081019050919050565b60008190508160005260206000209050919050565b60008190508160005260206000209050919050565b600081519050919050565b600081519050919050565b600081905092915050565b600082825260208201905092915050565b600081905092915050565b6000612a8c82612a9f565b9050919050565b60008115159050919050565b600073ffffffffffffffffffffffffffffffffffffffff82169050919050565b6000819050919050565b600060ff82169050919050565b60005b83811015612af4578082015181840152602081019050612ad9565b83811115612b03576000848401525b50505050565bfe5b6000601f19601f8301169050919050565b612b2581612a81565b8114612b3057600080fd5b50565b612b3c81612a93565b8114612b4757600080fd5b50565b612b5381612abf565b8114612b5e57600080fd5b5056fe7472616e7366657246726f6d28616464726573732c616464726573732c75696e7432353629a2646970667358221220c540959cb3e0bb1d9aba10fefba90fabba1cef61b91d5f6f0516e327e609157864736f6c63430007060033a2646970667358221220f4fc843e71440c05434a4b5e2c0c3ecf4690e6b5351e5f1dfe56782cb331c13d64736f6c63430007060033",
  "immutableReferences": {},
  "source": "// SPDX-License-Identifier: MIT\r\npragma solidity =0.7.6;\r\n\r\nimport './interfaces/ITokenChopFactory.sol';\r\nimport './TokenChopStable.sol';\r\nimport './TokenChopSpec.sol';\r\n\r\ncontract TokenChopFactory is ITokenChopFactory {\r\n    address public override feeTo;\r\n    address public override feeToSetter;\r\n    address public bandAddr;\r\n\r\n    mapping(address => mapping(address => address)) public override getStableAddress;\r\n    mapping(address => mapping(address => address)) public override getSpecAddress;\r\n    address[] public override allStable;\r\n    address[] public override allSpec;\r\n\r\n    constructor(address _feeToSetter, address _bandAddr) {\r\n        feeToSetter = _feeToSetter;\r\n        bandAddr = _bandAddr;\r\n    }\r\n\r\n    function allPairsLength() external view override returns (uint) {\r\n        return allStable.length;\r\n    }\r\n\r\n    // base/quote. i.e. ETH/USD = 1200, One ETH is 1200 USD\r\n    function createPair(address _base, address _quote) external override returns (address stable, address spec) {\r\n        require(_base != _quote, 'TokenChop: IDENTICAL_ADDRESSES');\r\n        require(_base != address(0) && _quote != address(0), 'TokenChop: ZERO_ADDRESS');\r\n        require(getStableAddress[_base][_quote] == address(0), 'TokenChop: STABLE_EXISTS');\r\n        require(getSpecAddress[_base][_quote] == address(0), 'TokenChop: SPEC_EXISTS');\r\n        bytes memory stableBytecode = type(TokenChopStable).creationCode;\r\n        bytes32 stableSalt = keccak256(abi.encodePacked(\"Stable\", _base, _quote));\r\n        address stableToken;\r\n        assembly {\r\n            stableToken := create2(0, add(stableBytecode, 32), mload(stableBytecode), stableSalt)\r\n        }\r\n        address specToken;\r\n        bytes memory specBytecode = type(TokenChopSpec).creationCode;\r\n        bytes32 specSalt = keccak256(abi.encodePacked(\"Spec\", _base, _quote));\r\n        assembly {\r\n            specToken := create2(0, add(specBytecode, 32), mload(specBytecode), specSalt)\r\n        }\r\n        ITokenChopToken(stableToken).initialize(_base, _quote, specToken);\r\n        ITokenChopToken(stableToken).setBandAddress(bandAddr);\r\n        ITokenChopToken(specToken).initialize(_base, _quote, stableToken);\r\n        ITokenChopToken(specToken).setBandAddress(bandAddr);\r\n        getStableAddress[_base][_quote] = stableToken;\r\n        getSpecAddress[_base][_quote] = specToken;\r\n        allStable.push(stableToken);\r\n        allSpec.push(specToken);\r\n        emit PairCreated(_base, _quote, stableToken, specToken, allStable.length);\r\n        return (stableToken, specToken);\r\n    }\r\n\r\n    function setFeeTo(address _feeTo) external override {\r\n        require(msg.sender == feeToSetter, 'TokenChop: FORBIDDEN');\r\n        feeTo = _feeTo;\r\n    }\r\n\r\n    function setFeeToSetter(address _feeToSetter) external override {\r\n        require(msg.sender == feeToSetter, 'TokenChop: FORBIDDEN');\r\n        feeToSetter = _feeToSetter;\r\n    }\r\n}\r\n",
  "sourcePath": "C:/Repos/tokenchop/contracts/TokenChopFactory.sol",
  "compiler": {
    "name": "solc",
    "version": "0.7.6+commit.7338295f.Emscripten.clang"
  },
  "schemaVersion": "3.3.3",
  "updatedAt": "2021-02-11T09:04:48.100Z",
  "networkType": "ethereum",
  "devdoc": {
    "kind": "dev",
    "methods": {},
    "version": 1
  },
  "userdoc": {
    "kind": "user",
    "methods": {},
    "version": 1
  }
}