{
  "contractName": "TokenChopToken",
  "abi": [
    {
      "inputs": [],
      "stateMutability": "nonpayable",
      "type": "constructor"
    },
    {
      "anonymous": false,
      "inputs": [
        {
          "indexed": true,
          "internalType": "address",
          "name": "owner",
          "type": "address"
        },
        {
          "indexed": true,
          "internalType": "address",
          "name": "spender",
          "type": "address"
        },
        {
          "indexed": false,
          "internalType": "uint256",
          "name": "value",
          "type": "uint256"
        }
      ],
      "name": "Approval",
      "type": "event"
    },
    {
      "anonymous": false,
      "inputs": [
        {
          "indexed": true,
          "internalType": "address",
          "name": "from",
          "type": "address"
        },
        {
          "indexed": true,
          "internalType": "address",
          "name": "to",
          "type": "address"
        },
        {
          "indexed": false,
          "internalType": "uint256",
          "name": "value",
          "type": "uint256"
        }
      ],
      "name": "CollateralTransfer",
      "type": "event"
    },
    {
      "anonymous": false,
      "inputs": [
        {
          "indexed": true,
          "internalType": "address",
          "name": "from",
          "type": "address"
        },
        {
          "indexed": true,
          "internalType": "address",
          "name": "to",
          "type": "address"
        },
        {
          "indexed": false,
          "internalType": "uint256",
          "name": "value",
          "type": "uint256"
        }
      ],
      "name": "Transfer",
      "type": "event"
    },
    {
      "inputs": [
        {
          "internalType": "int8",
          "name": "typeId",
          "type": "int8"
        },
        {
          "internalType": "address",
          "name": "base",
          "type": "address"
        },
        {
          "internalType": "address",
          "name": "quote",
          "type": "address"
        },
        {
          "internalType": "address",
          "name": "sister",
          "type": "address"
        }
      ],
      "name": "initialize",
      "outputs": [],
      "stateMutability": "nonpayable",
      "type": "function"
    },
    {
      "inputs": [],
      "name": "collateral",
      "outputs": [
        {
          "internalType": "uint256",
          "name": "",
          "type": "uint256"
        }
      ],
      "stateMutability": "view",
      "type": "function"
    },
    {
      "inputs": [],
      "name": "name",
      "outputs": [
        {
          "internalType": "string",
          "name": "",
          "type": "string"
        }
      ],
      "stateMutability": "view",
      "type": "function"
    },
    {
      "inputs": [],
      "name": "symbol",
      "outputs": [
        {
          "internalType": "string",
          "name": "",
          "type": "string"
        }
      ],
      "stateMutability": "view",
      "type": "function"
    },
    {
      "inputs": [],
      "name": "getOwner",
      "outputs": [
        {
          "internalType": "address",
          "name": "",
          "type": "address"
        }
      ],
      "stateMutability": "view",
      "type": "function"
    },
    {
      "inputs": [],
      "name": "decimals",
      "outputs": [
        {
          "internalType": "uint8",
          "name": "",
          "type": "uint8"
        }
      ],
      "stateMutability": "pure",
      "type": "function"
    },
    {
      "inputs": [],
      "name": "totalSupply",
      "outputs": [
        {
          "internalType": "uint256",
          "name": "",
          "type": "uint256"
        }
      ],
      "stateMutability": "view",
      "type": "function"
    },
    {
      "inputs": [
        {
          "internalType": "address",
          "name": "_account",
          "type": "address"
        }
      ],
      "name": "balanceOf",
      "outputs": [
        {
          "internalType": "uint256",
          "name": "",
          "type": "uint256"
        }
      ],
      "stateMutability": "view",
      "type": "function"
    },
    {
      "inputs": [
        {
          "internalType": "address",
          "name": "_recipient",
          "type": "address"
        },
        {
          "internalType": "uint256",
          "name": "_amount",
          "type": "uint256"
        }
      ],
      "name": "transfer",
      "outputs": [
        {
          "internalType": "bool",
          "name": "",
          "type": "bool"
        }
      ],
      "stateMutability": "nonpayable",
      "type": "function"
    },
    {
      "inputs": [
        {
          "internalType": "address",
          "name": "_owner",
          "type": "address"
        },
        {
          "internalType": "address",
          "name": "_spender",
          "type": "address"
        }
      ],
      "name": "allowance",
      "outputs": [
        {
          "internalType": "uint256",
          "name": "",
          "type": "uint256"
        }
      ],
      "stateMutability": "view",
      "type": "function"
    },
    {
      "inputs": [
        {
          "internalType": "address",
          "name": "_spender",
          "type": "address"
        },
        {
          "internalType": "uint256",
          "name": "_amount",
          "type": "uint256"
        }
      ],
      "name": "approve",
      "outputs": [
        {
          "internalType": "bool",
          "name": "",
          "type": "bool"
        }
      ],
      "stateMutability": "nonpayable",
      "type": "function"
    },
    {
      "inputs": [
        {
          "internalType": "address",
          "name": "_sender",
          "type": "address"
        },
        {
          "internalType": "address",
          "name": "_recipient",
          "type": "address"
        },
        {
          "internalType": "uint256",
          "name": "_amount",
          "type": "uint256"
        }
      ],
      "name": "transferFrom",
      "outputs": [
        {
          "internalType": "bool",
          "name": "",
          "type": "bool"
        }
      ],
      "stateMutability": "nonpayable",
      "type": "function"
    },
    {
      "inputs": [],
      "name": "updatePrice",
      "outputs": [
        {
          "internalType": "bool",
          "name": "",
          "type": "bool"
        }
      ],
      "stateMutability": "nonpayable",
      "type": "function"
    },
    {
      "inputs": [
        {
          "internalType": "uint256",
          "name": "newCollateral",
          "type": "uint256"
        }
      ],
      "name": "rebalanceCollateral",
      "outputs": [
        {
          "internalType": "bool",
          "name": "",
          "type": "bool"
        }
      ],
      "stateMutability": "nonpayable",
      "type": "function"
    },
    {
      "inputs": [
        {
          "internalType": "uint256",
          "name": "_requestedAmount",
          "type": "uint256"
        }
      ],
      "name": "sendCollateralToSister",
      "outputs": [
        {
          "internalType": "uint256",
          "name": "amount",
          "type": "uint256"
        }
      ],
      "stateMutability": "nonpayable",
      "type": "function"
    },
    {
      "inputs": [
        {
          "internalType": "uint256",
          "name": "_collateralAmount",
          "type": "uint256"
        }
      ],
      "name": "mint",
      "outputs": [
        {
          "internalType": "bool",
          "name": "",
          "type": "bool"
        }
      ],
      "stateMutability": "nonpayable",
      "type": "function"
    },
    {
      "inputs": [
        {
          "internalType": "uint256",
          "name": "_tokenAmount",
          "type": "uint256"
        }
      ],
      "name": "burn",
      "outputs": [
        {
          "internalType": "bool",
          "name": "",
          "type": "bool"
        }
      ],
      "stateMutability": "nonpayable",
      "type": "function"
    }
  ],
  "bytecode": "0x608060405234801561001057600080fd5b5033600460006101000a81548173ffffffffffffffffffffffffffffffffffffffff021916908373ffffffffffffffffffffffffffffffffffffffff160217905550612b66806100616000396000f3fe608060405234801561001057600080fd5b506004361061010b5760003560e01c806370a08231116100a2578063a9059cbb11610071578063a9059cbb146102e4578063c3d4052714610314578063d8dfeb4514610330578063dd62ed3e1461034e578063f33ab2b81461037e5761010b565b806370a0823114610248578063893d20e81461027857806395d89b4114610296578063a0712d68146102b45761010b565b8063313ce567116100de578063313ce567146101ac57806342966c68146101ca578063664fd7e6146101fa578063673a7e281461022a5761010b565b806306fdde0314610110578063095ea7b31461012e57806318160ddd1461015e57806323b872dd1461017c575b600080fd5b6101186103ae565b6040516101259190612773565b60405180910390f35b61014860048036038101906101439190611fbc565b610450565b6040516101559190612758565b60405180910390f35b610166610467565b60405161017391906128cc565b60405180910390f35b61019660048036038101906101919190611f6d565b610471565b6040516101a39190612758565b60405180910390f35b6101b46105d1565b6040516101c1919061291e565b60405180910390f35b6101e460048036038101906101df91906120ee565b6105da565b6040516101f19190612758565b60405180910390f35b610214600480360381019061020f91906120ee565b6108fd565b6040516102219190612758565b60405180910390f35b610232610968565b60405161023f9190612758565b60405180910390f35b610262600480360381019061025d9190611f08565b610ae6565b60405161026f91906128cc565b60405180910390f35b610280610b2e565b60405161028d91906126b4565b60405180910390f35b61029e610b58565b6040516102ab9190612773565b60405180910390f35b6102ce60048036038101906102c991906120ee565b610bfa565b6040516102db9190612758565b60405180910390f35b6102fe60048036038101906102f99190611fbc565b610f1a565b60405161030b9190612758565b60405180910390f35b61032e60048036038101906103299190612021565b610f31565b005b61033861150b565b60405161034591906128cc565b60405180910390f35b61036860048036038101906103639190611f31565b611515565b60405161037591906128cc565b60405180910390f35b610398600480360381019061039391906120ee565b61159c565b6040516103a591906128cc565b60405180910390f35b606060058054600181600116156101000203166002900480601f0160208091040260200160405190810160405280929190818152602001828054600181600116156101000203166002900480156104465780601f1061041b57610100808354040283529160200191610446565b820191906000526020600020905b81548152906001019060200180831161042957829003601f168201915b5050505050905090565b600061045d338484611755565b6001905092915050565b6000600254905090565b600061047e848484611920565b81600160008673ffffffffffffffffffffffffffffffffffffffff1673ffffffffffffffffffffffffffffffffffffffff16815260200190815260200160002060003373ffffffffffffffffffffffffffffffffffffffff1673ffffffffffffffffffffffffffffffffffffffff16815260200190815260200160002054101561053d576040517f08c379a00000000000000000000000000000000000000000000000000000000081526004016105349061282c565b60405180910390fd5b6105c6843384600160008973ffffffffffffffffffffffffffffffffffffffff1673ffffffffffffffffffffffffffffffffffffffff16815260200190815260200160002060003373ffffffffffffffffffffffffffffffffffffffff1673ffffffffffffffffffffffffffffffffffffffff1681526020019081526020016000205403611755565b600190509392505050565b60006012905090565b60008060003373ffffffffffffffffffffffffffffffffffffffff1673ffffffffffffffffffffffffffffffffffffffff1681526020019081526020016000205482111561062757600080fd5b610678826000803373ffffffffffffffffffffffffffffffffffffffff1673ffffffffffffffffffffffffffffffffffffffff16815260200190815260200160002054611c1190919063ffffffff16565b6000803373ffffffffffffffffffffffffffffffffffffffff1673ffffffffffffffffffffffffffffffffffffffff1681526020019081526020016000208190555060006106c4610968565b9050600073__Math__________________________________63aa9a0912600354866002546040518463ffffffff1660e01b8152600401610707939291906128e7565b60206040518083038186803b15801561071f57600080fd5b505af4158015610733573d6000803e3d6000fd5b505050506040513d601f19601f820116820180604052508101906107579190612117565b905061076e81600354611c1190919063ffffffff16565b600381905550600073ffffffffffffffffffffffffffffffffffffffff163373ffffffffffffffffffffffffffffffffffffffff167fddf252ad1be2c89b69c2b068fc378daa952ba7f163c4a11628f55a4df523b3ef866040516107d291906128cc565b60405180910390a33373ffffffffffffffffffffffffffffffffffffffff163073ffffffffffffffffffffffffffffffffffffffff167f14395d6fb6ac3870af345d12d989b966ccf04dcdd9e02b95722d12dca39eb4b08360405161083791906128cc565b60405180910390a36000600b60009054906101000a900473ffffffffffffffffffffffffffffffffffffffff1690508073ffffffffffffffffffffffffffffffffffffffff1663a9059cbb33846040518363ffffffff1660e01b81526004016108a1929190612706565b602060405180830381600087803b1580156108bb57600080fd5b505af11580156108cf573d6000803e3d6000fd5b505050506040513d601f19601f820116820180604052508101906108f39190611ff8565b9350505050919050565b600060035482111561093657600061092060035484611c1190919063ffffffff16565b9050600061092d82611c31565b9050505061095f565b600061094d83600354611c1190919063ffffffff16565b9050600061095a8261159c565b905050505b60019050919050565b60008073da7a001b254cd22e46d3eab04d937489c93174c3905060008173ffffffffffffffffffffffffffffffffffffffff166365555bcc6009600a6040518363ffffffff1660e01b81526004016109c1929190612795565b60606040518083038186803b1580156109d957600080fd5b505afa1580156109ed573d6000803e3d6000fd5b505050506040513d601f19601f82011682018060405250810190610a1191906120c5565b9050600081600001519050806008541415610a325760019350505050610ae3565b600073__Math__________________________________63aa9a0912600854846003546040518463ffffffff1660e01b8152600401610a73939291906128e7565b60206040518083038186803b158015610a8b57600080fd5b505af4158015610a9f573d6000803e3d6000fd5b505050506040513d601f19601f82011682018060405250810190610ac39190612117565b90506000610ad0826108fd565b9050826008819055506001955050505050505b90565b60008060008373ffffffffffffffffffffffffffffffffffffffff1673ffffffffffffffffffffffffffffffffffffffff168152602001908152602001600020549050919050565b6000600460009054906101000a900473ffffffffffffffffffffffffffffffffffffffff16905090565b606060068054600181600116156101000203166002900480601f016020809104026020016040519081016040528092919081815260200182805460018160011615610100020316600290048015610bf05780601f10610bc557610100808354040283529160200191610bf0565b820191906000526020600020905b815481529060010190602001808311610bd357829003601f168201915b5050505050905090565b600080600b60009054906101000a900473ffffffffffffffffffffffffffffffffffffffff16905060008173ffffffffffffffffffffffffffffffffffffffff166323b872dd3330876040518463ffffffff1660e01b8152600401610c61939291906126cf565b602060405180830381600087803b158015610c7b57600080fd5b505af1158015610c8f573d6000803e3d6000fd5b505050506040513d601f19601f82011682018060405250810190610cb39190611ff8565b905080610cf5576040517f08c379a0000000000000000000000000000000000000000000000000000000008152600401610cec9061280c565b60405180910390fd5b6000610cff610968565b9050600073__Math__________________________________63aa9a0912600254600354896040518463ffffffff1660e01b8152600401610d42939291906128e7565b60206040518083038186803b158015610d5a57600080fd5b505af4158015610d6e573d6000803e3d6000fd5b505050506040513d601f19601f82011682018060405250810190610d929190612117565b9050610de5816000803373ffffffffffffffffffffffffffffffffffffffff1673ffffffffffffffffffffffffffffffffffffffff16815260200190815260200160002054611d0d90919063ffffffff16565b6000803373ffffffffffffffffffffffffffffffffffffffff1673ffffffffffffffffffffffffffffffffffffffff16815260200190815260200160002081905550610e3c81600254611d0d90919063ffffffff16565b6002819055503373ffffffffffffffffffffffffffffffffffffffff16600073ffffffffffffffffffffffffffffffffffffffff167fddf252ad1be2c89b69c2b068fc378daa952ba7f163c4a11628f55a4df523b3ef83604051610ea091906128cc565b60405180910390a33073ffffffffffffffffffffffffffffffffffffffff163373ffffffffffffffffffffffffffffffffffffffff167f14395d6fb6ac3870af345d12d989b966ccf04dcdd9e02b95722d12dca39eb4b088604051610f0591906128cc565b60405180910390a36001945050505050919050565b6000610f27338484611920565b6001905092915050565b600460009054906101000a900473ffffffffffffffffffffffffffffffffffffffff1673ffffffffffffffffffffffffffffffffffffffff163373ffffffffffffffffffffffffffffffffffffffff1614610fc1576040517f08c379a0000000000000000000000000000000000000000000000000000000008152600401610fb89061288c565b60405180910390fd5b60008460000b14611007576040518060400160405280600481526020017f537065630000000000000000000000000000000000000000000000000000000081525061103e565b6040518060400160405280600681526020017f537461626c6500000000000000000000000000000000000000000000000000008152505b60079080519060200190611053929190611d2c565b5082600b60006101000a81548173ffffffffffffffffffffffffffffffffffffffff021916908373ffffffffffffffffffffffffffffffffffffffff16021790555081600c60006101000a81548173ffffffffffffffffffffffffffffffffffffffff021916908373ffffffffffffffffffffffffffffffffffffffff16021790555080600d60006101000a81548173ffffffffffffffffffffffffffffffffffffffff021916908373ffffffffffffffffffffffffffffffffffffffff1602179055506000600b60009054906101000a900473ffffffffffffffffffffffffffffffffffffffff1690506000600c60009054906101000a900473ffffffffffffffffffffffffffffffffffffffff1690506040518060400160405280600b81526020017f546f6b656e43686f703a200000000000000000000000000000000000000000008152508273ffffffffffffffffffffffffffffffffffffffff166395d89b416040518163ffffffff1660e01b815260040160006040518083038186803b1580156111e157600080fd5b505afa1580156111f5573d6000803e3d6000fd5b505050506040513d6000823e3d601f19601f8201168201806040525081019061121e9190612084565b6040518060400160405280600181526020017f2f000000000000000000000000000000000000000000000000000000000000008152508373ffffffffffffffffffffffffffffffffffffffff166395d89b416040518163ffffffff1660e01b815260040160006040518083038186803b15801561129a57600080fd5b505afa1580156112ae573d6000803e3d6000fd5b505050506040513d6000823e3d601f19601f820116820180604052508101906112d79190612084565b6040518060400160405280600181526020017f200000000000000000000000000000000000000000000000000000000000000081525060076040516020016113249695949392919061265c565b60405160208183030381529060405260059080519060200190611348929190611d2c565b508173ffffffffffffffffffffffffffffffffffffffff166395d89b416040518163ffffffff1660e01b815260040160006040518083038186803b15801561138f57600080fd5b505afa1580156113a3573d6000803e3d6000fd5b505050506040513d6000823e3d601f19601f820116820180604052508101906113cc9190612084565b8173ffffffffffffffffffffffffffffffffffffffff166395d89b416040518163ffffffff1660e01b815260040160006040518083038186803b15801561141257600080fd5b505afa158015611426573d6000803e3d6000fd5b505050506040513d6000823e3d601f19601f8201168201806040525081019061144f9190612084565b60008860000b14611495576040518060400160405280600181526020017f31000000000000000000000000000000000000000000000000000000000000008152506114cc565b6040518060400160405280600181526020017f30000000000000000000000000000000000000000000000000000000000000008152505b6040516020016114de9392919061262b565b60405160208183030381529060405260069080519060200190611502929190611d2c565b50505050505050565b6000600354905090565b6000600160008473ffffffffffffffffffffffffffffffffffffffff1673ffffffffffffffffffffffffffffffffffffffff16815260200190815260200160002060008373ffffffffffffffffffffffffffffffffffffffff1673ffffffffffffffffffffffffffffffffffffffff16815260200190815260200160002054905092915050565b60008082600354106115ae57826115b2565b6003545b90506000600b60009054906101000a900473ffffffffffffffffffffffffffffffffffffffff16905060008173ffffffffffffffffffffffffffffffffffffffff1663a9059cbb600d60009054906101000a900473ffffffffffffffffffffffffffffffffffffffff16856040518363ffffffff1660e01b815260040161163a92919061272f565b602060405180830381600087803b15801561165457600080fd5b505af1158015611668573d6000803e3d6000fd5b505050506040513d601f19601f8201168201806040525081019061168c9190611ff8565b905080156116b0576116a983600354611c1190919063ffffffff16565b6003819055505b6000816116be5760006116c0565b835b9050600d60009054906101000a900473ffffffffffffffffffffffffffffffffffffffff1673ffffffffffffffffffffffffffffffffffffffff163073ffffffffffffffffffffffffffffffffffffffff167f14395d6fb6ac3870af345d12d989b966ccf04dcdd9e02b95722d12dca39eb4b08360405161174191906128cc565b60405180910390a380945050505050919050565b600073ffffffffffffffffffffffffffffffffffffffff168373ffffffffffffffffffffffffffffffffffffffff1614156117c5576040517f08c379a00000000000000000000000000000000000000000000000000000000081526004016117bc906127ec565b60405180910390fd5b600073ffffffffffffffffffffffffffffffffffffffff168273ffffffffffffffffffffffffffffffffffffffff161415611835576040517f08c379a000000000000000000000000000000000000000000000000000000000815260040161182c906128ac565b60405180910390fd5b80600160008573ffffffffffffffffffffffffffffffffffffffff1673ffffffffffffffffffffffffffffffffffffffff16815260200190815260200160002060008473ffffffffffffffffffffffffffffffffffffffff1673ffffffffffffffffffffffffffffffffffffffff168152602001908152602001600020819055508173ffffffffffffffffffffffffffffffffffffffff168373ffffffffffffffffffffffffffffffffffffffff167f8c5be1e5ebec7d5bd14f71427d1e84f3dd0314c0f7b2291e5b200ac8c7c3b9258360405161191391906128cc565b60405180910390a3505050565b600073ffffffffffffffffffffffffffffffffffffffff168373ffffffffffffffffffffffffffffffffffffffff161415611990576040517f08c379a0000000000000000000000000000000000000000000000000000000008152600401611987906127cc565b60405180910390fd5b600073ffffffffffffffffffffffffffffffffffffffff168273ffffffffffffffffffffffffffffffffffffffff161415611a00576040517f08c379a00000000000000000000000000000000000000000000000000000000081526004016119f79061286c565b60405180910390fd5b806000808573ffffffffffffffffffffffffffffffffffffffff1673ffffffffffffffffffffffffffffffffffffffff168152602001908152602001600020541015611a81576040517f08c379a0000000000000000000000000000000000000000000000000000000008152600401611a789061284c565b60405180910390fd5b611ad2816000808673ffffffffffffffffffffffffffffffffffffffff1673ffffffffffffffffffffffffffffffffffffffff16815260200190815260200160002054611c1190919063ffffffff16565b6000808573ffffffffffffffffffffffffffffffffffffffff1673ffffffffffffffffffffffffffffffffffffffff16815260200190815260200160002081905550611b65816000808573ffffffffffffffffffffffffffffffffffffffff1673ffffffffffffffffffffffffffffffffffffffff16815260200190815260200160002054611d0d90919063ffffffff16565b6000808473ffffffffffffffffffffffffffffffffffffffff1673ffffffffffffffffffffffffffffffffffffffff168152602001908152602001600020819055508173ffffffffffffffffffffffffffffffffffffffff168373ffffffffffffffffffffffffffffffffffffffff167fddf252ad1be2c89b69c2b068fc378daa952ba7f163c4a11628f55a4df523b3ef83604051611c0491906128cc565b60405180910390a3505050565b600082821115611c2057600080fd5b600082840390508091505092915050565b600080600d60009054906101000a900473ffffffffffffffffffffffffffffffffffffffff16905060008173ffffffffffffffffffffffffffffffffffffffff1663f33ab2b8856040518263ffffffff1660e01b8152600401611c9491906128cc565b602060405180830381600087803b158015611cae57600080fd5b505af1158015611cc2573d6000803e3d6000fd5b505050506040513d601f19601f82011682018060405250810190611ce69190612117565b9050611cfd81600354611d0d90919063ffffffff16565b6003819055508092505050919050565b600080828401905083811015611d2257600080fd5b8091505092915050565b828054600181600116156101000203166002900490600052602060002090601f016020900481019282611d625760008555611da9565b82601f10611d7b57805160ff1916838001178555611da9565b82800160010185558215611da9579182015b82811115611da8578251825591602001919060010190611d8d565b5b509050611db69190611dba565b5090565b5b80821115611dd3576000816000905550600101611dbb565b5090565b6000611dea611de58461296a565b612939565b905082815260208101848484011115611e0257600080fd5b611e0d848285612a8e565b509392505050565b600081359050611e2481612ad4565b92915050565b600081519050611e3981612aeb565b92915050565b600081359050611e4e81612b02565b92915050565b600082601f830112611e6557600080fd5b8151611e75848260208601611dd7565b91505092915050565b600060608284031215611e9057600080fd5b611e9a6060612939565b90506000611eaa84828501611ef3565b6000830152506020611ebe84828501611ef3565b6020830152506040611ed284828501611ef3565b60408301525092915050565b600081359050611eed81612b19565b92915050565b600081519050611f0281612b19565b92915050565b600060208284031215611f1a57600080fd5b6000611f2884828501611e15565b91505092915050565b60008060408385031215611f4457600080fd5b6000611f5285828601611e15565b9250506020611f6385828601611e15565b9150509250929050565b600080600060608486031215611f8257600080fd5b6000611f9086828701611e15565b9350506020611fa186828701611e15565b9250506040611fb286828701611ede565b9150509250925092565b60008060408385031215611fcf57600080fd5b6000611fdd85828601611e15565b9250506020611fee85828601611ede565b9150509250929050565b60006020828403121561200a57600080fd5b600061201884828501611e2a565b91505092915050565b6000806000806080858703121561203757600080fd5b600061204587828801611e3f565b945050602061205687828801611e15565b935050604061206787828801611e15565b925050606061207887828801611e15565b91505092959194509250565b60006020828403121561209657600080fd5b600082015167ffffffffffffffff8111156120b057600080fd5b6120bc84828501611e54565b91505092915050565b6000606082840312156120d757600080fd5b60006120e584828501611e7e565b91505092915050565b60006020828403121561210057600080fd5b600061210e84828501611ede565b91505092915050565b60006020828403121561212957600080fd5b600061213784828501611ef3565b91505092915050565b61214981612a58565b82525050565b612158816129f6565b82525050565b61216781612a08565b82525050565b6000612178826129c4565b61218281856129da565b9350612192818560208601612a8e565b80840191505092915050565b6000815460018116600081146121bb57600181146121e057612224565b607f60028304166121cc81876129da565b955060ff1983168652808601935050612224565b600282046121ee81876129da565b95506121f98561299a565b60005b8281101561221b578154818901526001820191506020810190506121fc565b82880195505050505b505092915050565b6000612237826129cf565b61224181856129e5565b9350612251818560208601612a8e565b61225a81612ac3565b840191505092915050565b60008154600181166000811461228257600181146122a8576122ec565b607f600283041661229381876129e5565b955060ff1983168652602086019350506122ec565b600282046122b681876129e5565b95506122c1856129af565b60005b828110156122e3578154818901526001820191506020810190506122c4565b80880195505050505b505092915050565b60006123016025836129e5565b91507f42455032303a207472616e736665722066726f6d20746865207a65726f20616460008301527f64726573730000000000000000000000000000000000000000000000000000006020830152604082019050919050565b60006123676024836129e5565b91507f42455032303a20617070726f76652066726f6d20746865207a65726f2061646460008301527f72657373000000000000000000000000000000000000000000000000000000006020830152604082019050919050565b60006123cd6039836129e5565b91507f4661696c656420746f207472616e7366657220746f6b656e2e205472616e736660008301527f6572206d75737420626520617070726f766564206669727374000000000000006020830152604082019050919050565b60006124336028836129e5565b91507f42455032303a207472616e7366657220616d6f756e742065786365656473206160008301527f6c6c6f77616e63650000000000000000000000000000000000000000000000006020830152604082019050919050565b60006124996026836129e5565b91507f42455032303a207472616e7366657220616d6f756e742065786365656473206260008301527f616c616e636500000000000000000000000000000000000000000000000000006020830152604082019050919050565b60006124ff6023836129e5565b91507f42455032303a207472616e7366657220746f20746865207a65726f206164647260008301527f65737300000000000000000000000000000000000000000000000000000000006020830152604082019050919050565b60006125656014836129e5565b91507f546f6b656e43686f703a20464f5242494444454e0000000000000000000000006000830152602082019050919050565b60006125a56022836129e5565b91507f42455032303a20617070726f766520746f20746865207a65726f20616464726560008301527f73730000000000000000000000000000000000000000000000000000000000006020830152604082019050919050565b61260781612a41565b82525050565b61261681612a41565b82525050565b61262581612a4b565b82525050565b6000612637828661216d565b9150612643828561216d565b915061264f828461216d565b9150819050949350505050565b6000612668828961216d565b9150612674828861216d565b9150612680828761216d565b915061268c828661216d565b9150612698828561216d565b91506126a4828461219e565b9150819050979650505050505050565b60006020820190506126c9600083018461214f565b92915050565b60006060820190506126e46000830186612140565b6126f1602083018561214f565b6126fe60408301846125fe565b949350505050565b600060408201905061271b6000830185612140565b61272860208301846125fe565b9392505050565b6000604082019050612744600083018561214f565b61275160208301846125fe565b9392505050565b600060208201905061276d600083018461215e565b92915050565b6000602082019050818103600083015261278d818461222c565b905092915050565b600060408201905081810360008301526127af8185612265565b905081810360208301526127c38184612265565b90509392505050565b600060208201905081810360008301526127e5816122f4565b9050919050565b600060208201905081810360008301526128058161235a565b9050919050565b60006020820190508181036000830152612825816123c0565b9050919050565b6000602082019050818103600083015261284581612426565b9050919050565b600060208201905081810360008301526128658161248c565b9050919050565b60006020820190508181036000830152612885816124f2565b9050919050565b600060208201905081810360008301526128a581612558565b9050919050565b600060208201905081810360008301526128c581612598565b9050919050565b60006020820190506128e160008301846125fe565b92915050565b60006060820190506128fc600083018661260d565b612909602083018561260d565b612916604083018461260d565b949350505050565b6000602082019050612933600083018461261c565b92915050565b6000604051905081810181811067ffffffffffffffff821117156129605761295f612ac1565b5b8060405250919050565b600067ffffffffffffffff82111561298557612984612ac1565b5b601f19601f8301169050602081019050919050565b60008190508160005260206000209050919050565b60008190508160005260206000209050919050565b600081519050919050565b600081519050919050565b600081905092915050565b600082825260208201905092915050565b6000612a0182612a21565b9050919050565b60008115159050919050565b60008160000b9050919050565b600073ffffffffffffffffffffffffffffffffffffffff82169050919050565b6000819050919050565b600060ff82169050919050565b6000612a6382612a6a565b9050919050565b6000612a7582612a7c565b9050919050565b6000612a8782612a21565b9050919050565b60005b83811015612aac578082015181840152602081019050612a91565b83811115612abb576000848401525b50505050565bfe5b6000601f19601f8301169050919050565b612add816129f6565b8114612ae857600080fd5b50565b612af481612a08565b8114612aff57600080fd5b50565b612b0b81612a14565b8114612b1657600080fd5b50565b612b2281612a41565b8114612b2d57600080fd5b5056fea26469706673582212209735ed531086f61c6c1f5b594455e744e183a746fbe2901eb485f0a2826ad42664736f6c63430007060033",
  "immutableReferences": {},
  "source": "// SPDX-License-Identifier: MIT\r\npragma solidity =0.7.6;\r\npragma abicoder v2;\r\n\r\nimport \"./interfaces/IBEP20.sol\";\r\nimport \"./interfaces/ITokenChopToken.sol\";\r\nimport \"./interfaces/IStdReference.sol\";\r\nimport \"./libs/SafeMath.sol\";\r\nimport \"./libs/Math.sol\";\r\n\r\ncontract TokenChopToken is IBEP20, ITokenChopToken {\r\n    using SafeMath for uint256;\r\n    mapping(address => uint256) private _balances;\r\n    mapping(address => mapping(address => uint256)) private _allowances;\r\n\r\n    uint256 private _totalSupply;\r\n    uint256 private _collateral;\r\n    address private _factory;\r\n    string private _name;\r\n    string private _symbol;\r\n    string private _type;\r\n    uint256 private _price;\r\n    string private _baseSymbol;\r\n    string private _quoteSymbol;\r\n    address private _base;\r\n    address private _quote;\r\n\r\n    address private _sister;\r\n    address private constant _bandProtocol = 0xDA7a001b254CD22e46d3eAB04d937489c93174C3;\r\n\r\n    event CollateralTransfer(address indexed from, address indexed to, uint256 value);\r\n\r\n    constructor() {\r\n        _factory = msg.sender;\r\n    }\r\n\r\n    function initialize(int8 typeId, address base, address quote, address sister) external override {\r\n        require(msg.sender == _factory, 'TokenChop: FORBIDDEN');\r\n        _type = typeId == 0 ? \"Stable\" : \"Spec\";\r\n        _base = base;\r\n        _quote = quote;\r\n        _sister = sister;\r\n        IBEP20 baseContract = IBEP20(_base);\r\n        IBEP20 quoteContract = IBEP20(_quote);\r\n        _name = string(abi.encodePacked(bytes(\"TokenChop: \"), bytes(baseContract.symbol()), bytes(\"/\"), bytes(quoteContract.symbol()), bytes(\" \"), bytes(_type)));\r\n        _symbol = string(abi.encodePacked(bytes(baseContract.symbol()), bytes(quoteContract.symbol()), bytes(typeId == 0 ? '0' : '1')));\r\n    }\r\n\r\n    function collateral() external view returns (uint256) {\r\n        return _collateral;\r\n    }\r\n\r\n    function name() external override view returns (string memory) {\r\n        return _name;\r\n    }\r\n\r\n    function symbol() external override view returns (string memory) {\r\n        return _symbol;\r\n    }\r\n\r\n    function getOwner() external override view returns (address) {\r\n        return _factory;\r\n    }\r\n\r\n    function decimals() external override pure returns (uint8) {\r\n        return 18;\r\n    }\r\n\r\n    function totalSupply() external override view returns (uint256) {\r\n        return _totalSupply;\r\n    }\r\n\r\n    function balanceOf(address _account) external override view returns (uint256) {\r\n        return _balances[_account];\r\n    }\r\n\r\n    function transfer(address _recipient, uint256 _amount) external override returns (bool) {\r\n        _transfer(msg.sender, _recipient, _amount);\r\n        return true;\r\n    }\r\n\r\n    function allowance(address _owner, address _spender) external override view returns (uint256) {\r\n        return _allowances[_owner][_spender];\r\n    }\r\n\r\n    function approve(address _spender, uint256 _amount) external override returns (bool) {\r\n        _approve(msg.sender, _spender, _amount);\r\n        return true;\r\n    }\r\n\r\n    function transferFrom(address _sender, address _recipient, uint256 _amount) external override returns (bool) {\r\n        _transfer(_sender, _recipient, _amount);\r\n        require(_allowances[_sender][msg.sender] >= _amount, \"BEP20: transfer amount exceeds allowance\");\r\n        _approve(_sender, msg.sender, _allowances[_sender][msg.sender] - _amount);\r\n        return true;\r\n    }\r\n\r\n    function _transfer(address _sender, address _recipient, uint256 _amount) internal {\r\n        require(_sender != address(0), \"BEP20: transfer from the zero address\");\r\n        require(_recipient != address(0), \"BEP20: transfer to the zero address\");\r\n        require(_balances[_sender] >= _amount, \"BEP20: transfer amount exceeds balance\");\r\n        \r\n        _balances[_sender] = _balances[_sender].sub(_amount);\r\n        _balances[_recipient] = _balances[_recipient].add(_amount);\r\n\r\n        emit Transfer(_sender, _recipient, _amount);\r\n    }\r\n\r\n    function _approve(address _owner, address _spender, uint256 _amount) internal {\r\n        require(_owner != address(0), \"BEP20: approve from the zero address\");\r\n        require(_spender != address(0), \"BEP20: approve to the zero address\");\r\n\r\n        _allowances[_owner][_spender] = _amount;\r\n        emit Approval(_owner, _spender, _amount);\r\n    }\r\n\r\n    function updatePrice() public returns (bool) {\r\n        IStdReference bandProtocolContract = IStdReference(_bandProtocol);\r\n        IStdReference.ReferenceData memory data = bandProtocolContract.getReferenceData(_baseSymbol,_quoteSymbol);\r\n        uint256 newPrice = data.rate;\r\n        if (_price == newPrice) {\r\n            return true;\r\n        }\r\n        uint256 newCollateral = Math.mulDiv(_price, newPrice, _collateral);\r\n        bool result = rebalanceCollateral(newCollateral);\r\n        _price = newPrice;\r\n        return true;\r\n    }\r\n\r\n    function rebalanceCollateral(uint256 newCollateral) public returns (bool) {\r\n        if (newCollateral > _collateral) {\r\n            uint256 amount = newCollateral.sub(_collateral);\r\n            uint obtained = getCollateralFromSister(amount);\r\n        } else {\r\n            uint256 amount = _collateral.sub(newCollateral);\r\n            uint sent = sendCollateralToSister(amount);\r\n        }\r\n        return true;\r\n    }\r\n\r\n    function getCollateralFromSister(uint256 _amount) internal returns (uint) {\r\n        TokenChopToken sister = TokenChopToken(_sister);\r\n        uint received = sister.sendCollateralToSister(_amount);\r\n        _collateral = _collateral.add(received);\r\n        return received;\r\n    }\r\n\r\n    function sendCollateralToSister(uint256 _requestedAmount) public returns (uint256 amount) {\r\n        uint _amount = _collateral < _requestedAmount ? _collateral : _requestedAmount;\r\n        IBEP20 baseContract = IBEP20(_base);\r\n        bool success = baseContract.transfer(_sister, _amount);\r\n        if (success) {\r\n            _collateral = _collateral.sub(_amount);\r\n        }\r\n        uint _sentAmount = success ? _amount : 0;\r\n        emit CollateralTransfer(address(this), _sister, _sentAmount);\r\n        return _sentAmount;\r\n    }\r\n\r\n    function mint(uint256 _collateralAmount) public returns (bool) {\r\n        IBEP20 baseContract = IBEP20(_base);\r\n        bool result = baseContract.transferFrom(msg.sender, address(this), _collateralAmount); //try a transfer from\r\n        require(result, \"Failed to transfer token. Transfer must be approved first\");\r\n        bool updatePriceDone = updatePrice();\r\n        // value of amount in tokens is _totalSupply/_collateral\r\n        uint256 _tokenAmount = Math.mulDiv(_totalSupply, _collateral, _collateralAmount);\r\n        _balances[msg.sender] = _balances[msg.sender].add(_tokenAmount);\r\n        _totalSupply = _totalSupply.add(_tokenAmount);\r\n        emit Transfer(address(0), msg.sender, _tokenAmount);\r\n        emit CollateralTransfer(msg.sender, address(this), _collateralAmount);\r\n        return true;\r\n    }\r\n\r\n    function burn(uint256 _tokenAmount) public returns (bool) {\r\n        require(_tokenAmount <= _balances[msg.sender]);\r\n        _balances[msg.sender] = _balances[msg.sender].sub(_tokenAmount);\r\n        bool updatePriceDone = updatePrice();\r\n        // amount to return is colat*tokens/totalsupply\r\n        uint256 _collateralAmount = Math.mulDiv(_collateral, _tokenAmount, _totalSupply);\r\n        _collateral = _collateral.sub(_collateralAmount);\r\n        emit Transfer(msg.sender, address(0), _tokenAmount);\r\n        emit CollateralTransfer(address(this), msg.sender, _collateralAmount);        \r\n        IBEP20 baseContract = IBEP20(_base);\r\n        return baseContract.transfer(msg.sender, _collateralAmount);\r\n    }\r\n\r\n}",
  "sourcePath": "C:\\Repos\\token_chop\\contracts\\TokenChopToken.sol",
  "compiler": {
    "name": "solc",
    "version": "0.7.6+commit.7338295f.Emscripten.clang"
  },
  "schemaVersion": "3.3.3",
  "updatedAt": "2021-02-09T07:26:16.238Z",
  "devdoc": {
    "kind": "dev",
    "methods": {
      "decimals()": {
        "details": "Returns the token decimals."
      },
      "getOwner()": {
        "details": "Returns the bep token owner."
      },
      "name()": {
        "details": "Returns the token name."
      },
      "symbol()": {
        "details": "Returns the token symbol."
      },
      "totalSupply()": {
        "details": "Returns the amount of tokens in existence."
      }
    },
    "version": 1
  },
  "userdoc": {
    "kind": "user",
    "methods": {},
    "version": 1
  }
}