{
  "contractName": "TokenChopStableFactory",
  "abi": [
    {
      "inputs": [
        {
          "internalType": "address",
          "name": "_factory",
          "type": "address"
        },
        {
          "internalType": "address",
          "name": "_bandProtocol",
          "type": "address"
        }
      ],
      "stateMutability": "nonpayable",
      "type": "constructor"
    },
    {
      "inputs": [],
      "name": "bandAddr",
      "outputs": [
        {
          "internalType": "address",
          "name": "",
          "type": "address"
        }
      ],
      "stateMutability": "view",
      "type": "function",
      "constant": true
    },
    {
      "inputs": [],
      "name": "factory",
      "outputs": [
        {
          "internalType": "address",
          "name": "",
          "type": "address"
        }
      ],
      "stateMutability": "view",
      "type": "function",
      "constant": true
    },
    {
      "inputs": [
        {
          "internalType": "address",
          "name": "_base",
          "type": "address"
        },
        {
          "internalType": "address",
          "name": "_quote",
          "type": "address"
        }
      ],
      "name": "createPool",
      "outputs": [
        {
          "internalType": "address",
          "name": "stable",
          "type": "address"
        }
      ],
      "stateMutability": "nonpayable",
      "type": "function"
    },
    {
      "inputs": [
        {
          "internalType": "address",
          "name": "_base",
          "type": "address"
        },
        {
          "internalType": "address",
          "name": "_quote",
          "type": "address"
        },
        {
          "internalType": "address",
          "name": "_stable",
          "type": "address"
        },
        {
          "internalType": "address",
          "name": "_spec",
          "type": "address"
        }
      ],
      "name": "initialize",
      "outputs": [],
      "stateMutability": "nonpayable",
      "type": "function"
    }
  ],
  "bytecode": "0x608060405234801561001057600080fd5b506040516140683803806140688339818101604052604081101561003357600080fd5b810190808051906020019092919080519060200190929190505050816000806101000a81548173ffffffffffffffffffffffffffffffffffffffff021916908373ffffffffffffffffffffffffffffffffffffffff16021790555080600160006101000a81548173ffffffffffffffffffffffffffffffffffffffff021916908373ffffffffffffffffffffffffffffffffffffffff1602179055505050613f88806100e06000396000f3fe608060405234801561001057600080fd5b506004361061004c5760003560e01c8063c45a015514610051578063cee0216614610085578063e3433615146100b9578063f8c8765e14610147575b600080fd5b6100596101eb565b604051808273ffffffffffffffffffffffffffffffffffffffff16815260200191505060405180910390f35b61008d61020f565b604051808273ffffffffffffffffffffffffffffffffffffffff16815260200191505060405180910390f35b61011b600480360360408110156100cf57600080fd5b81019080803573ffffffffffffffffffffffffffffffffffffffff169060200190929190803573ffffffffffffffffffffffffffffffffffffffff169060200190929190505050610235565b604051808273ffffffffffffffffffffffffffffffffffffffff16815260200191505060405180910390f35b6101e96004803603608081101561015d57600080fd5b81019080803573ffffffffffffffffffffffffffffffffffffffff169060200190929190803573ffffffffffffffffffffffffffffffffffffffff169060200190929190803573ffffffffffffffffffffffffffffffffffffffff169060200190929190803573ffffffffffffffffffffffffffffffffffffffff1690602001909291905050506103c7565b005b60008054906101000a900473ffffffffffffffffffffffffffffffffffffffff1681565b600160009054906101000a900473ffffffffffffffffffffffffffffffffffffffff1681565b60008060009054906101000a900473ffffffffffffffffffffffffffffffffffffffff1673ffffffffffffffffffffffffffffffffffffffff163373ffffffffffffffffffffffffffffffffffffffff16146102f9576040517f08c379a00000000000000000000000000000000000000000000000000000000081526004018080602001828103825260148152602001807f546f6b656e43686f703a20464f5242494444454e00000000000000000000000081525060200191505060405180910390fd5b6000806040518060200161030c906105ee565b6020820181038252601f19601f8201166040525090506000858560405160200180807f537461626c6500000000000000000000000000000000000000000000000000008152506006018373ffffffffffffffffffffffffffffffffffffffff1660601b81526014018273ffffffffffffffffffffffffffffffffffffffff1660601b815260140192505050604051602081830303815290604052805190602001209050808251602084016000f5925082935050505092915050565b60008054906101000a900473ffffffffffffffffffffffffffffffffffffffff1673ffffffffffffffffffffffffffffffffffffffff163373ffffffffffffffffffffffffffffffffffffffff1614610488576040517f08c379a00000000000000000000000000000000000000000000000000000000081526004018080602001828103825260148152602001807f546f6b656e43686f703a20464f5242494444454e00000000000000000000000081525060200191505060405180910390fd5b8173ffffffffffffffffffffffffffffffffffffffff1663c0c53b8b8585846040518463ffffffff1660e01b8152600401808473ffffffffffffffffffffffffffffffffffffffff1681526020018373ffffffffffffffffffffffffffffffffffffffff1681526020018273ffffffffffffffffffffffffffffffffffffffff1681526020019350505050600060405180830381600087803b15801561052d57600080fd5b505af1158015610541573d6000803e3d6000fd5b505050508173ffffffffffffffffffffffffffffffffffffffff16632e4e3d11600160009054906101000a900473ffffffffffffffffffffffffffffffffffffffff166040518263ffffffff1660e01b8152600401808273ffffffffffffffffffffffffffffffffffffffff168152602001915050600060405180830381600087803b1580156105d057600080fd5b505af11580156105e4573d6000803e3d6000fd5b5050505050505050565b613957806105fc8339019056fe60806040526000600f60146101000a81548160ff02191690831515021790555034801561002b57600080fd5b5033600b60006101000a81548173ffffffffffffffffffffffffffffffffffffffff021916908373ffffffffffffffffffffffffffffffffffffffff1602179055506138db8061007c6000396000f3fe608060405234801561001057600080fd5b50600436106101c45760003560e01c80638f940f63116100f9578063b1dd61b611610097578063cd0b4aed11610071578063cd0b4aed146104ef578063d8dfeb451461051f578063dd62ed3e1461053d578063f8ac93e81461056d576101c4565b8063b1dd61b614610497578063c0c53b8b146104b5578063c45a0155146104d1576101c4565b8063999b93af116100d3578063999b93af1461040d578063a035b1fe1461042b578063a9059cbb14610449578063a9ed003d14610479576101c4565b80638f940f63146103b3578063914e245a146103d157806395d89b41146103ef576101c4565b806342966c68116101665780636fea6b1c116101405780636fea6b1c1461032957806370a082311461034757806380583be714610377578063893d20e814610395576101c4565b806342966c68146102bd5780635001f3b5146102ed57806360d6df6e1461030b576101c4565b806318160ddd116101a257806318160ddd1461023557806323b872dd146102535780632e4e3d1114610283578063313ce5671461029f576101c4565b806305300b28146101c957806306fdde03146101e7578063095ea7b314610205575b600080fd5b6101d1610577565b6040516101de91906136bd565b60405180910390f35b6101ef61057c565b6040516101fc91906134a0565b60405180910390f35b61021f600480360381019061021a9190612bb5565b61061a565b60405161022c9190613485565b60405180910390f35b61023d610631565b60405161024a9190613679565b60405180910390f35b61026d60048036038101906102689190612b66565b610637565b60405161027a9190613485565b60405180910390f35b61029d60048036038101906102989190612ab2565b610797565b005b6102a761086b565b6040516102b491906136bd565b60405180910390f35b6102d760048036038101906102d29190612c84565b610874565b6040516102e49190613485565b60405180910390f35b6102f5610ac7565b604051610302919061340a565b60405180910390f35b610313610aed565b60405161032091906134a0565b60405180910390f35b610331610b8b565b60405161033e919061340a565b60405180910390f35b610361600480360381019061035c9190612ab2565b610bb1565b60405161036e9190613679565b60405180910390f35b61037f610bc9565b60405161038c91906134a0565b60405180910390f35b61039d610c67565b6040516103aa919061340a565b60405180910390f35b6103bb610c91565b6040516103c891906136bd565b60405180910390f35b6103d9610c96565b6040516103e69190613679565b60405180910390f35b6103f7610c9c565b60405161040491906134a0565b60405180910390f35b610415610d3a565b604051610422919061340a565b60405180910390f35b610433610d60565b6040516104409190613679565b60405180910390f35b610463600480360381019061045e9190612bb5565b610d66565b6040516104709190613485565b60405180910390f35b610481610d7d565b60405161048e919061340a565b60405180910390f35b61049f610da3565b6040516104ac91906134a0565b60405180910390f35b6104cf60048036038101906104ca9190612b17565b610ddc565b005b6104d961138e565b6040516104e6919061340a565b60405180910390f35b61050960048036038101906105049190612c84565b6113b4565b6040516105169190613485565b60405180910390f35b610527611590565b6040516105349190613679565b60405180910390f35b61055760048036038101906105529190612adb565b611642565b6040516105649190613679565b60405180910390f35b610575611667565b005b601281565b60048054600181600116156101000203166002900480601f0160208091040260200160405190810160405280929190818152602001828054600181600116156101000203166002900480156106125780601f106105e757610100808354040283529160200191610612565b820191906000526020600020905b8154815290600101906020018083116105f557829003601f168201915b505050505081565b6000610627338484611679565b6001905092915050565b600e5481565b6000610644848484611844565b81600160008673ffffffffffffffffffffffffffffffffffffffff1673ffffffffffffffffffffffffffffffffffffffff16815260200190815260200160002060003373ffffffffffffffffffffffffffffffffffffffff1673ffffffffffffffffffffffffffffffffffffffff168152602001908152602001600020541015610703576040517f08c379a00000000000000000000000000000000000000000000000000000000081526004016106fa906135b9565b60405180910390fd5b61078c843384600160008973ffffffffffffffffffffffffffffffffffffffff1673ffffffffffffffffffffffffffffffffffffffff16815260200190815260200160002060003373ffffffffffffffffffffffffffffffffffffffff1673ffffffffffffffffffffffffffffffffffffffff1681526020019081526020016000205403611679565b600190509392505050565b600b60009054906101000a900473ffffffffffffffffffffffffffffffffffffffff1673ffffffffffffffffffffffffffffffffffffffff163373ffffffffffffffffffffffffffffffffffffffff1614610827576040517f08c379a000000000000000000000000000000000000000000000000000000000815260040161081e90613619565b60405180910390fd5b80600f60006101000a81548173ffffffffffffffffffffffffffffffffffffffff021916908373ffffffffffffffffffffffffffffffffffffffff16021790555050565b60006012905090565b600061087e611b3e565b610886611c93565b6000803373ffffffffffffffffffffffffffffffffffffffff1673ffffffffffffffffffffffffffffffffffffffff16815260200190815260200160002054821115610907576040517f08c379a00000000000000000000000000000000000000000000000000000000081526004016108fe906134f9565b60405180910390fd5b610958826000803373ffffffffffffffffffffffffffffffffffffffff1673ffffffffffffffffffffffffffffffffffffffff168152602001908152602001600020546120a190919063ffffffff16565b6000803373ffffffffffffffffffffffffffffffffffffffff1673ffffffffffffffffffffffffffffffffffffffff168152602001908152602001600020819055506109af82600e546120a190919063ffffffff16565b600e8190555060006109c3600d54846120c1565b90506109f2600860009054906101000a900473ffffffffffffffffffffffffffffffffffffffff163383612154565b600073ffffffffffffffffffffffffffffffffffffffff163373ffffffffffffffffffffffffffffffffffffffff167fddf252ad1be2c89b69c2b068fc378daa952ba7f163c4a11628f55a4df523b3ef85604051610a509190613679565b60405180910390a33373ffffffffffffffffffffffffffffffffffffffff163073ffffffffffffffffffffffffffffffffffffffff167f14395d6fb6ac3870af345d12d989b966ccf04dcdd9e02b95722d12dca39eb4b083604051610ab59190613679565b60405180910390a36001915050919050565b600860009054906101000a900473ffffffffffffffffffffffffffffffffffffffff1681565b60078054600181600116156101000203166002900480601f016020809104026020016040519081016040528092919081815260200182805460018160011615610100020316600290048015610b835780601f10610b5857610100808354040283529160200191610b83565b820191906000526020600020905b815481529060010190602001808311610b6657829003601f168201915b505050505081565b600f60009054906101000a900473ffffffffffffffffffffffffffffffffffffffff1681565b60006020528060005260406000206000915090505481565b60068054600181600116156101000203166002900480601f016020809104026020016040519081016040528092919081815260200182805460018160011615610100020316600290048015610c5f5780601f10610c3457610100808354040283529160200191610c5f565b820191906000526020600020905b815481529060010190602001808311610c4257829003601f168201915b505050505081565b6000600b60009054906101000a900473ffffffffffffffffffffffffffffffffffffffff16905090565b600081565b600c5481565b60058054600181600116156101000203166002900480601f016020809104026020016040519081016040528092919081815260200182805460018160011615610100020316600290048015610d325780601f10610d0757610100808354040283529160200191610d32565b820191906000526020600020905b815481529060010190602001808311610d1557829003601f168201915b505050505081565b600960009054906101000a900473ffffffffffffffffffffffffffffffffffffffff1681565b600d5481565b6000610d73338484611844565b6001905092915050565b600a60009054906101000a900473ffffffffffffffffffffffffffffffffffffffff1681565b6040518060400160405280600681526020017f537461626c65000000000000000000000000000000000000000000000000000081525081565b600b60009054906101000a900473ffffffffffffffffffffffffffffffffffffffff1673ffffffffffffffffffffffffffffffffffffffff163373ffffffffffffffffffffffffffffffffffffffff1614610e6c576040517f08c379a0000000000000000000000000000000000000000000000000000000008152600401610e6390613619565b60405180910390fd5b73da7a001b254cd22e46d3eab04d937489c93174c3600f60006101000a81548173ffffffffffffffffffffffffffffffffffffffff021916908373ffffffffffffffffffffffffffffffffffffffff16021790555082600860006101000a81548173ffffffffffffffffffffffffffffffffffffffff021916908373ffffffffffffffffffffffffffffffffffffffff16021790555081600960006101000a81548173ffffffffffffffffffffffffffffffffffffffff021916908373ffffffffffffffffffffffffffffffffffffffff16021790555080600a60006101000a81548173ffffffffffffffffffffffffffffffffffffffff021916908373ffffffffffffffffffffffffffffffffffffffff160217905550600860009054906101000a900473ffffffffffffffffffffffffffffffffffffffff1673ffffffffffffffffffffffffffffffffffffffff166395d89b416040518163ffffffff1660e01b815260040160006040518083038186803b158015610fec57600080fd5b505afa158015611000573d6000803e3d6000fd5b505050506040513d6000823e3d601f19601f820116820180604052508101906110299190612c1a565b6006908051906020019061103e9291906128eb565b5060405160200161104e906133f5565b60405160208183030381529060405280519060200120600660405160200161107691906133de565b60405160208183030381529060405280519060200120146111315760068054600181600116156101000203166002900480601f0160208091040260200160405190810160405280929190818152602001828054600181600116156101000203166002900480156111275780601f106110fc57610100808354040283529160200191611127565b820191906000526020600020905b81548152906001019060200180831161110a57829003601f168201915b5050505050611168565b6040518060400160405280600381526020017f424e4200000000000000000000000000000000000000000000000000000000008152505b6006908051906020019061117d9291906128eb565b50600960009054906101000a900473ffffffffffffffffffffffffffffffffffffffff1673ffffffffffffffffffffffffffffffffffffffff166395d89b416040518163ffffffff1660e01b815260040160006040518083038186803b1580156111e657600080fd5b505afa1580156111fa573d6000803e3d6000fd5b505050506040513d6000823e3d601f19601f820116820180604052508101906112239190612c1a565b600790805190602001906112389291906128eb565b506040518060400160405280600b81526020017f546f6b656e43686f703a2000000000000000000000000000000000000000000081525060066040518060400160405280600181526020017f2f0000000000000000000000000000000000000000000000000000000000000081525060076040518060400160405280600781526020017f20537461626c65000000000000000000000000000000000000000000000000008152506040516020016112f3959493929190613362565b604051602081830303815290604052600490805190602001906113179291906128eb565b50600660076040518060400160405280600181526020017f3000000000000000000000000000000000000000000000000000000000000000815250604051602001611364939291906133ad565b604051602081830303815290604052600590805190602001906113889291906128eb565b50505050565b600b60009054906101000a900473ffffffffffffffffffffffffffffffffffffffff1681565b60006113be611b3e565b6113c6611c93565b6113f4600860009054906101000a900473ffffffffffffffffffffffffffffffffffffffff163330856122de565b6000611402600d548461244e565b9050611455816000803373ffffffffffffffffffffffffffffffffffffffff1673ffffffffffffffffffffffffffffffffffffffff1681526020019081526020016000205461246b90919063ffffffff16565b6000803373ffffffffffffffffffffffffffffffffffffffff1673ffffffffffffffffffffffffffffffffffffffff168152602001908152602001600020819055506114a03361248a565b6114b581600e5461246b90919063ffffffff16565b600e819055503373ffffffffffffffffffffffffffffffffffffffff16600073ffffffffffffffffffffffffffffffffffffffff167fddf252ad1be2c89b69c2b068fc378daa952ba7f163c4a11628f55a4df523b3ef836040516115199190613679565b60405180910390a33073ffffffffffffffffffffffffffffffffffffffff163373ffffffffffffffffffffffffffffffffffffffff167f14395d6fb6ac3870af345d12d989b966ccf04dcdd9e02b95722d12dca39eb4b08560405161157e9190613679565b60405180910390a36001915050919050565b6000600860009054906101000a900473ffffffffffffffffffffffffffffffffffffffff1673ffffffffffffffffffffffffffffffffffffffff166370a08231306040518263ffffffff1660e01b81526004016115ed919061340a565b60206040518083038186803b15801561160557600080fd5b505afa158015611619573d6000803e3d6000fd5b505050506040513d601f19601f8201168201806040525081019061163d9190612cad565b905090565b6001602052816000526040600020602052806000526040600020600091509150505481565b61166f611b3e565b611677611c93565b565b600073ffffffffffffffffffffffffffffffffffffffff168373ffffffffffffffffffffffffffffffffffffffff1614156116e9576040517f08c379a00000000000000000000000000000000000000000000000000000000081526004016116e090613539565b60405180910390fd5b600073ffffffffffffffffffffffffffffffffffffffff168273ffffffffffffffffffffffffffffffffffffffff161415611759576040517f08c379a000000000000000000000000000000000000000000000000000000000815260040161175090613659565b60405180910390fd5b80600160008573ffffffffffffffffffffffffffffffffffffffff1673ffffffffffffffffffffffffffffffffffffffff16815260200190815260200160002060008473ffffffffffffffffffffffffffffffffffffffff1673ffffffffffffffffffffffffffffffffffffffff168152602001908152602001600020819055508173ffffffffffffffffffffffffffffffffffffffff168373ffffffffffffffffffffffffffffffffffffffff167f8c5be1e5ebec7d5bd14f71427d1e84f3dd0314c0f7b2291e5b200ac8c7c3b925836040516118379190613679565b60405180910390a3505050565b600073ffffffffffffffffffffffffffffffffffffffff168373ffffffffffffffffffffffffffffffffffffffff1614156118b4576040517f08c379a00000000000000000000000000000000000000000000000000000000081526004016118ab90613519565b60405180910390fd5b600073ffffffffffffffffffffffffffffffffffffffff168273ffffffffffffffffffffffffffffffffffffffff161415611924576040517f08c379a000000000000000000000000000000000000000000000000000000000815260040161191b906135f9565b60405180910390fd5b806000808573ffffffffffffffffffffffffffffffffffffffff1673ffffffffffffffffffffffffffffffffffffffff1681526020019081526020016000205410156119a5576040517f08c379a000000000000000000000000000000000000000000000000000000000815260040161199c906135d9565b60405180910390fd5b6119f6816000808673ffffffffffffffffffffffffffffffffffffffff1673ffffffffffffffffffffffffffffffffffffffff168152602001908152602001600020546120a190919063ffffffff16565b6000808573ffffffffffffffffffffffffffffffffffffffff1673ffffffffffffffffffffffffffffffffffffffff16815260200190815260200160002081905550611a89816000808573ffffffffffffffffffffffffffffffffffffffff1673ffffffffffffffffffffffffffffffffffffffff1681526020019081526020016000205461246b90919063ffffffff16565b6000808473ffffffffffffffffffffffffffffffffffffffff1673ffffffffffffffffffffffffffffffffffffffff16815260200190815260200160002081905550611ad48261248a565b8173ffffffffffffffffffffffffffffffffffffffff168373ffffffffffffffffffffffffffffffffffffffff167fddf252ad1be2c89b69c2b068fc378daa952ba7f163c4a11628f55a4df523b3ef83604051611b319190613679565b60405180910390a3505050565b6000600f60009054906101000a900473ffffffffffffffffffffffffffffffffffffffff16905060008173ffffffffffffffffffffffffffffffffffffffff166365555bcc600660076040518363ffffffff1660e01b8152600401611ba49291906134c2565b60606040518083038186803b158015611bbc57600080fd5b505afa158015611bd0573d6000803e3d6000fd5b505050506040513d601f19601f82011682018060405250810190611bf49190612c5b565b90506000816000015190506000811415611c43576040517f08c379a0000000000000000000000000000000000000000000000000000000008152600401611c3a90613639565b60405180910390fd5b7f92664190cca12aca9cd5309d87194bdda75bb51362d71c06e1a6f75c7c765711600d5482604051611c76929190613694565b60405180910390a1600d54600c8190555080600d81905550505050565b600f60149054906101000a900460ff1615611ce3576040517f08c379a0000000000000000000000000000000000000000000000000000000008152600401611cda90613579565b60405180910390fd5b6001600f60146101000a81548160ff0219169083151502179055506000611d0e600d54600e546120c1565b90506000600860009054906101000a900473ffffffffffffffffffffffffffffffffffffffff1673ffffffffffffffffffffffffffffffffffffffff166370a08231306040518263ffffffff1660e01b8152600401611d6d919061340a565b60206040518083038186803b158015611d8557600080fd5b505afa158015611d99573d6000803e3d6000fd5b505050506040513d601f19601f82011682018060405250810190611dbd9190612cad565b905081811415611de9576000600f60146101000a81548160ff021916908315150217905550505061209f565b81811015611f52576000611e0682846120a190919063ffffffff16565b90506000600a60009054906101000a900473ffffffffffffffffffffffffffffffffffffffff1673ffffffffffffffffffffffffffffffffffffffff1663f33ab2b8836040518263ffffffff1660e01b8152600401611e659190613679565b602060405180830381600087803b158015611e7f57600080fd5b505af1158015611e93573d6000803e3d6000fd5b505050506040513d601f19601f82011682018060405250810190611eb79190612cad565b905081811015611f4b576000611ee1600d54611edc84866120a190919063ffffffff16565b61244e565b90506000611efa82600e546120a190919063ffffffff16565b90507fb07e3bc4c23a2d5a3367eec63320a439a69fa5b14b5619ba643e23b3ab6ef8058484604051611f2d929190613694565b60405180910390a1611f41600e548261258f565b80600e8190555050505b5050612081565b6000600a60009054906101000a900473ffffffffffffffffffffffffffffffffffffffff1673ffffffffffffffffffffffffffffffffffffffff1663d8dfeb456040518163ffffffff1660e01b815260040160206040518083038186803b158015611fbc57600080fd5b505afa158015611fd0573d6000803e3d6000fd5b505050506040513d601f19601f82011682018060405250810190611ff49190612cad565b141561205e576000612008600d548361244e565b90507ffcd722297a6956f214c3329ce377ca398bf445819d7d02e81f6256c4aea9ebaa600e548260405161203d929190613694565b60405180910390a1612051600e548261258f565b80600e8190555050612080565b600061207383836120a190919063ffffffff16565b905061207e81612676565b505b5b6000600f60146101000a81548160ff02191690831515021790555050505b565b6000828211156120b057600080fd5b600082840390508091505092915050565b600080831415612139576040517f08c379a00000000000000000000000000000000000000000000000000000000081526004018080602001828103825260138152602001807f7072696365206d757374206e6f7420626520300000000000000000000000000081525060200191505060405180910390fd5b61214c82670de0b6b3a76400008561274f565b905092915050565b6000808473ffffffffffffffffffffffffffffffffffffffff166040518060400160405280601981526020017f7472616e7366657228616464726573732c75696e7432353629000000000000008152508051906020012085856040516024016121be92919061345c565b604051602081830303815290604052907bffffffffffffffffffffffffffffffffffffffffffffffffffffffff19166020820180517bffffffffffffffffffffffffffffffffffffffffffffffffffffffff8381831617835250505050604051612228919061334b565b6000604051808303816000865af19150503d8060008114612265576040519150601f19603f3d011682016040523d82523d6000602084013e61226a565b606091505b509150915081801561229857506000815114806122975750808060200190518101906122969190612bf1565b5b5b6122d7576040517f08c379a00000000000000000000000000000000000000000000000000000000081526004016122ce90613599565b60405180910390fd5b5050505050565b6000808573ffffffffffffffffffffffffffffffffffffffff16604051806060016040528060258152602001613881602591398051906020012086868660405160240161232d93929190613425565b604051602081830303815290604052907bffffffffffffffffffffffffffffffffffffffffffffffffffffffff19166020820180517bffffffffffffffffffffffffffffffffffffffffffffffffffffffff8381831617835250505050604051612397919061334b565b6000604051808303816000865af19150503d80600081146123d4576040519150601f19603f3d011682016040523d82523d6000602084013e6123d9565b606091505b509150915081801561240757506000815114806124065750808060200190518101906124059190612bf1565b5b5b612446576040517f08c379a000000000000000000000000000000000000000000000000000000000815260040161243d90613559565b60405180910390fd5b505050505050565b60006124638284670de0b6b3a764000061274f565b905092915050565b60008082840190508381101561248057600080fd5b8091505092915050565b60005b600354811015612515578173ffffffffffffffffffffffffffffffffffffffff16600282815481106124bb57fe5b9060005260206000200160009054906101000a900473ffffffffffffffffffffffffffffffffffffffff1673ffffffffffffffffffffffffffffffffffffffff161415612508575061258c565b808060010191505061248d565b506002819080600181540180825580915050600190039060005260206000200160009091909190916101000a81548173ffffffffffffffffffffffffffffffffffffffff021916908373ffffffffffffffffffffffffffffffffffffffff1602179055506003600081548092919060010191905055505b50565b60005b600354811015612671576000600282815481106125ab57fe5b9060005260206000200160009054906101000a900473ffffffffffffffffffffffffffffffffffffffff1690506126216000808373ffffffffffffffffffffffffffffffffffffffff1673ffffffffffffffffffffffffffffffffffffffff16815260200190815260200160002054848661274f565b6000808373ffffffffffffffffffffffffffffffffffffffff1673ffffffffffffffffffffffffffffffffffffffff16815260200190815260200160002081905550508080600101915050612592565b505050565b6126c5600860009054906101000a900473ffffffffffffffffffffffffffffffffffffffff16600a60009054906101000a900473ffffffffffffffffffffffffffffffffffffffff1683612154565b600a60009054906101000a900473ffffffffffffffffffffffffffffffffffffffff1673ffffffffffffffffffffffffffffffffffffffff163073ffffffffffffffffffffffffffffffffffffffff167f14395d6fb6ac3870af345d12d989b966ccf04dcdd9e02b95722d12dca39eb4b0836040516127449190613679565b60405180910390a350565b600070010000000000000000000000000000000084106127d7576040517f08c379a000000000000000000000000000000000000000000000000000000000815260040180806020018281038252600f8152602001807f56616c756520746f6f206c61726765000000000000000000000000000000000081525060200191505060405180910390fd5b700100000000000000000000000000000000831061285d576040517f08c379a00000000000000000000000000000000000000000000000000000000081526004018080602001828103825260148152602001807f4e756d657261746f7220746f6f206c617267652000000000000000000000000081525060200191505060405180910390fd5b61288282612874858761288b90919063ffffffff16565b6128c590919063ffffffff16565b90509392505050565b60008083141561289e57600090506128bf565b60008284029050828482816128af57fe5b04146128ba57600080fd5b809150505b92915050565b60008082116128d357600080fd5b60008284816128de57fe5b0490508091505092915050565b828054600181600116156101000203166002900490600052602060002090601f0160209004810192826129215760008555612968565b82601f1061293a57805160ff1916838001178555612968565b82800160010185558215612968579182015b8281111561296757825182559160200191906001019061294c565b5b5090506129759190612979565b5090565b5b8082111561299257600081600090555060010161297a565b5090565b60006129a96129a484613709565b6136d8565b9050828152602081018484840111156129c157600080fd5b6129cc8482856137f5565b509392505050565b6000813590506129e38161383b565b92915050565b6000815190506129f881613852565b92915050565b600082601f830112612a0f57600080fd5b8151612a1f848260208601612996565b91505092915050565b600060608284031215612a3a57600080fd5b612a4460606136d8565b90506000612a5484828501612a9d565b6000830152506020612a6884828501612a9d565b6020830152506040612a7c84828501612a9d565b60408301525092915050565b600081359050612a9781613869565b92915050565b600081519050612aac81613869565b92915050565b600060208284031215612ac457600080fd5b6000612ad2848285016129d4565b91505092915050565b60008060408385031215612aee57600080fd5b6000612afc858286016129d4565b9250506020612b0d858286016129d4565b9150509250929050565b600080600060608486031215612b2c57600080fd5b6000612b3a868287016129d4565b9350506020612b4b868287016129d4565b9250506040612b5c868287016129d4565b9150509250925092565b600080600060608486031215612b7b57600080fd5b6000612b89868287016129d4565b9350506020612b9a868287016129d4565b9250506040612bab86828701612a88565b9150509250925092565b60008060408385031215612bc857600080fd5b6000612bd6858286016129d4565b9250506020612be785828601612a88565b9150509250929050565b600060208284031215612c0357600080fd5b6000612c11848285016129e9565b91505092915050565b600060208284031215612c2c57600080fd5b600082015167ffffffffffffffff811115612c4657600080fd5b612c52848285016129fe565b91505092915050565b600060608284031215612c6d57600080fd5b6000612c7b84828501612a28565b91505092915050565b600060208284031215612c9657600080fd5b6000612ca484828501612a88565b91505092915050565b600060208284031215612cbf57600080fd5b6000612ccd84828501612a9d565b91505092915050565b612cdf816137a0565b82525050565b612cee816137b2565b82525050565b6000612cff82613763565b612d098185613779565b9350612d198185602086016137f5565b80840191505092915050565b600081546001811660008114612d425760018114612d6757612dab565b607f6002830416612d538187613779565b955060ff1983168652808601935050612dab565b60028204612d758187613779565b9550612d8085613739565b60005b82811015612da257815481890152600182019150602081019050612d83565b82880195505050505b505092915050565b6000612dbe8261376e565b612dc88185613784565b9350612dd88185602086016137f5565b612de18161382a565b840191505092915050565b600081546001811660008114612e095760018114612e2f57612e73565b607f6002830416612e1a8187613784565b955060ff198316865260208601935050612e73565b60028204612e3d8187613784565b9550612e488561374e565b60005b82811015612e6a57815481890152600182019150602081019050612e4b565b80880195505050505b505092915050565b600081546001811660008114612e985760018114612ebd57612f01565b607f6002830416612ea98187613795565b955060ff1983168652808601935050612f01565b60028204612ecb8187613795565b9550612ed68561374e565b60005b82811015612ef857815481890152600182019150602081019050612ed9565b82880195505050505b505092915050565b6000612f16601083613784565b91507f4261642071756f746520616d6f756e74000000000000000000000000000000006000830152602082019050919050565b6000612f56602583613784565b91507f42455032303a207472616e736665722066726f6d20746865207a65726f20616460008301527f64726573730000000000000000000000000000000000000000000000000000006020830152604082019050919050565b6000612fbc602483613784565b91507f42455032303a20617070726f76652066726f6d20746865207a65726f2061646460008301527f72657373000000000000000000000000000000000000000000000000000000006020830152604082019050919050565b6000613022601f83613784565b91507f546f6b656e43686f703a205452414e534645525f46524f4d5f4641494c4544006000830152602082019050919050565b6000613062601d83613784565b91507f55706461746520636f6c6c61746572616c20696e2070726f67726573730000006000830152602082019050919050565b60006130a2601a83613784565b91507f546f6b656e43686f703a205452414e534645525f4641494c45440000000000006000830152602082019050919050565b60006130e2602883613784565b91507f42455032303a207472616e7366657220616d6f756e742065786365656473206160008301527f6c6c6f77616e63650000000000000000000000000000000000000000000000006020830152604082019050919050565b6000613148600483613795565b91507f57424e42000000000000000000000000000000000000000000000000000000006000830152600482019050919050565b6000613188602683613784565b91507f42455032303a207472616e7366657220616d6f756e742065786365656473206260008301527f616c616e636500000000000000000000000000000000000000000000000000006020830152604082019050919050565b60006131ee602383613784565b91507f42455032303a207472616e7366657220746f20746865207a65726f206164647260008301527f65737300000000000000000000000000000000000000000000000000000000006020830152604082019050919050565b6000613254601483613784565b91507f546f6b656e43686f703a20464f5242494444454e0000000000000000000000006000830152602082019050919050565b6000613294601e83613784565b91507f546f6b656e43686f703a20507269636520757064617465204661696c656400006000830152602082019050919050565b60006132d4602283613784565b91507f42455032303a20617070726f766520746f20746865207a65726f20616464726560008301527f73730000000000000000000000000000000000000000000000000000000000006020830152604082019050919050565b613336816137de565b82525050565b613345816137e8565b82525050565b60006133578284612cf4565b915081905092915050565b600061336e8288612cf4565b915061337a8287612d25565b91506133868286612cf4565b91506133928285612d25565b915061339e8284612cf4565b91508190509695505050505050565b60006133b98286612d25565b91506133c58285612d25565b91506133d18284612cf4565b9150819050949350505050565b60006133ea8284612e7b565b915081905092915050565b60006134008261313b565b9150819050919050565b600060208201905061341f6000830184612cd6565b92915050565b600060608201905061343a6000830186612cd6565b6134476020830185612cd6565b613454604083018461332d565b949350505050565b60006040820190506134716000830185612cd6565b61347e602083018461332d565b9392505050565b600060208201905061349a6000830184612ce5565b92915050565b600060208201905081810360008301526134ba8184612db3565b905092915050565b600060408201905081810360008301526134dc8185612dec565b905081810360208301526134f08184612dec565b90509392505050565b6000602082019050818103600083015261351281612f09565b9050919050565b6000602082019050818103600083015261353281612f49565b9050919050565b6000602082019050818103600083015261355281612faf565b9050919050565b6000602082019050818103600083015261357281613015565b9050919050565b6000602082019050818103600083015261359281613055565b9050919050565b600060208201905081810360008301526135b281613095565b9050919050565b600060208201905081810360008301526135d2816130d5565b9050919050565b600060208201905081810360008301526135f28161317b565b9050919050565b60006020820190508181036000830152613612816131e1565b9050919050565b6000602082019050818103600083015261363281613247565b9050919050565b6000602082019050818103600083015261365281613287565b9050919050565b60006020820190508181036000830152613672816132c7565b9050919050565b600060208201905061368e600083018461332d565b92915050565b60006040820190506136a9600083018561332d565b6136b6602083018461332d565b9392505050565b60006020820190506136d2600083018461333c565b92915050565b6000604051905081810181811067ffffffffffffffff821117156136ff576136fe613828565b5b8060405250919050565b600067ffffffffffffffff82111561372457613723613828565b5b601f19601f8301169050602081019050919050565b60008190508160005260206000209050919050565b60008190508160005260206000209050919050565b600081519050919050565b600081519050919050565b600081905092915050565b600082825260208201905092915050565b600081905092915050565b60006137ab826137be565b9050919050565b60008115159050919050565b600073ffffffffffffffffffffffffffffffffffffffff82169050919050565b6000819050919050565b600060ff82169050919050565b60005b838110156138135780820151818401526020810190506137f8565b83811115613822576000848401525b50505050565bfe5b6000601f19601f8301169050919050565b613844816137a0565b811461384f57600080fd5b50565b61385b816137b2565b811461386657600080fd5b50565b613872816137de565b811461387d57600080fd5b5056fe7472616e7366657246726f6d28616464726573732c616464726573732c75696e7432353629a2646970667358221220a38f75ff49da6750593848ba3f0a897974dff0859f60f65a9e60842af040859064736f6c63430007060033a26469706673582212204b582382508b7aaccc6c7732f1d44cc60367ee2a6cdd24ec40a49f045922689364736f6c63430007060033",
  "immutableReferences": {},
  "source": "// SPDX-License-Identifier: MIT\r\npragma solidity =0.7.6;\r\n\r\nimport './interfaces/ITokenChopPoolFactory.sol';\r\nimport './TokenChopStable.sol';\r\n\r\ncontract TokenChopStableFactory is ITokenChopPoolFactory {\r\n    address public factory;\r\n    address public bandAddr;\r\n\r\n    constructor(address _factory, address _bandProtocol) {\r\n        factory = _factory;\r\n        bandAddr = _bandProtocol;\r\n    }\r\n    \r\n    function createPool(address _base, address _quote) override external returns (address stable) {\r\n        require(msg.sender == factory, 'TokenChop: FORBIDDEN');\r\n        address stableToken;\r\n        bytes memory stableBytecode = type(TokenChopStable).creationCode;\r\n        bytes32 stableSalt = keccak256(abi.encodePacked(\"Stable\", _base, _quote));\r\n        assembly {\r\n            stableToken := create2(0, add(stableBytecode, 32), mload(stableBytecode), stableSalt)\r\n        }\r\n        return stableToken;\r\n    }\r\n\r\n    function initialize(address _base, address _quote, address _stable, address _spec) override external {\r\n        require(msg.sender == factory, 'TokenChop: FORBIDDEN');\r\n        ITokenChopToken(_stable).initialize(_base, _quote, _spec);\r\n        TokenChopStable(_stable).setBandAddress(bandAddr);\r\n    }\r\n}\r\n",
  "sourcePath": "C:/repos/tokenchop/contracts/TokenChopStableFactory.sol",
  "compiler": {
    "name": "solc",
    "version": "0.7.6+commit.7338295f.Emscripten.clang"
  },
  "schemaVersion": "3.3.3",
  "updatedAt": "2021-02-14T01:24:12.203Z",
  "networkType": "ethereum",
  "devdoc": {
    "kind": "dev",
    "methods": {},
    "version": 1
  },
  "userdoc": {
    "kind": "user",
    "methods": {},
    "version": 1
  }
}