{
  "contractName": "TokenChopStable",
  "abi": [
    {
      "inputs": [],
      "stateMutability": "nonpayable",
      "type": "constructor"
    },
    {
      "anonymous": false,
      "inputs": [
        {
          "indexed": true,
          "internalType": "address",
          "name": "owner",
          "type": "address"
        },
        {
          "indexed": true,
          "internalType": "address",
          "name": "spender",
          "type": "address"
        },
        {
          "indexed": false,
          "internalType": "uint256",
          "name": "value",
          "type": "uint256"
        }
      ],
      "name": "Approval",
      "type": "event"
    },
    {
      "anonymous": false,
      "inputs": [
        {
          "indexed": true,
          "internalType": "address",
          "name": "from",
          "type": "address"
        },
        {
          "indexed": true,
          "internalType": "address",
          "name": "to",
          "type": "address"
        },
        {
          "indexed": false,
          "internalType": "uint256",
          "name": "value",
          "type": "uint256"
        }
      ],
      "name": "CollateralTransfer",
      "type": "event"
    },
    {
      "anonymous": false,
      "inputs": [
        {
          "indexed": false,
          "internalType": "uint256",
          "name": "oldPrice",
          "type": "uint256"
        },
        {
          "indexed": false,
          "internalType": "uint256",
          "name": "newPrice",
          "type": "uint256"
        }
      ],
      "name": "PriceUpdate",
      "type": "event"
    },
    {
      "anonymous": false,
      "inputs": [
        {
          "indexed": true,
          "internalType": "address",
          "name": "from",
          "type": "address"
        },
        {
          "indexed": true,
          "internalType": "address",
          "name": "to",
          "type": "address"
        },
        {
          "indexed": false,
          "internalType": "uint256",
          "name": "value",
          "type": "uint256"
        }
      ],
      "name": "Transfer",
      "type": "event"
    },
    {
      "inputs": [
        {
          "internalType": "address",
          "name": "",
          "type": "address"
        },
        {
          "internalType": "address",
          "name": "",
          "type": "address"
        }
      ],
      "name": "allowance",
      "outputs": [
        {
          "internalType": "uint256",
          "name": "",
          "type": "uint256"
        }
      ],
      "stateMutability": "view",
      "type": "function"
    },
    {
      "inputs": [
        {
          "internalType": "address",
          "name": "",
          "type": "address"
        }
      ],
      "name": "balanceOf",
      "outputs": [
        {
          "internalType": "uint256",
          "name": "",
          "type": "uint256"
        }
      ],
      "stateMutability": "view",
      "type": "function"
    },
    {
      "inputs": [],
      "name": "bandProtocol",
      "outputs": [
        {
          "internalType": "address",
          "name": "",
          "type": "address"
        }
      ],
      "stateMutability": "view",
      "type": "function"
    },
    {
      "inputs": [],
      "name": "base",
      "outputs": [
        {
          "internalType": "address",
          "name": "",
          "type": "address"
        }
      ],
      "stateMutability": "view",
      "type": "function"
    },
    {
      "inputs": [],
      "name": "baseSymbol",
      "outputs": [
        {
          "internalType": "string",
          "name": "",
          "type": "string"
        }
      ],
      "stateMutability": "view",
      "type": "function"
    },
    {
      "inputs": [],
      "name": "collateral",
      "outputs": [
        {
          "internalType": "uint256",
          "name": "",
          "type": "uint256"
        }
      ],
      "stateMutability": "view",
      "type": "function"
    },
    {
      "inputs": [],
      "name": "factory",
      "outputs": [
        {
          "internalType": "address",
          "name": "",
          "type": "address"
        }
      ],
      "stateMutability": "view",
      "type": "function"
    },
    {
      "inputs": [],
      "name": "name",
      "outputs": [
        {
          "internalType": "string",
          "name": "",
          "type": "string"
        }
      ],
      "stateMutability": "view",
      "type": "function"
    },
    {
      "inputs": [],
      "name": "poolType",
      "outputs": [
        {
          "internalType": "string",
          "name": "",
          "type": "string"
        }
      ],
      "stateMutability": "view",
      "type": "function"
    },
    {
      "inputs": [],
      "name": "previousPrice",
      "outputs": [
        {
          "internalType": "uint256",
          "name": "",
          "type": "uint256"
        }
      ],
      "stateMutability": "view",
      "type": "function"
    },
    {
      "inputs": [],
      "name": "price",
      "outputs": [
        {
          "internalType": "uint256",
          "name": "",
          "type": "uint256"
        }
      ],
      "stateMutability": "view",
      "type": "function"
    },
    {
      "inputs": [],
      "name": "quote",
      "outputs": [
        {
          "internalType": "address",
          "name": "",
          "type": "address"
        }
      ],
      "stateMutability": "view",
      "type": "function"
    },
    {
      "inputs": [],
      "name": "quoteSymbol",
      "outputs": [
        {
          "internalType": "string",
          "name": "",
          "type": "string"
        }
      ],
      "stateMutability": "view",
      "type": "function"
    },
    {
      "inputs": [],
      "name": "sister",
      "outputs": [
        {
          "internalType": "address",
          "name": "",
          "type": "address"
        }
      ],
      "stateMutability": "view",
      "type": "function"
    },
    {
      "inputs": [],
      "name": "symbol",
      "outputs": [
        {
          "internalType": "string",
          "name": "",
          "type": "string"
        }
      ],
      "stateMutability": "view",
      "type": "function"
    },
    {
      "inputs": [],
      "name": "totalSupply",
      "outputs": [
        {
          "internalType": "uint256",
          "name": "",
          "type": "uint256"
        }
      ],
      "stateMutability": "view",
      "type": "function"
    },
    {
      "inputs": [],
      "name": "typeId",
      "outputs": [
        {
          "internalType": "uint8",
          "name": "",
          "type": "uint8"
        }
      ],
      "stateMutability": "view",
      "type": "function"
    },
    {
      "inputs": [
        {
          "internalType": "address",
          "name": "_base",
          "type": "address"
        },
        {
          "internalType": "address",
          "name": "_quote",
          "type": "address"
        },
        {
          "internalType": "address",
          "name": "_sister",
          "type": "address"
        }
      ],
      "name": "initialize",
      "outputs": [],
      "stateMutability": "nonpayable",
      "type": "function"
    },
    {
      "inputs": [
        {
          "internalType": "address",
          "name": "_bandAddr",
          "type": "address"
        }
      ],
      "name": "setBandAddress",
      "outputs": [],
      "stateMutability": "nonpayable",
      "type": "function"
    },
    {
      "inputs": [],
      "name": "getOwner",
      "outputs": [
        {
          "internalType": "address",
          "name": "",
          "type": "address"
        }
      ],
      "stateMutability": "view",
      "type": "function"
    },
    {
      "inputs": [],
      "name": "decimals",
      "outputs": [
        {
          "internalType": "uint8",
          "name": "",
          "type": "uint8"
        }
      ],
      "stateMutability": "pure",
      "type": "function"
    },
    {
      "inputs": [
        {
          "internalType": "address",
          "name": "_recipient",
          "type": "address"
        },
        {
          "internalType": "uint256",
          "name": "_amount",
          "type": "uint256"
        }
      ],
      "name": "transfer",
      "outputs": [
        {
          "internalType": "bool",
          "name": "",
          "type": "bool"
        }
      ],
      "stateMutability": "nonpayable",
      "type": "function"
    },
    {
      "inputs": [
        {
          "internalType": "address",
          "name": "_spender",
          "type": "address"
        },
        {
          "internalType": "uint256",
          "name": "_amount",
          "type": "uint256"
        }
      ],
      "name": "approve",
      "outputs": [
        {
          "internalType": "bool",
          "name": "",
          "type": "bool"
        }
      ],
      "stateMutability": "nonpayable",
      "type": "function"
    },
    {
      "inputs": [
        {
          "internalType": "address",
          "name": "_sender",
          "type": "address"
        },
        {
          "internalType": "address",
          "name": "_recipient",
          "type": "address"
        },
        {
          "internalType": "uint256",
          "name": "_amount",
          "type": "uint256"
        }
      ],
      "name": "transferFrom",
      "outputs": [
        {
          "internalType": "bool",
          "name": "",
          "type": "bool"
        }
      ],
      "stateMutability": "nonpayable",
      "type": "function"
    },
    {
      "inputs": [],
      "name": "updateCollateralBySister",
      "outputs": [],
      "stateMutability": "nonpayable",
      "type": "function"
    },
    {
      "inputs": [
        {
          "internalType": "uint256",
          "name": "_requestedAmount",
          "type": "uint256"
        }
      ],
      "name": "sendCollateralToSister",
      "outputs": [
        {
          "internalType": "uint256",
          "name": "amount",
          "type": "uint256"
        }
      ],
      "stateMutability": "nonpayable",
      "type": "function"
    },
    {
      "inputs": [
        {
          "internalType": "uint256",
          "name": "_collateralAmount",
          "type": "uint256"
        }
      ],
      "name": "mint",
      "outputs": [
        {
          "internalType": "bool",
          "name": "",
          "type": "bool"
        }
      ],
      "stateMutability": "nonpayable",
      "type": "function"
    },
    {
      "inputs": [
        {
          "internalType": "uint256",
          "name": "_tokenAmount",
          "type": "uint256"
        }
      ],
      "name": "burn",
      "outputs": [
        {
          "internalType": "bool",
          "name": "",
          "type": "bool"
        }
      ],
      "stateMutability": "nonpayable",
      "type": "function"
    }
  ],
  "bytecode": "0x608060405234801561001057600080fd5b5033600960006101000a81548173ffffffffffffffffffffffffffffffffffffffff021916908373ffffffffffffffffffffffffffffffffffffffff160217905550612e66806100616000396000f3fe608060405234801561001057600080fd5b50600436106101c45760003560e01c8063914e245a116100f9578063b1dd61b611610097578063c6950a7c11610071578063c6950a7c14610501578063d8dfeb451461050b578063dd62ed3e14610529578063f33ab2b814610559576101c4565b8063b1dd61b6146104a9578063c0c53b8b146104c7578063c45a0155146104e3576101c4565b8063a035b1fe116100d3578063a035b1fe1461040d578063a0712d681461042b578063a9059cbb1461045b578063a9ed003d1461048b576101c4565b8063914e245a146103b357806395d89b41146103d1578063999b93af146103ef576101c4565b80635001f3b51161016657806370a082311161014057806370a082311461032957806380583be714610359578063893d20e8146103775780638f940f6314610395576101c4565b80635001f3b5146102cf57806360d6df6e146102ed5780636fea6b1c1461030b576101c4565b806323b872dd116101a257806323b872dd146102355780632e4e3d1114610265578063313ce5671461028157806342966c681461029f576101c4565b806306fdde03146101c9578063095ea7b3146101e757806318160ddd14610217575b600080fd5b6101d1610589565b6040516101de9190612a6b565b60405180910390f35b61020160048036038101906101fc9190612200565b610627565b60405161020e9190612a50565b60405180910390f35b61021f61063e565b60405161022c9190612c04565b60405180910390f35b61024f600480360381019061024a91906121b1565b610644565b60405161025c9190612a50565b60405180910390f35b61027f600480360381019061027a91906120fd565b6107a4565b005b610289610878565b6040516102969190612c48565b60405180910390f35b6102b960048036038101906102b491906122cf565b610881565b6040516102c69190612a50565b60405180910390f35b6102d7610894565b6040516102e491906129d5565b60405180910390f35b6102f56108ba565b6040516103029190612a6b565b60405180910390f35b610313610958565b60405161032091906129d5565b60405180910390f35b610343600480360381019061033e91906120fd565b61097e565b6040516103509190612c04565b60405180910390f35b610361610996565b60405161036e9190612a6b565b60405180910390f35b61037f610a34565b60405161038c91906129d5565b60405180910390f35b61039d610a5e565b6040516103aa9190612c48565b60405180910390f35b6103bb610a63565b6040516103c89190612c04565b60405180910390f35b6103d9610a69565b6040516103e69190612a6b565b60405180910390f35b6103f7610b07565b60405161040491906129d5565b60405180910390f35b610415610b2d565b6040516104229190612c04565b60405180910390f35b610445600480360381019061044091906122cf565b610b33565b6040516104529190612a50565b60405180910390f35b61047560048036038101906104709190612200565b610b74565b6040516104829190612a50565b60405180910390f35b610493610b8b565b6040516104a091906129d5565b60405180910390f35b6104b1610bb1565b6040516104be9190612a6b565b60405180910390f35b6104e160048036038101906104dc9190612162565b610bea565b005b6104eb61119c565b6040516104f891906129d5565b60405180910390f35b6105096111c2565b005b610513611264565b6040516105209190612c04565b60405180910390f35b610543600480360381019061053e9190612126565b61126a565b6040516105509190612c04565b60405180910390f35b610573600480360381019061056e91906122cf565b61128f565b6040516105809190612c04565b60405180910390f35b60028054600181600116156101000203166002900480601f01602080910402602001604051908101604052809291908181526020018280546001816001161561010002031660029004801561061f5780601f106105f45761010080835404028352916020019161061f565b820191906000526020600020905b81548152906001019060200180831161060257829003601f168201915b505050505081565b6000610634338484611432565b6001905092915050565b600d5481565b60006106518484846115fd565b81600160008673ffffffffffffffffffffffffffffffffffffffff1673ffffffffffffffffffffffffffffffffffffffff16815260200190815260200160002060003373ffffffffffffffffffffffffffffffffffffffff1673ffffffffffffffffffffffffffffffffffffffff168152602001908152602001600020541015610710576040517f08c379a000000000000000000000000000000000000000000000000000000000815260040161070790612b44565b60405180910390fd5b610799843384600160008973ffffffffffffffffffffffffffffffffffffffff1673ffffffffffffffffffffffffffffffffffffffff16815260200190815260200160002060003373ffffffffffffffffffffffffffffffffffffffff1673ffffffffffffffffffffffffffffffffffffffff1681526020019081526020016000205403611432565b600190509392505050565b600960009054906101000a900473ffffffffffffffffffffffffffffffffffffffff1673ffffffffffffffffffffffffffffffffffffffff163373ffffffffffffffffffffffffffffffffffffffff1614610834576040517f08c379a000000000000000000000000000000000000000000000000000000000815260040161082b90612ba4565b60405180910390fd5b80600e60006101000a81548173ffffffffffffffffffffffffffffffffffffffff021916908373ffffffffffffffffffffffffffffffffffffffff16021790555050565b60006012905090565b600061088b6118ee565b60019050919050565b600660009054906101000a900473ffffffffffffffffffffffffffffffffffffffff1681565b60058054600181600116156101000203166002900480601f0160208091040260200160405190810160405280929190818152602001828054600181600116156101000203166002900480156109505780601f1061092557610100808354040283529160200191610950565b820191906000526020600020905b81548152906001019060200180831161093357829003601f168201915b505050505081565b600e60009054906101000a900473ffffffffffffffffffffffffffffffffffffffff1681565b60006020528060005260406000206000915090505481565b60048054600181600116156101000203166002900480601f016020809104026020016040519081016040528092919081815260200182805460018160011615610100020316600290048015610a2c5780601f10610a0157610100808354040283529160200191610a2c565b820191906000526020600020905b815481529060010190602001808311610a0f57829003601f168201915b505050505081565b6000600960009054906101000a900473ffffffffffffffffffffffffffffffffffffffff16905090565b600081565b600b5481565b60038054600181600116156101000203166002900480601f016020809104026020016040519081016040528092919081815260200182805460018160011615610100020316600290048015610aff5780601f10610ad457610100808354040283529160200191610aff565b820191906000526020600020905b815481529060010190602001808311610ae257829003601f168201915b505050505081565b600760009054906101000a900473ffffffffffffffffffffffffffffffffffffffff1681565b600c5481565b6000610b63600660009054906101000a900473ffffffffffffffffffffffffffffffffffffffff16333085611a43565b610b6b6118ee565b60019050919050565b6000610b813384846115fd565b6001905092915050565b600860009054906101000a900473ffffffffffffffffffffffffffffffffffffffff1681565b6040518060400160405280600681526020017f537461626c65000000000000000000000000000000000000000000000000000081525081565b600960009054906101000a900473ffffffffffffffffffffffffffffffffffffffff1673ffffffffffffffffffffffffffffffffffffffff163373ffffffffffffffffffffffffffffffffffffffff1614610c7a576040517f08c379a0000000000000000000000000000000000000000000000000000000008152600401610c7190612ba4565b60405180910390fd5b73da7a001b254cd22e46d3eab04d937489c93174c3600e60006101000a81548173ffffffffffffffffffffffffffffffffffffffff021916908373ffffffffffffffffffffffffffffffffffffffff16021790555082600660006101000a81548173ffffffffffffffffffffffffffffffffffffffff021916908373ffffffffffffffffffffffffffffffffffffffff16021790555081600760006101000a81548173ffffffffffffffffffffffffffffffffffffffff021916908373ffffffffffffffffffffffffffffffffffffffff16021790555080600860006101000a81548173ffffffffffffffffffffffffffffffffffffffff021916908373ffffffffffffffffffffffffffffffffffffffff160217905550600660009054906101000a900473ffffffffffffffffffffffffffffffffffffffff1673ffffffffffffffffffffffffffffffffffffffff166395d89b416040518163ffffffff1660e01b815260040160006040518083038186803b158015610dfa57600080fd5b505afa158015610e0e573d6000803e3d6000fd5b505050506040513d6000823e3d601f19601f82011682018060405250810190610e379190612265565b60049080519060200190610e4c929190611f36565b50604051602001610e5c906129c0565b604051602081830303815290604052805190602001206004604051602001610e8491906129a9565b6040516020818303038152906040528051906020012014610f3f5760048054600181600116156101000203166002900480601f016020809104026020016040519081016040528092919081815260200182805460018160011615610100020316600290048015610f355780601f10610f0a57610100808354040283529160200191610f35565b820191906000526020600020905b815481529060010190602001808311610f1857829003601f168201915b5050505050610f76565b6040518060400160405280600381526020017f424e4200000000000000000000000000000000000000000000000000000000008152505b60049080519060200190610f8b929190611f36565b50600760009054906101000a900473ffffffffffffffffffffffffffffffffffffffff1673ffffffffffffffffffffffffffffffffffffffff166395d89b416040518163ffffffff1660e01b815260040160006040518083038186803b158015610ff457600080fd5b505afa158015611008573d6000803e3d6000fd5b505050506040513d6000823e3d601f19601f820116820180604052508101906110319190612265565b60059080519060200190611046929190611f36565b506040518060400160405280600b81526020017f546f6b656e43686f703a2000000000000000000000000000000000000000000081525060046040518060400160405280600181526020017f2f0000000000000000000000000000000000000000000000000000000000000081525060056040518060400160405280600781526020017f20537461626c650000000000000000000000000000000000000000000000000081525060405160200161110195949392919061292d565b60405160208183030381529060405260029080519060200190611125929190611f36565b50600460056040518060400160405280600181526020017f300000000000000000000000000000000000000000000000000000000000000081525060405160200161117293929190612978565b60405160208183030381529060405260039080519060200190611196929190611f36565b50505050565b600960009054906101000a900473ffffffffffffffffffffffffffffffffffffffff1681565b600860009054906101000a900473ffffffffffffffffffffffffffffffffffffffff1673ffffffffffffffffffffffffffffffffffffffff163373ffffffffffffffffffffffffffffffffffffffff1614611252576040517f08c379a000000000000000000000000000000000000000000000000000000000815260040161124990612ba4565b60405180910390fd5b61125a6118ee565b611262611bb3565b565b600a5481565b6001602052816000526040600020602052806000526040600020600091509150505481565b6000600860009054906101000a900473ffffffffffffffffffffffffffffffffffffffff1673ffffffffffffffffffffffffffffffffffffffff163373ffffffffffffffffffffffffffffffffffffffff1614611321576040517f08c379a000000000000000000000000000000000000000000000000000000000815260040161131890612ba4565b60405180910390fd5b600082600a54106113325782611336565b600a545b9050611387600660009054906101000a900473ffffffffffffffffffffffffffffffffffffffff16600860009054906101000a900473ffffffffffffffffffffffffffffffffffffffff1683611c57565b61139c81600a54611de190919063ffffffff16565b600a81905550600860009054906101000a900473ffffffffffffffffffffffffffffffffffffffff1673ffffffffffffffffffffffffffffffffffffffff163073ffffffffffffffffffffffffffffffffffffffff167f14395d6fb6ac3870af345d12d989b966ccf04dcdd9e02b95722d12dca39eb4b0836040516114219190612c04565b60405180910390a380915050919050565b600073ffffffffffffffffffffffffffffffffffffffff168373ffffffffffffffffffffffffffffffffffffffff1614156114a2576040517f08c379a000000000000000000000000000000000000000000000000000000000815260040161149990612ae4565b60405180910390fd5b600073ffffffffffffffffffffffffffffffffffffffff168273ffffffffffffffffffffffffffffffffffffffff161415611512576040517f08c379a000000000000000000000000000000000000000000000000000000000815260040161150990612be4565b60405180910390fd5b80600160008573ffffffffffffffffffffffffffffffffffffffff1673ffffffffffffffffffffffffffffffffffffffff16815260200190815260200160002060008473ffffffffffffffffffffffffffffffffffffffff1673ffffffffffffffffffffffffffffffffffffffff168152602001908152602001600020819055508173ffffffffffffffffffffffffffffffffffffffff168373ffffffffffffffffffffffffffffffffffffffff167f8c5be1e5ebec7d5bd14f71427d1e84f3dd0314c0f7b2291e5b200ac8c7c3b925836040516115f09190612c04565b60405180910390a3505050565b600073ffffffffffffffffffffffffffffffffffffffff168373ffffffffffffffffffffffffffffffffffffffff16141561166d576040517f08c379a000000000000000000000000000000000000000000000000000000000815260040161166490612ac4565b60405180910390fd5b600073ffffffffffffffffffffffffffffffffffffffff168273ffffffffffffffffffffffffffffffffffffffff1614156116dd576040517f08c379a00000000000000000000000000000000000000000000000000000000081526004016116d490612b84565b60405180910390fd5b806000808573ffffffffffffffffffffffffffffffffffffffff1673ffffffffffffffffffffffffffffffffffffffff16815260200190815260200160002054101561175e576040517f08c379a000000000000000000000000000000000000000000000000000000000815260040161175590612b64565b60405180910390fd5b6117af816000808673ffffffffffffffffffffffffffffffffffffffff1673ffffffffffffffffffffffffffffffffffffffff16815260200190815260200160002054611de190919063ffffffff16565b6000808573ffffffffffffffffffffffffffffffffffffffff1673ffffffffffffffffffffffffffffffffffffffff16815260200190815260200160002081905550611842816000808573ffffffffffffffffffffffffffffffffffffffff1673ffffffffffffffffffffffffffffffffffffffff16815260200190815260200160002054611e0190919063ffffffff16565b6000808473ffffffffffffffffffffffffffffffffffffffff1673ffffffffffffffffffffffffffffffffffffffff168152602001908152602001600020819055508173ffffffffffffffffffffffffffffffffffffffff168373ffffffffffffffffffffffffffffffffffffffff167fddf252ad1be2c89b69c2b068fc378daa952ba7f163c4a11628f55a4df523b3ef836040516118e19190612c04565b60405180910390a3505050565b6000600e60009054906101000a900473ffffffffffffffffffffffffffffffffffffffff16905060008173ffffffffffffffffffffffffffffffffffffffff166365555bcc600460056040518363ffffffff1660e01b8152600401611954929190612a8d565b60606040518083038186803b15801561196c57600080fd5b505afa158015611980573d6000803e3d6000fd5b505050506040513d601f19601f820116820180604052508101906119a491906122a6565b905060008160000151905060008114156119f3576040517f08c379a00000000000000000000000000000000000000000000000000000000081526004016119ea90612bc4565b60405180910390fd5b7f92664190cca12aca9cd5309d87194bdda75bb51362d71c06e1a6f75c7c765711600c5482604051611a26929190612c1f565b60405180910390a1600c54600b8190555080600c81905550505050565b6000808573ffffffffffffffffffffffffffffffffffffffff16604051806060016040528060258152602001612e0c6025913980519060200120868686604051602401611a92939291906129f0565b604051602081830303815290604052907bffffffffffffffffffffffffffffffffffffffffffffffffffffffff19166020820180517bffffffffffffffffffffffffffffffffffffffffffffffffffffffff8381831617835250505050604051611afc9190612916565b6000604051808303816000865af19150503d8060008114611b39576040519150601f19603f3d011682016040523d82523d6000602084013e611b3e565b606091505b5091509150818015611b6c5750600081511480611b6b575080806020019051810190611b6a919061223c565b5b5b611bab576040517f08c379a0000000000000000000000000000000000000000000000000000000008152600401611ba290612b04565b60405180910390fd5b505050505050565b6000611bcc600a54600b54611e2090919063ffffffff16565b90506000611be7600a54600c54611e2090919063ffffffff16565b905080821415611bf8575050611c55565b80821015611c2b576000611c158383611de190919063ffffffff16565b90506000611c2282611e5a565b90505050611c52565b6000611c408383611de190919063ffffffff16565b90506000611c4d8261128f565b905050505b50505b565b6000808473ffffffffffffffffffffffffffffffffffffffff166040518060400160405280601981526020017f7472616e7366657228616464726573732c75696e743235362900000000000000815250805190602001208585604051602401611cc1929190612a27565b604051602081830303815290604052907bffffffffffffffffffffffffffffffffffffffffffffffffffffffff19166020820180517bffffffffffffffffffffffffffffffffffffffffffffffffffffffff8381831617835250505050604051611d2b9190612916565b6000604051808303816000865af19150503d8060008114611d68576040519150601f19603f3d011682016040523d82523d6000602084013e611d6d565b606091505b5091509150818015611d9b5750600081511480611d9a575080806020019051810190611d99919061223c565b5b5b611dda576040517f08c379a0000000000000000000000000000000000000000000000000000000008152600401611dd190612b24565b60405180910390fd5b5050505050565b600082821115611df057600080fd5b600082840390508091505092915050565b600080828401905083811015611e1657600080fd5b8091505092915050565b600080831415611e335760009050611e54565b6000828402905082848281611e4457fe5b0414611e4f57600080fd5b809150505b92915050565b600080600860009054906101000a900473ffffffffffffffffffffffffffffffffffffffff16905060008173ffffffffffffffffffffffffffffffffffffffff1663f33ab2b8856040518263ffffffff1660e01b8152600401611ebd9190612c04565b602060405180830381600087803b158015611ed757600080fd5b505af1158015611eeb573d6000803e3d6000fd5b505050506040513d601f19601f82011682018060405250810190611f0f91906122f8565b9050611f2681600a54611e0190919063ffffffff16565b600a819055508092505050919050565b828054600181600116156101000203166002900490600052602060002090601f016020900481019282611f6c5760008555611fb3565b82601f10611f8557805160ff1916838001178555611fb3565b82800160010185558215611fb3579182015b82811115611fb2578251825591602001919060010190611f97565b5b509050611fc09190611fc4565b5090565b5b80821115611fdd576000816000905550600101611fc5565b5090565b6000611ff4611fef84612c94565b612c63565b90508281526020810184848401111561200c57600080fd5b612017848285612d80565b509392505050565b60008135905061202e81612dc6565b92915050565b60008151905061204381612ddd565b92915050565b600082601f83011261205a57600080fd5b815161206a848260208601611fe1565b91505092915050565b60006060828403121561208557600080fd5b61208f6060612c63565b9050600061209f848285016120e8565b60008301525060206120b3848285016120e8565b60208301525060406120c7848285016120e8565b60408301525092915050565b6000813590506120e281612df4565b92915050565b6000815190506120f781612df4565b92915050565b60006020828403121561210f57600080fd5b600061211d8482850161201f565b91505092915050565b6000806040838503121561213957600080fd5b60006121478582860161201f565b92505060206121588582860161201f565b9150509250929050565b60008060006060848603121561217757600080fd5b60006121858682870161201f565b93505060206121968682870161201f565b92505060406121a78682870161201f565b9150509250925092565b6000806000606084860312156121c657600080fd5b60006121d48682870161201f565b93505060206121e58682870161201f565b92505060406121f6868287016120d3565b9150509250925092565b6000806040838503121561221357600080fd5b60006122218582860161201f565b9250506020612232858286016120d3565b9150509250929050565b60006020828403121561224e57600080fd5b600061225c84828501612034565b91505092915050565b60006020828403121561227757600080fd5b600082015167ffffffffffffffff81111561229157600080fd5b61229d84828501612049565b91505092915050565b6000606082840312156122b857600080fd5b60006122c684828501612073565b91505092915050565b6000602082840312156122e157600080fd5b60006122ef848285016120d3565b91505092915050565b60006020828403121561230a57600080fd5b6000612318848285016120e8565b91505092915050565b61232a81612d2b565b82525050565b61233981612d3d565b82525050565b600061234a82612cee565b6123548185612d04565b9350612364818560208601612d80565b80840191505092915050565b60008154600181166000811461238d57600181146123b2576123f6565b607f600283041661239e8187612d04565b955060ff19831686528086019350506123f6565b600282046123c08187612d04565b95506123cb85612cc4565b60005b828110156123ed578154818901526001820191506020810190506123ce565b82880195505050505b505092915050565b600061240982612cf9565b6124138185612d0f565b9350612423818560208601612d80565b61242c81612db5565b840191505092915050565b600081546001811660008114612454576001811461247a576124be565b607f60028304166124658187612d0f565b955060ff1983168652602086019350506124be565b600282046124888187612d0f565b955061249385612cd9565b60005b828110156124b557815481890152600182019150602081019050612496565b80880195505050505b505092915050565b6000815460018116600081146124e357600181146125085761254c565b607f60028304166124f48187612d20565b955060ff198316865280860193505061254c565b600282046125168187612d20565b955061252185612cd9565b60005b8281101561254357815481890152600182019150602081019050612524565b82880195505050505b505092915050565b6000612561602583612d0f565b91507f42455032303a207472616e736665722066726f6d20746865207a65726f20616460008301527f64726573730000000000000000000000000000000000000000000000000000006020830152604082019050919050565b60006125c7602483612d0f565b91507f42455032303a20617070726f76652066726f6d20746865207a65726f2061646460008301527f72657373000000000000000000000000000000000000000000000000000000006020830152604082019050919050565b600061262d601f83612d0f565b91507f546f6b656e43686f703a205452414e534645525f46524f4d5f4641494c4544006000830152602082019050919050565b600061266d601a83612d0f565b91507f546f6b656e43686f703a205452414e534645525f4641494c45440000000000006000830152602082019050919050565b60006126ad602883612d0f565b91507f42455032303a207472616e7366657220616d6f756e742065786365656473206160008301527f6c6c6f77616e63650000000000000000000000000000000000000000000000006020830152604082019050919050565b6000612713600483612d20565b91507f57424e42000000000000000000000000000000000000000000000000000000006000830152600482019050919050565b6000612753602683612d0f565b91507f42455032303a207472616e7366657220616d6f756e742065786365656473206260008301527f616c616e636500000000000000000000000000000000000000000000000000006020830152604082019050919050565b60006127b9602383612d0f565b91507f42455032303a207472616e7366657220746f20746865207a65726f206164647260008301527f65737300000000000000000000000000000000000000000000000000000000006020830152604082019050919050565b600061281f601483612d0f565b91507f546f6b656e43686f703a20464f5242494444454e0000000000000000000000006000830152602082019050919050565b600061285f601e83612d0f565b91507f546f6b656e43686f703a20507269636520757064617465204661696c656400006000830152602082019050919050565b600061289f602283612d0f565b91507f42455032303a20617070726f766520746f20746865207a65726f20616464726560008301527f73730000000000000000000000000000000000000000000000000000000000006020830152604082019050919050565b61290181612d69565b82525050565b61291081612d73565b82525050565b6000612922828461233f565b915081905092915050565b6000612939828861233f565b91506129458287612370565b9150612951828661233f565b915061295d8285612370565b9150612969828461233f565b91508190509695505050505050565b60006129848286612370565b91506129908285612370565b915061299c828461233f565b9150819050949350505050565b60006129b582846124c6565b915081905092915050565b60006129cb82612706565b9150819050919050565b60006020820190506129ea6000830184612321565b92915050565b6000606082019050612a056000830186612321565b612a126020830185612321565b612a1f60408301846128f8565b949350505050565b6000604082019050612a3c6000830185612321565b612a4960208301846128f8565b9392505050565b6000602082019050612a656000830184612330565b92915050565b60006020820190508181036000830152612a8581846123fe565b905092915050565b60006040820190508181036000830152612aa78185612437565b90508181036020830152612abb8184612437565b90509392505050565b60006020820190508181036000830152612add81612554565b9050919050565b60006020820190508181036000830152612afd816125ba565b9050919050565b60006020820190508181036000830152612b1d81612620565b9050919050565b60006020820190508181036000830152612b3d81612660565b9050919050565b60006020820190508181036000830152612b5d816126a0565b9050919050565b60006020820190508181036000830152612b7d81612746565b9050919050565b60006020820190508181036000830152612b9d816127ac565b9050919050565b60006020820190508181036000830152612bbd81612812565b9050919050565b60006020820190508181036000830152612bdd81612852565b9050919050565b60006020820190508181036000830152612bfd81612892565b9050919050565b6000602082019050612c1960008301846128f8565b92915050565b6000604082019050612c3460008301856128f8565b612c4160208301846128f8565b9392505050565b6000602082019050612c5d6000830184612907565b92915050565b6000604051905081810181811067ffffffffffffffff82111715612c8a57612c89612db3565b5b8060405250919050565b600067ffffffffffffffff821115612caf57612cae612db3565b5b601f19601f8301169050602081019050919050565b60008190508160005260206000209050919050565b60008190508160005260206000209050919050565b600081519050919050565b600081519050919050565b600081905092915050565b600082825260208201905092915050565b600081905092915050565b6000612d3682612d49565b9050919050565b60008115159050919050565b600073ffffffffffffffffffffffffffffffffffffffff82169050919050565b6000819050919050565b600060ff82169050919050565b60005b83811015612d9e578082015181840152602081019050612d83565b83811115612dad576000848401525b50505050565bfe5b6000601f19601f8301169050919050565b612dcf81612d2b565b8114612dda57600080fd5b50565b612de681612d3d565b8114612df157600080fd5b50565b612dfd81612d69565b8114612e0857600080fd5b5056fe7472616e7366657246726f6d28616464726573732c616464726573732c75696e7432353629a26469706673582212200d92d5c773b8455d9f9f92438ef7768f9ddb222a7f97f51bd1b49e8e5fe4af4564736f6c63430007060033",
  "immutableReferences": {},
  "source": "// SPDX-License-Identifier: MIT\r\npragma solidity =0.7.6;\r\npragma abicoder v2;\r\n\r\nimport \"./interfaces/IBEP20.sol\";\r\nimport \"./interfaces/ITokenChopToken.sol\";\r\nimport \"./TokenChopSpec.sol\";\r\nimport \"./interfaces/IStdReference.sol\";\r\nimport \"./libs/SafeMath.sol\";\r\nimport \"./libs/Math.sol\";\r\n\r\ncontract TokenChopStable is IBEP20, ITokenChopToken {\r\n    using SafeMath for uint256;\r\n    mapping(address => uint256) public override balanceOf;\r\n    mapping(address => mapping(address => uint256)) public override allowance;\r\n\r\n    string  public override name;\r\n    string  public override symbol;\r\n    string  public baseSymbol;\r\n    string  public quoteSymbol;\r\n    string  public constant poolType = \"Stable\";\r\n    uint8   public constant typeId = 0;\r\n    address public base;\r\n    address public quote;\r\n    address public sister;\r\n    address public factory;\r\n    uint256 public collateral;\r\n    uint256 public previousPrice;\r\n    uint256 public price;\r\n    uint256 public override totalSupply;\r\n    address public bandProtocol;\r\n\r\n    event CollateralTransfer(address indexed from, address indexed to, uint256 value);\r\n    event PriceUpdate(uint256 oldPrice, uint256 newPrice);\r\n\r\n    bytes4 private constant TRANSFER_SELECTOR = bytes4(keccak256(bytes('transfer(address,uint256)')));\r\n    bytes4 private constant TRANSFER_FROM_SELECTOR = bytes4(keccak256(bytes('transferFrom(address,address,uint256)')));\r\n    \r\n    constructor() {\r\n        factory = msg.sender;\r\n    }\r\n\r\n    modifier onlyFactory() {\r\n        require(msg.sender == factory, 'TokenChop: FORBIDDEN');\r\n        _;\r\n    }\r\n\r\n    modifier onlySister() {\r\n        require(msg.sender == sister, 'TokenChop: FORBIDDEN');\r\n        _;\r\n    }\r\n\r\n    function initialize(address _base, address _quote, address _sister) external override onlyFactory {\r\n        bandProtocol = 0xDA7a001b254CD22e46d3eAB04d937489c93174C3;\r\n        base = _base;\r\n        quote = _quote;\r\n        sister = _sister;\r\n        baseSymbol = IBEP20(base).symbol();\r\n        baseSymbol = keccak256(abi.encodePacked(baseSymbol)) == keccak256(abi.encodePacked(\"WBNB\")) ? \"BNB\" : baseSymbol;\r\n        quoteSymbol = IBEP20(quote).symbol();\r\n        name = string(abi.encodePacked(bytes(\"TokenChop: \"), bytes(baseSymbol), bytes(\"/\"), bytes(quoteSymbol), bytes(\" Stable\")));\r\n        symbol = string(abi.encodePacked(bytes(baseSymbol), bytes(quoteSymbol), bytes('0')));\r\n    }\r\n\r\n    function setBandAddress(address _bandAddr) external override onlyFactory {\r\n        bandProtocol = _bandAddr;\r\n    }\r\n\r\n    function getOwner() external override view returns (address) {\r\n        return factory;\r\n    }\r\n\r\n    function decimals() external override pure returns (uint8) {\r\n        return 18;\r\n    }\r\n\r\n    function transfer(address _recipient, uint256 _amount) external override returns (bool) {\r\n        _transfer(msg.sender, _recipient, _amount);\r\n        return true;\r\n    }\r\n\r\n    function approve(address _spender, uint256 _amount) external override returns (bool) {\r\n        _approve(msg.sender, _spender, _amount);\r\n        return true;\r\n    }\r\n\r\n    function transferFrom(address _sender, address _recipient, uint256 _amount) external override returns (bool) {\r\n        _transfer(_sender, _recipient, _amount);\r\n        require(allowance[_sender][msg.sender] >= _amount, \"BEP20: transfer amount exceeds allowance\");\r\n        _approve(_sender, msg.sender, allowance[_sender][msg.sender] - _amount);\r\n        return true;\r\n    }\r\n\r\n    function _transfer(address _sender, address _recipient, uint256 _amount) internal {\r\n        require(_sender != address(0), \"BEP20: transfer from the zero address\");\r\n        require(_recipient != address(0), \"BEP20: transfer to the zero address\");\r\n        require(balanceOf[_sender] >= _amount, \"BEP20: transfer amount exceeds balance\");\r\n        \r\n        balanceOf[_sender] = balanceOf[_sender].sub(_amount);\r\n        balanceOf[_recipient] = balanceOf[_recipient].add(_amount);\r\n\r\n        emit Transfer(_sender, _recipient, _amount);\r\n    }\r\n\r\n    function _approve(address _owner, address _spender, uint256 _amount) internal {\r\n        require(_owner != address(0), \"BEP20: approve from the zero address\");\r\n        require(_spender != address(0), \"BEP20: approve to the zero address\");\r\n\r\n        allowance[_owner][_spender] = _amount;\r\n        emit Approval(_owner, _spender, _amount);\r\n    }\r\n\r\n    function updatePrice() internal {\r\n        IStdReference bandProtocolContract = IStdReference(bandProtocol);\r\n        IStdReference.ReferenceData memory data = bandProtocolContract.getReferenceData(baseSymbol, quoteSymbol);\r\n        uint256 newPrice = data.rate;\r\n        require(newPrice != 0, \"TokenChop: Price update Failed\");\r\n        emit PriceUpdate(price, newPrice);\r\n        previousPrice = price;\r\n        price = newPrice;\r\n    }\r\n\r\n    function updateCollateral() internal {\r\n        uint256 oldPriceCollateral = previousPrice.mul(collateral);\r\n        uint256 currentPriceCollateral = price.mul(collateral);\r\n        if (oldPriceCollateral == currentPriceCollateral) return;\r\n        if (oldPriceCollateral < currentPriceCollateral) {\r\n            uint256 quoteAmount = currentPriceCollateral.sub(oldPriceCollateral);\r\n            uint256 obtained = getCollateralFromSister(quoteAmount);\r\n        } else {\r\n            uint256 quoteAmount = currentPriceCollateral.sub(oldPriceCollateral);\r\n            uint256 sent = sendCollateralToSister(quoteAmount);\r\n        }\r\n    }\r\n\r\n    function updateCollateralBySister() external onlySister {\r\n        updatePrice();\r\n        updateCollateral();\r\n    }\r\n\r\n    function getCollateralFromSister(uint256 _amount) internal returns (uint) {\r\n        // Amount is in quote. Collateral is in base\r\n        TokenChopSpec _sisterContract = TokenChopSpec(sister);\r\n        uint received = _sisterContract.sendCollateralToSister(_amount);\r\n        collateral = collateral.add(received);\r\n        return received;\r\n    }\r\n\r\n    function sendCollateralToSister(uint256 _requestedAmount) public onlySister returns (uint256 amount) {\r\n        // Amount is in quote. Collateral is in base\r\n        uint _amount = collateral < _requestedAmount ? collateral : _requestedAmount;\r\n        // Reentry risk?\r\n        _safeTransfer(base, sister, _amount);\r\n        collateral = collateral.sub(_amount);\r\n        emit CollateralTransfer(address(this), sister, _amount);\r\n        return _amount;\r\n    }\r\n\r\n    function mint(uint256 _collateralAmount) public returns (bool) {\r\n        _safeTransferFrom(base, msg.sender, address(this), _collateralAmount);\r\n        //do i need pending collateral\r\n        updatePrice();\r\n        // updateCollateral();\r\n        // // value of amount in tokens is _totalSupply/collateral\r\n        // uint256 _tokenAmount = _collateralAmount;\r\n        // if (totalSupply != 0 && collateral != 0 && _collateralAmount != 0) {\r\n        //     _tokenAmount = Math.mulDiv(totalSupply, collateral, _collateralAmount);\r\n        // }\r\n        // balanceOf[msg.sender] = balanceOf[msg.sender].add(_tokenAmount);\r\n        // totalSupply = totalSupply.add(_tokenAmount);\r\n        // collateral = collateral.add(_collateralAmount);\r\n        //emit Transfer(address(0), msg.sender, _tokenAmount);\r\n        //emit CollateralTransfer(msg.sender, address(this), _collateralAmount);\r\n        return true;\r\n    }\r\n\r\n    function burn(uint256 _tokenAmount) public returns (bool) {\r\n        //require(_tokenAmount <= balanceOf[msg.sender]);\r\n        //balanceOf[msg.sender] = balanceOf[msg.sender].sub(_tokenAmount);\r\n        updatePrice();\r\n        // updateCollateral();\r\n        // // amount to return is colat*tokens/totalsupply\r\n        // uint256 collateralAmount = Math.mulDiv(collateral, _tokenAmount, totalSupply);\r\n        // collateral = collateral.sub(collateralAmount);\r\n        // _safeTransfer(base, msg.sender, collateralAmount);\r\n        // emit Transfer(msg.sender, address(0), _tokenAmount);\r\n        // emit CollateralTransfer(address(this), msg.sender, collateralAmount);        \r\n        return true;\r\n    }\r\n\r\n    function _safeTransfer(address _token, address _to, uint _value) private {\r\n        (bool _success, bytes memory _data) = _token.call(abi.encodeWithSelector(TRANSFER_SELECTOR, _to, _value));\r\n        require(_success && (_data.length == 0 || abi.decode(_data, (bool))), 'TokenChop: TRANSFER_FAILED');\r\n    }\r\n\r\n    function _safeTransferFrom(address _token, address _sender, address _recipient, uint _value) private {\r\n        (bool _success, bytes memory _data) = _token.call(abi.encodeWithSelector(TRANSFER_FROM_SELECTOR, _sender, _recipient, _value));\r\n        require(_success && (_data.length == 0 || abi.decode(_data, (bool))), 'TokenChop: TRANSFER_FROM_FAILED');\r\n    }\r\n\r\n}",
  "sourcePath": "C:\\Repos\\tokenchop\\contracts\\TokenChopStable.sol",
  "compiler": {
    "name": "solc",
    "version": "0.7.6+commit.7338295f.Emscripten.clang"
  },
  "schemaVersion": "3.3.3",
  "updatedAt": "2021-02-11T08:08:20.835Z",
  "devdoc": {
    "kind": "dev",
    "methods": {
      "decimals()": {
        "details": "Returns the token decimals."
      },
      "getOwner()": {
        "details": "Returns the bep token owner."
      }
    },
    "stateVariables": {
      "allowance": {
        "details": "Returns the remaining number of tokens that `spender` will be allowed to spend on behalf of `owner` through {transferFrom}. This is zero by default. This value changes when {approve} or {transferFrom} are called."
      },
      "balanceOf": {
        "details": "Returns the amount of tokens owned by `account`."
      },
      "name": {
        "details": "Returns the token name."
      },
      "symbol": {
        "details": "Returns the token symbol."
      },
      "totalSupply": {
        "details": "Returns the amount of tokens in existence."
      }
    },
    "version": 1
  },
  "userdoc": {
    "kind": "user",
    "methods": {},
    "version": 1
  }
}