{
  "contractName": "TokenChopStable",
  "abi": [
    {
      "inputs": [],
      "stateMutability": "nonpayable",
      "type": "constructor"
    },
    {
      "anonymous": false,
      "inputs": [
        {
          "indexed": true,
          "internalType": "address",
          "name": "owner",
          "type": "address"
        },
        {
          "indexed": true,
          "internalType": "address",
          "name": "spender",
          "type": "address"
        },
        {
          "indexed": false,
          "internalType": "uint256",
          "name": "value",
          "type": "uint256"
        }
      ],
      "name": "Approval",
      "type": "event"
    },
    {
      "anonymous": false,
      "inputs": [
        {
          "indexed": true,
          "internalType": "address",
          "name": "from",
          "type": "address"
        },
        {
          "indexed": true,
          "internalType": "address",
          "name": "to",
          "type": "address"
        },
        {
          "indexed": false,
          "internalType": "uint256",
          "name": "value",
          "type": "uint256"
        }
      ],
      "name": "CollateralTransfer",
      "type": "event"
    },
    {
      "anonymous": false,
      "inputs": [
        {
          "indexed": false,
          "internalType": "uint256",
          "name": "required",
          "type": "uint256"
        },
        {
          "indexed": false,
          "internalType": "uint256",
          "name": "obtained",
          "type": "uint256"
        }
      ],
      "name": "InsufficientCollateral",
      "type": "event"
    },
    {
      "anonymous": false,
      "inputs": [
        {
          "indexed": false,
          "internalType": "uint256",
          "name": "oldPrice",
          "type": "uint256"
        },
        {
          "indexed": false,
          "internalType": "uint256",
          "name": "newPrice",
          "type": "uint256"
        }
      ],
      "name": "PriceUpdate",
      "type": "event"
    },
    {
      "anonymous": false,
      "inputs": [
        {
          "indexed": true,
          "internalType": "address",
          "name": "from",
          "type": "address"
        },
        {
          "indexed": true,
          "internalType": "address",
          "name": "to",
          "type": "address"
        },
        {
          "indexed": false,
          "internalType": "uint256",
          "name": "value",
          "type": "uint256"
        }
      ],
      "name": "Transfer",
      "type": "event"
    },
    {
      "inputs": [
        {
          "internalType": "address",
          "name": "",
          "type": "address"
        },
        {
          "internalType": "address",
          "name": "",
          "type": "address"
        }
      ],
      "name": "allowance",
      "outputs": [
        {
          "internalType": "uint256",
          "name": "",
          "type": "uint256"
        }
      ],
      "stateMutability": "view",
      "type": "function"
    },
    {
      "inputs": [
        {
          "internalType": "address",
          "name": "",
          "type": "address"
        }
      ],
      "name": "balanceOf",
      "outputs": [
        {
          "internalType": "uint256",
          "name": "",
          "type": "uint256"
        }
      ],
      "stateMutability": "view",
      "type": "function"
    },
    {
      "inputs": [],
      "name": "bandProtocol",
      "outputs": [
        {
          "internalType": "address",
          "name": "",
          "type": "address"
        }
      ],
      "stateMutability": "view",
      "type": "function"
    },
    {
      "inputs": [],
      "name": "base",
      "outputs": [
        {
          "internalType": "address",
          "name": "",
          "type": "address"
        }
      ],
      "stateMutability": "view",
      "type": "function"
    },
    {
      "inputs": [],
      "name": "baseSymbol",
      "outputs": [
        {
          "internalType": "string",
          "name": "",
          "type": "string"
        }
      ],
      "stateMutability": "view",
      "type": "function"
    },
    {
      "inputs": [],
      "name": "collateral",
      "outputs": [
        {
          "internalType": "uint256",
          "name": "",
          "type": "uint256"
        }
      ],
      "stateMutability": "view",
      "type": "function"
    },
    {
      "inputs": [],
      "name": "factory",
      "outputs": [
        {
          "internalType": "address",
          "name": "",
          "type": "address"
        }
      ],
      "stateMutability": "view",
      "type": "function"
    },
    {
      "inputs": [],
      "name": "name",
      "outputs": [
        {
          "internalType": "string",
          "name": "",
          "type": "string"
        }
      ],
      "stateMutability": "view",
      "type": "function"
    },
    {
      "inputs": [],
      "name": "poolType",
      "outputs": [
        {
          "internalType": "string",
          "name": "",
          "type": "string"
        }
      ],
      "stateMutability": "view",
      "type": "function"
    },
    {
      "inputs": [],
      "name": "previousPrice",
      "outputs": [
        {
          "internalType": "uint256",
          "name": "",
          "type": "uint256"
        }
      ],
      "stateMutability": "view",
      "type": "function"
    },
    {
      "inputs": [],
      "name": "price",
      "outputs": [
        {
          "internalType": "uint256",
          "name": "",
          "type": "uint256"
        }
      ],
      "stateMutability": "view",
      "type": "function"
    },
    {
      "inputs": [],
      "name": "priceDecimals",
      "outputs": [
        {
          "internalType": "uint8",
          "name": "",
          "type": "uint8"
        }
      ],
      "stateMutability": "view",
      "type": "function"
    },
    {
      "inputs": [],
      "name": "quote",
      "outputs": [
        {
          "internalType": "address",
          "name": "",
          "type": "address"
        }
      ],
      "stateMutability": "view",
      "type": "function"
    },
    {
      "inputs": [],
      "name": "quoteSymbol",
      "outputs": [
        {
          "internalType": "string",
          "name": "",
          "type": "string"
        }
      ],
      "stateMutability": "view",
      "type": "function"
    },
    {
      "inputs": [],
      "name": "sister",
      "outputs": [
        {
          "internalType": "address",
          "name": "",
          "type": "address"
        }
      ],
      "stateMutability": "view",
      "type": "function"
    },
    {
      "inputs": [],
      "name": "symbol",
      "outputs": [
        {
          "internalType": "string",
          "name": "",
          "type": "string"
        }
      ],
      "stateMutability": "view",
      "type": "function"
    },
    {
      "inputs": [],
      "name": "totalSupply",
      "outputs": [
        {
          "internalType": "uint256",
          "name": "",
          "type": "uint256"
        }
      ],
      "stateMutability": "view",
      "type": "function"
    },
    {
      "inputs": [],
      "name": "typeId",
      "outputs": [
        {
          "internalType": "uint8",
          "name": "",
          "type": "uint8"
        }
      ],
      "stateMutability": "view",
      "type": "function"
    },
    {
      "inputs": [
        {
          "internalType": "address",
          "name": "_base",
          "type": "address"
        },
        {
          "internalType": "address",
          "name": "_quote",
          "type": "address"
        },
        {
          "internalType": "address",
          "name": "_sister",
          "type": "address"
        }
      ],
      "name": "initialize",
      "outputs": [],
      "stateMutability": "nonpayable",
      "type": "function"
    },
    {
      "inputs": [
        {
          "internalType": "address",
          "name": "_bandAddr",
          "type": "address"
        }
      ],
      "name": "setBandAddress",
      "outputs": [],
      "stateMutability": "nonpayable",
      "type": "function"
    },
    {
      "inputs": [],
      "name": "getOwner",
      "outputs": [
        {
          "internalType": "address",
          "name": "",
          "type": "address"
        }
      ],
      "stateMutability": "view",
      "type": "function"
    },
    {
      "inputs": [],
      "name": "decimals",
      "outputs": [
        {
          "internalType": "uint8",
          "name": "",
          "type": "uint8"
        }
      ],
      "stateMutability": "pure",
      "type": "function"
    },
    {
      "inputs": [
        {
          "internalType": "address",
          "name": "_recipient",
          "type": "address"
        },
        {
          "internalType": "uint256",
          "name": "_amount",
          "type": "uint256"
        }
      ],
      "name": "transfer",
      "outputs": [
        {
          "internalType": "bool",
          "name": "",
          "type": "bool"
        }
      ],
      "stateMutability": "nonpayable",
      "type": "function"
    },
    {
      "inputs": [
        {
          "internalType": "address",
          "name": "_spender",
          "type": "address"
        },
        {
          "internalType": "uint256",
          "name": "_amount",
          "type": "uint256"
        }
      ],
      "name": "approve",
      "outputs": [
        {
          "internalType": "bool",
          "name": "",
          "type": "bool"
        }
      ],
      "stateMutability": "nonpayable",
      "type": "function"
    },
    {
      "inputs": [
        {
          "internalType": "address",
          "name": "_sender",
          "type": "address"
        },
        {
          "internalType": "address",
          "name": "_recipient",
          "type": "address"
        },
        {
          "internalType": "uint256",
          "name": "_amount",
          "type": "uint256"
        }
      ],
      "name": "transferFrom",
      "outputs": [
        {
          "internalType": "bool",
          "name": "",
          "type": "bool"
        }
      ],
      "stateMutability": "nonpayable",
      "type": "function"
    },
    {
      "inputs": [],
      "name": "updatePriceBySister",
      "outputs": [],
      "stateMutability": "nonpayable",
      "type": "function"
    },
    {
      "inputs": [
        {
          "internalType": "uint256",
          "name": "baseAmount",
          "type": "uint256"
        }
      ],
      "name": "mintAtBaseAmount",
      "outputs": [
        {
          "internalType": "bool",
          "name": "",
          "type": "bool"
        }
      ],
      "stateMutability": "nonpayable",
      "type": "function"
    },
    {
      "inputs": [
        {
          "internalType": "uint256",
          "name": "quoteAmount",
          "type": "uint256"
        }
      ],
      "name": "burn",
      "outputs": [
        {
          "internalType": "bool",
          "name": "",
          "type": "bool"
        }
      ],
      "stateMutability": "nonpayable",
      "type": "function"
    },
    {
      "inputs": [],
      "name": "refresh",
      "outputs": [],
      "stateMutability": "nonpayable",
      "type": "function"
    }
  ],
  "bytecode": "0x60806040526000600e60146101000a81548160ff02191690831515021790555034801561002b57600080fd5b5033600960006101000a81548173ffffffffffffffffffffffffffffffffffffffff021916908373ffffffffffffffffffffffffffffffffffffffff1602179055506137b18061007c6000396000f3fe608060405234801561001057600080fd5b50600436106101cf5760003560e01c8063893d20e811610104578063a9ed003d116100a2578063cd0b4aed11610071578063cd0b4aed14610504578063d8dfeb4514610534578063dd62ed3e14610552578063f8ac93e814610582576101cf565b8063a9ed003d1461048e578063b1dd61b6146104ac578063c0c53b8b146104ca578063c45a0155146104e6576101cf565b806395d89b41116100de57806395d89b4114610404578063999b93af14610422578063a035b1fe14610440578063a9059cbb1461045e576101cf565b8063893d20e8146103aa5780638f940f63146103c8578063914e245a146103e6576101cf565b806342966c681161017157806365f4fea71161014b57806365f4fea7146103345780636fea6b1c1461033e57806370a082311461035c57806380583be71461038c576101cf565b806342966c68146102c85780635001f3b5146102f857806360d6df6e14610316576101cf565b806318160ddd116101ad57806318160ddd1461024057806323b872dd1461025e5780632e4e3d111461028e578063313ce567146102aa576101cf565b806305300b28146101d457806306fdde03146101f2578063095ea7b314610210575b600080fd5b6101dc61058c565b6040516101e99190613581565b60405180910390f35b6101fa610591565b6040516102079190613364565b60405180910390f35b61022a60048036038101906102259190612a41565b61062f565b6040516102379190613320565b60405180910390f35b610248610646565b604051610255919061353d565b60405180910390f35b610278600480360381019061027391906129f2565b61064c565b6040516102859190613320565b60405180910390f35b6102a860048036038101906102a3919061293e565b6107ac565b005b6102b2610880565b6040516102bf9190613581565b60405180910390f35b6102e260048036038101906102dd9190612b10565b610889565b6040516102ef9190613320565b60405180910390f35b610300610bac565b60405161030d91906132a5565b60405180910390f35b61031e610bd2565b60405161032b9190613364565b60405180910390f35b61033c610c70565b005b610346610d0a565b60405161035391906132a5565b60405180910390f35b6103766004803603810190610371919061293e565b610d30565b604051610383919061353d565b60405180910390f35b610394610d48565b6040516103a19190613364565b60405180910390f35b6103b2610de6565b6040516103bf91906132a5565b60405180910390f35b6103d0610e10565b6040516103dd9190613581565b60405180910390f35b6103ee610e15565b6040516103fb919061353d565b60405180910390f35b61040c610e1b565b6040516104199190613364565b60405180910390f35b61042a610eb9565b60405161043791906132a5565b60405180910390f35b610448610edf565b604051610455919061353d565b60405180910390f35b61047860048036038101906104739190612a41565b610ee5565b6040516104859190613320565b60405180910390f35b610496610efc565b6040516104a391906132a5565b60405180910390f35b6104b4610f22565b6040516104c19190613364565b60405180910390f35b6104e460048036038101906104df91906129a3565b610f5b565b005b6104ee61150d565b6040516104fb91906132a5565b60405180910390f35b61051e60048036038101906105199190612b10565b611533565b60405161052b9190613320565b60405180910390f35b61053c6117b7565b604051610549919061353d565b60405180910390f35b61056c60048036038101906105679190612967565b6117bd565b604051610579919061353d565b60405180910390f35b61058a6117e2565b005b601281565b60028054600181600116156101000203166002900480601f0160208091040260200160405190810160405280929190818152602001828054600181600116156101000203166002900480156106275780601f106105fc57610100808354040283529160200191610627565b820191906000526020600020905b81548152906001019060200180831161060a57829003601f168201915b505050505081565b600061063c3384846117f4565b6001905092915050565b600d5481565b60006106598484846119bf565b81600160008673ffffffffffffffffffffffffffffffffffffffff1673ffffffffffffffffffffffffffffffffffffffff16815260200190815260200160002060003373ffffffffffffffffffffffffffffffffffffffff1673ffffffffffffffffffffffffffffffffffffffff168152602001908152602001600020541015610718576040517f08c379a000000000000000000000000000000000000000000000000000000000815260040161070f9061347d565b60405180910390fd5b6107a1843384600160008973ffffffffffffffffffffffffffffffffffffffff1673ffffffffffffffffffffffffffffffffffffffff16815260200190815260200160002060003373ffffffffffffffffffffffffffffffffffffffff1673ffffffffffffffffffffffffffffffffffffffff16815260200190815260200160002054036117f4565b600190509392505050565b600960009054906101000a900473ffffffffffffffffffffffffffffffffffffffff1673ffffffffffffffffffffffffffffffffffffffff163373ffffffffffffffffffffffffffffffffffffffff161461083c576040517f08c379a0000000000000000000000000000000000000000000000000000000008152600401610833906134dd565b60405180910390fd5b80600e60006101000a81548173ffffffffffffffffffffffffffffffffffffffff021916908373ffffffffffffffffffffffffffffffffffffffff16021790555050565b60006012905090565b6000610893611cb0565b61089b611e05565b6000803373ffffffffffffffffffffffffffffffffffffffff1673ffffffffffffffffffffffffffffffffffffffff1681526020019081526020016000205482111561091c576040517f08c379a0000000000000000000000000000000000000000000000000000000008152600401610913906133bd565b60405180910390fd5b7f92664190cca12aca9cd5309d87194bdda75bb51362d71c06e1a6f75c7c76571160048060405161094e92919061333b565b60405180910390a16109a7826000803373ffffffffffffffffffffffffffffffffffffffff1673ffffffffffffffffffffffffffffffffffffffff1681526020019081526020016000205461202b90919063ffffffff16565b6000803373ffffffffffffffffffffffffffffffffffffffff1673ffffffffffffffffffffffffffffffffffffffff1681526020019081526020016000208190555060006109f7600c548461204b565b9050600660009054906101000a900473ffffffffffffffffffffffffffffffffffffffff1673ffffffffffffffffffffffffffffffffffffffff166370a08231306040518263ffffffff1660e01b8152600401610a5491906132a5565b60206040518083038186803b158015610a6c57600080fd5b505afa158015610a80573d6000803e3d6000fd5b505050506040513d601f19601f82011682018060405250810190610aa49190612b39565b600a81905550610ad7600660009054906101000a900473ffffffffffffffffffffffffffffffffffffffff1633836120de565b600073ffffffffffffffffffffffffffffffffffffffff163373ffffffffffffffffffffffffffffffffffffffff167fddf252ad1be2c89b69c2b068fc378daa952ba7f163c4a11628f55a4df523b3ef85604051610b35919061353d565b60405180910390a33373ffffffffffffffffffffffffffffffffffffffff163073ffffffffffffffffffffffffffffffffffffffff167f14395d6fb6ac3870af345d12d989b966ccf04dcdd9e02b95722d12dca39eb4b083604051610b9a919061353d565b60405180910390a36001915050919050565b600660009054906101000a900473ffffffffffffffffffffffffffffffffffffffff1681565b60058054600181600116156101000203166002900480601f016020809104026020016040519081016040528092919081815260200182805460018160011615610100020316600290048015610c685780601f10610c3d57610100808354040283529160200191610c68565b820191906000526020600020905b815481529060010190602001808311610c4b57829003601f168201915b505050505081565b600860009054906101000a900473ffffffffffffffffffffffffffffffffffffffff1673ffffffffffffffffffffffffffffffffffffffff163373ffffffffffffffffffffffffffffffffffffffff1614610d00576040517f08c379a0000000000000000000000000000000000000000000000000000000008152600401610cf7906134dd565b60405180910390fd5b610d08611cb0565b565b600e60009054906101000a900473ffffffffffffffffffffffffffffffffffffffff1681565b60006020528060005260406000206000915090505481565b60048054600181600116156101000203166002900480601f016020809104026020016040519081016040528092919081815260200182805460018160011615610100020316600290048015610dde5780601f10610db357610100808354040283529160200191610dde565b820191906000526020600020905b815481529060010190602001808311610dc157829003601f168201915b505050505081565b6000600960009054906101000a900473ffffffffffffffffffffffffffffffffffffffff16905090565b600081565b600b5481565b60038054600181600116156101000203166002900480601f016020809104026020016040519081016040528092919081815260200182805460018160011615610100020316600290048015610eb15780601f10610e8657610100808354040283529160200191610eb1565b820191906000526020600020905b815481529060010190602001808311610e9457829003601f168201915b505050505081565b600760009054906101000a900473ffffffffffffffffffffffffffffffffffffffff1681565b600c5481565b6000610ef23384846119bf565b6001905092915050565b600860009054906101000a900473ffffffffffffffffffffffffffffffffffffffff1681565b6040518060400160405280600681526020017f537461626c65000000000000000000000000000000000000000000000000000081525081565b600960009054906101000a900473ffffffffffffffffffffffffffffffffffffffff1673ffffffffffffffffffffffffffffffffffffffff163373ffffffffffffffffffffffffffffffffffffffff1614610feb576040517f08c379a0000000000000000000000000000000000000000000000000000000008152600401610fe2906134dd565b60405180910390fd5b73da7a001b254cd22e46d3eab04d937489c93174c3600e60006101000a81548173ffffffffffffffffffffffffffffffffffffffff021916908373ffffffffffffffffffffffffffffffffffffffff16021790555082600660006101000a81548173ffffffffffffffffffffffffffffffffffffffff021916908373ffffffffffffffffffffffffffffffffffffffff16021790555081600760006101000a81548173ffffffffffffffffffffffffffffffffffffffff021916908373ffffffffffffffffffffffffffffffffffffffff16021790555080600860006101000a81548173ffffffffffffffffffffffffffffffffffffffff021916908373ffffffffffffffffffffffffffffffffffffffff160217905550600660009054906101000a900473ffffffffffffffffffffffffffffffffffffffff1673ffffffffffffffffffffffffffffffffffffffff166395d89b416040518163ffffffff1660e01b815260040160006040518083038186803b15801561116b57600080fd5b505afa15801561117f573d6000803e3d6000fd5b505050506040513d6000823e3d601f19601f820116820180604052508101906111a89190612aa6565b600490805190602001906111bd929190612777565b506040516020016111cd90613290565b6040516020818303038152906040528051906020012060046040516020016111f59190613279565b60405160208183030381529060405280519060200120146112b05760048054600181600116156101000203166002900480601f0160208091040260200160405190810160405280929190818152602001828054600181600116156101000203166002900480156112a65780601f1061127b576101008083540402835291602001916112a6565b820191906000526020600020905b81548152906001019060200180831161128957829003601f168201915b50505050506112e7565b6040518060400160405280600381526020017f424e4200000000000000000000000000000000000000000000000000000000008152505b600490805190602001906112fc929190612777565b50600760009054906101000a900473ffffffffffffffffffffffffffffffffffffffff1673ffffffffffffffffffffffffffffffffffffffff166395d89b416040518163ffffffff1660e01b815260040160006040518083038186803b15801561136557600080fd5b505afa158015611379573d6000803e3d6000fd5b505050506040513d6000823e3d601f19601f820116820180604052508101906113a29190612aa6565b600590805190602001906113b7929190612777565b506040518060400160405280600b81526020017f546f6b656e43686f703a2000000000000000000000000000000000000000000081525060046040518060400160405280600181526020017f2f0000000000000000000000000000000000000000000000000000000000000081525060056040518060400160405280600781526020017f20537461626c65000000000000000000000000000000000000000000000000008152506040516020016114729594939291906131fd565b60405160208183030381529060405260029080519060200190611496929190612777565b50600460056040518060400160405280600181526020017f30000000000000000000000000000000000000000000000000000000000000008152506040516020016114e393929190613248565b60405160208183030381529060405260039080519060200190611507929190612777565b50505050565b600960009054906101000a900473ffffffffffffffffffffffffffffffffffffffff1681565b600061153d611cb0565b611545611e05565b611573600660009054906101000a900473ffffffffffffffffffffffffffffffffffffffff16333085612268565b6000611581600c54846123d8565b90506115d4816000803373ffffffffffffffffffffffffffffffffffffffff1673ffffffffffffffffffffffffffffffffffffffff168152602001908152602001600020546123f590919063ffffffff16565b6000803373ffffffffffffffffffffffffffffffffffffffff1673ffffffffffffffffffffffffffffffffffffffff1681526020019081526020016000208190555061162b81600d546123f590919063ffffffff16565b600d81905550600660009054906101000a900473ffffffffffffffffffffffffffffffffffffffff1673ffffffffffffffffffffffffffffffffffffffff166370a08231306040518263ffffffff1660e01b815260040161168c91906132a5565b60206040518083038186803b1580156116a457600080fd5b505afa1580156116b8573d6000803e3d6000fd5b505050506040513d601f19601f820116820180604052508101906116dc9190612b39565b600a819055503373ffffffffffffffffffffffffffffffffffffffff16600073ffffffffffffffffffffffffffffffffffffffff167fddf252ad1be2c89b69c2b068fc378daa952ba7f163c4a11628f55a4df523b3ef83604051611740919061353d565b60405180910390a33073ffffffffffffffffffffffffffffffffffffffff163373ffffffffffffffffffffffffffffffffffffffff167f14395d6fb6ac3870af345d12d989b966ccf04dcdd9e02b95722d12dca39eb4b0856040516117a5919061353d565b60405180910390a36001915050919050565b600a5481565b6001602052816000526040600020602052806000526040600020600091509150505481565b6117ea611cb0565b6117f2611e05565b565b600073ffffffffffffffffffffffffffffffffffffffff168373ffffffffffffffffffffffffffffffffffffffff161415611864576040517f08c379a000000000000000000000000000000000000000000000000000000000815260040161185b906133fd565b60405180910390fd5b600073ffffffffffffffffffffffffffffffffffffffff168273ffffffffffffffffffffffffffffffffffffffff1614156118d4576040517f08c379a00000000000000000000000000000000000000000000000000000000081526004016118cb9061351d565b60405180910390fd5b80600160008573ffffffffffffffffffffffffffffffffffffffff1673ffffffffffffffffffffffffffffffffffffffff16815260200190815260200160002060008473ffffffffffffffffffffffffffffffffffffffff1673ffffffffffffffffffffffffffffffffffffffff168152602001908152602001600020819055508173ffffffffffffffffffffffffffffffffffffffff168373ffffffffffffffffffffffffffffffffffffffff167f8c5be1e5ebec7d5bd14f71427d1e84f3dd0314c0f7b2291e5b200ac8c7c3b925836040516119b2919061353d565b60405180910390a3505050565b600073ffffffffffffffffffffffffffffffffffffffff168373ffffffffffffffffffffffffffffffffffffffff161415611a2f576040517f08c379a0000000000000000000000000000000000000000000000000000000008152600401611a26906133dd565b60405180910390fd5b600073ffffffffffffffffffffffffffffffffffffffff168273ffffffffffffffffffffffffffffffffffffffff161415611a9f576040517f08c379a0000000000000000000000000000000000000000000000000000000008152600401611a96906134bd565b60405180910390fd5b806000808573ffffffffffffffffffffffffffffffffffffffff1673ffffffffffffffffffffffffffffffffffffffff168152602001908152602001600020541015611b20576040517f08c379a0000000000000000000000000000000000000000000000000000000008152600401611b179061349d565b60405180910390fd5b611b71816000808673ffffffffffffffffffffffffffffffffffffffff1673ffffffffffffffffffffffffffffffffffffffff1681526020019081526020016000205461202b90919063ffffffff16565b6000808573ffffffffffffffffffffffffffffffffffffffff1673ffffffffffffffffffffffffffffffffffffffff16815260200190815260200160002081905550611c04816000808573ffffffffffffffffffffffffffffffffffffffff1673ffffffffffffffffffffffffffffffffffffffff168152602001908152602001600020546123f590919063ffffffff16565b6000808473ffffffffffffffffffffffffffffffffffffffff1673ffffffffffffffffffffffffffffffffffffffff168152602001908152602001600020819055508173ffffffffffffffffffffffffffffffffffffffff168373ffffffffffffffffffffffffffffffffffffffff167fddf252ad1be2c89b69c2b068fc378daa952ba7f163c4a11628f55a4df523b3ef83604051611ca3919061353d565b60405180910390a3505050565b6000600e60009054906101000a900473ffffffffffffffffffffffffffffffffffffffff16905060008173ffffffffffffffffffffffffffffffffffffffff166365555bcc600460056040518363ffffffff1660e01b8152600401611d16929190613386565b60606040518083038186803b158015611d2e57600080fd5b505afa158015611d42573d6000803e3d6000fd5b505050506040513d601f19601f82011682018060405250810190611d669190612ae7565b90506000816000015190506000811415611db5576040517f08c379a0000000000000000000000000000000000000000000000000000000008152600401611dac906134fd565b60405180910390fd5b7f92664190cca12aca9cd5309d87194bdda75bb51362d71c06e1a6f75c7c765711600c5482604051611de8929190613558565b60405180910390a1600c54600b8190555080600c81905550505050565b600e60149054906101000a900460ff1615611e55576040517f08c379a0000000000000000000000000000000000000000000000000000000008152600401611e4c9061343d565b60405180910390fd5b6001600e60146101000a81548160ff0219169083151502179055506000611e80600c54600a546123d8565b9050600d54811415611e925750612029565b600d54811015611f37576000611eb382600d5461202b90919063ffffffff16565b90506000611ec082612414565b905081811015611f30576000611ef382611ee585600d5461202b90919063ffffffff16565b6123f590919063ffffffff16565b90507fb07e3bc4c23a2d5a3367eec63320a439a69fa5b14b5619ba643e23b3ab6ef8058383604051611f26929190613558565b60405180910390a1505b5050611f5b565b6000611f4e600d548361202b90919063ffffffff16565b9050611f59816124f1565b505b600660009054906101000a900473ffffffffffffffffffffffffffffffffffffffff1673ffffffffffffffffffffffffffffffffffffffff166370a08231306040518263ffffffff1660e01b8152600401611fb691906132a5565b60206040518083038186803b158015611fce57600080fd5b505afa158015611fe2573d6000803e3d6000fd5b505050506040513d601f19601f820116820180604052508101906120069190612b39565b600a819055506000600e60146101000a81548160ff021916908315150217905550505b565b60008282111561203a57600080fd5b600082840390508091505092915050565b6000808314156120c3576040517f08c379a00000000000000000000000000000000000000000000000000000000081526004018080602001828103825260138152602001807f7072696365206d757374206e6f7420626520300000000000000000000000000081525060200191505060405180910390fd5b6120d682670de0b6b3a7640000856125db565b905092915050565b6000808473ffffffffffffffffffffffffffffffffffffffff166040518060400160405280601981526020017f7472616e7366657228616464726573732c75696e7432353629000000000000008152508051906020012085856040516024016121489291906132f7565b604051602081830303815290604052907bffffffffffffffffffffffffffffffffffffffffffffffffffffffff19166020820180517bffffffffffffffffffffffffffffffffffffffffffffffffffffffff83818316178352505050506040516121b291906131e6565b6000604051808303816000865af19150503d80600081146121ef576040519150601f19603f3d011682016040523d82523d6000602084013e6121f4565b606091505b509150915081801561222257506000815114806122215750808060200190518101906122209190612a7d565b5b5b612261576040517f08c379a00000000000000000000000000000000000000000000000000000000081526004016122589061345d565b60405180910390fd5b5050505050565b6000808573ffffffffffffffffffffffffffffffffffffffff1660405180606001604052806025815260200161375760259139805190602001208686866040516024016122b7939291906132c0565b604051602081830303815290604052907bffffffffffffffffffffffffffffffffffffffffffffffffffffffff19166020820180517bffffffffffffffffffffffffffffffffffffffffffffffffffffffff838183161783525050505060405161232191906131e6565b6000604051808303816000865af19150503d806000811461235e576040519150601f19603f3d011682016040523d82523d6000602084013e612363565b606091505b5091509150818015612391575060008151148061239057508080602001905181019061238f9190612a7d565b5b5b6123d0576040517f08c379a00000000000000000000000000000000000000000000000000000000081526004016123c79061341d565b60405180910390fd5b505050505050565b60006123ed8284670de0b6b3a76400006125db565b905092915050565b60008082840190508381101561240a57600080fd5b8091505092915050565b600080612423600c548461204b565b90506000600860009054906101000a900473ffffffffffffffffffffffffffffffffffffffff16905060008173ffffffffffffffffffffffffffffffffffffffff1663f33ab2b8846040518263ffffffff1660e01b8152600401612487919061353d565b602060405180830381600087803b1580156124a157600080fd5b505af11580156124b5573d6000803e3d6000fd5b505050506040513d601f19601f820116820180604052508101906124d99190612b39565b90506124e7600c54826123d8565b9350505050919050565b60006124ff600c548361204b565b9050612550600660009054906101000a900473ffffffffffffffffffffffffffffffffffffffff16600860009054906101000a900473ffffffffffffffffffffffffffffffffffffffff16836120de565b600860009054906101000a900473ffffffffffffffffffffffffffffffffffffffff1673ffffffffffffffffffffffffffffffffffffffff163073ffffffffffffffffffffffffffffffffffffffff167f14395d6fb6ac3870af345d12d989b966ccf04dcdd9e02b95722d12dca39eb4b0836040516125cf919061353d565b60405180910390a35050565b60007001000000000000000000000000000000008410612663576040517f08c379a000000000000000000000000000000000000000000000000000000000815260040180806020018281038252600f8152602001807f56616c756520746f6f206c61726765000000000000000000000000000000000081525060200191505060405180910390fd5b70010000000000000000000000000000000083106126e9576040517f08c379a00000000000000000000000000000000000000000000000000000000081526004018080602001828103825260148152602001807f4e756d657261746f7220746f6f206c617267652000000000000000000000000081525060200191505060405180910390fd5b61270e82612700858761271790919063ffffffff16565b61275190919063ffffffff16565b90509392505050565b60008083141561272a576000905061274b565b600082840290508284828161273b57fe5b041461274657600080fd5b809150505b92915050565b600080821161275f57600080fd5b600082848161276a57fe5b0490508091505092915050565b828054600181600116156101000203166002900490600052602060002090601f0160209004810192826127ad57600085556127f4565b82601f106127c657805160ff19168380011785556127f4565b828001600101855582156127f4579182015b828111156127f35782518255916020019190600101906127d8565b5b5090506128019190612805565b5090565b5b8082111561281e576000816000905550600101612806565b5090565b6000612835612830846135cd565b61359c565b90508281526020810184848401111561284d57600080fd5b6128588482856136cb565b509392505050565b60008135905061286f81613711565b92915050565b60008151905061288481613728565b92915050565b600082601f83011261289b57600080fd5b81516128ab848260208601612822565b91505092915050565b6000606082840312156128c657600080fd5b6128d0606061359c565b905060006128e084828501612929565b60008301525060206128f484828501612929565b602083015250604061290884828501612929565b60408301525092915050565b6000813590506129238161373f565b92915050565b6000815190506129388161373f565b92915050565b60006020828403121561295057600080fd5b600061295e84828501612860565b91505092915050565b6000806040838503121561297a57600080fd5b600061298885828601612860565b925050602061299985828601612860565b9150509250929050565b6000806000606084860312156129b857600080fd5b60006129c686828701612860565b93505060206129d786828701612860565b92505060406129e886828701612860565b9150509250925092565b600080600060608486031215612a0757600080fd5b6000612a1586828701612860565b9350506020612a2686828701612860565b9250506040612a3786828701612914565b9150509250925092565b60008060408385031215612a5457600080fd5b6000612a6285828601612860565b9250506020612a7385828601612914565b9150509250929050565b600060208284031215612a8f57600080fd5b6000612a9d84828501612875565b91505092915050565b600060208284031215612ab857600080fd5b600082015167ffffffffffffffff811115612ad257600080fd5b612ade8482850161288a565b91505092915050565b600060608284031215612af957600080fd5b6000612b07848285016128b4565b91505092915050565b600060208284031215612b2257600080fd5b6000612b3084828501612914565b91505092915050565b600060208284031215612b4b57600080fd5b6000612b5984828501612929565b91505092915050565b612b6b81613664565b82525050565b612b7a81613676565b82525050565b6000612b8b82613627565b612b95818561363d565b9350612ba58185602086016136cb565b80840191505092915050565b600081546001811660008114612bce5760018114612bf357612c37565b607f6002830416612bdf818761363d565b955060ff1983168652808601935050612c37565b60028204612c01818761363d565b9550612c0c856135fd565b60005b82811015612c2e57815481890152600182019150602081019050612c0f565b82880195505050505b505092915050565b612c48816136b9565b82525050565b6000612c5982613632565b612c638185613648565b9350612c738185602086016136cb565b612c7c81613700565b840191505092915050565b600081546001811660008114612ca45760018114612cca57612d0e565b607f6002830416612cb58187613648565b955060ff198316865260208601935050612d0e565b60028204612cd88187613648565b9550612ce385613612565b60005b82811015612d0557815481890152600182019150602081019050612ce6565b80880195505050505b505092915050565b600081546001811660008114612d335760018114612d5857612d9c565b607f6002830416612d448187613659565b955060ff1983168652808601935050612d9c565b60028204612d668187613659565b9550612d7185613612565b60005b82811015612d9357815481890152600182019150602081019050612d74565b82880195505050505b505092915050565b6000612db1601083613648565b91507f4261642071756f746520616d6f756e74000000000000000000000000000000006000830152602082019050919050565b6000612df1602583613648565b91507f42455032303a207472616e736665722066726f6d20746865207a65726f20616460008301527f64726573730000000000000000000000000000000000000000000000000000006020830152604082019050919050565b6000612e57602483613648565b91507f42455032303a20617070726f76652066726f6d20746865207a65726f2061646460008301527f72657373000000000000000000000000000000000000000000000000000000006020830152604082019050919050565b6000612ebd601f83613648565b91507f546f6b656e43686f703a205452414e534645525f46524f4d5f4641494c4544006000830152602082019050919050565b6000612efd601d83613648565b91507f55706461746520636f6c6c61746572616c20696e2070726f67726573730000006000830152602082019050919050565b6000612f3d601a83613648565b91507f546f6b656e43686f703a205452414e534645525f4641494c45440000000000006000830152602082019050919050565b6000612f7d602883613648565b91507f42455032303a207472616e7366657220616d6f756e742065786365656473206160008301527f6c6c6f77616e63650000000000000000000000000000000000000000000000006020830152604082019050919050565b6000612fe3600483613659565b91507f57424e42000000000000000000000000000000000000000000000000000000006000830152600482019050919050565b6000613023602683613648565b91507f42455032303a207472616e7366657220616d6f756e742065786365656473206260008301527f616c616e636500000000000000000000000000000000000000000000000000006020830152604082019050919050565b6000613089602383613648565b91507f42455032303a207472616e7366657220746f20746865207a65726f206164647260008301527f65737300000000000000000000000000000000000000000000000000000000006020830152604082019050919050565b60006130ef601483613648565b91507f546f6b656e43686f703a20464f5242494444454e0000000000000000000000006000830152602082019050919050565b600061312f601e83613648565b91507f546f6b656e43686f703a20507269636520757064617465204661696c656400006000830152602082019050919050565b600061316f602283613648565b91507f42455032303a20617070726f766520746f20746865207a65726f20616464726560008301527f73730000000000000000000000000000000000000000000000000000000000006020830152604082019050919050565b6131d1816136a2565b82525050565b6131e0816136ac565b82525050565b60006131f28284612b80565b915081905092915050565b60006132098288612b80565b91506132158287612bb1565b91506132218286612b80565b915061322d8285612bb1565b91506132398284612b80565b91508190509695505050505050565b60006132548286612bb1565b91506132608285612bb1565b915061326c8284612b80565b9150819050949350505050565b60006132858284612d16565b915081905092915050565b600061329b82612fd6565b9150819050919050565b60006020820190506132ba6000830184612b62565b92915050565b60006060820190506132d56000830186612b62565b6132e26020830185612b62565b6132ef60408301846131c8565b949350505050565b600060408201905061330c6000830185612b62565b61331960208301846131c8565b9392505050565b60006020820190506133356000830184612b71565b92915050565b60006040820190506133506000830185612c3f565b61335d6020830184612c3f565b9392505050565b6000602082019050818103600083015261337e8184612c4e565b905092915050565b600060408201905081810360008301526133a08185612c87565b905081810360208301526133b48184612c87565b90509392505050565b600060208201905081810360008301526133d681612da4565b9050919050565b600060208201905081810360008301526133f681612de4565b9050919050565b6000602082019050818103600083015261341681612e4a565b9050919050565b6000602082019050818103600083015261343681612eb0565b9050919050565b6000602082019050818103600083015261345681612ef0565b9050919050565b6000602082019050818103600083015261347681612f30565b9050919050565b6000602082019050818103600083015261349681612f70565b9050919050565b600060208201905081810360008301526134b681613016565b9050919050565b600060208201905081810360008301526134d68161307c565b9050919050565b600060208201905081810360008301526134f6816130e2565b9050919050565b6000602082019050818103600083015261351681613122565b9050919050565b6000602082019050818103600083015261353681613162565b9050919050565b600060208201905061355260008301846131c8565b92915050565b600060408201905061356d60008301856131c8565b61357a60208301846131c8565b9392505050565b600060208201905061359660008301846131d7565b92915050565b6000604051905081810181811067ffffffffffffffff821117156135c3576135c26136fe565b5b8060405250919050565b600067ffffffffffffffff8211156135e8576135e76136fe565b5b601f19601f8301169050602081019050919050565b60008190508160005260206000209050919050565b60008190508160005260206000209050919050565b600081519050919050565b600081519050919050565b600081905092915050565b600082825260208201905092915050565b600081905092915050565b600061366f82613682565b9050919050565b60008115159050919050565b600073ffffffffffffffffffffffffffffffffffffffff82169050919050565b6000819050919050565b600060ff82169050919050565b60006136c4826136a2565b9050919050565b60005b838110156136e95780820151818401526020810190506136ce565b838111156136f8576000848401525b50505050565bfe5b6000601f19601f8301169050919050565b61371a81613664565b811461372557600080fd5b50565b61373181613676565b811461373c57600080fd5b50565b613748816136a2565b811461375357600080fd5b5056fe7472616e7366657246726f6d28616464726573732c616464726573732c75696e7432353629a2646970667358221220571d51d38f571153b486e1e8ea30d24605eb87105c5e12e7ae714e4ad29c546464736f6c63430007060033",
  "immutableReferences": {},
  "source": "// SPDX-License-Identifier: MIT\r\npragma solidity =0.7.6;\r\npragma abicoder v2;\r\n\r\nimport \"./interfaces/IBEP20.sol\";\r\nimport \"./interfaces/ITokenChopToken.sol\";\r\nimport \"./TokenChopSpec.sol\";\r\nimport \"./interfaces/IStdReference.sol\";\r\nimport \"./libs/SafeMath.sol\";\r\nimport \"./libs/Math.sol\";\r\n\r\ncontract TokenChopStable is IBEP20, ITokenChopToken {\r\n    using SafeMath for uint256;\r\n    mapping(address => uint256) public override balanceOf;\r\n    mapping(address => mapping(address => uint256)) public override allowance;\r\n\r\n    string  public override name;\r\n    string  public override symbol;\r\n    string  public baseSymbol;\r\n    string  public quoteSymbol;\r\n    string  public constant poolType = \"Stable\";\r\n    uint8   public constant typeId = 0;\r\n    address public base;\r\n    address public quote;\r\n    address public sister;\r\n    address public factory;\r\n    uint256 public collateral;\r\n    uint256 public previousPrice;\r\n    uint256 public price;\r\n    uint8   public constant priceDecimals = 18;\r\n    uint256 public override totalSupply;\r\n    address public bandProtocol;\r\n\r\n    event CollateralTransfer(address indexed from, address indexed to, uint256 value);\r\n    event InsufficientCollateral(uint256 required, uint256 obtained);\r\n    event PriceUpdate(uint256 oldPrice, uint256 newPrice);\r\n\r\n    bytes4 private constant TRANSFER_SELECTOR = bytes4(keccak256(bytes('transfer(address,uint256)')));\r\n    bytes4 private constant TRANSFER_FROM_SELECTOR = bytes4(keccak256(bytes('transferFrom(address,address,uint256)')));\r\n    bool private _updateCollateralInProgress = false;\r\n\r\n    constructor() {\r\n        factory = msg.sender;\r\n    }\r\n\r\n    modifier onlyFactory() {\r\n        require(msg.sender == factory, 'TokenChop: FORBIDDEN');\r\n        _;\r\n    }\r\n\r\n    modifier onlySister() {\r\n        require(msg.sender == sister, 'TokenChop: FORBIDDEN');\r\n        _;\r\n    }\r\n\r\n    function initialize(address _base, address _quote, address _sister) external override onlyFactory {\r\n        bandProtocol = 0xDA7a001b254CD22e46d3eAB04d937489c93174C3;\r\n        base = _base;\r\n        quote = _quote;\r\n        sister = _sister;\r\n        baseSymbol = IBEP20(base).symbol();\r\n        baseSymbol = keccak256(abi.encodePacked(baseSymbol)) == keccak256(abi.encodePacked(\"WBNB\")) ? \"BNB\" : baseSymbol;\r\n        quoteSymbol = IBEP20(quote).symbol();\r\n        name = string(abi.encodePacked(bytes(\"TokenChop: \"), bytes(baseSymbol), bytes(\"/\"), bytes(quoteSymbol), bytes(\" Stable\")));\r\n        symbol = string(abi.encodePacked(bytes(baseSymbol), bytes(quoteSymbol), bytes('0')));\r\n    }\r\n\r\n    function setBandAddress(address _bandAddr) external onlyFactory {\r\n        bandProtocol = _bandAddr;\r\n    }\r\n\r\n    function getOwner() external override view returns (address) {\r\n        return factory;\r\n    }\r\n\r\n    function decimals() external override pure returns (uint8) {\r\n        return 18;\r\n    }\r\n\r\n    function transfer(address _recipient, uint256 _amount) external override returns (bool) {\r\n        _transfer(msg.sender, _recipient, _amount);\r\n        return true;\r\n    }\r\n\r\n    function approve(address _spender, uint256 _amount) external override returns (bool) {\r\n        _approve(msg.sender, _spender, _amount);\r\n        return true;\r\n    }\r\n\r\n    function transferFrom(address _sender, address _recipient, uint256 _amount) external override returns (bool) {\r\n        _transfer(_sender, _recipient, _amount);\r\n        require(allowance[_sender][msg.sender] >= _amount, \"BEP20: transfer amount exceeds allowance\");\r\n        _approve(_sender, msg.sender, allowance[_sender][msg.sender] - _amount);\r\n        return true;\r\n    }\r\n\r\n    function _transfer(address _sender, address _recipient, uint256 _amount) internal {\r\n        require(_sender != address(0), \"BEP20: transfer from the zero address\");\r\n        require(_recipient != address(0), \"BEP20: transfer to the zero address\");\r\n        require(balanceOf[_sender] >= _amount, \"BEP20: transfer amount exceeds balance\");\r\n        \r\n        balanceOf[_sender] = balanceOf[_sender].sub(_amount);\r\n        balanceOf[_recipient] = balanceOf[_recipient].add(_amount);\r\n\r\n        emit Transfer(_sender, _recipient, _amount);\r\n    }\r\n\r\n    function _approve(address _owner, address _spender, uint256 _amount) internal {\r\n        require(_owner != address(0), \"BEP20: approve from the zero address\");\r\n        require(_spender != address(0), \"BEP20: approve to the zero address\");\r\n\r\n        allowance[_owner][_spender] = _amount;\r\n        emit Approval(_owner, _spender, _amount);\r\n    }\r\n\r\n    function updatePrice() internal {\r\n        IStdReference bandProtocolContract = IStdReference(bandProtocol);\r\n        IStdReference.ReferenceData memory data = bandProtocolContract.getReferenceData(baseSymbol, quoteSymbol);\r\n        uint256 newPrice = data.rate;\r\n        require(newPrice != 0, \"TokenChop: Price update Failed\");\r\n        emit PriceUpdate(price, newPrice);\r\n        previousPrice = price;\r\n        price = newPrice;\r\n    }\r\n\r\n    function updateCollateral() internal {\r\n        require(!_updateCollateralInProgress, \"Update collateral in progress\");\r\n        _updateCollateralInProgress = true;\r\n        uint256 quoteCollateral = Math.baseToQuote(price, collateral);\r\n        if (quoteCollateral == totalSupply) return;\r\n        if (quoteCollateral < totalSupply) {\r\n            uint256 required = totalSupply.sub(quoteCollateral);\r\n            uint256 obtained = getCollateralFromSister(required);\r\n            if (obtained < required) {\r\n                uint newTotalSupply = totalSupply.sub(required).add(obtained);\r\n                emit InsufficientCollateral(required, obtained);\r\n                //dealWithShortfall(newTotalSupply) - Have to rebalance all of the individual balances\r\n            }\r\n        } else {\r\n            uint256 surplus = quoteCollateral.sub(totalSupply);\r\n            sendStableCollateralToSpec(surplus);\r\n        }\r\n        collateral = IBEP20(base).balanceOf(address(this));\r\n        _updateCollateralInProgress = false;\r\n    }\r\n\r\n    function updatePriceBySister() external onlySister {\r\n        updatePrice();\r\n    }\r\n\r\n    function getCollateralFromSister(uint256 _quoteAmount) internal returns (uint256 quoteReceived) {\r\n        uint baseAmount = Math.quoteToBase(price, _quoteAmount);\r\n        TokenChopSpec _sisterContract = TokenChopSpec(sister);\r\n        uint baseReceived = _sisterContract.sendCollateralToSister(baseAmount);\r\n        return Math.baseToQuote(price, baseReceived);\r\n    }\r\n\r\n    function sendStableCollateralToSpec(uint256 _quoteAmount) internal {\r\n        uint256 baseAmount = Math.quoteToBase(price, _quoteAmount);\r\n        _safeTransfer(base, sister, baseAmount);\r\n        emit CollateralTransfer(address(this), sister, baseAmount);\r\n    }\r\n\r\n    function mintAtBaseAmount(uint256 baseAmount) public returns (bool) {\r\n        updatePrice();\r\n        updateCollateral();\r\n        _safeTransferFrom(base, msg.sender, address(this), baseAmount);\r\n        uint256 quoteAmount = Math.baseToQuote(price, baseAmount);\r\n        balanceOf[msg.sender] = balanceOf[msg.sender].add(quoteAmount);\r\n        totalSupply = totalSupply.add(quoteAmount);\r\n        collateral = IBEP20(base).balanceOf(address(this));\r\n        emit Transfer(address(0), msg.sender, quoteAmount);\r\n        emit CollateralTransfer(msg.sender, address(this), baseAmount);\r\n        return true;\r\n    }\r\n\r\n    function burn(uint256 quoteAmount) public returns (bool) {\r\n        updatePrice();\r\n        updateCollateral();\r\n        require(quoteAmount <= balanceOf[msg.sender], \"Bad quote amount\");\r\n        emit PriceUpdate(4, 4);\r\n        balanceOf[msg.sender] = balanceOf[msg.sender].sub(quoteAmount);\r\n        uint256 baseAmount = Math.quoteToBase(price, quoteAmount);\r\n        collateral = IBEP20(base).balanceOf(address(this));\r\n        _safeTransfer(base, msg.sender, baseAmount);\r\n        emit Transfer(msg.sender, address(0), quoteAmount);\r\n        emit CollateralTransfer(address(this), msg.sender, baseAmount);\r\n        return true;\r\n    }\r\n\r\n    function refresh() public {\r\n        updatePrice();\r\n        updateCollateral();\r\n    }\r\n\r\n    function _safeTransfer(address _token, address _to, uint _value) private {\r\n        (bool _success, bytes memory _data) = _token.call(abi.encodeWithSelector(TRANSFER_SELECTOR, _to, _value));\r\n        require(_success && (_data.length == 0 || abi.decode(_data, (bool))), 'TokenChop: TRANSFER_FAILED');\r\n    }\r\n\r\n    function _safeTransferFrom(address _token, address _sender, address _recipient, uint _value) private {\r\n        (bool _success, bytes memory _data) = _token.call(abi.encodeWithSelector(TRANSFER_FROM_SELECTOR, _sender, _recipient, _value));\r\n        require(_success && (_data.length == 0 || abi.decode(_data, (bool))), 'TokenChop: TRANSFER_FROM_FAILED');\r\n    }\r\n\r\n}",
  "sourcePath": "C:\\Repos\\tokenchop\\contracts\\TokenChopStable.sol",
  "compiler": {
    "name": "solc",
    "version": "0.7.6+commit.7338295f.Emscripten.clang"
  },
  "schemaVersion": "3.3.3",
  "updatedAt": "2021-02-12T20:42:02.830Z",
  "devdoc": {
    "kind": "dev",
    "methods": {
      "decimals()": {
        "details": "Returns the token decimals."
      },
      "getOwner()": {
        "details": "Returns the bep token owner."
      }
    },
    "stateVariables": {
      "allowance": {
        "details": "Returns the remaining number of tokens that `spender` will be allowed to spend on behalf of `owner` through {transferFrom}. This is zero by default. This value changes when {approve} or {transferFrom} are called."
      },
      "balanceOf": {
        "details": "Returns the amount of tokens owned by `account`."
      },
      "name": {
        "details": "Returns the token name."
      },
      "symbol": {
        "details": "Returns the token symbol."
      },
      "totalSupply": {
        "details": "Returns the amount of tokens in existence."
      }
    },
    "version": 1
  },
  "userdoc": {
    "kind": "user",
    "methods": {},
    "version": 1
  }
}