{
  "contractName": "TokenChopSpec",
  "abi": [
    {
      "inputs": [],
      "stateMutability": "nonpayable",
      "type": "constructor"
    },
    {
      "anonymous": false,
      "inputs": [
        {
          "indexed": true,
          "internalType": "address",
          "name": "owner",
          "type": "address"
        },
        {
          "indexed": true,
          "internalType": "address",
          "name": "spender",
          "type": "address"
        },
        {
          "indexed": false,
          "internalType": "uint256",
          "name": "value",
          "type": "uint256"
        }
      ],
      "name": "Approval",
      "type": "event"
    },
    {
      "anonymous": false,
      "inputs": [
        {
          "indexed": true,
          "internalType": "address",
          "name": "from",
          "type": "address"
        },
        {
          "indexed": true,
          "internalType": "address",
          "name": "to",
          "type": "address"
        },
        {
          "indexed": false,
          "internalType": "uint256",
          "name": "value",
          "type": "uint256"
        }
      ],
      "name": "CollateralTransfer",
      "type": "event"
    },
    {
      "anonymous": false,
      "inputs": [
        {
          "indexed": false,
          "internalType": "uint256",
          "name": "oldPrice",
          "type": "uint256"
        },
        {
          "indexed": false,
          "internalType": "uint256",
          "name": "newPrice",
          "type": "uint256"
        }
      ],
      "name": "PriceUpdate",
      "type": "event"
    },
    {
      "anonymous": false,
      "inputs": [
        {
          "indexed": true,
          "internalType": "address",
          "name": "from",
          "type": "address"
        },
        {
          "indexed": true,
          "internalType": "address",
          "name": "to",
          "type": "address"
        },
        {
          "indexed": false,
          "internalType": "uint256",
          "name": "value",
          "type": "uint256"
        }
      ],
      "name": "Transfer",
      "type": "event"
    },
    {
      "inputs": [
        {
          "internalType": "address",
          "name": "",
          "type": "address"
        },
        {
          "internalType": "address",
          "name": "",
          "type": "address"
        }
      ],
      "name": "allowance",
      "outputs": [
        {
          "internalType": "uint256",
          "name": "",
          "type": "uint256"
        }
      ],
      "stateMutability": "view",
      "type": "function"
    },
    {
      "inputs": [
        {
          "internalType": "address",
          "name": "",
          "type": "address"
        }
      ],
      "name": "balanceOf",
      "outputs": [
        {
          "internalType": "uint256",
          "name": "",
          "type": "uint256"
        }
      ],
      "stateMutability": "view",
      "type": "function"
    },
    {
      "inputs": [],
      "name": "base",
      "outputs": [
        {
          "internalType": "address",
          "name": "",
          "type": "address"
        }
      ],
      "stateMutability": "view",
      "type": "function"
    },
    {
      "inputs": [],
      "name": "baseSymbol",
      "outputs": [
        {
          "internalType": "string",
          "name": "",
          "type": "string"
        }
      ],
      "stateMutability": "view",
      "type": "function"
    },
    {
      "inputs": [],
      "name": "collateral",
      "outputs": [
        {
          "internalType": "uint256",
          "name": "",
          "type": "uint256"
        }
      ],
      "stateMutability": "view",
      "type": "function"
    },
    {
      "inputs": [],
      "name": "factory",
      "outputs": [
        {
          "internalType": "address",
          "name": "",
          "type": "address"
        }
      ],
      "stateMutability": "view",
      "type": "function"
    },
    {
      "inputs": [],
      "name": "name",
      "outputs": [
        {
          "internalType": "string",
          "name": "",
          "type": "string"
        }
      ],
      "stateMutability": "view",
      "type": "function"
    },
    {
      "inputs": [],
      "name": "poolType",
      "outputs": [
        {
          "internalType": "string",
          "name": "",
          "type": "string"
        }
      ],
      "stateMutability": "view",
      "type": "function"
    },
    {
      "inputs": [],
      "name": "quote",
      "outputs": [
        {
          "internalType": "address",
          "name": "",
          "type": "address"
        }
      ],
      "stateMutability": "view",
      "type": "function"
    },
    {
      "inputs": [],
      "name": "quoteSymbol",
      "outputs": [
        {
          "internalType": "string",
          "name": "",
          "type": "string"
        }
      ],
      "stateMutability": "view",
      "type": "function"
    },
    {
      "inputs": [],
      "name": "sister",
      "outputs": [
        {
          "internalType": "address",
          "name": "",
          "type": "address"
        }
      ],
      "stateMutability": "view",
      "type": "function"
    },
    {
      "inputs": [],
      "name": "symbol",
      "outputs": [
        {
          "internalType": "string",
          "name": "",
          "type": "string"
        }
      ],
      "stateMutability": "view",
      "type": "function"
    },
    {
      "inputs": [],
      "name": "totalSupply",
      "outputs": [
        {
          "internalType": "uint256",
          "name": "",
          "type": "uint256"
        }
      ],
      "stateMutability": "view",
      "type": "function"
    },
    {
      "inputs": [],
      "name": "typeId",
      "outputs": [
        {
          "internalType": "uint8",
          "name": "",
          "type": "uint8"
        }
      ],
      "stateMutability": "view",
      "type": "function"
    },
    {
      "inputs": [
        {
          "internalType": "address",
          "name": "_base",
          "type": "address"
        },
        {
          "internalType": "address",
          "name": "_quote",
          "type": "address"
        },
        {
          "internalType": "address",
          "name": "_sister",
          "type": "address"
        }
      ],
      "name": "initialize",
      "outputs": [],
      "stateMutability": "nonpayable",
      "type": "function"
    },
    {
      "inputs": [],
      "name": "getOwner",
      "outputs": [
        {
          "internalType": "address",
          "name": "",
          "type": "address"
        }
      ],
      "stateMutability": "view",
      "type": "function"
    },
    {
      "inputs": [],
      "name": "decimals",
      "outputs": [
        {
          "internalType": "uint8",
          "name": "",
          "type": "uint8"
        }
      ],
      "stateMutability": "pure",
      "type": "function"
    },
    {
      "inputs": [],
      "name": "price",
      "outputs": [
        {
          "internalType": "uint256",
          "name": "",
          "type": "uint256"
        }
      ],
      "stateMutability": "view",
      "type": "function"
    },
    {
      "inputs": [
        {
          "internalType": "address",
          "name": "_recipient",
          "type": "address"
        },
        {
          "internalType": "uint256",
          "name": "_amount",
          "type": "uint256"
        }
      ],
      "name": "transfer",
      "outputs": [
        {
          "internalType": "bool",
          "name": "",
          "type": "bool"
        }
      ],
      "stateMutability": "nonpayable",
      "type": "function"
    },
    {
      "inputs": [
        {
          "internalType": "address",
          "name": "_spender",
          "type": "address"
        },
        {
          "internalType": "uint256",
          "name": "_amount",
          "type": "uint256"
        }
      ],
      "name": "approve",
      "outputs": [
        {
          "internalType": "bool",
          "name": "",
          "type": "bool"
        }
      ],
      "stateMutability": "nonpayable",
      "type": "function"
    },
    {
      "inputs": [
        {
          "internalType": "address",
          "name": "_sender",
          "type": "address"
        },
        {
          "internalType": "address",
          "name": "_recipient",
          "type": "address"
        },
        {
          "internalType": "uint256",
          "name": "_amount",
          "type": "uint256"
        }
      ],
      "name": "transferFrom",
      "outputs": [
        {
          "internalType": "bool",
          "name": "",
          "type": "bool"
        }
      ],
      "stateMutability": "nonpayable",
      "type": "function"
    },
    {
      "inputs": [
        {
          "internalType": "uint256",
          "name": "baseRequested",
          "type": "uint256"
        }
      ],
      "name": "sendCollateralToSister",
      "outputs": [
        {
          "internalType": "uint256",
          "name": "sent",
          "type": "uint256"
        }
      ],
      "stateMutability": "nonpayable",
      "type": "function"
    },
    {
      "inputs": [
        {
          "internalType": "uint256",
          "name": "baseAmount",
          "type": "uint256"
        }
      ],
      "name": "mintAtBaseAmount",
      "outputs": [
        {
          "internalType": "bool",
          "name": "",
          "type": "bool"
        }
      ],
      "stateMutability": "nonpayable",
      "type": "function"
    },
    {
      "inputs": [
        {
          "internalType": "uint256",
          "name": "supplyAmount",
          "type": "uint256"
        }
      ],
      "name": "burn",
      "outputs": [
        {
          "internalType": "bool",
          "name": "",
          "type": "bool"
        }
      ],
      "stateMutability": "nonpayable",
      "type": "function"
    },
    {
      "inputs": [],
      "name": "refresh",
      "outputs": [],
      "stateMutability": "nonpayable",
      "type": "function"
    }
  ],
  "bytecode": "0x608060405234801561001057600080fd5b5033600960006101000a81548173ffffffffffffffffffffffffffffffffffffffff021916908373ffffffffffffffffffffffffffffffffffffffff160217905550612f1c806100616000396000f3fe608060405234801561001057600080fd5b50600436106101735760003560e01c806395d89b41116100de578063c0c53b8b11610097578063d8dfeb4511610071578063d8dfeb4514610458578063dd62ed3e14610476578063f33ab2b8146104a6578063f8ac93e8146104d657610173565b8063c0c53b8b146103ee578063c45a01551461040a578063cd0b4aed1461042857610173565b806395d89b4114610328578063999b93af14610346578063a035b1fe14610364578063a9059cbb14610382578063a9ed003d146103b2578063b1dd61b6146103d057610173565b80635001f3b5116101305780635001f3b51461026257806360d6df6e1461028057806370a082311461029e57806380583be7146102ce578063893d20e8146102ec5780638f940f631461030a57610173565b806306fdde0314610178578063095ea7b31461019657806318160ddd146101c657806323b872dd146101e4578063313ce5671461021457806342966c6814610232575b600080fd5b6101806104e0565b60405161018d9190612bc1565b60405180910390f35b6101b060048036038101906101ab9190612548565b61057e565b6040516101bd9190612ba6565b60405180910390f35b6101ce610595565b6040516101db9190612d03565b60405180910390f35b6101fe60048036038101906101f991906124f9565b61059b565b60405161020b9190612ba6565b60405180910390f35b61021c6106fb565b6040516102299190612d1e565b60405180910390f35b61024c600480360381019061024791906125ee565b610704565b6040516102599190612ba6565b60405180910390f35b61026a610a63565b6040516102779190612b2b565b60405180910390f35b610288610a89565b6040516102959190612bc1565b60405180910390f35b6102b860048036038101906102b39190612445565b610b27565b6040516102c59190612d03565b60405180910390f35b6102d6610b3f565b6040516102e39190612bc1565b60405180910390f35b6102f4610bdd565b6040516103019190612b2b565b60405180910390f35b610312610c07565b60405161031f9190612d1e565b60405180910390f35b610330610c0c565b60405161033d9190612bc1565b60405180910390f35b61034e610caa565b60405161035b9190612b2b565b60405180910390f35b61036c610cd0565b6040516103799190612d03565b60405180910390f35b61039c60048036038101906103979190612548565b610d02565b6040516103a99190612ba6565b60405180910390f35b6103ba610d19565b6040516103c79190612b2b565b60405180910390f35b6103d8610d3f565b6040516103e59190612bc1565b60405180910390f35b610408600480360381019061040391906124aa565b610d78565b005b610412611196565b60405161041f9190612b2b565b60405180910390f35b610442600480360381019061043d91906125ee565b6111bc565b60405161044f9190612ba6565b60405180910390f35b6104606114ec565b60405161046d9190612d03565b60405180910390f35b610490600480360381019061048b919061246e565b6114f2565b60405161049d9190612d03565b60405180910390f35b6104c060048036038101906104bb91906125ee565b611517565b6040516104cd9190612d03565b60405180910390f35b6104de611750565b005b60028054600181600116156101000203166002900480601f0160208091040260200160405190810160405280929190818152602001828054600181600116156101000203166002900480156105765780601f1061054b57610100808354040283529160200191610576565b820191906000526020600020905b81548152906001019060200180831161055957829003601f168201915b505050505081565b600061058b33848461180b565b6001905092915050565b600b5481565b60006105a88484846119d6565b81600160008673ffffffffffffffffffffffffffffffffffffffff1673ffffffffffffffffffffffffffffffffffffffff16815260200190815260200160002060003373ffffffffffffffffffffffffffffffffffffffff1673ffffffffffffffffffffffffffffffffffffffff168152602001908152602001600020541015610667576040517f08c379a000000000000000000000000000000000000000000000000000000000815260040161065e90612c63565b60405180910390fd5b6106f0843384600160008973ffffffffffffffffffffffffffffffffffffffff1673ffffffffffffffffffffffffffffffffffffffff16815260200190815260200160002060003373ffffffffffffffffffffffffffffffffffffffff1673ffffffffffffffffffffffffffffffffffffffff168152602001908152602001600020540361180b565b600190509392505050565b60006012905090565b60008060003373ffffffffffffffffffffffffffffffffffffffff1673ffffffffffffffffffffffffffffffffffffffff1681526020019081526020016000205482111561075157600080fd5b6107a2826000803373ffffffffffffffffffffffffffffffffffffffff1673ffffffffffffffffffffffffffffffffffffffff16815260200190815260200160002054611cc790919063ffffffff16565b6000803373ffffffffffffffffffffffffffffffffffffffff1673ffffffffffffffffffffffffffffffffffffffff168152602001908152602001600020819055506107ec611ce7565b600660009054906101000a900473ffffffffffffffffffffffffffffffffffffffff1673ffffffffffffffffffffffffffffffffffffffff166370a08231306040518263ffffffff1660e01b81526004016108479190612b2b565b60206040518083038186803b15801561085f57600080fd5b505afa158015610873573d6000803e3d6000fd5b505050506040513d601f19601f820116820180604052508101906108979190612617565b600a8190555060006108ae600b54600a5485611d6b565b90506108dd600660009054906101000a900473ffffffffffffffffffffffffffffffffffffffff163383611df7565b600660009054906101000a900473ffffffffffffffffffffffffffffffffffffffff1673ffffffffffffffffffffffffffffffffffffffff166370a08231306040518263ffffffff1660e01b81526004016109389190612b2b565b60206040518083038186803b15801561095057600080fd5b505afa158015610964573d6000803e3d6000fd5b505050506040513d601f19601f820116820180604052508101906109889190612617565b600a81905550600073ffffffffffffffffffffffffffffffffffffffff163373ffffffffffffffffffffffffffffffffffffffff167fddf252ad1be2c89b69c2b068fc378daa952ba7f163c4a11628f55a4df523b3ef856040516109ec9190612d03565b60405180910390a33373ffffffffffffffffffffffffffffffffffffffff163073ffffffffffffffffffffffffffffffffffffffff167f14395d6fb6ac3870af345d12d989b966ccf04dcdd9e02b95722d12dca39eb4b083604051610a519190612d03565b60405180910390a36001915050919050565b600660009054906101000a900473ffffffffffffffffffffffffffffffffffffffff1681565b60058054600181600116156101000203166002900480601f016020809104026020016040519081016040528092919081815260200182805460018160011615610100020316600290048015610b1f5780601f10610af457610100808354040283529160200191610b1f565b820191906000526020600020905b815481529060010190602001808311610b0257829003601f168201915b505050505081565b60006020528060005260406000206000915090505481565b60048054600181600116156101000203166002900480601f016020809104026020016040519081016040528092919081815260200182805460018160011615610100020316600290048015610bd55780601f10610baa57610100808354040283529160200191610bd5565b820191906000526020600020905b815481529060010190602001808311610bb857829003601f168201915b505050505081565b6000600960009054906101000a900473ffffffffffffffffffffffffffffffffffffffff16905090565b600181565b60038054600181600116156101000203166002900480601f016020809104026020016040519081016040528092919081815260200182805460018160011615610100020316600290048015610ca25780601f10610c7757610100808354040283529160200191610ca2565b820191906000526020600020905b815481529060010190602001808311610c8557829003601f168201915b505050505081565b600760009054906101000a900473ffffffffffffffffffffffffffffffffffffffff1681565b600080600a541415610ce55760009050610cff565b610cfc600b54670de0b6b3a7640000600a54611f81565b90505b90565b6000610d0f3384846119d6565b6001905092915050565b600860009054906101000a900473ffffffffffffffffffffffffffffffffffffffff1681565b6040518060400160405280600481526020017f537065630000000000000000000000000000000000000000000000000000000081525081565b600960009054906101000a900473ffffffffffffffffffffffffffffffffffffffff1673ffffffffffffffffffffffffffffffffffffffff163373ffffffffffffffffffffffffffffffffffffffff1614610e08576040517f08c379a0000000000000000000000000000000000000000000000000000000008152600401610dff90612cc3565b60405180910390fd5b82600660006101000a81548173ffffffffffffffffffffffffffffffffffffffff021916908373ffffffffffffffffffffffffffffffffffffffff16021790555081600760006101000a81548173ffffffffffffffffffffffffffffffffffffffff021916908373ffffffffffffffffffffffffffffffffffffffff16021790555080600860006101000a81548173ffffffffffffffffffffffffffffffffffffffff021916908373ffffffffffffffffffffffffffffffffffffffff160217905550600660009054906101000a900473ffffffffffffffffffffffffffffffffffffffff1673ffffffffffffffffffffffffffffffffffffffff166395d89b416040518163ffffffff1660e01b815260040160006040518083038186803b158015610f3357600080fd5b505afa158015610f47573d6000803e3d6000fd5b505050506040513d6000823e3d601f19601f82011682018060405250810190610f7091906125ad565b60049080519060200190610f859291906122de565b50600760009054906101000a900473ffffffffffffffffffffffffffffffffffffffff1673ffffffffffffffffffffffffffffffffffffffff166395d89b416040518163ffffffff1660e01b815260040160006040518083038186803b158015610fee57600080fd5b505afa158015611002573d6000803e3d6000fd5b505050506040513d6000823e3d601f19601f8201168201806040525081019061102b91906125ad565b600590805190602001906110409291906122de565b506040518060400160405280600b81526020017f546f6b656e43686f703a2000000000000000000000000000000000000000000081525060046040518060400160405280600181526020017f2f0000000000000000000000000000000000000000000000000000000000000081525060056040518060400160405280600581526020017f20537065630000000000000000000000000000000000000000000000000000008152506040516020016110fb959493929190612aaf565b6040516020818303038152906040526002908051906020019061111f9291906122de565b50600460056040518060400160405280600181526020017f310000000000000000000000000000000000000000000000000000000000000081525060405160200161116c93929190612afa565b604051602081830303815290604052600390805190602001906111909291906122de565b50505050565b600960009054906101000a900473ffffffffffffffffffffffffffffffffffffffff1681565b60006111c6611ce7565b600660009054906101000a900473ffffffffffffffffffffffffffffffffffffffff1673ffffffffffffffffffffffffffffffffffffffff166370a08231306040518263ffffffff1660e01b81526004016112219190612b2b565b60206040518083038186803b15801561123957600080fd5b505afa15801561124d573d6000803e3d6000fd5b505050506040513d601f19601f820116820180604052508101906112719190612617565b600a819055506000611288600b54600a54856120bd565b90506112b8600660009054906101000a900473ffffffffffffffffffffffffffffffffffffffff163330866120ef565b611309816000803373ffffffffffffffffffffffffffffffffffffffff1673ffffffffffffffffffffffffffffffffffffffff1681526020019081526020016000205461225f90919063ffffffff16565b6000803373ffffffffffffffffffffffffffffffffffffffff1673ffffffffffffffffffffffffffffffffffffffff1681526020019081526020016000208190555061136081600b5461225f90919063ffffffff16565b600b81905550600660009054906101000a900473ffffffffffffffffffffffffffffffffffffffff1673ffffffffffffffffffffffffffffffffffffffff166370a08231306040518263ffffffff1660e01b81526004016113c19190612b2b565b60206040518083038186803b1580156113d957600080fd5b505afa1580156113ed573d6000803e3d6000fd5b505050506040513d601f19601f820116820180604052508101906114119190612617565b600a819055503373ffffffffffffffffffffffffffffffffffffffff16600073ffffffffffffffffffffffffffffffffffffffff167fddf252ad1be2c89b69c2b068fc378daa952ba7f163c4a11628f55a4df523b3ef836040516114759190612d03565b60405180910390a33073ffffffffffffffffffffffffffffffffffffffff163373ffffffffffffffffffffffffffffffffffffffff167f14395d6fb6ac3870af345d12d989b966ccf04dcdd9e02b95722d12dca39eb4b0856040516114da9190612d03565b60405180910390a36001915050919050565b600a5481565b6001602052816000526040600020602052806000526040600020600091509150505481565b6000600860009054906101000a900473ffffffffffffffffffffffffffffffffffffffff1673ffffffffffffffffffffffffffffffffffffffff163373ffffffffffffffffffffffffffffffffffffffff16146115a9576040517f08c379a00000000000000000000000000000000000000000000000000000000081526004016115a090612cc3565b60405180910390fd5b600082600a54106115ba57826115be565b600a545b905061160f600660009054906101000a900473ffffffffffffffffffffffffffffffffffffffff16600860009054906101000a900473ffffffffffffffffffffffffffffffffffffffff1683611df7565b600660009054906101000a900473ffffffffffffffffffffffffffffffffffffffff1673ffffffffffffffffffffffffffffffffffffffff166370a08231306040518263ffffffff1660e01b815260040161166a9190612b2b565b60206040518083038186803b15801561168257600080fd5b505afa158015611696573d6000803e3d6000fd5b505050506040513d601f19601f820116820180604052508101906116ba9190612617565b600a81905550600860009054906101000a900473ffffffffffffffffffffffffffffffffffffffff1673ffffffffffffffffffffffffffffffffffffffff163073ffffffffffffffffffffffffffffffffffffffff167f14395d6fb6ac3870af345d12d989b966ccf04dcdd9e02b95722d12dca39eb4b08360405161173f9190612d03565b60405180910390a380915050919050565b611758611ce7565b600660009054906101000a900473ffffffffffffffffffffffffffffffffffffffff1673ffffffffffffffffffffffffffffffffffffffff166370a08231306040518263ffffffff1660e01b81526004016117b39190612b2b565b60206040518083038186803b1580156117cb57600080fd5b505afa1580156117df573d6000803e3d6000fd5b505050506040513d601f19601f820116820180604052508101906118039190612617565b600a81905550565b600073ffffffffffffffffffffffffffffffffffffffff168373ffffffffffffffffffffffffffffffffffffffff16141561187b576040517f08c379a000000000000000000000000000000000000000000000000000000000815260040161187290612c03565b60405180910390fd5b600073ffffffffffffffffffffffffffffffffffffffff168273ffffffffffffffffffffffffffffffffffffffff1614156118eb576040517f08c379a00000000000000000000000000000000000000000000000000000000081526004016118e290612ce3565b60405180910390fd5b80600160008573ffffffffffffffffffffffffffffffffffffffff1673ffffffffffffffffffffffffffffffffffffffff16815260200190815260200160002060008473ffffffffffffffffffffffffffffffffffffffff1673ffffffffffffffffffffffffffffffffffffffff168152602001908152602001600020819055508173ffffffffffffffffffffffffffffffffffffffff168373ffffffffffffffffffffffffffffffffffffffff167f8c5be1e5ebec7d5bd14f71427d1e84f3dd0314c0f7b2291e5b200ac8c7c3b925836040516119c99190612d03565b60405180910390a3505050565b600073ffffffffffffffffffffffffffffffffffffffff168373ffffffffffffffffffffffffffffffffffffffff161415611a46576040517f08c379a0000000000000000000000000000000000000000000000000000000008152600401611a3d90612be3565b60405180910390fd5b600073ffffffffffffffffffffffffffffffffffffffff168273ffffffffffffffffffffffffffffffffffffffff161415611ab6576040517f08c379a0000000000000000000000000000000000000000000000000000000008152600401611aad90612ca3565b60405180910390fd5b806000808573ffffffffffffffffffffffffffffffffffffffff1673ffffffffffffffffffffffffffffffffffffffff168152602001908152602001600020541015611b37576040517f08c379a0000000000000000000000000000000000000000000000000000000008152600401611b2e90612c83565b60405180910390fd5b611b88816000808673ffffffffffffffffffffffffffffffffffffffff1673ffffffffffffffffffffffffffffffffffffffff16815260200190815260200160002054611cc790919063ffffffff16565b6000808573ffffffffffffffffffffffffffffffffffffffff1673ffffffffffffffffffffffffffffffffffffffff16815260200190815260200160002081905550611c1b816000808573ffffffffffffffffffffffffffffffffffffffff1673ffffffffffffffffffffffffffffffffffffffff1681526020019081526020016000205461225f90919063ffffffff16565b6000808473ffffffffffffffffffffffffffffffffffffffff1673ffffffffffffffffffffffffffffffffffffffff168152602001908152602001600020819055508173ffffffffffffffffffffffffffffffffffffffff168373ffffffffffffffffffffffffffffffffffffffff167fddf252ad1be2c89b69c2b068fc378daa952ba7f163c4a11628f55a4df523b3ef83604051611cba9190612d03565b60405180910390a3505050565b600082821115611cd657600080fd5b600082840390508091505092915050565b600860009054906101000a900473ffffffffffffffffffffffffffffffffffffffff1673ffffffffffffffffffffffffffffffffffffffff166365f4fea76040518163ffffffff1660e01b8152600401600060405180830381600087803b158015611d5157600080fd5b505af1158015611d65573d6000803e3d6000fd5b50505050565b600080841415611de3576040517f08c379a000000000000000000000000000000000000000000000000000000000815260040180806020018281038252601a8152602001807f737570706c79416d6f756e74206d757374206e6f74206265203000000000000081525060200191505060405180910390fd5b611dee828486611f81565b90509392505050565b6000808473ffffffffffffffffffffffffffffffffffffffff166040518060400160405280601981526020017f7472616e7366657228616464726573732c75696e743235362900000000000000815250805190602001208585604051602401611e61929190612b7d565b604051602081830303815290604052907bffffffffffffffffffffffffffffffffffffffffffffffffffffffff19166020820180517bffffffffffffffffffffffffffffffffffffffffffffffffffffffff8381831617835250505050604051611ecb9190612a98565b6000604051808303816000865af19150503d8060008114611f08576040519150601f19603f3d011682016040523d82523d6000602084013e611f0d565b606091505b5091509150818015611f3b5750600081511480611f3a575080806020019051810190611f399190612584565b5b5b611f7a576040517f08c379a0000000000000000000000000000000000000000000000000000000008152600401611f7190612c43565b60405180910390fd5b5050505050565b60007001000000000000000000000000000000008410612009576040517f08c379a000000000000000000000000000000000000000000000000000000000815260040180806020018281038252600f8152602001807f56616c756520746f6f206c61726765000000000000000000000000000000000081525060200191505060405180910390fd5b700100000000000000000000000000000000831061208f576040517f08c379a00000000000000000000000000000000000000000000000000000000081526004018080602001828103825260148152602001807f4e756d657261746f7220746f6f206c617267652000000000000000000000000081525060200191505060405180910390fd5b6120b4826120a6858761227e90919063ffffffff16565b6122b890919063ffffffff16565b90509392505050565b6000808314806120cd5750600084145b156120da578190506120e8565b6120e5828585611f81565b90505b9392505050565b6000808573ffffffffffffffffffffffffffffffffffffffff16604051806060016040528060258152602001612ec2602591398051906020012086868660405160240161213e93929190612b46565b604051602081830303815290604052907bffffffffffffffffffffffffffffffffffffffffffffffffffffffff19166020820180517bffffffffffffffffffffffffffffffffffffffffffffffffffffffff83818316178352505050506040516121a89190612a98565b6000604051808303816000865af19150503d80600081146121e5576040519150601f19603f3d011682016040523d82523d6000602084013e6121ea565b606091505b509150915081801561221857506000815114806122175750808060200190518101906122169190612584565b5b5b612257576040517f08c379a000000000000000000000000000000000000000000000000000000000815260040161224e90612c23565b60405180910390fd5b505050505050565b60008082840190508381101561227457600080fd5b8091505092915050565b60008083141561229157600090506122b2565b60008284029050828482816122a257fe5b04146122ad57600080fd5b809150505b92915050565b60008082116122c657600080fd5b60008284816122d157fe5b0490508091505092915050565b828054600181600116156101000203166002900490600052602060002090601f016020900481019282612314576000855561235b565b82601f1061232d57805160ff191683800117855561235b565b8280016001018555821561235b579182015b8281111561235a57825182559160200191906001019061233f565b5b509050612368919061236c565b5090565b5b8082111561238557600081600090555060010161236d565b5090565b600061239c61239784612d6a565b612d39565b9050828152602081018484840111156123b457600080fd5b6123bf848285612e36565b509392505050565b6000813590506123d681612e7c565b92915050565b6000815190506123eb81612e93565b92915050565b600082601f83011261240257600080fd5b8151612412848260208601612389565b91505092915050565b60008135905061242a81612eaa565b92915050565b60008151905061243f81612eaa565b92915050565b60006020828403121561245757600080fd5b6000612465848285016123c7565b91505092915050565b6000806040838503121561248157600080fd5b600061248f858286016123c7565b92505060206124a0858286016123c7565b9150509250929050565b6000806000606084860312156124bf57600080fd5b60006124cd868287016123c7565b93505060206124de868287016123c7565b92505060406124ef868287016123c7565b9150509250925092565b60008060006060848603121561250e57600080fd5b600061251c868287016123c7565b935050602061252d868287016123c7565b925050604061253e8682870161241b565b9150509250925092565b6000806040838503121561255b57600080fd5b6000612569858286016123c7565b925050602061257a8582860161241b565b9150509250929050565b60006020828403121561259657600080fd5b60006125a4848285016123dc565b91505092915050565b6000602082840312156125bf57600080fd5b600082015167ffffffffffffffff8111156125d957600080fd5b6125e5848285016123f1565b91505092915050565b60006020828403121561260057600080fd5b600061260e8482850161241b565b91505092915050565b60006020828403121561262957600080fd5b600061263784828501612430565b91505092915050565b61264981612de1565b82525050565b61265881612df3565b82525050565b600061266982612daf565b6126738185612dc5565b9350612683818560208601612e36565b80840191505092915050565b6000815460018116600081146126ac57600181146126d157612715565b607f60028304166126bd8187612dc5565b955060ff1983168652808601935050612715565b600282046126df8187612dc5565b95506126ea85612d9a565b60005b8281101561270c578154818901526001820191506020810190506126ed565b82880195505050505b505092915050565b600061272882612dba565b6127328185612dd0565b9350612742818560208601612e36565b61274b81612e6b565b840191505092915050565b6000612763602583612dd0565b91507f42455032303a207472616e736665722066726f6d20746865207a65726f20616460008301527f64726573730000000000000000000000000000000000000000000000000000006020830152604082019050919050565b60006127c9602483612dd0565b91507f42455032303a20617070726f76652066726f6d20746865207a65726f2061646460008301527f72657373000000000000000000000000000000000000000000000000000000006020830152604082019050919050565b600061282f601f83612dd0565b91507f546f6b656e43686f703a205452414e534645525f46524f4d5f4641494c4544006000830152602082019050919050565b600061286f601a83612dd0565b91507f546f6b656e43686f703a205452414e534645525f4641494c45440000000000006000830152602082019050919050565b60006128af602883612dd0565b91507f42455032303a207472616e7366657220616d6f756e742065786365656473206160008301527f6c6c6f77616e63650000000000000000000000000000000000000000000000006020830152604082019050919050565b6000612915602683612dd0565b91507f42455032303a207472616e7366657220616d6f756e742065786365656473206260008301527f616c616e636500000000000000000000000000000000000000000000000000006020830152604082019050919050565b600061297b602383612dd0565b91507f42455032303a207472616e7366657220746f20746865207a65726f206164647260008301527f65737300000000000000000000000000000000000000000000000000000000006020830152604082019050919050565b60006129e1601483612dd0565b91507f546f6b656e43686f703a20464f5242494444454e0000000000000000000000006000830152602082019050919050565b6000612a21602283612dd0565b91507f42455032303a20617070726f766520746f20746865207a65726f20616464726560008301527f73730000000000000000000000000000000000000000000000000000000000006020830152604082019050919050565b612a8381612e1f565b82525050565b612a9281612e29565b82525050565b6000612aa4828461265e565b915081905092915050565b6000612abb828861265e565b9150612ac7828761268f565b9150612ad3828661265e565b9150612adf828561268f565b9150612aeb828461265e565b91508190509695505050505050565b6000612b06828661268f565b9150612b12828561268f565b9150612b1e828461265e565b9150819050949350505050565b6000602082019050612b406000830184612640565b92915050565b6000606082019050612b5b6000830186612640565b612b686020830185612640565b612b756040830184612a7a565b949350505050565b6000604082019050612b926000830185612640565b612b9f6020830184612a7a565b9392505050565b6000602082019050612bbb600083018461264f565b92915050565b60006020820190508181036000830152612bdb818461271d565b905092915050565b60006020820190508181036000830152612bfc81612756565b9050919050565b60006020820190508181036000830152612c1c816127bc565b9050919050565b60006020820190508181036000830152612c3c81612822565b9050919050565b60006020820190508181036000830152612c5c81612862565b9050919050565b60006020820190508181036000830152612c7c816128a2565b9050919050565b60006020820190508181036000830152612c9c81612908565b9050919050565b60006020820190508181036000830152612cbc8161296e565b9050919050565b60006020820190508181036000830152612cdc816129d4565b9050919050565b60006020820190508181036000830152612cfc81612a14565b9050919050565b6000602082019050612d186000830184612a7a565b92915050565b6000602082019050612d336000830184612a89565b92915050565b6000604051905081810181811067ffffffffffffffff82111715612d6057612d5f612e69565b5b8060405250919050565b600067ffffffffffffffff821115612d8557612d84612e69565b5b601f19601f8301169050602081019050919050565b60008190508160005260206000209050919050565b600081519050919050565b600081519050919050565b600081905092915050565b600082825260208201905092915050565b6000612dec82612dff565b9050919050565b60008115159050919050565b600073ffffffffffffffffffffffffffffffffffffffff82169050919050565b6000819050919050565b600060ff82169050919050565b60005b83811015612e54578082015181840152602081019050612e39565b83811115612e63576000848401525b50505050565bfe5b6000601f19601f8301169050919050565b612e8581612de1565b8114612e9057600080fd5b50565b612e9c81612df3565b8114612ea757600080fd5b50565b612eb381612e1f565b8114612ebe57600080fd5b5056fe7472616e7366657246726f6d28616464726573732c616464726573732c75696e7432353629a2646970667358221220624d7999326683995446717747e9d601b73b13258be0885550b060905d134e6764736f6c63430007060033",
  "immutableReferences": {},
  "source": "// SPDX-License-Identifier: MIT\r\npragma solidity =0.7.6;\r\npragma abicoder v2;\r\n\r\nimport \"./interfaces/IBEP20.sol\";\r\nimport \"./interfaces/ITokenChopToken.sol\";\r\nimport \"./TokenChopStable.sol\";\r\nimport \"./libs/SafeMath.sol\";\r\nimport \"./libs/Math.sol\";\r\n\r\ncontract TokenChopSpec is IBEP20, ITokenChopToken {\r\n    using SafeMath for uint256;\r\n    mapping(address => uint256) public override balanceOf;\r\n    mapping(address => mapping(address => uint256)) public override allowance;\r\n\r\n    string  public override name;\r\n    string  public override symbol;\r\n    string  public baseSymbol;\r\n    string  public quoteSymbol;\r\n    string  public constant poolType = \"Spec\";\r\n    uint8   public constant typeId = 1;\r\n    address public base;\r\n    address public quote;\r\n    address public sister;\r\n    address public factory;\r\n    uint256 public collateral;\r\n    uint256 public override totalSupply;\r\n\r\n    event CollateralTransfer(address indexed from, address indexed to, uint256 value);\r\n    event PriceUpdate(uint256 oldPrice, uint256 newPrice);\r\n\r\n    bytes4 private constant TRANSFER_SELECTOR = bytes4(keccak256(bytes('transfer(address,uint256)')));\r\n    bytes4 private constant TRANSFER_FROM_SELECTOR = bytes4(keccak256(bytes('transferFrom(address,address,uint256)')));\r\n    \r\n    constructor() {\r\n        factory = msg.sender;\r\n    }\r\n\r\n    modifier onlyFactory() {\r\n        require(msg.sender == factory, 'TokenChop: FORBIDDEN');\r\n        _;\r\n    }\r\n\r\n    modifier onlySister() {\r\n        require(msg.sender == sister, 'TokenChop: FORBIDDEN');\r\n        _;\r\n    }\r\n\r\n    function initialize(address _base, address _quote, address _sister) external override onlyFactory {\r\n        base = _base;\r\n        quote = _quote;\r\n        sister = _sister;\r\n        baseSymbol = IBEP20(base).symbol();\r\n        quoteSymbol = IBEP20(quote).symbol();\r\n        name = string(abi.encodePacked(bytes(\"TokenChop: \"), bytes(baseSymbol), bytes(\"/\"), bytes(quoteSymbol), bytes(\" Spec\")));\r\n        symbol = string(abi.encodePacked(bytes(baseSymbol), bytes(quoteSymbol), bytes('1')));\r\n    }\r\n\r\n    function getOwner() external override view returns (address) {\r\n        return factory;\r\n    }\r\n\r\n    function decimals() external override pure returns (uint8) {\r\n        return 18;\r\n    }\r\n\r\n    function price() external view returns (uint256) {\r\n        if (collateral == 0) return 0;\r\n        return Math.mulDiv(totalSupply, uint256(10**18), collateral);\r\n    }\r\n\r\n    function transfer(address _recipient, uint256 _amount) external override returns (bool) {\r\n        _transfer(msg.sender, _recipient, _amount);\r\n        return true;\r\n    }\r\n\r\n    function approve(address _spender, uint256 _amount) external override returns (bool) {\r\n        _approve(msg.sender, _spender, _amount);\r\n        return true;\r\n    }\r\n\r\n    function transferFrom(address _sender, address _recipient, uint256 _amount) external override returns (bool) {\r\n        _transfer(_sender, _recipient, _amount);\r\n        require(allowance[_sender][msg.sender] >= _amount, \"BEP20: transfer amount exceeds allowance\");\r\n        _approve(_sender, msg.sender, allowance[_sender][msg.sender] - _amount);\r\n        return true;\r\n    }\r\n\r\n    function _transfer(address _sender, address _recipient, uint256 _amount) internal {\r\n        require(_sender != address(0), \"BEP20: transfer from the zero address\");\r\n        require(_recipient != address(0), \"BEP20: transfer to the zero address\");\r\n        require(balanceOf[_sender] >= _amount, \"BEP20: transfer amount exceeds balance\");\r\n        \r\n        balanceOf[_sender] = balanceOf[_sender].sub(_amount);\r\n        balanceOf[_recipient] = balanceOf[_recipient].add(_amount);\r\n\r\n        emit Transfer(_sender, _recipient, _amount);\r\n    }\r\n\r\n    function _approve(address _owner, address _spender, uint256 _amount) internal {\r\n        require(_owner != address(0), \"BEP20: approve from the zero address\");\r\n        require(_spender != address(0), \"BEP20: approve to the zero address\");\r\n\r\n        allowance[_owner][_spender] = _amount;\r\n        emit Approval(_owner, _spender, _amount);\r\n    }\r\n\r\n    function updatePrice() internal {\r\n        TokenChopStable(sister).updatePriceBySister();\r\n    }\r\n\r\n    function updateCollateral() internal {\r\n        collateral = IBEP20(base).balanceOf(address(this));\r\n    }\r\n\r\n    function sendCollateralToSister(uint256 baseRequested) public onlySister returns (uint256 sent) {\r\n        uint baseSent = collateral < baseRequested ? collateral : baseRequested;\r\n        _safeTransfer(base, sister, baseSent);\r\n        collateral = IBEP20(base).balanceOf(address(this));\r\n        emit CollateralTransfer(address(this), sister, baseSent);\r\n        return baseSent;\r\n    }\r\n\r\n    function mintAtBaseAmount(uint256 baseAmount) public returns (bool) {\r\n        updatePrice();\r\n        collateral = IBEP20(base).balanceOf(address(this));\r\n        uint256 supplyAmount = Math.baseToSupply(totalSupply, collateral, baseAmount);       \r\n        _safeTransferFrom(base, msg.sender, address(this), baseAmount);        \r\n        balanceOf[msg.sender] = balanceOf[msg.sender].add(supplyAmount);\r\n        totalSupply = totalSupply.add(supplyAmount);\r\n        collateral = IBEP20(base).balanceOf(address(this));\r\n        emit Transfer(address(0), msg.sender, supplyAmount);\r\n        emit CollateralTransfer(msg.sender, address(this), baseAmount);\r\n        return true;\r\n    }\r\n\r\n    function burn(uint256 supplyAmount) public returns (bool) {\r\n        require(supplyAmount <= balanceOf[msg.sender]);\r\n        balanceOf[msg.sender] = balanceOf[msg.sender].sub(supplyAmount);\r\n        updatePrice();\r\n        collateral = IBEP20(base).balanceOf(address(this));\r\n        uint256 baseAmount = Math.supplyToBase(totalSupply, collateral, supplyAmount);\r\n        _safeTransfer(base, msg.sender, baseAmount);\r\n        collateral = IBEP20(base).balanceOf(address(this));\r\n        emit Transfer(msg.sender, address(0), supplyAmount);\r\n        emit CollateralTransfer(address(this), msg.sender, baseAmount);        \r\n        return true;\r\n    }\r\n\r\n    function refresh() public {\r\n        updatePrice();\r\n        collateral = IBEP20(base).balanceOf(address(this));\r\n    }\r\n\r\n    function _safeTransfer(address _token, address _to, uint _value) private {\r\n        (bool _success, bytes memory _data) = _token.call(abi.encodeWithSelector(TRANSFER_SELECTOR, _to, _value));\r\n        require(_success && (_data.length == 0 || abi.decode(_data, (bool))), 'TokenChop: TRANSFER_FAILED');\r\n    }\r\n\r\n    function _safeTransferFrom(address _token, address _sender, address _recipient, uint _value) private {\r\n        (bool _success, bytes memory _data) = _token.call(abi.encodeWithSelector(TRANSFER_FROM_SELECTOR, _sender, _recipient, _value));\r\n        require(_success && (_data.length == 0 || abi.decode(_data, (bool))), 'TokenChop: TRANSFER_FROM_FAILED');\r\n    }\r\n\r\n}",
  "sourcePath": "C:\\Repos\\tokenchop\\contracts\\TokenChopSpec.sol",
  "compiler": {
    "name": "solc",
    "version": "0.7.6+commit.7338295f.Emscripten.clang"
  },
  "schemaVersion": "3.3.3",
  "updatedAt": "2021-02-13T07:55:25.539Z",
  "devdoc": {
    "kind": "dev",
    "methods": {
      "decimals()": {
        "details": "Returns the token decimals."
      },
      "getOwner()": {
        "details": "Returns the bep token owner."
      }
    },
    "stateVariables": {
      "allowance": {
        "details": "Returns the remaining number of tokens that `spender` will be allowed to spend on behalf of `owner` through {transferFrom}. This is zero by default. This value changes when {approve} or {transferFrom} are called."
      },
      "balanceOf": {
        "details": "Returns the amount of tokens owned by `account`."
      },
      "name": {
        "details": "Returns the token name."
      },
      "symbol": {
        "details": "Returns the token symbol."
      },
      "totalSupply": {
        "details": "Returns the amount of tokens in existence."
      }
    },
    "version": 1
  },
  "userdoc": {
    "kind": "user",
    "methods": {},
    "version": 1
  }
}