{
  "contractName": "TokenChopStable",
  "abi": [
    {
      "inputs": [],
      "stateMutability": "nonpayable",
      "type": "constructor"
    },
    {
      "anonymous": false,
      "inputs": [
        {
          "indexed": true,
          "internalType": "address",
          "name": "owner",
          "type": "address"
        },
        {
          "indexed": true,
          "internalType": "address",
          "name": "spender",
          "type": "address"
        },
        {
          "indexed": false,
          "internalType": "uint256",
          "name": "value",
          "type": "uint256"
        }
      ],
      "name": "Approval",
      "type": "event"
    },
    {
      "anonymous": false,
      "inputs": [
        {
          "indexed": false,
          "internalType": "uint256",
          "name": "prevTotalSupply",
          "type": "uint256"
        },
        {
          "indexed": false,
          "internalType": "uint256",
          "name": "newTotalSupply",
          "type": "uint256"
        }
      ],
      "name": "CollateralCapitalize",
      "type": "event"
    },
    {
      "anonymous": false,
      "inputs": [
        {
          "indexed": true,
          "internalType": "address",
          "name": "from",
          "type": "address"
        },
        {
          "indexed": true,
          "internalType": "address",
          "name": "to",
          "type": "address"
        },
        {
          "indexed": false,
          "internalType": "uint256",
          "name": "value",
          "type": "uint256"
        }
      ],
      "name": "CollateralTransfer",
      "type": "event"
    },
    {
      "anonymous": false,
      "inputs": [
        {
          "indexed": false,
          "internalType": "uint256",
          "name": "required",
          "type": "uint256"
        },
        {
          "indexed": false,
          "internalType": "uint256",
          "name": "obtained",
          "type": "uint256"
        }
      ],
      "name": "InsufficientCollateral",
      "type": "event"
    },
    {
      "anonymous": false,
      "inputs": [
        {
          "indexed": false,
          "internalType": "uint256",
          "name": "oldPrice",
          "type": "uint256"
        },
        {
          "indexed": false,
          "internalType": "uint256",
          "name": "newPrice",
          "type": "uint256"
        }
      ],
      "name": "PriceUpdate",
      "type": "event"
    },
    {
      "anonymous": false,
      "inputs": [
        {
          "indexed": true,
          "internalType": "address",
          "name": "from",
          "type": "address"
        },
        {
          "indexed": true,
          "internalType": "address",
          "name": "to",
          "type": "address"
        },
        {
          "indexed": false,
          "internalType": "uint256",
          "name": "value",
          "type": "uint256"
        }
      ],
      "name": "Transfer",
      "type": "event"
    },
    {
      "inputs": [
        {
          "internalType": "address",
          "name": "",
          "type": "address"
        },
        {
          "internalType": "address",
          "name": "",
          "type": "address"
        }
      ],
      "name": "allowance",
      "outputs": [
        {
          "internalType": "uint256",
          "name": "",
          "type": "uint256"
        }
      ],
      "stateMutability": "view",
      "type": "function"
    },
    {
      "inputs": [
        {
          "internalType": "address",
          "name": "",
          "type": "address"
        }
      ],
      "name": "balanceOf",
      "outputs": [
        {
          "internalType": "uint256",
          "name": "",
          "type": "uint256"
        }
      ],
      "stateMutability": "view",
      "type": "function"
    },
    {
      "inputs": [],
      "name": "bandProtocol",
      "outputs": [
        {
          "internalType": "address",
          "name": "",
          "type": "address"
        }
      ],
      "stateMutability": "view",
      "type": "function"
    },
    {
      "inputs": [],
      "name": "base",
      "outputs": [
        {
          "internalType": "address",
          "name": "",
          "type": "address"
        }
      ],
      "stateMutability": "view",
      "type": "function"
    },
    {
      "inputs": [],
      "name": "baseSymbol",
      "outputs": [
        {
          "internalType": "string",
          "name": "",
          "type": "string"
        }
      ],
      "stateMutability": "view",
      "type": "function"
    },
    {
      "inputs": [],
      "name": "factory",
      "outputs": [
        {
          "internalType": "address",
          "name": "",
          "type": "address"
        }
      ],
      "stateMutability": "view",
      "type": "function"
    },
    {
      "inputs": [],
      "name": "name",
      "outputs": [
        {
          "internalType": "string",
          "name": "",
          "type": "string"
        }
      ],
      "stateMutability": "view",
      "type": "function"
    },
    {
      "inputs": [],
      "name": "poolType",
      "outputs": [
        {
          "internalType": "string",
          "name": "",
          "type": "string"
        }
      ],
      "stateMutability": "view",
      "type": "function"
    },
    {
      "inputs": [],
      "name": "previousPrice",
      "outputs": [
        {
          "internalType": "uint256",
          "name": "",
          "type": "uint256"
        }
      ],
      "stateMutability": "view",
      "type": "function"
    },
    {
      "inputs": [],
      "name": "price",
      "outputs": [
        {
          "internalType": "uint256",
          "name": "",
          "type": "uint256"
        }
      ],
      "stateMutability": "view",
      "type": "function"
    },
    {
      "inputs": [],
      "name": "priceDecimals",
      "outputs": [
        {
          "internalType": "uint8",
          "name": "",
          "type": "uint8"
        }
      ],
      "stateMutability": "view",
      "type": "function"
    },
    {
      "inputs": [],
      "name": "quote",
      "outputs": [
        {
          "internalType": "address",
          "name": "",
          "type": "address"
        }
      ],
      "stateMutability": "view",
      "type": "function"
    },
    {
      "inputs": [],
      "name": "quoteSymbol",
      "outputs": [
        {
          "internalType": "string",
          "name": "",
          "type": "string"
        }
      ],
      "stateMutability": "view",
      "type": "function"
    },
    {
      "inputs": [],
      "name": "sister",
      "outputs": [
        {
          "internalType": "address",
          "name": "",
          "type": "address"
        }
      ],
      "stateMutability": "view",
      "type": "function"
    },
    {
      "inputs": [],
      "name": "symbol",
      "outputs": [
        {
          "internalType": "string",
          "name": "",
          "type": "string"
        }
      ],
      "stateMutability": "view",
      "type": "function"
    },
    {
      "inputs": [
        {
          "internalType": "string",
          "name": "",
          "type": "string"
        }
      ],
      "name": "symbolLookup",
      "outputs": [
        {
          "internalType": "string",
          "name": "",
          "type": "string"
        }
      ],
      "stateMutability": "view",
      "type": "function"
    },
    {
      "inputs": [],
      "name": "totalSupply",
      "outputs": [
        {
          "internalType": "uint256",
          "name": "",
          "type": "uint256"
        }
      ],
      "stateMutability": "view",
      "type": "function"
    },
    {
      "inputs": [],
      "name": "typeId",
      "outputs": [
        {
          "internalType": "uint8",
          "name": "",
          "type": "uint8"
        }
      ],
      "stateMutability": "view",
      "type": "function"
    },
    {
      "inputs": [
        {
          "internalType": "address",
          "name": "_base",
          "type": "address"
        },
        {
          "internalType": "address",
          "name": "_quote",
          "type": "address"
        },
        {
          "internalType": "address",
          "name": "_sister",
          "type": "address"
        }
      ],
      "name": "initialize",
      "outputs": [],
      "stateMutability": "nonpayable",
      "type": "function"
    },
    {
      "inputs": [
        {
          "internalType": "address",
          "name": "_bandAddr",
          "type": "address"
        }
      ],
      "name": "setBandAddress",
      "outputs": [],
      "stateMutability": "nonpayable",
      "type": "function"
    },
    {
      "inputs": [],
      "name": "getOwner",
      "outputs": [
        {
          "internalType": "address",
          "name": "",
          "type": "address"
        }
      ],
      "stateMutability": "view",
      "type": "function"
    },
    {
      "inputs": [],
      "name": "decimals",
      "outputs": [
        {
          "internalType": "uint8",
          "name": "",
          "type": "uint8"
        }
      ],
      "stateMutability": "pure",
      "type": "function"
    },
    {
      "inputs": [],
      "name": "collateral",
      "outputs": [
        {
          "internalType": "uint256",
          "name": "",
          "type": "uint256"
        }
      ],
      "stateMutability": "view",
      "type": "function"
    },
    {
      "inputs": [
        {
          "internalType": "address",
          "name": "_recipient",
          "type": "address"
        },
        {
          "internalType": "uint256",
          "name": "_amount",
          "type": "uint256"
        }
      ],
      "name": "transfer",
      "outputs": [
        {
          "internalType": "bool",
          "name": "",
          "type": "bool"
        }
      ],
      "stateMutability": "nonpayable",
      "type": "function"
    },
    {
      "inputs": [
        {
          "internalType": "address",
          "name": "_spender",
          "type": "address"
        },
        {
          "internalType": "uint256",
          "name": "_amount",
          "type": "uint256"
        }
      ],
      "name": "approve",
      "outputs": [
        {
          "internalType": "bool",
          "name": "",
          "type": "bool"
        }
      ],
      "stateMutability": "nonpayable",
      "type": "function"
    },
    {
      "inputs": [
        {
          "internalType": "address",
          "name": "_sender",
          "type": "address"
        },
        {
          "internalType": "address",
          "name": "_recipient",
          "type": "address"
        },
        {
          "internalType": "uint256",
          "name": "_amount",
          "type": "uint256"
        }
      ],
      "name": "transferFrom",
      "outputs": [
        {
          "internalType": "bool",
          "name": "",
          "type": "bool"
        }
      ],
      "stateMutability": "nonpayable",
      "type": "function"
    },
    {
      "inputs": [
        {
          "internalType": "uint256",
          "name": "baseAmount",
          "type": "uint256"
        }
      ],
      "name": "mintAtBaseAmount",
      "outputs": [
        {
          "internalType": "bool",
          "name": "",
          "type": "bool"
        }
      ],
      "stateMutability": "nonpayable",
      "type": "function"
    },
    {
      "inputs": [
        {
          "internalType": "uint256",
          "name": "quoteAmount",
          "type": "uint256"
        }
      ],
      "name": "burn",
      "outputs": [
        {
          "internalType": "bool",
          "name": "",
          "type": "bool"
        }
      ],
      "stateMutability": "nonpayable",
      "type": "function"
    },
    {
      "inputs": [],
      "name": "refresh",
      "outputs": [],
      "stateMutability": "nonpayable",
      "type": "function"
    }
  ],
  "bytecode": "0x60806040526000601060146101000a81548160ff02191690831515021790555034801561002b57600080fd5b5033600c60006101000a81548173ffffffffffffffffffffffffffffffffffffffff021916908373ffffffffffffffffffffffffffffffffffffffff160217905550613e4b8061007c6000396000f3fe608060405234801561001057600080fd5b50600436106101cf5760003560e01c8063893d20e811610104578063a9ed003d116100a2578063cd0b4aed11610071578063cd0b4aed1461052a578063d8dfeb451461055a578063dd62ed3e14610578578063f8ac93e8146105a8576101cf565b8063a9ed003d146104b4578063b1dd61b6146104d2578063c0c53b8b146104f0578063c45a01551461050c576101cf565b806395d89b41116100de57806395d89b411461042a578063999b93af14610448578063a035b1fe14610466578063a9059cbb14610484576101cf565b8063893d20e8146103d05780638f940f63146103ee578063914e245a1461040c576101cf565b806342966c68116101715780636fea6b1c1161014b5780636fea6b1c1461033457806370a08231146103525780637e7def7f1461038257806380583be7146103b2576101cf565b806342966c68146102c85780635001f3b5146102f857806360d6df6e14610316576101cf565b806318160ddd116101ad57806318160ddd1461024057806323b872dd1461025e5780632e4e3d111461028e578063313ce567146102aa576101cf565b806305300b28146101d457806306fdde03146101f2578063095ea7b314610210575b600080fd5b6101dc6105b2565b6040516101e99190613c1e565b60405180910390f35b6101fa6105b7565b6040516102079190613a01565b60405180910390f35b61022a60048036038101906102259190612fbb565b610655565b60405161023791906139e6565b60405180910390f35b61024861066c565b6040516102559190613bda565b60405180910390f35b61027860048036038101906102739190612f6c565b610672565b60405161028591906139e6565b60405180910390f35b6102a860048036038101906102a39190612eb8565b6107d2565b005b6102b26108a6565b6040516102bf9190613c1e565b60405180910390f35b6102e260048036038101906102dd91906130cb565b6108af565b6040516102ef91906139e6565b60405180910390f35b610300610b02565b60405161030d919061396b565b60405180910390f35b61031e610b28565b60405161032b9190613a01565b60405180910390f35b61033c610bc6565b604051610349919061396b565b60405180910390f35b61036c60048036038101906103679190612eb8565b610bec565b6040516103799190613bda565b60405180910390f35b61039c60048036038101906103979190613020565b610c04565b6040516103a99190613a01565b60405180910390f35b6103ba610cca565b6040516103c79190613a01565b60405180910390f35b6103d8610d68565b6040516103e5919061396b565b60405180910390f35b6103f6610d92565b6040516104039190613c1e565b60405180910390f35b610414610d97565b6040516104219190613bda565b60405180910390f35b610432610d9d565b60405161043f9190613a01565b60405180910390f35b610450610e3b565b60405161045d919061396b565b60405180910390f35b61046e610e61565b60405161047b9190613bda565b60405180910390f35b61049e60048036038101906104999190612fbb565b610e67565b6040516104ab91906139e6565b60405180910390f35b6104bc610e7e565b6040516104c9919061396b565b60405180910390f35b6104da610ea4565b6040516104e79190613a01565b60405180910390f35b61050a60048036038101906105059190612f1d565b610edd565b005b6105146115b4565b604051610521919061396b565b60405180910390f35b610544600480360381019061053f91906130cb565b6115da565b60405161055191906139e6565b60405180910390f35b6105626117b6565b60405161056f9190613bda565b60405180910390f35b610592600480360381019061058d9190612ee1565b611868565b60405161059f9190613bda565b60405180910390f35b6105b061188d565b005b601281565b60058054600181600116156101000203166002900480601f01602080910402602001604051908101604052809291908181526020018280546001816001161561010002031660029004801561064d5780601f106106225761010080835404028352916020019161064d565b820191906000526020600020905b81548152906001019060200180831161063057829003601f168201915b505050505081565b600061066233848461189f565b6001905092915050565b600f5481565b600061067f848484611a6a565b81600160008673ffffffffffffffffffffffffffffffffffffffff1673ffffffffffffffffffffffffffffffffffffffff16815260200190815260200160002060003373ffffffffffffffffffffffffffffffffffffffff1673ffffffffffffffffffffffffffffffffffffffff16815260200190815260200160002054101561073e576040517f08c379a000000000000000000000000000000000000000000000000000000000815260040161073590613b1a565b60405180910390fd5b6107c7843384600160008973ffffffffffffffffffffffffffffffffffffffff1673ffffffffffffffffffffffffffffffffffffffff16815260200190815260200160002060003373ffffffffffffffffffffffffffffffffffffffff1673ffffffffffffffffffffffffffffffffffffffff168152602001908152602001600020540361189f565b600190509392505050565b600c60009054906101000a900473ffffffffffffffffffffffffffffffffffffffff1673ffffffffffffffffffffffffffffffffffffffff163373ffffffffffffffffffffffffffffffffffffffff1614610862576040517f08c379a000000000000000000000000000000000000000000000000000000000815260040161085990613b7a565b60405180910390fd5b80601060006101000a81548173ffffffffffffffffffffffffffffffffffffffff021916908373ffffffffffffffffffffffffffffffffffffffff16021790555050565b60006012905090565b60006108b9611d64565b6108c1612031565b6000803373ffffffffffffffffffffffffffffffffffffffff1673ffffffffffffffffffffffffffffffffffffffff16815260200190815260200160002054821115610942576040517f08c379a000000000000000000000000000000000000000000000000000000000815260040161093990613a5a565b60405180910390fd5b610993826000803373ffffffffffffffffffffffffffffffffffffffff1673ffffffffffffffffffffffffffffffffffffffff1681526020019081526020016000205461243f90919063ffffffff16565b6000803373ffffffffffffffffffffffffffffffffffffffff1673ffffffffffffffffffffffffffffffffffffffff168152602001908152602001600020819055506109ea82600f5461243f90919063ffffffff16565b600f8190555060006109fe600e548461245f565b9050610a2d600960009054906101000a900473ffffffffffffffffffffffffffffffffffffffff1633836124f2565b600073ffffffffffffffffffffffffffffffffffffffff163373ffffffffffffffffffffffffffffffffffffffff167fddf252ad1be2c89b69c2b068fc378daa952ba7f163c4a11628f55a4df523b3ef85604051610a8b9190613bda565b60405180910390a33373ffffffffffffffffffffffffffffffffffffffff163073ffffffffffffffffffffffffffffffffffffffff167f14395d6fb6ac3870af345d12d989b966ccf04dcdd9e02b95722d12dca39eb4b083604051610af09190613bda565b60405180910390a36001915050919050565b600960009054906101000a900473ffffffffffffffffffffffffffffffffffffffff1681565b60088054600181600116156101000203166002900480601f016020809104026020016040519081016040528092919081815260200182805460018160011615610100020316600290048015610bbe5780601f10610b9357610100808354040283529160200191610bbe565b820191906000526020600020905b815481529060010190602001808311610ba157829003601f168201915b505050505081565b601060009054906101000a900473ffffffffffffffffffffffffffffffffffffffff1681565b60006020528060005260406000206000915090505481565b6002818051602081018201805184825260208301602085012081835280955050505050506000915090508054600181600116156101000203166002900480601f016020809104026020016040519081016040528092919081815260200182805460018160011615610100020316600290048015610cc25780601f10610c9757610100808354040283529160200191610cc2565b820191906000526020600020905b815481529060010190602001808311610ca557829003601f168201915b505050505081565b60078054600181600116156101000203166002900480601f016020809104026020016040519081016040528092919081815260200182805460018160011615610100020316600290048015610d605780601f10610d3557610100808354040283529160200191610d60565b820191906000526020600020905b815481529060010190602001808311610d4357829003601f168201915b505050505081565b6000600c60009054906101000a900473ffffffffffffffffffffffffffffffffffffffff16905090565b600081565b600d5481565b60068054600181600116156101000203166002900480601f016020809104026020016040519081016040528092919081815260200182805460018160011615610100020316600290048015610e335780601f10610e0857610100808354040283529160200191610e33565b820191906000526020600020905b815481529060010190602001808311610e1657829003601f168201915b505050505081565b600a60009054906101000a900473ffffffffffffffffffffffffffffffffffffffff1681565b600e5481565b6000610e74338484611a6a565b6001905092915050565b600b60009054906101000a900473ffffffffffffffffffffffffffffffffffffffff1681565b6040518060400160405280600681526020017f537461626c65000000000000000000000000000000000000000000000000000081525081565b600c60009054906101000a900473ffffffffffffffffffffffffffffffffffffffff1673ffffffffffffffffffffffffffffffffffffffff163373ffffffffffffffffffffffffffffffffffffffff1614610f6d576040517f08c379a0000000000000000000000000000000000000000000000000000000008152600401610f6490613b7a565b60405180910390fd5b73da7a001b254cd22e46d3eab04d937489c93174c3601060006101000a81548173ffffffffffffffffffffffffffffffffffffffff021916908373ffffffffffffffffffffffffffffffffffffffff16021790555082600960006101000a81548173ffffffffffffffffffffffffffffffffffffffff021916908373ffffffffffffffffffffffffffffffffffffffff16021790555081600a60006101000a81548173ffffffffffffffffffffffffffffffffffffffff021916908373ffffffffffffffffffffffffffffffffffffffff16021790555080600b60006101000a81548173ffffffffffffffffffffffffffffffffffffffff021916908373ffffffffffffffffffffffffffffffffffffffff1602179055506040518060400160405280600381526020017f555344000000000000000000000000000000000000000000000000000000000081525060026040516110c9906138ed565b908152602001604051809103902090805190602001906110ea929190612c89565b506040518060400160405280600381526020017f4554480000000000000000000000000000000000000000000000000000000000815250600260405161112f90613941565b90815260200160405180910390209080519060200190611150929190612c89565b506040518060400160405280600381526020017f425443000000000000000000000000000000000000000000000000000000000081525060026040516111959061392c565b908152602001604051809103902090805190602001906111b6929190612c89565b506040518060400160405280600381526020017f585250000000000000000000000000000000000000000000000000000000000081525060026040516111fb90613956565b9081526020016040518091039020908051906020019061121c929190612c89565b506040518060400160405280600381526020017f4441490000000000000000000000000000000000000000000000000000000000815250600260405161126190613917565b90815260200160405180910390209080519060200190611282929190612c89565b506040518060400160405280600381526020017f424e42000000000000000000000000000000000000000000000000000000000081525060026040516112c790613902565b908152602001604051809103902090805190602001906112e8929190612c89565b50600960009054906101000a900473ffffffffffffffffffffffffffffffffffffffff1673ffffffffffffffffffffffffffffffffffffffff166395d89b416040518163ffffffff1660e01b815260040160006040518083038186803b15801561135157600080fd5b505afa158015611365573d6000803e3d6000fd5b505050506040513d6000823e3d601f19601f8201168201806040525081019061138e9190613061565b600790805190602001906113a3929190612c89565b50600a60009054906101000a900473ffffffffffffffffffffffffffffffffffffffff1673ffffffffffffffffffffffffffffffffffffffff166395d89b416040518163ffffffff1660e01b815260040160006040518083038186803b15801561140c57600080fd5b505afa158015611420573d6000803e3d6000fd5b505050506040513d6000823e3d601f19601f820116820180604052508101906114499190613061565b6008908051906020019061145e929190612c89565b506040518060400160405280600b81526020017f546f6b656e43686f703a2000000000000000000000000000000000000000000081525060076040518060400160405280600181526020017f2f0000000000000000000000000000000000000000000000000000000000000081525060086040518060400160405280600781526020017f20537461626c650000000000000000000000000000000000000000000000000081525060405160200161151995949392919061385a565b6040516020818303038152906040526005908051906020019061153d929190612c89565b50600760086040518060400160405280600181526020017f300000000000000000000000000000000000000000000000000000000000000081525060405160200161158a939291906138a5565b604051602081830303815290604052600690805190602001906115ae929190612c89565b50505050565b600c60009054906101000a900473ffffffffffffffffffffffffffffffffffffffff1681565b60006115e4611d64565b6115ec612031565b61161a600960009054906101000a900473ffffffffffffffffffffffffffffffffffffffff1633308561267c565b6000611628600e54846127ec565b905061167b816000803373ffffffffffffffffffffffffffffffffffffffff1673ffffffffffffffffffffffffffffffffffffffff1681526020019081526020016000205461280990919063ffffffff16565b6000803373ffffffffffffffffffffffffffffffffffffffff1673ffffffffffffffffffffffffffffffffffffffff168152602001908152602001600020819055506116c633612828565b6116db81600f5461280990919063ffffffff16565b600f819055503373ffffffffffffffffffffffffffffffffffffffff16600073ffffffffffffffffffffffffffffffffffffffff167fddf252ad1be2c89b69c2b068fc378daa952ba7f163c4a11628f55a4df523b3ef8360405161173f9190613bda565b60405180910390a33073ffffffffffffffffffffffffffffffffffffffff163373ffffffffffffffffffffffffffffffffffffffff167f14395d6fb6ac3870af345d12d989b966ccf04dcdd9e02b95722d12dca39eb4b0856040516117a49190613bda565b60405180910390a36001915050919050565b6000600960009054906101000a900473ffffffffffffffffffffffffffffffffffffffff1673ffffffffffffffffffffffffffffffffffffffff166370a08231306040518263ffffffff1660e01b8152600401611813919061396b565b60206040518083038186803b15801561182b57600080fd5b505afa15801561183f573d6000803e3d6000fd5b505050506040513d601f19601f8201168201806040525081019061186391906130f4565b905090565b6001602052816000526040600020602052806000526040600020600091509150505481565b611895611d64565b61189d612031565b565b600073ffffffffffffffffffffffffffffffffffffffff168373ffffffffffffffffffffffffffffffffffffffff16141561190f576040517f08c379a000000000000000000000000000000000000000000000000000000000815260040161190690613a9a565b60405180910390fd5b600073ffffffffffffffffffffffffffffffffffffffff168273ffffffffffffffffffffffffffffffffffffffff16141561197f576040517f08c379a000000000000000000000000000000000000000000000000000000000815260040161197690613bba565b60405180910390fd5b80600160008573ffffffffffffffffffffffffffffffffffffffff1673ffffffffffffffffffffffffffffffffffffffff16815260200190815260200160002060008473ffffffffffffffffffffffffffffffffffffffff1673ffffffffffffffffffffffffffffffffffffffff168152602001908152602001600020819055508173ffffffffffffffffffffffffffffffffffffffff168373ffffffffffffffffffffffffffffffffffffffff167f8c5be1e5ebec7d5bd14f71427d1e84f3dd0314c0f7b2291e5b200ac8c7c3b92583604051611a5d9190613bda565b60405180910390a3505050565b600073ffffffffffffffffffffffffffffffffffffffff168373ffffffffffffffffffffffffffffffffffffffff161415611ada576040517f08c379a0000000000000000000000000000000000000000000000000000000008152600401611ad190613a7a565b60405180910390fd5b600073ffffffffffffffffffffffffffffffffffffffff168273ffffffffffffffffffffffffffffffffffffffff161415611b4a576040517f08c379a0000000000000000000000000000000000000000000000000000000008152600401611b4190613b5a565b60405180910390fd5b806000808573ffffffffffffffffffffffffffffffffffffffff1673ffffffffffffffffffffffffffffffffffffffff168152602001908152602001600020541015611bcb576040517f08c379a0000000000000000000000000000000000000000000000000000000008152600401611bc290613b3a565b60405180910390fd5b611c1c816000808673ffffffffffffffffffffffffffffffffffffffff1673ffffffffffffffffffffffffffffffffffffffff1681526020019081526020016000205461243f90919063ffffffff16565b6000808573ffffffffffffffffffffffffffffffffffffffff1673ffffffffffffffffffffffffffffffffffffffff16815260200190815260200160002081905550611caf816000808573ffffffffffffffffffffffffffffffffffffffff1673ffffffffffffffffffffffffffffffffffffffff1681526020019081526020016000205461280990919063ffffffff16565b6000808473ffffffffffffffffffffffffffffffffffffffff1673ffffffffffffffffffffffffffffffffffffffff16815260200190815260200160002081905550611cfa82612828565b8173ffffffffffffffffffffffffffffffffffffffff168373ffffffffffffffffffffffffffffffffffffffff167fddf252ad1be2c89b69c2b068fc378daa952ba7f163c4a11628f55a4df523b3ef83604051611d579190613bda565b60405180910390a3505050565b600060026007604051611d7791906138d6565b90815260200160405180910390208054600181600116156101000203166002900480601f016020809104026020016040519081016040528092919081815260200182805460018160011615610100020316600290048015611e195780601f10611dee57610100808354040283529160200191611e19565b820191906000526020600020905b815481529060010190602001808311611dfc57829003601f168201915b50505050509050600060026008604051611e3391906138d6565b90815260200160405180910390208054600181600116156101000203166002900480601f016020809104026020016040519081016040528092919081815260200182805460018160011615610100020316600290048015611ed55780601f10611eaa57610100808354040283529160200191611ed5565b820191906000526020600020905b815481529060010190602001808311611eb857829003601f168201915b505050505090506000601060009054906101000a900473ffffffffffffffffffffffffffffffffffffffff16905060008173ffffffffffffffffffffffffffffffffffffffff166365555bcc85856040518363ffffffff1660e01b8152600401611f40929190613a23565b60606040518083038186803b158015611f5857600080fd5b505afa158015611f6c573d6000803e3d6000fd5b505050506040513d601f19601f82011682018060405250810190611f9091906130a2565b90506000816000015190506000811415611fdf576040517f08c379a0000000000000000000000000000000000000000000000000000000008152600401611fd690613b9a565b60405180910390fd5b7f92664190cca12aca9cd5309d87194bdda75bb51362d71c06e1a6f75c7c765711600e5482604051612012929190613bf5565b60405180910390a1600e54600d8190555080600e819055505050505050565b601060149054906101000a900460ff1615612081576040517f08c379a000000000000000000000000000000000000000000000000000000000815260040161207890613ada565b60405180910390fd5b6001601060146101000a81548160ff02191690831515021790555060006120ac600e54600f5461245f565b90506000600960009054906101000a900473ffffffffffffffffffffffffffffffffffffffff1673ffffffffffffffffffffffffffffffffffffffff166370a08231306040518263ffffffff1660e01b815260040161210b919061396b565b60206040518083038186803b15801561212357600080fd5b505afa158015612137573d6000803e3d6000fd5b505050506040513d601f19601f8201168201806040525081019061215b91906130f4565b905081811415612187576000601060146101000a81548160ff021916908315150217905550505061243d565b818110156122f05760006121a4828461243f90919063ffffffff16565b90506000600b60009054906101000a900473ffffffffffffffffffffffffffffffffffffffff1673ffffffffffffffffffffffffffffffffffffffff1663f33ab2b8836040518263ffffffff1660e01b81526004016122039190613bda565b602060405180830381600087803b15801561221d57600080fd5b505af1158015612231573d6000803e3d6000fd5b505050506040513d601f19601f8201168201806040525081019061225591906130f4565b9050818110156122e957600061227f600e5461227a848661243f90919063ffffffff16565b6127ec565b9050600061229882600f5461243f90919063ffffffff16565b90507fb07e3bc4c23a2d5a3367eec63320a439a69fa5b14b5619ba643e23b3ab6ef80584846040516122cb929190613bf5565b60405180910390a16122df600f548261292d565b80600f8190555050505b505061241f565b6000600b60009054906101000a900473ffffffffffffffffffffffffffffffffffffffff1673ffffffffffffffffffffffffffffffffffffffff1663d8dfeb456040518163ffffffff1660e01b815260040160206040518083038186803b15801561235a57600080fd5b505afa15801561236e573d6000803e3d6000fd5b505050506040513d601f19601f8201168201806040525081019061239291906130f4565b14156123fc5760006123a6600e54836127ec565b90507ffcd722297a6956f214c3329ce377ca398bf445819d7d02e81f6256c4aea9ebaa600f54826040516123db929190613bf5565b60405180910390a16123ef600f548261292d565b80600f819055505061241e565b6000612411838361243f90919063ffffffff16565b905061241c81612a14565b505b5b6000601060146101000a81548160ff02191690831515021790555050505b565b60008282111561244e57600080fd5b600082840390508091505092915050565b6000808314156124d7576040517f08c379a00000000000000000000000000000000000000000000000000000000081526004018080602001828103825260138152602001807f7072696365206d757374206e6f7420626520300000000000000000000000000081525060200191505060405180910390fd5b6124ea82670de0b6b3a764000085612aed565b905092915050565b6000808473ffffffffffffffffffffffffffffffffffffffff166040518060400160405280601981526020017f7472616e7366657228616464726573732c75696e74323536290000000000000081525080519060200120858560405160240161255c9291906139bd565b604051602081830303815290604052907bffffffffffffffffffffffffffffffffffffffffffffffffffffffff19166020820180517bffffffffffffffffffffffffffffffffffffffffffffffffffffffff83818316178352505050506040516125c69190613843565b6000604051808303816000865af19150503d8060008114612603576040519150601f19603f3d011682016040523d82523d6000602084013e612608565b606091505b509150915081801561263657506000815114806126355750808060200190518101906126349190612ff7565b5b5b612675576040517f08c379a000000000000000000000000000000000000000000000000000000000815260040161266c90613afa565b60405180910390fd5b5050505050565b6000808573ffffffffffffffffffffffffffffffffffffffff16604051806060016040528060258152602001613df160259139805190602001208686866040516024016126cb93929190613986565b604051602081830303815290604052907bffffffffffffffffffffffffffffffffffffffffffffffffffffffff19166020820180517bffffffffffffffffffffffffffffffffffffffffffffffffffffffff83818316178352505050506040516127359190613843565b6000604051808303816000865af19150503d8060008114612772576040519150601f19603f3d011682016040523d82523d6000602084013e612777565b606091505b50915091508180156127a557506000815114806127a45750808060200190518101906127a39190612ff7565b5b5b6127e4576040517f08c379a00000000000000000000000000000000000000000000000000000000081526004016127db90613aba565b60405180910390fd5b505050505050565b60006128018284670de0b6b3a7640000612aed565b905092915050565b60008082840190508381101561281e57600080fd5b8091505092915050565b60005b6004548110156128b3578173ffffffffffffffffffffffffffffffffffffffff166003828154811061285957fe5b9060005260206000200160009054906101000a900473ffffffffffffffffffffffffffffffffffffffff1673ffffffffffffffffffffffffffffffffffffffff1614156128a6575061292a565b808060010191505061282b565b506003819080600181540180825580915050600190039060005260206000200160009091909190916101000a81548173ffffffffffffffffffffffffffffffffffffffff021916908373ffffffffffffffffffffffffffffffffffffffff1602179055506004600081548092919060010191905055505b50565b60005b600454811015612a0f5760006003828154811061294957fe5b9060005260206000200160009054906101000a900473ffffffffffffffffffffffffffffffffffffffff1690506129bf6000808373ffffffffffffffffffffffffffffffffffffffff1673ffffffffffffffffffffffffffffffffffffffff168152602001908152602001600020548486612aed565b6000808373ffffffffffffffffffffffffffffffffffffffff1673ffffffffffffffffffffffffffffffffffffffff16815260200190815260200160002081905550508080600101915050612930565b505050565b612a63600960009054906101000a900473ffffffffffffffffffffffffffffffffffffffff16600b60009054906101000a900473ffffffffffffffffffffffffffffffffffffffff16836124f2565b600b60009054906101000a900473ffffffffffffffffffffffffffffffffffffffff1673ffffffffffffffffffffffffffffffffffffffff163073ffffffffffffffffffffffffffffffffffffffff167f14395d6fb6ac3870af345d12d989b966ccf04dcdd9e02b95722d12dca39eb4b083604051612ae29190613bda565b60405180910390a350565b60007001000000000000000000000000000000008410612b75576040517f08c379a000000000000000000000000000000000000000000000000000000000815260040180806020018281038252600f8152602001807f56616c756520746f6f206c61726765000000000000000000000000000000000081525060200191505060405180910390fd5b7001000000000000000000000000000000008310612bfb576040517f08c379a00000000000000000000000000000000000000000000000000000000081526004018080602001828103825260148152602001807f4e756d657261746f7220746f6f206c617267652000000000000000000000000081525060200191505060405180910390fd5b612c2082612c128587612c2990919063ffffffff16565b612c6390919063ffffffff16565b90509392505050565b600080831415612c3c5760009050612c5d565b6000828402905082848281612c4d57fe5b0414612c5857600080fd5b809150505b92915050565b6000808211612c7157600080fd5b6000828481612c7c57fe5b0490508091505092915050565b828054600181600116156101000203166002900490600052602060002090601f016020900481019282612cbf5760008555612d06565b82601f10612cd857805160ff1916838001178555612d06565b82800160010185558215612d06579182015b82811115612d05578251825591602001919060010190612cea565b5b509050612d139190612d17565b5090565b5b80821115612d30576000816000905550600101612d18565b5090565b6000612d47612d4284613c6a565b613c39565b905082815260208101848484011115612d5f57600080fd5b612d6a848285613d56565b509392505050565b6000612d85612d8084613c6a565b613c39565b905082815260208101848484011115612d9d57600080fd5b612da8848285613d65565b509392505050565b600081359050612dbf81613dab565b92915050565b600081519050612dd481613dc2565b92915050565b600082601f830112612deb57600080fd5b8135612dfb848260208601612d34565b91505092915050565b600082601f830112612e1557600080fd5b8151612e25848260208601612d72565b91505092915050565b600060608284031215612e4057600080fd5b612e4a6060613c39565b90506000612e5a84828501612ea3565b6000830152506020612e6e84828501612ea3565b6020830152506040612e8284828501612ea3565b60408301525092915050565b600081359050612e9d81613dd9565b92915050565b600081519050612eb281613dd9565b92915050565b600060208284031215612eca57600080fd5b6000612ed884828501612db0565b91505092915050565b60008060408385031215612ef457600080fd5b6000612f0285828601612db0565b9250506020612f1385828601612db0565b9150509250929050565b600080600060608486031215612f3257600080fd5b6000612f4086828701612db0565b9350506020612f5186828701612db0565b9250506040612f6286828701612db0565b9150509250925092565b600080600060608486031215612f8157600080fd5b6000612f8f86828701612db0565b9350506020612fa086828701612db0565b9250506040612fb186828701612e8e565b9150509250925092565b60008060408385031215612fce57600080fd5b6000612fdc85828601612db0565b9250506020612fed85828601612e8e565b9150509250929050565b60006020828403121561300957600080fd5b600061301784828501612dc5565b91505092915050565b60006020828403121561303257600080fd5b600082013567ffffffffffffffff81111561304c57600080fd5b61305884828501612dda565b91505092915050565b60006020828403121561307357600080fd5b600082015167ffffffffffffffff81111561308d57600080fd5b61309984828501612e04565b91505092915050565b6000606082840312156130b457600080fd5b60006130c284828501612e2e565b91505092915050565b6000602082840312156130dd57600080fd5b60006130eb84828501612e8e565b91505092915050565b60006020828403121561310657600080fd5b600061311484828501612ea3565b91505092915050565b61312681613d01565b82525050565b61313581613d13565b82525050565b600061314682613cc4565b6131508185613cda565b9350613160818560208601613d65565b80840191505092915050565b60008154600181166000811461318957600181146131ae576131f2565b607f600283041661319a8187613cda565b955060ff19831686528086019350506131f2565b600282046131bc8187613cda565b95506131c785613c9a565b60005b828110156131e9578154818901526001820191506020810190506131ca565b82880195505050505b505092915050565b600061320582613ccf565b61320f8185613ce5565b935061321f818560208601613d65565b61322881613d9a565b840191505092915050565b6000815460018116600081146132505760018114613275576132b9565b607f60028304166132618187613cf6565b955060ff19831686528086019350506132b9565b600282046132838187613cf6565b955061328e85613caf565b60005b828110156132b057815481890152600182019150602081019050613291565b82880195505050505b505092915050565b60006132ce601083613ce5565b91507f4261642071756f746520616d6f756e74000000000000000000000000000000006000830152602082019050919050565b600061330e602583613ce5565b91507f42455032303a207472616e736665722066726f6d20746865207a65726f20616460008301527f64726573730000000000000000000000000000000000000000000000000000006020830152604082019050919050565b6000613374602483613ce5565b91507f42455032303a20617070726f76652066726f6d20746865207a65726f2061646460008301527f72657373000000000000000000000000000000000000000000000000000000006020830152604082019050919050565b60006133da601f83613ce5565b91507f546f6b656e43686f703a205452414e534645525f46524f4d5f4641494c4544006000830152602082019050919050565b600061341a601d83613ce5565b91507f55706461746520636f6c6c61746572616c20696e2070726f67726573730000006000830152602082019050919050565b600061345a601a83613ce5565b91507f546f6b656e43686f703a205452414e534645525f4641494c45440000000000006000830152602082019050919050565b600061349a602883613ce5565b91507f42455032303a207472616e7366657220616d6f756e742065786365656473206160008301527f6c6c6f77616e63650000000000000000000000000000000000000000000000006020830152604082019050919050565b6000613500600483613cf6565b91507f42555344000000000000000000000000000000000000000000000000000000006000830152600482019050919050565b6000613540600483613cf6565b91507f57424e42000000000000000000000000000000000000000000000000000000006000830152600482019050919050565b6000613580600383613cf6565b91507f44414900000000000000000000000000000000000000000000000000000000006000830152600382019050919050565b60006135c0600483613cf6565b91507f42544342000000000000000000000000000000000000000000000000000000006000830152600482019050919050565b6000613600602683613ce5565b91507f42455032303a207472616e7366657220616d6f756e742065786365656473206260008301527f616c616e636500000000000000000000000000000000000000000000000000006020830152604082019050919050565b6000613666600383613cf6565b91507f45544800000000000000000000000000000000000000000000000000000000006000830152600382019050919050565b60006136a6602383613ce5565b91507f42455032303a207472616e7366657220746f20746865207a65726f206164647260008301527f65737300000000000000000000000000000000000000000000000000000000006020830152604082019050919050565b600061370c600383613cf6565b91507f58525000000000000000000000000000000000000000000000000000000000006000830152600382019050919050565b600061374c601483613ce5565b91507f546f6b656e43686f703a20464f5242494444454e0000000000000000000000006000830152602082019050919050565b600061378c601e83613ce5565b91507f546f6b656e43686f703a20507269636520757064617465204661696c656400006000830152602082019050919050565b60006137cc602283613ce5565b91507f42455032303a20617070726f766520746f20746865207a65726f20616464726560008301527f73730000000000000000000000000000000000000000000000000000000000006020830152604082019050919050565b61382e81613d3f565b82525050565b61383d81613d49565b82525050565b600061384f828461313b565b915081905092915050565b6000613866828861313b565b9150613872828761316c565b915061387e828661313b565b915061388a828561316c565b9150613896828461313b565b91508190509695505050505050565b60006138b1828661316c565b91506138bd828561316c565b91506138c9828461313b565b9150819050949350505050565b60006138e28284613233565b915081905092915050565b60006138f8826134f3565b9150819050919050565b600061390d82613533565b9150819050919050565b600061392282613573565b9150819050919050565b6000613937826135b3565b9150819050919050565b600061394c82613659565b9150819050919050565b6000613961826136ff565b9150819050919050565b6000602082019050613980600083018461311d565b92915050565b600060608201905061399b600083018661311d565b6139a8602083018561311d565b6139b56040830184613825565b949350505050565b60006040820190506139d2600083018561311d565b6139df6020830184613825565b9392505050565b60006020820190506139fb600083018461312c565b92915050565b60006020820190508181036000830152613a1b81846131fa565b905092915050565b60006040820190508181036000830152613a3d81856131fa565b90508181036020830152613a5181846131fa565b90509392505050565b60006020820190508181036000830152613a73816132c1565b9050919050565b60006020820190508181036000830152613a9381613301565b9050919050565b60006020820190508181036000830152613ab381613367565b9050919050565b60006020820190508181036000830152613ad3816133cd565b9050919050565b60006020820190508181036000830152613af38161340d565b9050919050565b60006020820190508181036000830152613b138161344d565b9050919050565b60006020820190508181036000830152613b338161348d565b9050919050565b60006020820190508181036000830152613b53816135f3565b9050919050565b60006020820190508181036000830152613b7381613699565b9050919050565b60006020820190508181036000830152613b938161373f565b9050919050565b60006020820190508181036000830152613bb38161377f565b9050919050565b60006020820190508181036000830152613bd3816137bf565b9050919050565b6000602082019050613bef6000830184613825565b92915050565b6000604082019050613c0a6000830185613825565b613c176020830184613825565b9392505050565b6000602082019050613c336000830184613834565b92915050565b6000604051905081810181811067ffffffffffffffff82111715613c6057613c5f613d98565b5b8060405250919050565b600067ffffffffffffffff821115613c8557613c84613d98565b5b601f19601f8301169050602081019050919050565b60008190508160005260206000209050919050565b60008190508160005260206000209050919050565b600081519050919050565b600081519050919050565b600081905092915050565b600082825260208201905092915050565b600081905092915050565b6000613d0c82613d1f565b9050919050565b60008115159050919050565b600073ffffffffffffffffffffffffffffffffffffffff82169050919050565b6000819050919050565b600060ff82169050919050565b82818337600083830152505050565b60005b83811015613d83578082015181840152602081019050613d68565b83811115613d92576000848401525b50505050565bfe5b6000601f19601f8301169050919050565b613db481613d01565b8114613dbf57600080fd5b50565b613dcb81613d13565b8114613dd657600080fd5b50565b613de281613d3f565b8114613ded57600080fd5b5056fe7472616e7366657246726f6d28616464726573732c616464726573732c75696e7432353629a2646970667358221220e29b4bd607687d47c991fda304e263d6c85ca296fbeb2d9ca3678f7cd344ca4d64736f6c63430007060033",
  "immutableReferences": {},
  "source": "// SPDX-License-Identifier: MIT\r\npragma solidity =0.7.6;\r\npragma abicoder v2;\r\n\r\nimport \"./interfaces/IBEP20.sol\";\r\nimport \"./interfaces/ITokenChopToken.sol\";\r\nimport \"./TokenChopSpec.sol\";\r\nimport \"./interfaces/IStdReference.sol\";\r\nimport \"./libs/SafeMath.sol\";\r\nimport \"./libs/Math.sol\";\r\n\r\ncontract TokenChopStable is IBEP20, ITokenChopToken {\r\n    using SafeMath for uint256;\r\n    mapping(address => uint256) public override balanceOf;\r\n    mapping(address => mapping(address => uint256)) public override allowance;\r\n    mapping(string => string) public symbolLookup;\r\n    address[] private _balanceKeys;\r\n    uint private _balanceKeysLength;\r\n\r\n    string  public override name;\r\n    string  public override symbol;\r\n    string  public baseSymbol;\r\n    string  public quoteSymbol;\r\n    string  public constant poolType = \"Stable\";\r\n    uint8   public constant typeId = 0;\r\n    address public base;\r\n    address public quote;\r\n    address public sister;\r\n    address public factory;\r\n    uint256 public previousPrice;\r\n    uint256 public price;\r\n    uint8   public constant priceDecimals = 18;\r\n    uint256 public override totalSupply;\r\n    address public bandProtocol;\r\n\r\n    event CollateralTransfer(address indexed from, address indexed to, uint256 value);\r\n    event CollateralCapitalize(uint256 prevTotalSupply, uint256 newTotalSupply);\r\n    event InsufficientCollateral(uint256 required, uint256 obtained);\r\n    event PriceUpdate(uint256 oldPrice, uint256 newPrice);\r\n\r\n    bytes4 private constant TRANSFER_SELECTOR = bytes4(keccak256(bytes('transfer(address,uint256)')));\r\n    bytes4 private constant TRANSFER_FROM_SELECTOR = bytes4(keccak256(bytes('transferFrom(address,address,uint256)')));\r\n    bool private _updateCollateralInProgress = false;\r\n\r\n    constructor() {\r\n        factory = msg.sender;\r\n    }\r\n\r\n    modifier onlyFactory() {\r\n        require(msg.sender == factory, 'TokenChop: FORBIDDEN');\r\n        _;\r\n    }\r\n\r\n    modifier onlySister() {\r\n        require(msg.sender == sister, 'TokenChop: FORBIDDEN');\r\n        _;\r\n    }\r\n\r\n    function initialize(address _base, address _quote, address _sister) external override onlyFactory {\r\n        bandProtocol = 0xDA7a001b254CD22e46d3eAB04d937489c93174C3;\r\n        base = _base;\r\n        quote = _quote;\r\n        sister = _sister;\r\n        symbolLookup[\"BUSD\"] = \"USD\";\r\n        symbolLookup[\"ETH\"] = \"ETH\";\r\n        symbolLookup[\"BTCB\"] = \"BTC\";\r\n        symbolLookup[\"XRP\"] = \"XRP\";\r\n        symbolLookup[\"DAI\"] = \"DAI\";\r\n        symbolLookup[\"WBNB\"] = \"BNB\";\r\n        baseSymbol = IBEP20(base).symbol();\r\n        quoteSymbol = IBEP20(quote).symbol();\r\n        name = string(abi.encodePacked(bytes(\"TokenChop: \"), bytes(baseSymbol), bytes(\"/\"), bytes(quoteSymbol), bytes(\" Stable\")));\r\n        symbol = string(abi.encodePacked(bytes(baseSymbol), bytes(quoteSymbol), bytes('0')));\r\n    }\r\n\r\n    function setBandAddress(address _bandAddr) external onlyFactory {\r\n        bandProtocol = _bandAddr;\r\n    }\r\n\r\n    function getOwner() external override view returns (address) {\r\n        return factory;\r\n    }\r\n\r\n    function decimals() external override pure returns (uint8) {\r\n        return 18;\r\n    }\r\n\r\n    function collateral() external view returns (uint256) {\r\n        return IBEP20(base).balanceOf(address(this));\r\n    }\r\n\r\n    function transfer(address _recipient, uint256 _amount) external override returns (bool) {\r\n        _transfer(msg.sender, _recipient, _amount);\r\n        return true;\r\n    }\r\n\r\n    function approve(address _spender, uint256 _amount) external override returns (bool) {\r\n        _approve(msg.sender, _spender, _amount);\r\n        return true;\r\n    }\r\n\r\n    function transferFrom(address _sender, address _recipient, uint256 _amount) external override returns (bool) {\r\n        _transfer(_sender, _recipient, _amount);\r\n        require(allowance[_sender][msg.sender] >= _amount, \"BEP20: transfer amount exceeds allowance\");\r\n        _approve(_sender, msg.sender, allowance[_sender][msg.sender] - _amount);\r\n        return true;\r\n    }\r\n\r\n    function _transfer(address _sender, address _recipient, uint256 _amount) internal {\r\n        require(_sender != address(0), \"BEP20: transfer from the zero address\");\r\n        require(_recipient != address(0), \"BEP20: transfer to the zero address\");\r\n        require(balanceOf[_sender] >= _amount, \"BEP20: transfer amount exceeds balance\");\r\n        \r\n        balanceOf[_sender] = balanceOf[_sender].sub(_amount);\r\n        balanceOf[_recipient] = balanceOf[_recipient].add(_amount);\r\n        _addToBalanceKeys(_recipient);        \r\n\r\n        emit Transfer(_sender, _recipient, _amount);\r\n    }\r\n\r\n    function _approve(address _owner, address _spender, uint256 _amount) internal {\r\n        require(_owner != address(0), \"BEP20: approve from the zero address\");\r\n        require(_spender != address(0), \"BEP20: approve to the zero address\");\r\n\r\n        allowance[_owner][_spender] = _amount;\r\n        emit Approval(_owner, _spender, _amount);\r\n    }\r\n\r\n    function _addToBalanceKeys(address _key) internal {\r\n        for (uint i = 0; i < _balanceKeysLength; i++) {\r\n            if (_balanceKeys[i] == _key) return;\r\n        }\r\n        _balanceKeys.push(_key);\r\n        _balanceKeysLength++;\r\n    }\r\n\r\n    function updatePrice() internal {\r\n        string memory baseToUse = symbolLookup[baseSymbol];\r\n        string memory quoteToUse = symbolLookup[quoteSymbol];\r\n        IStdReference bandProtocolContract = IStdReference(bandProtocol);\r\n        IStdReference.ReferenceData memory data = bandProtocolContract.getReferenceData(baseToUse, quoteToUse);\r\n        uint256 newPrice = data.rate;\r\n        require(newPrice != 0, \"TokenChop: Price update Failed\");\r\n        emit PriceUpdate(price, newPrice);\r\n        previousPrice = price;\r\n        price = newPrice;\r\n    }\r\n\r\n    function updateCollateral() internal {\r\n        require(!_updateCollateralInProgress, \"Update collateral in progress\");\r\n        _updateCollateralInProgress = true;\r\n        uint256 _baseTotalSupply = Math.quoteToBase(price, totalSupply);\r\n        uint256 _collateral = IBEP20(base).balanceOf(address(this));\r\n        if (_collateral == _baseTotalSupply) {\r\n            _updateCollateralInProgress = false;\r\n            return;\r\n        }\r\n        if (_collateral < _baseTotalSupply) {\r\n            uint256 _baseRequired = _baseTotalSupply.sub(_collateral);\r\n            uint256 _baseObtained = TokenChopSpec(sister).sendCollateralToSister(_baseRequired);\r\n            if (_baseObtained < _baseRequired) {\r\n                uint256 _shortfall = Math.baseToQuote(price, _baseRequired.sub(_baseObtained));\r\n                uint newTotalSupply = totalSupply.sub(_shortfall);\r\n                emit InsufficientCollateral(_baseRequired, _baseObtained);\r\n                rebalanceAccounts(totalSupply, newTotalSupply);\r\n                totalSupply = newTotalSupply;\r\n            }\r\n        } else {\r\n            if (TokenChopSpec(sister).collateral() == 0) { // Nothing in sister contract add collateral to totalSupply\r\n                uint newTotalSupply = Math.baseToQuote(price, _collateral);\r\n                emit CollateralCapitalize(totalSupply, newTotalSupply);\r\n                rebalanceAccounts(totalSupply, newTotalSupply);\r\n                totalSupply = newTotalSupply;                \r\n            } else {\r\n                uint256 _surplus = _collateral.sub(_baseTotalSupply);                \r\n                sendStableCollateralToSpec(_surplus);\r\n            }\r\n        }\r\n        _updateCollateralInProgress = false;\r\n    }\r\n\r\n    function rebalanceAccounts(uint256 _prevTotalSupply, uint256 _newTotalSupply) internal {\r\n        for (uint256 i = 0; i < _balanceKeysLength; i++) {\r\n            address key = _balanceKeys[i];\r\n            balanceOf[key] = Math.mulDiv(balanceOf[key], _newTotalSupply, _prevTotalSupply);\r\n        }\r\n    }\r\n\r\n    function sendStableCollateralToSpec(uint256 _baseAmount) internal {\r\n        _safeTransfer(base, sister, _baseAmount);\r\n        emit CollateralTransfer(address(this), sister, _baseAmount);\r\n    }\r\n\r\n    function mintAtBaseAmount(uint256 baseAmount) public returns (bool) {\r\n        updatePrice();\r\n        updateCollateral();\r\n        _safeTransferFrom(base, msg.sender, address(this), baseAmount);\r\n        uint256 quoteAmount = Math.baseToQuote(price, baseAmount);\r\n        balanceOf[msg.sender] = balanceOf[msg.sender].add(quoteAmount);\r\n        _addToBalanceKeys(msg.sender);        \r\n        totalSupply = totalSupply.add(quoteAmount);\r\n        emit Transfer(address(0), msg.sender, quoteAmount);\r\n        emit CollateralTransfer(msg.sender, address(this), baseAmount);\r\n        return true;\r\n    }\r\n\r\n    function burn(uint256 quoteAmount) public returns (bool) {\r\n        updatePrice();\r\n        updateCollateral();\r\n        require(quoteAmount <= balanceOf[msg.sender], \"Bad quote amount\");\r\n        balanceOf[msg.sender] = balanceOf[msg.sender].sub(quoteAmount);\r\n        totalSupply = totalSupply.sub(quoteAmount);\r\n        uint256 baseAmount = Math.quoteToBase(price, quoteAmount);\r\n        _safeTransfer(base, msg.sender, baseAmount);\r\n        emit Transfer(msg.sender, address(0), quoteAmount);\r\n        emit CollateralTransfer(address(this), msg.sender, baseAmount);\r\n        return true;\r\n    }\r\n\r\n    function refresh() public {\r\n        updatePrice();\r\n        updateCollateral();\r\n    }\r\n\r\n    function _safeTransfer(address _token, address _to, uint _value) private {\r\n        (bool _success, bytes memory _data) = _token.call(abi.encodeWithSelector(TRANSFER_SELECTOR, _to, _value));\r\n        require(_success && (_data.length == 0 || abi.decode(_data, (bool))), 'TokenChop: TRANSFER_FAILED');\r\n    }\r\n\r\n    function _safeTransferFrom(address _token, address _sender, address _recipient, uint _value) private {\r\n        (bool _success, bytes memory _data) = _token.call(abi.encodeWithSelector(TRANSFER_FROM_SELECTOR, _sender, _recipient, _value));\r\n        require(_success && (_data.length == 0 || abi.decode(_data, (bool))), 'TokenChop: TRANSFER_FROM_FAILED');\r\n    }\r\n\r\n}",
  "sourcePath": "C:\\Repos\\tokenchop\\contracts\\TokenChopStable.sol",
  "compiler": {
    "name": "solc",
    "version": "0.7.6+commit.7338295f.Emscripten.clang"
  },
  "schemaVersion": "3.3.3",
  "updatedAt": "2021-02-14T03:42:44.231Z",
  "devdoc": {
    "kind": "dev",
    "methods": {
      "decimals()": {
        "details": "Returns the token decimals."
      },
      "getOwner()": {
        "details": "Returns the bep token owner."
      }
    },
    "stateVariables": {
      "allowance": {
        "details": "Returns the remaining number of tokens that `spender` will be allowed to spend on behalf of `owner` through {transferFrom}. This is zero by default. This value changes when {approve} or {transferFrom} are called."
      },
      "balanceOf": {
        "details": "Returns the amount of tokens owned by `account`."
      },
      "name": {
        "details": "Returns the token name."
      },
      "symbol": {
        "details": "Returns the token symbol."
      },
      "totalSupply": {
        "details": "Returns the amount of tokens in existence."
      }
    },
    "version": 1
  },
  "userdoc": {
    "kind": "user",
    "methods": {},
    "version": 1
  }
}