{
  "contractName": "TokenChopStable",
  "abi": [
    {
      "inputs": [],
      "stateMutability": "nonpayable",
      "type": "constructor"
    },
    {
      "anonymous": false,
      "inputs": [
        {
          "indexed": true,
          "internalType": "address",
          "name": "owner",
          "type": "address"
        },
        {
          "indexed": true,
          "internalType": "address",
          "name": "spender",
          "type": "address"
        },
        {
          "indexed": false,
          "internalType": "uint256",
          "name": "value",
          "type": "uint256"
        }
      ],
      "name": "Approval",
      "type": "event"
    },
    {
      "anonymous": false,
      "inputs": [
        {
          "indexed": true,
          "internalType": "address",
          "name": "from",
          "type": "address"
        },
        {
          "indexed": true,
          "internalType": "address",
          "name": "to",
          "type": "address"
        },
        {
          "indexed": false,
          "internalType": "uint256",
          "name": "value",
          "type": "uint256"
        }
      ],
      "name": "CollateralTransfer",
      "type": "event"
    },
    {
      "anonymous": false,
      "inputs": [
        {
          "indexed": false,
          "internalType": "uint256",
          "name": "required",
          "type": "uint256"
        },
        {
          "indexed": false,
          "internalType": "uint256",
          "name": "obtained",
          "type": "uint256"
        }
      ],
      "name": "InsufficientCollateral",
      "type": "event"
    },
    {
      "anonymous": false,
      "inputs": [
        {
          "indexed": false,
          "internalType": "uint256",
          "name": "oldPrice",
          "type": "uint256"
        },
        {
          "indexed": false,
          "internalType": "uint256",
          "name": "newPrice",
          "type": "uint256"
        }
      ],
      "name": "PriceUpdate",
      "type": "event"
    },
    {
      "anonymous": false,
      "inputs": [
        {
          "indexed": true,
          "internalType": "address",
          "name": "from",
          "type": "address"
        },
        {
          "indexed": true,
          "internalType": "address",
          "name": "to",
          "type": "address"
        },
        {
          "indexed": false,
          "internalType": "uint256",
          "name": "value",
          "type": "uint256"
        }
      ],
      "name": "Transfer",
      "type": "event"
    },
    {
      "inputs": [
        {
          "internalType": "address",
          "name": "",
          "type": "address"
        },
        {
          "internalType": "address",
          "name": "",
          "type": "address"
        }
      ],
      "name": "allowance",
      "outputs": [
        {
          "internalType": "uint256",
          "name": "",
          "type": "uint256"
        }
      ],
      "stateMutability": "view",
      "type": "function"
    },
    {
      "inputs": [
        {
          "internalType": "address",
          "name": "",
          "type": "address"
        }
      ],
      "name": "balanceOf",
      "outputs": [
        {
          "internalType": "uint256",
          "name": "",
          "type": "uint256"
        }
      ],
      "stateMutability": "view",
      "type": "function"
    },
    {
      "inputs": [],
      "name": "bandProtocol",
      "outputs": [
        {
          "internalType": "address",
          "name": "",
          "type": "address"
        }
      ],
      "stateMutability": "view",
      "type": "function"
    },
    {
      "inputs": [],
      "name": "base",
      "outputs": [
        {
          "internalType": "address",
          "name": "",
          "type": "address"
        }
      ],
      "stateMutability": "view",
      "type": "function"
    },
    {
      "inputs": [],
      "name": "baseSymbol",
      "outputs": [
        {
          "internalType": "string",
          "name": "",
          "type": "string"
        }
      ],
      "stateMutability": "view",
      "type": "function"
    },
    {
      "inputs": [],
      "name": "collateral",
      "outputs": [
        {
          "internalType": "uint256",
          "name": "",
          "type": "uint256"
        }
      ],
      "stateMutability": "view",
      "type": "function"
    },
    {
      "inputs": [],
      "name": "factory",
      "outputs": [
        {
          "internalType": "address",
          "name": "",
          "type": "address"
        }
      ],
      "stateMutability": "view",
      "type": "function"
    },
    {
      "inputs": [],
      "name": "name",
      "outputs": [
        {
          "internalType": "string",
          "name": "",
          "type": "string"
        }
      ],
      "stateMutability": "view",
      "type": "function"
    },
    {
      "inputs": [],
      "name": "poolType",
      "outputs": [
        {
          "internalType": "string",
          "name": "",
          "type": "string"
        }
      ],
      "stateMutability": "view",
      "type": "function"
    },
    {
      "inputs": [],
      "name": "previousPrice",
      "outputs": [
        {
          "internalType": "uint256",
          "name": "",
          "type": "uint256"
        }
      ],
      "stateMutability": "view",
      "type": "function"
    },
    {
      "inputs": [],
      "name": "price",
      "outputs": [
        {
          "internalType": "uint256",
          "name": "",
          "type": "uint256"
        }
      ],
      "stateMutability": "view",
      "type": "function"
    },
    {
      "inputs": [],
      "name": "priceDecimals",
      "outputs": [
        {
          "internalType": "uint8",
          "name": "",
          "type": "uint8"
        }
      ],
      "stateMutability": "view",
      "type": "function"
    },
    {
      "inputs": [],
      "name": "quote",
      "outputs": [
        {
          "internalType": "address",
          "name": "",
          "type": "address"
        }
      ],
      "stateMutability": "view",
      "type": "function"
    },
    {
      "inputs": [],
      "name": "quoteSymbol",
      "outputs": [
        {
          "internalType": "string",
          "name": "",
          "type": "string"
        }
      ],
      "stateMutability": "view",
      "type": "function"
    },
    {
      "inputs": [],
      "name": "sister",
      "outputs": [
        {
          "internalType": "address",
          "name": "",
          "type": "address"
        }
      ],
      "stateMutability": "view",
      "type": "function"
    },
    {
      "inputs": [],
      "name": "symbol",
      "outputs": [
        {
          "internalType": "string",
          "name": "",
          "type": "string"
        }
      ],
      "stateMutability": "view",
      "type": "function"
    },
    {
      "inputs": [],
      "name": "totalSupply",
      "outputs": [
        {
          "internalType": "uint256",
          "name": "",
          "type": "uint256"
        }
      ],
      "stateMutability": "view",
      "type": "function"
    },
    {
      "inputs": [],
      "name": "typeId",
      "outputs": [
        {
          "internalType": "uint8",
          "name": "",
          "type": "uint8"
        }
      ],
      "stateMutability": "view",
      "type": "function"
    },
    {
      "inputs": [
        {
          "internalType": "address",
          "name": "_base",
          "type": "address"
        },
        {
          "internalType": "address",
          "name": "_quote",
          "type": "address"
        },
        {
          "internalType": "address",
          "name": "_sister",
          "type": "address"
        }
      ],
      "name": "initialize",
      "outputs": [],
      "stateMutability": "nonpayable",
      "type": "function"
    },
    {
      "inputs": [
        {
          "internalType": "address",
          "name": "_bandAddr",
          "type": "address"
        }
      ],
      "name": "setBandAddress",
      "outputs": [],
      "stateMutability": "nonpayable",
      "type": "function"
    },
    {
      "inputs": [],
      "name": "getOwner",
      "outputs": [
        {
          "internalType": "address",
          "name": "",
          "type": "address"
        }
      ],
      "stateMutability": "view",
      "type": "function"
    },
    {
      "inputs": [],
      "name": "decimals",
      "outputs": [
        {
          "internalType": "uint8",
          "name": "",
          "type": "uint8"
        }
      ],
      "stateMutability": "pure",
      "type": "function"
    },
    {
      "inputs": [
        {
          "internalType": "address",
          "name": "_recipient",
          "type": "address"
        },
        {
          "internalType": "uint256",
          "name": "_amount",
          "type": "uint256"
        }
      ],
      "name": "transfer",
      "outputs": [
        {
          "internalType": "bool",
          "name": "",
          "type": "bool"
        }
      ],
      "stateMutability": "nonpayable",
      "type": "function"
    },
    {
      "inputs": [
        {
          "internalType": "address",
          "name": "_spender",
          "type": "address"
        },
        {
          "internalType": "uint256",
          "name": "_amount",
          "type": "uint256"
        }
      ],
      "name": "approve",
      "outputs": [
        {
          "internalType": "bool",
          "name": "",
          "type": "bool"
        }
      ],
      "stateMutability": "nonpayable",
      "type": "function"
    },
    {
      "inputs": [
        {
          "internalType": "address",
          "name": "_sender",
          "type": "address"
        },
        {
          "internalType": "address",
          "name": "_recipient",
          "type": "address"
        },
        {
          "internalType": "uint256",
          "name": "_amount",
          "type": "uint256"
        }
      ],
      "name": "transferFrom",
      "outputs": [
        {
          "internalType": "bool",
          "name": "",
          "type": "bool"
        }
      ],
      "stateMutability": "nonpayable",
      "type": "function"
    },
    {
      "inputs": [],
      "name": "updatePriceBySister",
      "outputs": [],
      "stateMutability": "nonpayable",
      "type": "function"
    },
    {
      "inputs": [
        {
          "internalType": "uint256",
          "name": "baseAmount",
          "type": "uint256"
        }
      ],
      "name": "mintAtBaseAmount",
      "outputs": [
        {
          "internalType": "bool",
          "name": "",
          "type": "bool"
        }
      ],
      "stateMutability": "nonpayable",
      "type": "function"
    },
    {
      "inputs": [
        {
          "internalType": "uint256",
          "name": "quoteAmount",
          "type": "uint256"
        }
      ],
      "name": "burn",
      "outputs": [
        {
          "internalType": "bool",
          "name": "",
          "type": "bool"
        }
      ],
      "stateMutability": "nonpayable",
      "type": "function"
    },
    {
      "inputs": [],
      "name": "refresh",
      "outputs": [],
      "stateMutability": "nonpayable",
      "type": "function"
    }
  ],
  "bytecode": "0x60806040526000600e60146101000a81548160ff02191690831515021790555034801561002b57600080fd5b5033600960006101000a81548173ffffffffffffffffffffffffffffffffffffffff021916908373ffffffffffffffffffffffffffffffffffffffff1602179055506137e98061007c6000396000f3fe608060405234801561001057600080fd5b50600436106101cf5760003560e01c8063893d20e811610104578063a9ed003d116100a2578063cd0b4aed11610071578063cd0b4aed14610504578063d8dfeb4514610534578063dd62ed3e14610552578063f8ac93e814610582576101cf565b8063a9ed003d1461048e578063b1dd61b6146104ac578063c0c53b8b146104ca578063c45a0155146104e6576101cf565b806395d89b41116100de57806395d89b4114610404578063999b93af14610422578063a035b1fe14610440578063a9059cbb1461045e576101cf565b8063893d20e8146103aa5780638f940f63146103c8578063914e245a146103e6576101cf565b806342966c681161017157806365f4fea71161014b57806365f4fea7146103345780636fea6b1c1461033e57806370a082311461035c57806380583be71461038c576101cf565b806342966c68146102c85780635001f3b5146102f857806360d6df6e14610316576101cf565b806318160ddd116101ad57806318160ddd1461024057806323b872dd1461025e5780632e4e3d111461028e578063313ce567146102aa576101cf565b806305300b28146101d457806306fdde03146101f2578063095ea7b314610210575b600080fd5b6101dc61058c565b6040516101e991906135cb565b60405180910390f35b6101fa610591565b604051610207919061338e565b60405180910390f35b61022a60048036038101906102259190612a63565b61062f565b6040516102379190613373565b60405180910390f35b610248610646565b6040516102559190613587565b60405180910390f35b61027860048036038101906102739190612a14565b61064c565b6040516102859190613373565b60405180910390f35b6102a860048036038101906102a39190612960565b6107ac565b005b6102b2610880565b6040516102bf91906135cb565b60405180910390f35b6102e260048036038101906102dd9190612b32565b610889565b6040516102ef9190613373565b60405180910390f35b610300610b72565b60405161030d91906132f8565b60405180910390f35b61031e610b98565b60405161032b919061338e565b60405180910390f35b61033c610c36565b005b610346610cd0565b60405161035391906132f8565b60405180910390f35b61037660048036038101906103719190612960565b610cf6565b6040516103839190613587565b60405180910390f35b610394610d0e565b6040516103a1919061338e565b60405180910390f35b6103b2610dac565b6040516103bf91906132f8565b60405180910390f35b6103d0610dd6565b6040516103dd91906135cb565b60405180910390f35b6103ee610ddb565b6040516103fb9190613587565b60405180910390f35b61040c610de1565b604051610419919061338e565b60405180910390f35b61042a610e7f565b60405161043791906132f8565b60405180910390f35b610448610ea5565b6040516104559190613587565b60405180910390f35b61047860048036038101906104739190612a63565b610eab565b6040516104859190613373565b60405180910390f35b610496610ec2565b6040516104a391906132f8565b60405180910390f35b6104b4610ee8565b6040516104c1919061338e565b60405180910390f35b6104e460048036038101906104df91906129c5565b610f21565b005b6104ee6114d3565b6040516104fb91906132f8565b60405180910390f35b61051e60048036038101906105199190612b32565b6114f9565b60405161052b9190613373565b60405180910390f35b61053c6117be565b6040516105499190613587565b60405180910390f35b61056c60048036038101906105679190612989565b6117c4565b6040516105799190613587565b60405180910390f35b61058a6117e9565b005b601281565b60028054600181600116156101000203166002900480601f0160208091040260200160405190810160405280929190818152602001828054600181600116156101000203166002900480156106275780601f106105fc57610100808354040283529160200191610627565b820191906000526020600020905b81548152906001019060200180831161060a57829003601f168201915b505050505081565b600061063c3384846117fb565b6001905092915050565b600d5481565b60006106598484846119c6565b81600160008673ffffffffffffffffffffffffffffffffffffffff1673ffffffffffffffffffffffffffffffffffffffff16815260200190815260200160002060003373ffffffffffffffffffffffffffffffffffffffff1673ffffffffffffffffffffffffffffffffffffffff168152602001908152602001600020541015610718576040517f08c379a000000000000000000000000000000000000000000000000000000000815260040161070f906134c7565b60405180910390fd5b6107a1843384600160008973ffffffffffffffffffffffffffffffffffffffff1673ffffffffffffffffffffffffffffffffffffffff16815260200190815260200160002060003373ffffffffffffffffffffffffffffffffffffffff1673ffffffffffffffffffffffffffffffffffffffff16815260200190815260200160002054036117fb565b600190509392505050565b600960009054906101000a900473ffffffffffffffffffffffffffffffffffffffff1673ffffffffffffffffffffffffffffffffffffffff163373ffffffffffffffffffffffffffffffffffffffff161461083c576040517f08c379a000000000000000000000000000000000000000000000000000000000815260040161083390613527565b60405180910390fd5b80600e60006101000a81548173ffffffffffffffffffffffffffffffffffffffff021916908373ffffffffffffffffffffffffffffffffffffffff16021790555050565b60006012905090565b6000610893611cb7565b61089b611e0c565b6000803373ffffffffffffffffffffffffffffffffffffffff1673ffffffffffffffffffffffffffffffffffffffff1681526020019081526020016000205482111561091c576040517f08c379a0000000000000000000000000000000000000000000000000000000008152600401610913906133e7565b60405180910390fd5b61096d826000803373ffffffffffffffffffffffffffffffffffffffff1673ffffffffffffffffffffffffffffffffffffffff1681526020019081526020016000205461204d90919063ffffffff16565b6000803373ffffffffffffffffffffffffffffffffffffffff1673ffffffffffffffffffffffffffffffffffffffff1681526020019081526020016000208190555060006109bd600c548461206d565b90506109ec600660009054906101000a900473ffffffffffffffffffffffffffffffffffffffff163383612100565b600660009054906101000a900473ffffffffffffffffffffffffffffffffffffffff1673ffffffffffffffffffffffffffffffffffffffff166370a08231306040518263ffffffff1660e01b8152600401610a4791906132f8565b60206040518083038186803b158015610a5f57600080fd5b505afa158015610a73573d6000803e3d6000fd5b505050506040513d601f19601f82011682018060405250810190610a979190612b5b565b600a81905550600073ffffffffffffffffffffffffffffffffffffffff163373ffffffffffffffffffffffffffffffffffffffff167fddf252ad1be2c89b69c2b068fc378daa952ba7f163c4a11628f55a4df523b3ef85604051610afb9190613587565b60405180910390a33373ffffffffffffffffffffffffffffffffffffffff163073ffffffffffffffffffffffffffffffffffffffff167f14395d6fb6ac3870af345d12d989b966ccf04dcdd9e02b95722d12dca39eb4b083604051610b609190613587565b60405180910390a36001915050919050565b600660009054906101000a900473ffffffffffffffffffffffffffffffffffffffff1681565b60058054600181600116156101000203166002900480601f016020809104026020016040519081016040528092919081815260200182805460018160011615610100020316600290048015610c2e5780601f10610c0357610100808354040283529160200191610c2e565b820191906000526020600020905b815481529060010190602001808311610c1157829003601f168201915b505050505081565b600860009054906101000a900473ffffffffffffffffffffffffffffffffffffffff1673ffffffffffffffffffffffffffffffffffffffff163373ffffffffffffffffffffffffffffffffffffffff1614610cc6576040517f08c379a0000000000000000000000000000000000000000000000000000000008152600401610cbd90613527565b60405180910390fd5b610cce611cb7565b565b600e60009054906101000a900473ffffffffffffffffffffffffffffffffffffffff1681565b60006020528060005260406000206000915090505481565b60048054600181600116156101000203166002900480601f016020809104026020016040519081016040528092919081815260200182805460018160011615610100020316600290048015610da45780601f10610d7957610100808354040283529160200191610da4565b820191906000526020600020905b815481529060010190602001808311610d8757829003601f168201915b505050505081565b6000600960009054906101000a900473ffffffffffffffffffffffffffffffffffffffff16905090565b600081565b600b5481565b60038054600181600116156101000203166002900480601f016020809104026020016040519081016040528092919081815260200182805460018160011615610100020316600290048015610e775780601f10610e4c57610100808354040283529160200191610e77565b820191906000526020600020905b815481529060010190602001808311610e5a57829003601f168201915b505050505081565b600760009054906101000a900473ffffffffffffffffffffffffffffffffffffffff1681565b600c5481565b6000610eb83384846119c6565b6001905092915050565b600860009054906101000a900473ffffffffffffffffffffffffffffffffffffffff1681565b6040518060400160405280600681526020017f537461626c65000000000000000000000000000000000000000000000000000081525081565b600960009054906101000a900473ffffffffffffffffffffffffffffffffffffffff1673ffffffffffffffffffffffffffffffffffffffff163373ffffffffffffffffffffffffffffffffffffffff1614610fb1576040517f08c379a0000000000000000000000000000000000000000000000000000000008152600401610fa890613527565b60405180910390fd5b73da7a001b254cd22e46d3eab04d937489c93174c3600e60006101000a81548173ffffffffffffffffffffffffffffffffffffffff021916908373ffffffffffffffffffffffffffffffffffffffff16021790555082600660006101000a81548173ffffffffffffffffffffffffffffffffffffffff021916908373ffffffffffffffffffffffffffffffffffffffff16021790555081600760006101000a81548173ffffffffffffffffffffffffffffffffffffffff021916908373ffffffffffffffffffffffffffffffffffffffff16021790555080600860006101000a81548173ffffffffffffffffffffffffffffffffffffffff021916908373ffffffffffffffffffffffffffffffffffffffff160217905550600660009054906101000a900473ffffffffffffffffffffffffffffffffffffffff1673ffffffffffffffffffffffffffffffffffffffff166395d89b416040518163ffffffff1660e01b815260040160006040518083038186803b15801561113157600080fd5b505afa158015611145573d6000803e3d6000fd5b505050506040513d6000823e3d601f19601f8201168201806040525081019061116e9190612ac8565b60049080519060200190611183929190612799565b50604051602001611193906132e3565b6040516020818303038152906040528051906020012060046040516020016111bb91906132cc565b60405160208183030381529060405280519060200120146112765760048054600181600116156101000203166002900480601f01602080910402602001604051908101604052809291908181526020018280546001816001161561010002031660029004801561126c5780601f106112415761010080835404028352916020019161126c565b820191906000526020600020905b81548152906001019060200180831161124f57829003601f168201915b50505050506112ad565b6040518060400160405280600381526020017f424e4200000000000000000000000000000000000000000000000000000000008152505b600490805190602001906112c2929190612799565b50600760009054906101000a900473ffffffffffffffffffffffffffffffffffffffff1673ffffffffffffffffffffffffffffffffffffffff166395d89b416040518163ffffffff1660e01b815260040160006040518083038186803b15801561132b57600080fd5b505afa15801561133f573d6000803e3d6000fd5b505050506040513d6000823e3d601f19601f820116820180604052508101906113689190612ac8565b6005908051906020019061137d929190612799565b506040518060400160405280600b81526020017f546f6b656e43686f703a2000000000000000000000000000000000000000000081525060046040518060400160405280600181526020017f2f0000000000000000000000000000000000000000000000000000000000000081525060056040518060400160405280600781526020017f20537461626c6500000000000000000000000000000000000000000000000000815250604051602001611438959493929190613250565b6040516020818303038152906040526002908051906020019061145c929190612799565b50600460056040518060400160405280600181526020017f30000000000000000000000000000000000000000000000000000000000000008152506040516020016114a99392919061329b565b604051602081830303815290604052600390805190602001906114cd929190612799565b50505050565b600960009054906101000a900473ffffffffffffffffffffffffffffffffffffffff1681565b6000611503611cb7565b61150b611e0c565b611539600660009054906101000a900473ffffffffffffffffffffffffffffffffffffffff1633308561228a565b6000611547600c54846123fa565b905061159a816000803373ffffffffffffffffffffffffffffffffffffffff1673ffffffffffffffffffffffffffffffffffffffff1681526020019081526020016000205461241790919063ffffffff16565b6000803373ffffffffffffffffffffffffffffffffffffffff1673ffffffffffffffffffffffffffffffffffffffff168152602001908152602001600020819055506115f181600d5461241790919063ffffffff16565b600d81905550600660009054906101000a900473ffffffffffffffffffffffffffffffffffffffff1673ffffffffffffffffffffffffffffffffffffffff166370a08231306040518263ffffffff1660e01b815260040161165291906132f8565b60206040518083038186803b15801561166a57600080fd5b505afa15801561167e573d6000803e3d6000fd5b505050506040513d601f19601f820116820180604052508101906116a29190612b5b565b600a8190555060006116e9576040517f08c379a00000000000000000000000000000000000000000000000000000000081526004016116e090613407565b60405180910390fd5b3373ffffffffffffffffffffffffffffffffffffffff16600073ffffffffffffffffffffffffffffffffffffffff167fddf252ad1be2c89b69c2b068fc378daa952ba7f163c4a11628f55a4df523b3ef836040516117479190613587565b60405180910390a33073ffffffffffffffffffffffffffffffffffffffff163373ffffffffffffffffffffffffffffffffffffffff167f14395d6fb6ac3870af345d12d989b966ccf04dcdd9e02b95722d12dca39eb4b0856040516117ac9190613587565b60405180910390a36001915050919050565b600a5481565b6001602052816000526040600020602052806000526040600020600091509150505481565b6117f1611cb7565b6117f9611e0c565b565b600073ffffffffffffffffffffffffffffffffffffffff168373ffffffffffffffffffffffffffffffffffffffff16141561186b576040517f08c379a000000000000000000000000000000000000000000000000000000000815260040161186290613447565b60405180910390fd5b600073ffffffffffffffffffffffffffffffffffffffff168273ffffffffffffffffffffffffffffffffffffffff1614156118db576040517f08c379a00000000000000000000000000000000000000000000000000000000081526004016118d290613567565b60405180910390fd5b80600160008573ffffffffffffffffffffffffffffffffffffffff1673ffffffffffffffffffffffffffffffffffffffff16815260200190815260200160002060008473ffffffffffffffffffffffffffffffffffffffff1673ffffffffffffffffffffffffffffffffffffffff168152602001908152602001600020819055508173ffffffffffffffffffffffffffffffffffffffff168373ffffffffffffffffffffffffffffffffffffffff167f8c5be1e5ebec7d5bd14f71427d1e84f3dd0314c0f7b2291e5b200ac8c7c3b925836040516119b99190613587565b60405180910390a3505050565b600073ffffffffffffffffffffffffffffffffffffffff168373ffffffffffffffffffffffffffffffffffffffff161415611a36576040517f08c379a0000000000000000000000000000000000000000000000000000000008152600401611a2d90613427565b60405180910390fd5b600073ffffffffffffffffffffffffffffffffffffffff168273ffffffffffffffffffffffffffffffffffffffff161415611aa6576040517f08c379a0000000000000000000000000000000000000000000000000000000008152600401611a9d90613507565b60405180910390fd5b806000808573ffffffffffffffffffffffffffffffffffffffff1673ffffffffffffffffffffffffffffffffffffffff168152602001908152602001600020541015611b27576040517f08c379a0000000000000000000000000000000000000000000000000000000008152600401611b1e906134e7565b60405180910390fd5b611b78816000808673ffffffffffffffffffffffffffffffffffffffff1673ffffffffffffffffffffffffffffffffffffffff1681526020019081526020016000205461204d90919063ffffffff16565b6000808573ffffffffffffffffffffffffffffffffffffffff1673ffffffffffffffffffffffffffffffffffffffff16815260200190815260200160002081905550611c0b816000808573ffffffffffffffffffffffffffffffffffffffff1673ffffffffffffffffffffffffffffffffffffffff1681526020019081526020016000205461241790919063ffffffff16565b6000808473ffffffffffffffffffffffffffffffffffffffff1673ffffffffffffffffffffffffffffffffffffffff168152602001908152602001600020819055508173ffffffffffffffffffffffffffffffffffffffff168373ffffffffffffffffffffffffffffffffffffffff167fddf252ad1be2c89b69c2b068fc378daa952ba7f163c4a11628f55a4df523b3ef83604051611caa9190613587565b60405180910390a3505050565b6000600e60009054906101000a900473ffffffffffffffffffffffffffffffffffffffff16905060008173ffffffffffffffffffffffffffffffffffffffff166365555bcc600460056040518363ffffffff1660e01b8152600401611d1d9291906133b0565b60606040518083038186803b158015611d3557600080fd5b505afa158015611d49573d6000803e3d6000fd5b505050506040513d601f19601f82011682018060405250810190611d6d9190612b09565b90506000816000015190506000811415611dbc576040517f08c379a0000000000000000000000000000000000000000000000000000000008152600401611db390613547565b60405180910390fd5b7f92664190cca12aca9cd5309d87194bdda75bb51362d71c06e1a6f75c7c765711600c5482604051611def9291906135a2565b60405180910390a1600c54600b8190555080600c81905550505050565b600e60149054906101000a900460ff1615611e5c576040517f08c379a0000000000000000000000000000000000000000000000000000000008152600401611e5390613487565b60405180910390fd5b6001600e60146101000a81548160ff0219169083151502179055506000611e87600c54600a546123fa565b9050600d54811415611eb4576000600e60146101000a81548160ff0219169083151502179055505061204b565b600d54811015611f59576000611ed582600d5461204d90919063ffffffff16565b90506000611ee282612436565b905081811015611f52576000611f1582611f0785600d5461204d90919063ffffffff16565b61241790919063ffffffff16565b90507fb07e3bc4c23a2d5a3367eec63320a439a69fa5b14b5619ba643e23b3ab6ef8058383604051611f489291906135a2565b60405180910390a1505b5050611f7d565b6000611f70600d548361204d90919063ffffffff16565b9050611f7b81612513565b505b600660009054906101000a900473ffffffffffffffffffffffffffffffffffffffff1673ffffffffffffffffffffffffffffffffffffffff166370a08231306040518263ffffffff1660e01b8152600401611fd891906132f8565b60206040518083038186803b158015611ff057600080fd5b505afa158015612004573d6000803e3d6000fd5b505050506040513d601f19601f820116820180604052508101906120289190612b5b565b600a819055506000600e60146101000a81548160ff021916908315150217905550505b565b60008282111561205c57600080fd5b600082840390508091505092915050565b6000808314156120e5576040517f08c379a00000000000000000000000000000000000000000000000000000000081526004018080602001828103825260138152602001807f7072696365206d757374206e6f7420626520300000000000000000000000000081525060200191505060405180910390fd5b6120f882670de0b6b3a7640000856125fd565b905092915050565b6000808473ffffffffffffffffffffffffffffffffffffffff166040518060400160405280601981526020017f7472616e7366657228616464726573732c75696e74323536290000000000000081525080519060200120858560405160240161216a92919061334a565b604051602081830303815290604052907bffffffffffffffffffffffffffffffffffffffffffffffffffffffff19166020820180517bffffffffffffffffffffffffffffffffffffffffffffffffffffffff83818316178352505050506040516121d49190613239565b6000604051808303816000865af19150503d8060008114612211576040519150601f19603f3d011682016040523d82523d6000602084013e612216565b606091505b509150915081801561224457506000815114806122435750808060200190518101906122429190612a9f565b5b5b612283576040517f08c379a000000000000000000000000000000000000000000000000000000000815260040161227a906134a7565b60405180910390fd5b5050505050565b6000808573ffffffffffffffffffffffffffffffffffffffff1660405180606001604052806025815260200161378f60259139805190602001208686866040516024016122d993929190613313565b604051602081830303815290604052907bffffffffffffffffffffffffffffffffffffffffffffffffffffffff19166020820180517bffffffffffffffffffffffffffffffffffffffffffffffffffffffff83818316178352505050506040516123439190613239565b6000604051808303816000865af19150503d8060008114612380576040519150601f19603f3d011682016040523d82523d6000602084013e612385565b606091505b50915091508180156123b357506000815114806123b25750808060200190518101906123b19190612a9f565b5b5b6123f2576040517f08c379a00000000000000000000000000000000000000000000000000000000081526004016123e990613467565b60405180910390fd5b505050505050565b600061240f8284670de0b6b3a76400006125fd565b905092915050565b60008082840190508381101561242c57600080fd5b8091505092915050565b600080612445600c548461206d565b90506000600860009054906101000a900473ffffffffffffffffffffffffffffffffffffffff16905060008173ffffffffffffffffffffffffffffffffffffffff1663f33ab2b8846040518263ffffffff1660e01b81526004016124a99190613587565b602060405180830381600087803b1580156124c357600080fd5b505af11580156124d7573d6000803e3d6000fd5b505050506040513d601f19601f820116820180604052508101906124fb9190612b5b565b9050612509600c54826123fa565b9350505050919050565b6000612521600c548361206d565b9050612572600660009054906101000a900473ffffffffffffffffffffffffffffffffffffffff16600860009054906101000a900473ffffffffffffffffffffffffffffffffffffffff1683612100565b600860009054906101000a900473ffffffffffffffffffffffffffffffffffffffff1673ffffffffffffffffffffffffffffffffffffffff163073ffffffffffffffffffffffffffffffffffffffff167f14395d6fb6ac3870af345d12d989b966ccf04dcdd9e02b95722d12dca39eb4b0836040516125f19190613587565b60405180910390a35050565b60007001000000000000000000000000000000008410612685576040517f08c379a000000000000000000000000000000000000000000000000000000000815260040180806020018281038252600f8152602001807f56616c756520746f6f206c61726765000000000000000000000000000000000081525060200191505060405180910390fd5b700100000000000000000000000000000000831061270b576040517f08c379a00000000000000000000000000000000000000000000000000000000081526004018080602001828103825260148152602001807f4e756d657261746f7220746f6f206c617267652000000000000000000000000081525060200191505060405180910390fd5b61273082612722858761273990919063ffffffff16565b61277390919063ffffffff16565b90509392505050565b60008083141561274c576000905061276d565b600082840290508284828161275d57fe5b041461276857600080fd5b809150505b92915050565b600080821161278157600080fd5b600082848161278c57fe5b0490508091505092915050565b828054600181600116156101000203166002900490600052602060002090601f0160209004810192826127cf5760008555612816565b82601f106127e857805160ff1916838001178555612816565b82800160010185558215612816579182015b828111156128155782518255916020019190600101906127fa565b5b5090506128239190612827565b5090565b5b80821115612840576000816000905550600101612828565b5090565b600061285761285284613617565b6135e6565b90508281526020810184848401111561286f57600080fd5b61287a848285613703565b509392505050565b60008135905061289181613749565b92915050565b6000815190506128a681613760565b92915050565b600082601f8301126128bd57600080fd5b81516128cd848260208601612844565b91505092915050565b6000606082840312156128e857600080fd5b6128f260606135e6565b905060006129028482850161294b565b60008301525060206129168482850161294b565b602083015250604061292a8482850161294b565b60408301525092915050565b60008135905061294581613777565b92915050565b60008151905061295a81613777565b92915050565b60006020828403121561297257600080fd5b600061298084828501612882565b91505092915050565b6000806040838503121561299c57600080fd5b60006129aa85828601612882565b92505060206129bb85828601612882565b9150509250929050565b6000806000606084860312156129da57600080fd5b60006129e886828701612882565b93505060206129f986828701612882565b9250506040612a0a86828701612882565b9150509250925092565b600080600060608486031215612a2957600080fd5b6000612a3786828701612882565b9350506020612a4886828701612882565b9250506040612a5986828701612936565b9150509250925092565b60008060408385031215612a7657600080fd5b6000612a8485828601612882565b9250506020612a9585828601612936565b9150509250929050565b600060208284031215612ab157600080fd5b6000612abf84828501612897565b91505092915050565b600060208284031215612ada57600080fd5b600082015167ffffffffffffffff811115612af457600080fd5b612b00848285016128ac565b91505092915050565b600060608284031215612b1b57600080fd5b6000612b29848285016128d6565b91505092915050565b600060208284031215612b4457600080fd5b6000612b5284828501612936565b91505092915050565b600060208284031215612b6d57600080fd5b6000612b7b8482850161294b565b91505092915050565b612b8d816136ae565b82525050565b612b9c816136c0565b82525050565b6000612bad82613671565b612bb78185613687565b9350612bc7818560208601613703565b80840191505092915050565b600081546001811660008114612bf05760018114612c1557612c59565b607f6002830416612c018187613687565b955060ff1983168652808601935050612c59565b60028204612c238187613687565b9550612c2e85613647565b60005b82811015612c5057815481890152600182019150602081019050612c31565b82880195505050505b505092915050565b6000612c6c8261367c565b612c768185613692565b9350612c86818560208601613703565b612c8f81613738565b840191505092915050565b600081546001811660008114612cb75760018114612cdd57612d21565b607f6002830416612cc88187613692565b955060ff198316865260208601935050612d21565b60028204612ceb8187613692565b9550612cf68561365c565b60005b82811015612d1857815481890152600182019150602081019050612cf9565b80880195505050505b505092915050565b600081546001811660008114612d465760018114612d6b57612daf565b607f6002830416612d5781876136a3565b955060ff1983168652808601935050612daf565b60028204612d7981876136a3565b9550612d848561365c565b60005b82811015612da657815481890152600182019150602081019050612d87565b82880195505050505b505092915050565b6000612dc4601083613692565b91507f4261642071756f746520616d6f756e74000000000000000000000000000000006000830152602082019050919050565b6000612e04600683613692565b91507f49746973323000000000000000000000000000000000000000000000000000006000830152602082019050919050565b6000612e44602583613692565b91507f42455032303a207472616e736665722066726f6d20746865207a65726f20616460008301527f64726573730000000000000000000000000000000000000000000000000000006020830152604082019050919050565b6000612eaa602483613692565b91507f42455032303a20617070726f76652066726f6d20746865207a65726f2061646460008301527f72657373000000000000000000000000000000000000000000000000000000006020830152604082019050919050565b6000612f10601f83613692565b91507f546f6b656e43686f703a205452414e534645525f46524f4d5f4641494c4544006000830152602082019050919050565b6000612f50601d83613692565b91507f55706461746520636f6c6c61746572616c20696e2070726f67726573730000006000830152602082019050919050565b6000612f90601a83613692565b91507f546f6b656e43686f703a205452414e534645525f4641494c45440000000000006000830152602082019050919050565b6000612fd0602883613692565b91507f42455032303a207472616e7366657220616d6f756e742065786365656473206160008301527f6c6c6f77616e63650000000000000000000000000000000000000000000000006020830152604082019050919050565b60006130366004836136a3565b91507f57424e42000000000000000000000000000000000000000000000000000000006000830152600482019050919050565b6000613076602683613692565b91507f42455032303a207472616e7366657220616d6f756e742065786365656473206260008301527f616c616e636500000000000000000000000000000000000000000000000000006020830152604082019050919050565b60006130dc602383613692565b91507f42455032303a207472616e7366657220746f20746865207a65726f206164647260008301527f65737300000000000000000000000000000000000000000000000000000000006020830152604082019050919050565b6000613142601483613692565b91507f546f6b656e43686f703a20464f5242494444454e0000000000000000000000006000830152602082019050919050565b6000613182601e83613692565b91507f546f6b656e43686f703a20507269636520757064617465204661696c656400006000830152602082019050919050565b60006131c2602283613692565b91507f42455032303a20617070726f766520746f20746865207a65726f20616464726560008301527f73730000000000000000000000000000000000000000000000000000000000006020830152604082019050919050565b613224816136ec565b82525050565b613233816136f6565b82525050565b60006132458284612ba2565b915081905092915050565b600061325c8288612ba2565b91506132688287612bd3565b91506132748286612ba2565b91506132808285612bd3565b915061328c8284612ba2565b91508190509695505050505050565b60006132a78286612bd3565b91506132b38285612bd3565b91506132bf8284612ba2565b9150819050949350505050565b60006132d88284612d29565b915081905092915050565b60006132ee82613029565b9150819050919050565b600060208201905061330d6000830184612b84565b92915050565b60006060820190506133286000830186612b84565b6133356020830185612b84565b613342604083018461321b565b949350505050565b600060408201905061335f6000830185612b84565b61336c602083018461321b565b9392505050565b60006020820190506133886000830184612b93565b92915050565b600060208201905081810360008301526133a88184612c61565b905092915050565b600060408201905081810360008301526133ca8185612c9a565b905081810360208301526133de8184612c9a565b90509392505050565b6000602082019050818103600083015261340081612db7565b9050919050565b6000602082019050818103600083015261342081612df7565b9050919050565b6000602082019050818103600083015261344081612e37565b9050919050565b6000602082019050818103600083015261346081612e9d565b9050919050565b6000602082019050818103600083015261348081612f03565b9050919050565b600060208201905081810360008301526134a081612f43565b9050919050565b600060208201905081810360008301526134c081612f83565b9050919050565b600060208201905081810360008301526134e081612fc3565b9050919050565b6000602082019050818103600083015261350081613069565b9050919050565b60006020820190508181036000830152613520816130cf565b9050919050565b6000602082019050818103600083015261354081613135565b9050919050565b6000602082019050818103600083015261356081613175565b9050919050565b60006020820190508181036000830152613580816131b5565b9050919050565b600060208201905061359c600083018461321b565b92915050565b60006040820190506135b7600083018561321b565b6135c4602083018461321b565b9392505050565b60006020820190506135e0600083018461322a565b92915050565b6000604051905081810181811067ffffffffffffffff8211171561360d5761360c613736565b5b8060405250919050565b600067ffffffffffffffff82111561363257613631613736565b5b601f19601f8301169050602081019050919050565b60008190508160005260206000209050919050565b60008190508160005260206000209050919050565b600081519050919050565b600081519050919050565b600081905092915050565b600082825260208201905092915050565b600081905092915050565b60006136b9826136cc565b9050919050565b60008115159050919050565b600073ffffffffffffffffffffffffffffffffffffffff82169050919050565b6000819050919050565b600060ff82169050919050565b60005b83811015613721578082015181840152602081019050613706565b83811115613730576000848401525b50505050565bfe5b6000601f19601f8301169050919050565b613752816136ae565b811461375d57600080fd5b50565b613769816136c0565b811461377457600080fd5b50565b613780816136ec565b811461378b57600080fd5b5056fe7472616e7366657246726f6d28616464726573732c616464726573732c75696e7432353629a2646970667358221220f658160d6ec8e3c3007fc46d9d51972eb66a8b216dcf1bad4a6831083af83b8364736f6c63430007060033",
  "immutableReferences": {},
  "source": "// SPDX-License-Identifier: MIT\r\npragma solidity =0.7.6;\r\npragma abicoder v2;\r\n\r\nimport \"./interfaces/IBEP20.sol\";\r\nimport \"./interfaces/ITokenChopToken.sol\";\r\nimport \"./TokenChopSpec.sol\";\r\nimport \"./interfaces/IStdReference.sol\";\r\nimport \"./libs/SafeMath.sol\";\r\nimport \"./libs/Math.sol\";\r\n\r\ncontract TokenChopStable is IBEP20, ITokenChopToken {\r\n    using SafeMath for uint256;\r\n    mapping(address => uint256) public override balanceOf;\r\n    mapping(address => mapping(address => uint256)) public override allowance;\r\n\r\n    string  public override name;\r\n    string  public override symbol;\r\n    string  public baseSymbol;\r\n    string  public quoteSymbol;\r\n    string  public constant poolType = \"Stable\";\r\n    uint8   public constant typeId = 0;\r\n    address public base;\r\n    address public quote;\r\n    address public sister;\r\n    address public factory;\r\n    uint256 public collateral;\r\n    uint256 public previousPrice;\r\n    uint256 public price;\r\n    uint8   public constant priceDecimals = 18;\r\n    uint256 public override totalSupply;\r\n    address public bandProtocol;\r\n\r\n    event CollateralTransfer(address indexed from, address indexed to, uint256 value);\r\n    event InsufficientCollateral(uint256 required, uint256 obtained);\r\n    event PriceUpdate(uint256 oldPrice, uint256 newPrice);\r\n\r\n    bytes4 private constant TRANSFER_SELECTOR = bytes4(keccak256(bytes('transfer(address,uint256)')));\r\n    bytes4 private constant TRANSFER_FROM_SELECTOR = bytes4(keccak256(bytes('transferFrom(address,address,uint256)')));\r\n    bool private _updateCollateralInProgress = false;\r\n\r\n    constructor() {\r\n        factory = msg.sender;\r\n    }\r\n\r\n    modifier onlyFactory() {\r\n        require(msg.sender == factory, 'TokenChop: FORBIDDEN');\r\n        _;\r\n    }\r\n\r\n    modifier onlySister() {\r\n        require(msg.sender == sister, 'TokenChop: FORBIDDEN');\r\n        _;\r\n    }\r\n\r\n    function initialize(address _base, address _quote, address _sister) external override onlyFactory {\r\n        bandProtocol = 0xDA7a001b254CD22e46d3eAB04d937489c93174C3;\r\n        base = _base;\r\n        quote = _quote;\r\n        sister = _sister;\r\n        baseSymbol = IBEP20(base).symbol();\r\n        baseSymbol = keccak256(abi.encodePacked(baseSymbol)) == keccak256(abi.encodePacked(\"WBNB\")) ? \"BNB\" : baseSymbol;\r\n        quoteSymbol = IBEP20(quote).symbol();\r\n        name = string(abi.encodePacked(bytes(\"TokenChop: \"), bytes(baseSymbol), bytes(\"/\"), bytes(quoteSymbol), bytes(\" Stable\")));\r\n        symbol = string(abi.encodePacked(bytes(baseSymbol), bytes(quoteSymbol), bytes('0')));\r\n    }\r\n\r\n    function setBandAddress(address _bandAddr) external onlyFactory {\r\n        bandProtocol = _bandAddr;\r\n    }\r\n\r\n    function getOwner() external override view returns (address) {\r\n        return factory;\r\n    }\r\n\r\n    function decimals() external override pure returns (uint8) {\r\n        return 18;\r\n    }\r\n\r\n    function transfer(address _recipient, uint256 _amount) external override returns (bool) {\r\n        _transfer(msg.sender, _recipient, _amount);\r\n        return true;\r\n    }\r\n\r\n    function approve(address _spender, uint256 _amount) external override returns (bool) {\r\n        _approve(msg.sender, _spender, _amount);\r\n        return true;\r\n    }\r\n\r\n    function transferFrom(address _sender, address _recipient, uint256 _amount) external override returns (bool) {\r\n        _transfer(_sender, _recipient, _amount);\r\n        require(allowance[_sender][msg.sender] >= _amount, \"BEP20: transfer amount exceeds allowance\");\r\n        _approve(_sender, msg.sender, allowance[_sender][msg.sender] - _amount);\r\n        return true;\r\n    }\r\n\r\n    function _transfer(address _sender, address _recipient, uint256 _amount) internal {\r\n        require(_sender != address(0), \"BEP20: transfer from the zero address\");\r\n        require(_recipient != address(0), \"BEP20: transfer to the zero address\");\r\n        require(balanceOf[_sender] >= _amount, \"BEP20: transfer amount exceeds balance\");\r\n        \r\n        balanceOf[_sender] = balanceOf[_sender].sub(_amount);\r\n        balanceOf[_recipient] = balanceOf[_recipient].add(_amount);\r\n\r\n        emit Transfer(_sender, _recipient, _amount);\r\n    }\r\n\r\n    function _approve(address _owner, address _spender, uint256 _amount) internal {\r\n        require(_owner != address(0), \"BEP20: approve from the zero address\");\r\n        require(_spender != address(0), \"BEP20: approve to the zero address\");\r\n\r\n        allowance[_owner][_spender] = _amount;\r\n        emit Approval(_owner, _spender, _amount);\r\n    }\r\n\r\n    function updatePrice() internal {\r\n        IStdReference bandProtocolContract = IStdReference(bandProtocol);\r\n        IStdReference.ReferenceData memory data = bandProtocolContract.getReferenceData(baseSymbol, quoteSymbol);\r\n        uint256 newPrice = data.rate;\r\n        require(newPrice != 0, \"TokenChop: Price update Failed\");\r\n        emit PriceUpdate(price, newPrice);\r\n        previousPrice = price;\r\n        price = newPrice;\r\n    }\r\n\r\n    function updateCollateral() internal {\r\n        require(!_updateCollateralInProgress, \"Update collateral in progress\");\r\n        _updateCollateralInProgress = true;\r\n        uint256 quoteCollateral = Math.baseToQuote(price, collateral);\r\n        if (quoteCollateral == totalSupply) {\r\n            _updateCollateralInProgress = false;\r\n            return;\r\n        }\r\n        if (quoteCollateral < totalSupply) {\r\n            uint256 required = totalSupply.sub(quoteCollateral);\r\n            uint256 obtained = getCollateralFromSister(required);\r\n            if (obtained < required) {\r\n                uint newTotalSupply = totalSupply.sub(required).add(obtained);\r\n                emit InsufficientCollateral(required, obtained);\r\n                //dealWithShortfall(newTotalSupply) - Have to rebalance all of the individual balances\r\n            }\r\n        } else {\r\n            uint256 surplus = quoteCollateral.sub(totalSupply);\r\n            sendStableCollateralToSpec(surplus);\r\n        }\r\n        collateral = IBEP20(base).balanceOf(address(this));\r\n        _updateCollateralInProgress = false;\r\n    }\r\n\r\n    function updatePriceBySister() external onlySister {\r\n        updatePrice();\r\n    }\r\n\r\n    function getCollateralFromSister(uint256 _quoteAmount) internal returns (uint256 quoteReceived) {\r\n        uint baseAmount = Math.quoteToBase(price, _quoteAmount);\r\n        TokenChopSpec _sisterContract = TokenChopSpec(sister);\r\n        uint baseReceived = _sisterContract.sendCollateralToSister(baseAmount);\r\n        return Math.baseToQuote(price, baseReceived);\r\n    }\r\n\r\n    function sendStableCollateralToSpec(uint256 _quoteAmount) internal {\r\n        uint256 baseAmount = Math.quoteToBase(price, _quoteAmount);\r\n        _safeTransfer(base, sister, baseAmount);\r\n        emit CollateralTransfer(address(this), sister, baseAmount);\r\n    }\r\n\r\n    function mintAtBaseAmount(uint256 baseAmount) public returns (bool) {\r\n        updatePrice();\r\n        updateCollateral();\r\n        _safeTransferFrom(base, msg.sender, address(this), baseAmount);\r\n        uint256 quoteAmount = Math.baseToQuote(price, baseAmount);\r\n        balanceOf[msg.sender] = balanceOf[msg.sender].add(quoteAmount);\r\n        totalSupply = totalSupply.add(quoteAmount);\r\n        collateral = IBEP20(base).balanceOf(address(this));\r\n        require(false, \"Itis20\");        \r\n        emit Transfer(address(0), msg.sender, quoteAmount);\r\n        emit CollateralTransfer(msg.sender, address(this), baseAmount);\r\n        return true;\r\n    }\r\n\r\n    function burn(uint256 quoteAmount) public returns (bool) {\r\n        updatePrice();\r\n        updateCollateral();\r\n        require(quoteAmount <= balanceOf[msg.sender], \"Bad quote amount\");\r\n        balanceOf[msg.sender] = balanceOf[msg.sender].sub(quoteAmount);\r\n        uint256 baseAmount = Math.quoteToBase(price, quoteAmount);\r\n        _safeTransfer(base, msg.sender, baseAmount);\r\n        collateral = IBEP20(base).balanceOf(address(this));        \r\n        emit Transfer(msg.sender, address(0), quoteAmount);\r\n        emit CollateralTransfer(address(this), msg.sender, baseAmount);\r\n        return true;\r\n    }\r\n\r\n    function refresh() public {\r\n        updatePrice();\r\n        updateCollateral();\r\n    }\r\n\r\n    function _safeTransfer(address _token, address _to, uint _value) private {\r\n        (bool _success, bytes memory _data) = _token.call(abi.encodeWithSelector(TRANSFER_SELECTOR, _to, _value));\r\n        require(_success && (_data.length == 0 || abi.decode(_data, (bool))), 'TokenChop: TRANSFER_FAILED');\r\n    }\r\n\r\n    function _safeTransferFrom(address _token, address _sender, address _recipient, uint _value) private {\r\n        (bool _success, bytes memory _data) = _token.call(abi.encodeWithSelector(TRANSFER_FROM_SELECTOR, _sender, _recipient, _value));\r\n        require(_success && (_data.length == 0 || abi.decode(_data, (bool))), 'TokenChop: TRANSFER_FROM_FAILED');\r\n    }\r\n\r\n}",
  "sourcePath": "C:\\Repos\\tokenchop\\contracts\\TokenChopStable.sol",
  "compiler": {
    "name": "solc",
    "version": "0.7.6+commit.7338295f.Emscripten.clang"
  },
  "schemaVersion": "3.3.3",
  "updatedAt": "2021-02-13T07:55:25.565Z",
  "devdoc": {
    "kind": "dev",
    "methods": {
      "decimals()": {
        "details": "Returns the token decimals."
      },
      "getOwner()": {
        "details": "Returns the bep token owner."
      }
    },
    "stateVariables": {
      "allowance": {
        "details": "Returns the remaining number of tokens that `spender` will be allowed to spend on behalf of `owner` through {transferFrom}. This is zero by default. This value changes when {approve} or {transferFrom} are called."
      },
      "balanceOf": {
        "details": "Returns the amount of tokens owned by `account`."
      },
      "name": {
        "details": "Returns the token name."
      },
      "symbol": {
        "details": "Returns the token symbol."
      },
      "totalSupply": {
        "details": "Returns the amount of tokens in existence."
      }
    },
    "version": 1
  },
  "userdoc": {
    "kind": "user",
    "methods": {},
    "version": 1
  }
}