{
  "contractName": "TokenChopStable",
  "abi": [
    {
      "inputs": [],
      "stateMutability": "nonpayable",
      "type": "constructor"
    },
    {
      "anonymous": false,
      "inputs": [
        {
          "indexed": true,
          "internalType": "address",
          "name": "owner",
          "type": "address"
        },
        {
          "indexed": true,
          "internalType": "address",
          "name": "spender",
          "type": "address"
        },
        {
          "indexed": false,
          "internalType": "uint256",
          "name": "value",
          "type": "uint256"
        }
      ],
      "name": "Approval",
      "type": "event"
    },
    {
      "anonymous": false,
      "inputs": [
        {
          "indexed": true,
          "internalType": "address",
          "name": "from",
          "type": "address"
        },
        {
          "indexed": true,
          "internalType": "address",
          "name": "to",
          "type": "address"
        },
        {
          "indexed": false,
          "internalType": "uint256",
          "name": "value",
          "type": "uint256"
        }
      ],
      "name": "CollateralTransfer",
      "type": "event"
    },
    {
      "anonymous": false,
      "inputs": [
        {
          "indexed": false,
          "internalType": "uint256",
          "name": "required",
          "type": "uint256"
        },
        {
          "indexed": false,
          "internalType": "uint256",
          "name": "obtained",
          "type": "uint256"
        }
      ],
      "name": "InsufficientCollateral",
      "type": "event"
    },
    {
      "anonymous": false,
      "inputs": [
        {
          "indexed": false,
          "internalType": "uint256",
          "name": "oldPrice",
          "type": "uint256"
        },
        {
          "indexed": false,
          "internalType": "uint256",
          "name": "newPrice",
          "type": "uint256"
        }
      ],
      "name": "PriceUpdate",
      "type": "event"
    },
    {
      "anonymous": false,
      "inputs": [
        {
          "indexed": true,
          "internalType": "address",
          "name": "from",
          "type": "address"
        },
        {
          "indexed": true,
          "internalType": "address",
          "name": "to",
          "type": "address"
        },
        {
          "indexed": false,
          "internalType": "uint256",
          "name": "value",
          "type": "uint256"
        }
      ],
      "name": "Transfer",
      "type": "event"
    },
    {
      "inputs": [
        {
          "internalType": "address",
          "name": "",
          "type": "address"
        },
        {
          "internalType": "address",
          "name": "",
          "type": "address"
        }
      ],
      "name": "allowance",
      "outputs": [
        {
          "internalType": "uint256",
          "name": "",
          "type": "uint256"
        }
      ],
      "stateMutability": "view",
      "type": "function"
    },
    {
      "inputs": [
        {
          "internalType": "address",
          "name": "",
          "type": "address"
        }
      ],
      "name": "balanceOf",
      "outputs": [
        {
          "internalType": "uint256",
          "name": "",
          "type": "uint256"
        }
      ],
      "stateMutability": "view",
      "type": "function"
    },
    {
      "inputs": [],
      "name": "bandProtocol",
      "outputs": [
        {
          "internalType": "address",
          "name": "",
          "type": "address"
        }
      ],
      "stateMutability": "view",
      "type": "function"
    },
    {
      "inputs": [],
      "name": "base",
      "outputs": [
        {
          "internalType": "address",
          "name": "",
          "type": "address"
        }
      ],
      "stateMutability": "view",
      "type": "function"
    },
    {
      "inputs": [],
      "name": "baseSymbol",
      "outputs": [
        {
          "internalType": "string",
          "name": "",
          "type": "string"
        }
      ],
      "stateMutability": "view",
      "type": "function"
    },
    {
      "inputs": [],
      "name": "collateral",
      "outputs": [
        {
          "internalType": "uint256",
          "name": "",
          "type": "uint256"
        }
      ],
      "stateMutability": "view",
      "type": "function"
    },
    {
      "inputs": [],
      "name": "factory",
      "outputs": [
        {
          "internalType": "address",
          "name": "",
          "type": "address"
        }
      ],
      "stateMutability": "view",
      "type": "function"
    },
    {
      "inputs": [],
      "name": "name",
      "outputs": [
        {
          "internalType": "string",
          "name": "",
          "type": "string"
        }
      ],
      "stateMutability": "view",
      "type": "function"
    },
    {
      "inputs": [],
      "name": "poolType",
      "outputs": [
        {
          "internalType": "string",
          "name": "",
          "type": "string"
        }
      ],
      "stateMutability": "view",
      "type": "function"
    },
    {
      "inputs": [],
      "name": "previousPrice",
      "outputs": [
        {
          "internalType": "uint256",
          "name": "",
          "type": "uint256"
        }
      ],
      "stateMutability": "view",
      "type": "function"
    },
    {
      "inputs": [],
      "name": "price",
      "outputs": [
        {
          "internalType": "uint256",
          "name": "",
          "type": "uint256"
        }
      ],
      "stateMutability": "view",
      "type": "function"
    },
    {
      "inputs": [],
      "name": "priceDecimals",
      "outputs": [
        {
          "internalType": "uint8",
          "name": "",
          "type": "uint8"
        }
      ],
      "stateMutability": "view",
      "type": "function"
    },
    {
      "inputs": [],
      "name": "quote",
      "outputs": [
        {
          "internalType": "address",
          "name": "",
          "type": "address"
        }
      ],
      "stateMutability": "view",
      "type": "function"
    },
    {
      "inputs": [],
      "name": "quoteSymbol",
      "outputs": [
        {
          "internalType": "string",
          "name": "",
          "type": "string"
        }
      ],
      "stateMutability": "view",
      "type": "function"
    },
    {
      "inputs": [],
      "name": "sister",
      "outputs": [
        {
          "internalType": "address",
          "name": "",
          "type": "address"
        }
      ],
      "stateMutability": "view",
      "type": "function"
    },
    {
      "inputs": [],
      "name": "symbol",
      "outputs": [
        {
          "internalType": "string",
          "name": "",
          "type": "string"
        }
      ],
      "stateMutability": "view",
      "type": "function"
    },
    {
      "inputs": [],
      "name": "totalSupply",
      "outputs": [
        {
          "internalType": "uint256",
          "name": "",
          "type": "uint256"
        }
      ],
      "stateMutability": "view",
      "type": "function"
    },
    {
      "inputs": [],
      "name": "typeId",
      "outputs": [
        {
          "internalType": "uint8",
          "name": "",
          "type": "uint8"
        }
      ],
      "stateMutability": "view",
      "type": "function"
    },
    {
      "inputs": [
        {
          "internalType": "address",
          "name": "_base",
          "type": "address"
        },
        {
          "internalType": "address",
          "name": "_quote",
          "type": "address"
        },
        {
          "internalType": "address",
          "name": "_sister",
          "type": "address"
        }
      ],
      "name": "initialize",
      "outputs": [],
      "stateMutability": "nonpayable",
      "type": "function"
    },
    {
      "inputs": [
        {
          "internalType": "address",
          "name": "_bandAddr",
          "type": "address"
        }
      ],
      "name": "setBandAddress",
      "outputs": [],
      "stateMutability": "nonpayable",
      "type": "function"
    },
    {
      "inputs": [],
      "name": "getOwner",
      "outputs": [
        {
          "internalType": "address",
          "name": "",
          "type": "address"
        }
      ],
      "stateMutability": "view",
      "type": "function"
    },
    {
      "inputs": [],
      "name": "decimals",
      "outputs": [
        {
          "internalType": "uint8",
          "name": "",
          "type": "uint8"
        }
      ],
      "stateMutability": "pure",
      "type": "function"
    },
    {
      "inputs": [
        {
          "internalType": "address",
          "name": "_recipient",
          "type": "address"
        },
        {
          "internalType": "uint256",
          "name": "_amount",
          "type": "uint256"
        }
      ],
      "name": "transfer",
      "outputs": [
        {
          "internalType": "bool",
          "name": "",
          "type": "bool"
        }
      ],
      "stateMutability": "nonpayable",
      "type": "function"
    },
    {
      "inputs": [
        {
          "internalType": "address",
          "name": "_spender",
          "type": "address"
        },
        {
          "internalType": "uint256",
          "name": "_amount",
          "type": "uint256"
        }
      ],
      "name": "approve",
      "outputs": [
        {
          "internalType": "bool",
          "name": "",
          "type": "bool"
        }
      ],
      "stateMutability": "nonpayable",
      "type": "function"
    },
    {
      "inputs": [
        {
          "internalType": "address",
          "name": "_sender",
          "type": "address"
        },
        {
          "internalType": "address",
          "name": "_recipient",
          "type": "address"
        },
        {
          "internalType": "uint256",
          "name": "_amount",
          "type": "uint256"
        }
      ],
      "name": "transferFrom",
      "outputs": [
        {
          "internalType": "bool",
          "name": "",
          "type": "bool"
        }
      ],
      "stateMutability": "nonpayable",
      "type": "function"
    },
    {
      "inputs": [],
      "name": "updateCollateralBySister",
      "outputs": [],
      "stateMutability": "nonpayable",
      "type": "function"
    },
    {
      "inputs": [
        {
          "internalType": "uint256",
          "name": "baseAmount",
          "type": "uint256"
        }
      ],
      "name": "mintAtBaseAmount",
      "outputs": [
        {
          "internalType": "bool",
          "name": "",
          "type": "bool"
        }
      ],
      "stateMutability": "nonpayable",
      "type": "function"
    },
    {
      "inputs": [
        {
          "internalType": "uint256",
          "name": "quoteAmount",
          "type": "uint256"
        }
      ],
      "name": "burn",
      "outputs": [
        {
          "internalType": "bool",
          "name": "",
          "type": "bool"
        }
      ],
      "stateMutability": "nonpayable",
      "type": "function"
    }
  ],
  "bytecode": "0x608060405234801561001057600080fd5b5033600960006101000a81548173ffffffffffffffffffffffffffffffffffffffff021916908373ffffffffffffffffffffffffffffffffffffffff160217905550613351806100616000396000f3fe608060405234801561001057600080fd5b50600436106101c45760003560e01c80638f940f63116100f9578063b1dd61b611610097578063c6950a7c11610071578063c6950a7c146104ef578063cd0b4aed146104f9578063d8dfeb4514610529578063dd62ed3e14610547576101c4565b8063b1dd61b614610497578063c0c53b8b146104b5578063c45a0155146104d1576101c4565b8063999b93af116100d3578063999b93af1461040d578063a035b1fe1461042b578063a9059cbb14610449578063a9ed003d14610479576101c4565b80638f940f63146103b3578063914e245a146103d157806395d89b41146103ef576101c4565b806342966c68116101665780636fea6b1c116101405780636fea6b1c1461032957806370a082311461034757806380583be714610377578063893d20e814610395576101c4565b806342966c68146102bd5780635001f3b5146102ed57806360d6df6e1461030b576101c4565b806318160ddd116101a257806318160ddd1461023557806323b872dd146102535780632e4e3d1114610283578063313ce5671461029f576101c4565b806305300b28146101c957806306fdde03146101e7578063095ea7b314610205575b600080fd5b6101d1610577565b6040516101de9190613121565b60405180910390f35b6101ef61057c565b6040516101fc9190612f24565b60405180910390f35b61021f600480360381019061021a9190612641565b61061a565b60405161022c9190612ee0565b60405180910390f35b61023d610631565b60405161024a91906130dd565b60405180910390f35b61026d600480360381019061026891906125f2565b610637565b60405161027a9190612ee0565b60405180910390f35b61029d6004803603810190610298919061253e565b610797565b005b6102a761086b565b6040516102b49190613121565b60405180910390f35b6102d760048036038101906102d29190612710565b610874565b6040516102e49190612ee0565b60405180910390f35b6102f5610b01565b6040516103029190612e65565b60405180910390f35b610313610b27565b6040516103209190612f24565b60405180910390f35b610331610bc5565b60405161033e9190612e65565b60405180910390f35b610361600480360381019061035c919061253e565b610beb565b60405161036e91906130dd565b60405180910390f35b61037f610c03565b60405161038c9190612f24565b60405180910390f35b61039d610ca1565b6040516103aa9190612e65565b60405180910390f35b6103bb610ccb565b6040516103c89190613121565b60405180910390f35b6103d9610cd0565b6040516103e691906130dd565b60405180910390f35b6103f7610cd6565b6040516104049190612f24565b60405180910390f35b610415610d74565b6040516104229190612e65565b60405180910390f35b610433610d9a565b60405161044091906130dd565b60405180910390f35b610463600480360381019061045e9190612641565b610da0565b6040516104709190612ee0565b60405180910390f35b610481610db7565b60405161048e9190612e65565b60405180910390f35b61049f610ddd565b6040516104ac9190612f24565b60405180910390f35b6104cf60048036038101906104ca91906125a3565b610e16565b005b6104d96113c8565b6040516104e69190612e65565b60405180910390f35b6104f76113ee565b005b610513600480360381019061050e9190612710565b611490565b6040516105209190612ee0565b60405180910390f35b61053161167e565b60405161053e91906130dd565b60405180910390f35b610561600480360381019061055c9190612567565b611684565b60405161056e91906130dd565b60405180910390f35b601281565b60028054600181600116156101000203166002900480601f0160208091040260200160405190810160405280929190818152602001828054600181600116156101000203166002900480156106125780601f106105e757610100808354040283529160200191610612565b820191906000526020600020905b8154815290600101906020018083116105f557829003601f168201915b505050505081565b60006106273384846116a9565b6001905092915050565b600d5481565b6000610644848484611874565b81600160008673ffffffffffffffffffffffffffffffffffffffff1673ffffffffffffffffffffffffffffffffffffffff16815260200190815260200160002060003373ffffffffffffffffffffffffffffffffffffffff1673ffffffffffffffffffffffffffffffffffffffff168152602001908152602001600020541015610703576040517f08c379a00000000000000000000000000000000000000000000000000000000081526004016106fa9061301d565b60405180910390fd5b61078c843384600160008973ffffffffffffffffffffffffffffffffffffffff1673ffffffffffffffffffffffffffffffffffffffff16815260200190815260200160002060003373ffffffffffffffffffffffffffffffffffffffff1673ffffffffffffffffffffffffffffffffffffffff16815260200190815260200160002054036116a9565b600190509392505050565b600960009054906101000a900473ffffffffffffffffffffffffffffffffffffffff1673ffffffffffffffffffffffffffffffffffffffff163373ffffffffffffffffffffffffffffffffffffffff1614610827576040517f08c379a000000000000000000000000000000000000000000000000000000000815260040161081e9061307d565b60405180910390fd5b80600e60006101000a81548173ffffffffffffffffffffffffffffffffffffffff021916908373ffffffffffffffffffffffffffffffffffffffff16021790555050565b60006012905090565b600061087e611b65565b610886611cba565b6000803373ffffffffffffffffffffffffffffffffffffffff1673ffffffffffffffffffffffffffffffffffffffff16815260200190815260200160002054821115610907576040517f08c379a00000000000000000000000000000000000000000000000000000000081526004016108fe90612f7d565b60405180910390fd5b7f92664190cca12aca9cd5309d87194bdda75bb51362d71c06e1a6f75c7c765711600480604051610939929190612efb565b60405180910390a1610992826000803373ffffffffffffffffffffffffffffffffffffffff1673ffffffffffffffffffffffffffffffffffffffff16815260200190815260200160002054611da990919063ffffffff16565b6000803373ffffffffffffffffffffffffffffffffffffffff1673ffffffffffffffffffffffffffffffffffffffff1681526020019081526020016000208190555060006109e2600c5484611dc9565b90506109f981600a54611da990919063ffffffff16565b600a81905550610a2c600660009054906101000a900473ffffffffffffffffffffffffffffffffffffffff163383611de6565b600073ffffffffffffffffffffffffffffffffffffffff163373ffffffffffffffffffffffffffffffffffffffff167fddf252ad1be2c89b69c2b068fc378daa952ba7f163c4a11628f55a4df523b3ef85604051610a8a91906130dd565b60405180910390a33373ffffffffffffffffffffffffffffffffffffffff163073ffffffffffffffffffffffffffffffffffffffff167f14395d6fb6ac3870af345d12d989b966ccf04dcdd9e02b95722d12dca39eb4b083604051610aef91906130dd565b60405180910390a36001915050919050565b600660009054906101000a900473ffffffffffffffffffffffffffffffffffffffff1681565b60058054600181600116156101000203166002900480601f016020809104026020016040519081016040528092919081815260200182805460018160011615610100020316600290048015610bbd5780601f10610b9257610100808354040283529160200191610bbd565b820191906000526020600020905b815481529060010190602001808311610ba057829003601f168201915b505050505081565b600e60009054906101000a900473ffffffffffffffffffffffffffffffffffffffff1681565b60006020528060005260406000206000915090505481565b60048054600181600116156101000203166002900480601f016020809104026020016040519081016040528092919081815260200182805460018160011615610100020316600290048015610c995780601f10610c6e57610100808354040283529160200191610c99565b820191906000526020600020905b815481529060010190602001808311610c7c57829003601f168201915b505050505081565b6000600960009054906101000a900473ffffffffffffffffffffffffffffffffffffffff16905090565b600081565b600b5481565b60038054600181600116156101000203166002900480601f016020809104026020016040519081016040528092919081815260200182805460018160011615610100020316600290048015610d6c5780601f10610d4157610100808354040283529160200191610d6c565b820191906000526020600020905b815481529060010190602001808311610d4f57829003601f168201915b505050505081565b600760009054906101000a900473ffffffffffffffffffffffffffffffffffffffff1681565b600c5481565b6000610dad338484611874565b6001905092915050565b600860009054906101000a900473ffffffffffffffffffffffffffffffffffffffff1681565b6040518060400160405280600681526020017f537461626c65000000000000000000000000000000000000000000000000000081525081565b600960009054906101000a900473ffffffffffffffffffffffffffffffffffffffff1673ffffffffffffffffffffffffffffffffffffffff163373ffffffffffffffffffffffffffffffffffffffff1614610ea6576040517f08c379a0000000000000000000000000000000000000000000000000000000008152600401610e9d9061307d565b60405180910390fd5b73da7a001b254cd22e46d3eab04d937489c93174c3600e60006101000a81548173ffffffffffffffffffffffffffffffffffffffff021916908373ffffffffffffffffffffffffffffffffffffffff16021790555082600660006101000a81548173ffffffffffffffffffffffffffffffffffffffff021916908373ffffffffffffffffffffffffffffffffffffffff16021790555081600760006101000a81548173ffffffffffffffffffffffffffffffffffffffff021916908373ffffffffffffffffffffffffffffffffffffffff16021790555080600860006101000a81548173ffffffffffffffffffffffffffffffffffffffff021916908373ffffffffffffffffffffffffffffffffffffffff160217905550600660009054906101000a900473ffffffffffffffffffffffffffffffffffffffff1673ffffffffffffffffffffffffffffffffffffffff166395d89b416040518163ffffffff1660e01b815260040160006040518083038186803b15801561102657600080fd5b505afa15801561103a573d6000803e3d6000fd5b505050506040513d6000823e3d601f19601f8201168201806040525081019061106391906126a6565b60049080519060200190611078929190612377565b5060405160200161108890612e50565b6040516020818303038152906040528051906020012060046040516020016110b09190612e39565b604051602081830303815290604052805190602001201461116b5760048054600181600116156101000203166002900480601f0160208091040260200160405190810160405280929190818152602001828054600181600116156101000203166002900480156111615780601f1061113657610100808354040283529160200191611161565b820191906000526020600020905b81548152906001019060200180831161114457829003601f168201915b50505050506111a2565b6040518060400160405280600381526020017f424e4200000000000000000000000000000000000000000000000000000000008152505b600490805190602001906111b7929190612377565b50600760009054906101000a900473ffffffffffffffffffffffffffffffffffffffff1673ffffffffffffffffffffffffffffffffffffffff166395d89b416040518163ffffffff1660e01b815260040160006040518083038186803b15801561122057600080fd5b505afa158015611234573d6000803e3d6000fd5b505050506040513d6000823e3d601f19601f8201168201806040525081019061125d91906126a6565b60059080519060200190611272929190612377565b506040518060400160405280600b81526020017f546f6b656e43686f703a2000000000000000000000000000000000000000000081525060046040518060400160405280600181526020017f2f0000000000000000000000000000000000000000000000000000000000000081525060056040518060400160405280600781526020017f20537461626c650000000000000000000000000000000000000000000000000081525060405160200161132d959493929190612dbd565b60405160208183030381529060405260029080519060200190611351929190612377565b50600460056040518060400160405280600181526020017f300000000000000000000000000000000000000000000000000000000000000081525060405160200161139e93929190612e08565b604051602081830303815290604052600390805190602001906113c2929190612377565b50505050565b600960009054906101000a900473ffffffffffffffffffffffffffffffffffffffff1681565b600860009054906101000a900473ffffffffffffffffffffffffffffffffffffffff1673ffffffffffffffffffffffffffffffffffffffff163373ffffffffffffffffffffffffffffffffffffffff161461147e576040517f08c379a00000000000000000000000000000000000000000000000000000000081526004016114759061307d565b60405180910390fd5b611486611b65565b61148e611cba565b565b600061149a611b65565b6114a2611cba565b6114d0600660009054906101000a900473ffffffffffffffffffffffffffffffffffffffff16333085611f70565b60006114de600c54846120e0565b9050611531816000803373ffffffffffffffffffffffffffffffffffffffff1673ffffffffffffffffffffffffffffffffffffffff168152602001908152602001600020546120fd90919063ffffffff16565b6000803373ffffffffffffffffffffffffffffffffffffffff1673ffffffffffffffffffffffffffffffffffffffff1681526020019081526020016000208190555061158881600d546120fd90919063ffffffff16565b600d819055506115a383600a546120fd90919063ffffffff16565b600a819055503373ffffffffffffffffffffffffffffffffffffffff16600073ffffffffffffffffffffffffffffffffffffffff167fddf252ad1be2c89b69c2b068fc378daa952ba7f163c4a11628f55a4df523b3ef8360405161160791906130dd565b60405180910390a33073ffffffffffffffffffffffffffffffffffffffff163373ffffffffffffffffffffffffffffffffffffffff167f14395d6fb6ac3870af345d12d989b966ccf04dcdd9e02b95722d12dca39eb4b08560405161166c91906130dd565b60405180910390a36001915050919050565b600a5481565b6001602052816000526040600020602052806000526040600020600091509150505481565b600073ffffffffffffffffffffffffffffffffffffffff168373ffffffffffffffffffffffffffffffffffffffff161415611719576040517f08c379a000000000000000000000000000000000000000000000000000000000815260040161171090612fbd565b60405180910390fd5b600073ffffffffffffffffffffffffffffffffffffffff168273ffffffffffffffffffffffffffffffffffffffff161415611789576040517f08c379a0000000000000000000000000000000000000000000000000000000008152600401611780906130bd565b60405180910390fd5b80600160008573ffffffffffffffffffffffffffffffffffffffff1673ffffffffffffffffffffffffffffffffffffffff16815260200190815260200160002060008473ffffffffffffffffffffffffffffffffffffffff1673ffffffffffffffffffffffffffffffffffffffff168152602001908152602001600020819055508173ffffffffffffffffffffffffffffffffffffffff168373ffffffffffffffffffffffffffffffffffffffff167f8c5be1e5ebec7d5bd14f71427d1e84f3dd0314c0f7b2291e5b200ac8c7c3b9258360405161186791906130dd565b60405180910390a3505050565b600073ffffffffffffffffffffffffffffffffffffffff168373ffffffffffffffffffffffffffffffffffffffff1614156118e4576040517f08c379a00000000000000000000000000000000000000000000000000000000081526004016118db90612f9d565b60405180910390fd5b600073ffffffffffffffffffffffffffffffffffffffff168273ffffffffffffffffffffffffffffffffffffffff161415611954576040517f08c379a000000000000000000000000000000000000000000000000000000000815260040161194b9061305d565b60405180910390fd5b806000808573ffffffffffffffffffffffffffffffffffffffff1673ffffffffffffffffffffffffffffffffffffffff1681526020019081526020016000205410156119d5576040517f08c379a00000000000000000000000000000000000000000000000000000000081526004016119cc9061303d565b60405180910390fd5b611a26816000808673ffffffffffffffffffffffffffffffffffffffff1673ffffffffffffffffffffffffffffffffffffffff16815260200190815260200160002054611da990919063ffffffff16565b6000808573ffffffffffffffffffffffffffffffffffffffff1673ffffffffffffffffffffffffffffffffffffffff16815260200190815260200160002081905550611ab9816000808573ffffffffffffffffffffffffffffffffffffffff1673ffffffffffffffffffffffffffffffffffffffff168152602001908152602001600020546120fd90919063ffffffff16565b6000808473ffffffffffffffffffffffffffffffffffffffff1673ffffffffffffffffffffffffffffffffffffffff168152602001908152602001600020819055508173ffffffffffffffffffffffffffffffffffffffff168373ffffffffffffffffffffffffffffffffffffffff167fddf252ad1be2c89b69c2b068fc378daa952ba7f163c4a11628f55a4df523b3ef83604051611b5891906130dd565b60405180910390a3505050565b6000600e60009054906101000a900473ffffffffffffffffffffffffffffffffffffffff16905060008173ffffffffffffffffffffffffffffffffffffffff166365555bcc600460056040518363ffffffff1660e01b8152600401611bcb929190612f46565b60606040518083038186803b158015611be357600080fd5b505afa158015611bf7573d6000803e3d6000fd5b505050506040513d601f19601f82011682018060405250810190611c1b91906126e7565b90506000816000015190506000811415611c6a576040517f08c379a0000000000000000000000000000000000000000000000000000000008152600401611c619061309d565b60405180910390fd5b7f92664190cca12aca9cd5309d87194bdda75bb51362d71c06e1a6f75c7c765711600c5482604051611c9d9291906130f8565b60405180910390a1600c54600b8190555080600c81905550505050565b6000611cca600c54600a546120e0565b9050600d54811415611cdc5750611da7565b600d54811015611d81576000611cfd82600d54611da990919063ffffffff16565b90506000611d0a8261211c565b905081811015611d7a576000611d3d82611d2f85600d54611da990919063ffffffff16565b6120fd90919063ffffffff16565b90507fb07e3bc4c23a2d5a3367eec63320a439a69fa5b14b5619ba643e23b3ab6ef8058383604051611d709291906130f8565b60405180910390a1505b5050611da5565b6000611d98600d5483611da990919063ffffffff16565b9050611da381612214565b505b505b565b600082821115611db857600080fd5b600082840390508091505092915050565b6000611dde82670de0b6b3a764000085612319565b905092915050565b6000808473ffffffffffffffffffffffffffffffffffffffff166040518060400160405280601981526020017f7472616e7366657228616464726573732c75696e743235362900000000000000815250805190602001208585604051602401611e50929190612eb7565b604051602081830303815290604052907bffffffffffffffffffffffffffffffffffffffffffffffffffffffff19166020820180517bffffffffffffffffffffffffffffffffffffffffffffffffffffffff8381831617835250505050604051611eba9190612da6565b6000604051808303816000865af19150503d8060008114611ef7576040519150601f19603f3d011682016040523d82523d6000602084013e611efc565b606091505b5091509150818015611f2a5750600081511480611f29575080806020019051810190611f28919061267d565b5b5b611f69576040517f08c379a0000000000000000000000000000000000000000000000000000000008152600401611f6090612ffd565b60405180910390fd5b5050505050565b6000808573ffffffffffffffffffffffffffffffffffffffff166040518060600160405280602581526020016132f76025913980519060200120868686604051602401611fbf93929190612e80565b604051602081830303815290604052907bffffffffffffffffffffffffffffffffffffffffffffffffffffffff19166020820180517bffffffffffffffffffffffffffffffffffffffffffffffffffffffff83818316178352505050506040516120299190612da6565b6000604051808303816000865af19150503d8060008114612066576040519150601f19603f3d011682016040523d82523d6000602084013e61206b565b606091505b50915091508180156120995750600081511480612098575080806020019051810190612097919061267d565b5b5b6120d8576040517f08c379a00000000000000000000000000000000000000000000000000000000081526004016120cf90612fdd565b60405180910390fd5b505050505050565b60006120f58284670de0b6b3a7640000612319565b905092915050565b60008082840190508381101561211257600080fd5b8091505092915050565b60008061212b600c5484611dc9565b90506000600860009054906101000a900473ffffffffffffffffffffffffffffffffffffffff16905060008173ffffffffffffffffffffffffffffffffffffffff1663f33ab2b8846040518263ffffffff1660e01b815260040161218f91906130dd565b602060405180830381600087803b1580156121a957600080fd5b505af11580156121bd573d6000803e3d6000fd5b505050506040513d601f19601f820116820180604052508101906121e19190612739565b90506121f881600a546120fd90919063ffffffff16565b600a8190555061220a600c54826120e0565b9350505050919050565b6000612222600c5483611dc9565b905061223981600a54611da990919063ffffffff16565b600a8190555061228e600660009054906101000a900473ffffffffffffffffffffffffffffffffffffffff16600860009054906101000a900473ffffffffffffffffffffffffffffffffffffffff1683611de6565b600860009054906101000a900473ffffffffffffffffffffffffffffffffffffffff1673ffffffffffffffffffffffffffffffffffffffff163073ffffffffffffffffffffffffffffffffffffffff167f14395d6fb6ac3870af345d12d989b966ccf04dcdd9e02b95722d12dca39eb4b08360405161230d91906130dd565b60405180910390a35050565b6000700100000000000000000000000000000000841061233857600080fd5b700100000000000000000000000000000000831061235557600080fd5b8183111561236257600080fd5b818385028161236d57fe5b0490509392505050565b828054600181600116156101000203166002900490600052602060002090601f0160209004810192826123ad57600085556123f4565b82601f106123c657805160ff19168380011785556123f4565b828001600101855582156123f4579182015b828111156123f35782518255916020019190600101906123d8565b5b5090506124019190612405565b5090565b5b8082111561241e576000816000905550600101612406565b5090565b60006124356124308461316d565b61313c565b90508281526020810184848401111561244d57600080fd5b61245884828561326b565b509392505050565b60008135905061246f816132b1565b92915050565b600081519050612484816132c8565b92915050565b600082601f83011261249b57600080fd5b81516124ab848260208601612422565b91505092915050565b6000606082840312156124c657600080fd5b6124d0606061313c565b905060006124e084828501612529565b60008301525060206124f484828501612529565b602083015250604061250884828501612529565b60408301525092915050565b600081359050612523816132df565b92915050565b600081519050612538816132df565b92915050565b60006020828403121561255057600080fd5b600061255e84828501612460565b91505092915050565b6000806040838503121561257a57600080fd5b600061258885828601612460565b925050602061259985828601612460565b9150509250929050565b6000806000606084860312156125b857600080fd5b60006125c686828701612460565b93505060206125d786828701612460565b92505060406125e886828701612460565b9150509250925092565b60008060006060848603121561260757600080fd5b600061261586828701612460565b935050602061262686828701612460565b925050604061263786828701612514565b9150509250925092565b6000806040838503121561265457600080fd5b600061266285828601612460565b925050602061267385828601612514565b9150509250929050565b60006020828403121561268f57600080fd5b600061269d84828501612475565b91505092915050565b6000602082840312156126b857600080fd5b600082015167ffffffffffffffff8111156126d257600080fd5b6126de8482850161248a565b91505092915050565b6000606082840312156126f957600080fd5b6000612707848285016124b4565b91505092915050565b60006020828403121561272257600080fd5b600061273084828501612514565b91505092915050565b60006020828403121561274b57600080fd5b600061275984828501612529565b91505092915050565b61276b81613204565b82525050565b61277a81613216565b82525050565b600061278b826131c7565b61279581856131dd565b93506127a581856020860161326b565b80840191505092915050565b6000815460018116600081146127ce57600181146127f357612837565b607f60028304166127df81876131dd565b955060ff1983168652808601935050612837565b6002820461280181876131dd565b955061280c8561319d565b60005b8281101561282e5781548189015260018201915060208101905061280f565b82880195505050505b505092915050565b61284881613259565b82525050565b6000612859826131d2565b61286381856131e8565b935061287381856020860161326b565b61287c816132a0565b840191505092915050565b6000815460018116600081146128a457600181146128ca5761290e565b607f60028304166128b581876131e8565b955060ff19831686526020860193505061290e565b600282046128d881876131e8565b95506128e3856131b2565b60005b82811015612905578154818901526001820191506020810190506128e6565b80880195505050505b505092915050565b60008154600181166000811461293357600181146129585761299c565b607f600283041661294481876131f9565b955060ff198316865280860193505061299c565b6002820461296681876131f9565b9550612971856131b2565b60005b8281101561299357815481890152600182019150602081019050612974565b82880195505050505b505092915050565b60006129b16010836131e8565b91507f4261642071756f746520616d6f756e74000000000000000000000000000000006000830152602082019050919050565b60006129f16025836131e8565b91507f42455032303a207472616e736665722066726f6d20746865207a65726f20616460008301527f64726573730000000000000000000000000000000000000000000000000000006020830152604082019050919050565b6000612a576024836131e8565b91507f42455032303a20617070726f76652066726f6d20746865207a65726f2061646460008301527f72657373000000000000000000000000000000000000000000000000000000006020830152604082019050919050565b6000612abd601f836131e8565b91507f546f6b656e43686f703a205452414e534645525f46524f4d5f4641494c4544006000830152602082019050919050565b6000612afd601a836131e8565b91507f546f6b656e43686f703a205452414e534645525f4641494c45440000000000006000830152602082019050919050565b6000612b3d6028836131e8565b91507f42455032303a207472616e7366657220616d6f756e742065786365656473206160008301527f6c6c6f77616e63650000000000000000000000000000000000000000000000006020830152604082019050919050565b6000612ba36004836131f9565b91507f57424e42000000000000000000000000000000000000000000000000000000006000830152600482019050919050565b6000612be36026836131e8565b91507f42455032303a207472616e7366657220616d6f756e742065786365656473206260008301527f616c616e636500000000000000000000000000000000000000000000000000006020830152604082019050919050565b6000612c496023836131e8565b91507f42455032303a207472616e7366657220746f20746865207a65726f206164647260008301527f65737300000000000000000000000000000000000000000000000000000000006020830152604082019050919050565b6000612caf6014836131e8565b91507f546f6b656e43686f703a20464f5242494444454e0000000000000000000000006000830152602082019050919050565b6000612cef601e836131e8565b91507f546f6b656e43686f703a20507269636520757064617465204661696c656400006000830152602082019050919050565b6000612d2f6022836131e8565b91507f42455032303a20617070726f766520746f20746865207a65726f20616464726560008301527f73730000000000000000000000000000000000000000000000000000000000006020830152604082019050919050565b612d9181613242565b82525050565b612da08161324c565b82525050565b6000612db28284612780565b915081905092915050565b6000612dc98288612780565b9150612dd582876127b1565b9150612de18286612780565b9150612ded82856127b1565b9150612df98284612780565b91508190509695505050505050565b6000612e1482866127b1565b9150612e2082856127b1565b9150612e2c8284612780565b9150819050949350505050565b6000612e458284612916565b915081905092915050565b6000612e5b82612b96565b9150819050919050565b6000602082019050612e7a6000830184612762565b92915050565b6000606082019050612e956000830186612762565b612ea26020830185612762565b612eaf6040830184612d88565b949350505050565b6000604082019050612ecc6000830185612762565b612ed96020830184612d88565b9392505050565b6000602082019050612ef56000830184612771565b92915050565b6000604082019050612f10600083018561283f565b612f1d602083018461283f565b9392505050565b60006020820190508181036000830152612f3e818461284e565b905092915050565b60006040820190508181036000830152612f608185612887565b90508181036020830152612f748184612887565b90509392505050565b60006020820190508181036000830152612f96816129a4565b9050919050565b60006020820190508181036000830152612fb6816129e4565b9050919050565b60006020820190508181036000830152612fd681612a4a565b9050919050565b60006020820190508181036000830152612ff681612ab0565b9050919050565b6000602082019050818103600083015261301681612af0565b9050919050565b6000602082019050818103600083015261303681612b30565b9050919050565b6000602082019050818103600083015261305681612bd6565b9050919050565b6000602082019050818103600083015261307681612c3c565b9050919050565b6000602082019050818103600083015261309681612ca2565b9050919050565b600060208201905081810360008301526130b681612ce2565b9050919050565b600060208201905081810360008301526130d681612d22565b9050919050565b60006020820190506130f26000830184612d88565b92915050565b600060408201905061310d6000830185612d88565b61311a6020830184612d88565b9392505050565b60006020820190506131366000830184612d97565b92915050565b6000604051905081810181811067ffffffffffffffff821117156131635761316261329e565b5b8060405250919050565b600067ffffffffffffffff8211156131885761318761329e565b5b601f19601f8301169050602081019050919050565b60008190508160005260206000209050919050565b60008190508160005260206000209050919050565b600081519050919050565b600081519050919050565b600081905092915050565b600082825260208201905092915050565b600081905092915050565b600061320f82613222565b9050919050565b60008115159050919050565b600073ffffffffffffffffffffffffffffffffffffffff82169050919050565b6000819050919050565b600060ff82169050919050565b600061326482613242565b9050919050565b60005b8381101561328957808201518184015260208101905061326e565b83811115613298576000848401525b50505050565bfe5b6000601f19601f8301169050919050565b6132ba81613204565b81146132c557600080fd5b50565b6132d181613216565b81146132dc57600080fd5b50565b6132e881613242565b81146132f357600080fd5b5056fe7472616e7366657246726f6d28616464726573732c616464726573732c75696e7432353629a2646970667358221220bb22bd1738ae482f0ee0076811f1599e7ef9d91331dd1032f20a07c8bc43733a64736f6c63430007060033",
  "immutableReferences": {},
  "source": "// SPDX-License-Identifier: MIT\r\npragma solidity =0.7.6;\r\npragma abicoder v2;\r\n\r\nimport \"./interfaces/IBEP20.sol\";\r\nimport \"./interfaces/ITokenChopToken.sol\";\r\nimport \"./TokenChopSpec.sol\";\r\nimport \"./interfaces/IStdReference.sol\";\r\nimport \"./libs/SafeMath.sol\";\r\nimport \"./libs/Math.sol\";\r\n\r\ncontract TokenChopStable is IBEP20, ITokenChopToken {\r\n    using SafeMath for uint256;\r\n    mapping(address => uint256) public override balanceOf;\r\n    mapping(address => mapping(address => uint256)) public override allowance;\r\n\r\n    string  public override name;\r\n    string  public override symbol;\r\n    string  public baseSymbol;\r\n    string  public quoteSymbol;\r\n    string  public constant poolType = \"Stable\";\r\n    uint8   public constant typeId = 0;\r\n    address public base;\r\n    address public quote;\r\n    address public sister;\r\n    address public factory;\r\n    uint256 public collateral;\r\n    uint256 public previousPrice;\r\n    uint256 public price;\r\n    uint8   public constant priceDecimals = 18;\r\n    uint256 public override totalSupply;\r\n    address public bandProtocol;\r\n\r\n    event CollateralTransfer(address indexed from, address indexed to, uint256 value);\r\n    event InsufficientCollateral(uint256 required, uint256 obtained);\r\n    event PriceUpdate(uint256 oldPrice, uint256 newPrice);\r\n\r\n    bytes4 private constant TRANSFER_SELECTOR = bytes4(keccak256(bytes('transfer(address,uint256)')));\r\n    bytes4 private constant TRANSFER_FROM_SELECTOR = bytes4(keccak256(bytes('transferFrom(address,address,uint256)')));\r\n    \r\n    constructor() {\r\n        factory = msg.sender;\r\n    }\r\n\r\n    modifier onlyFactory() {\r\n        require(msg.sender == factory, 'TokenChop: FORBIDDEN');\r\n        _;\r\n    }\r\n\r\n    modifier onlySister() {\r\n        require(msg.sender == sister, 'TokenChop: FORBIDDEN');\r\n        _;\r\n    }\r\n\r\n    function initialize(address _base, address _quote, address _sister) external override onlyFactory {\r\n        bandProtocol = 0xDA7a001b254CD22e46d3eAB04d937489c93174C3;\r\n        base = _base;\r\n        quote = _quote;\r\n        sister = _sister;\r\n        baseSymbol = IBEP20(base).symbol();\r\n        baseSymbol = keccak256(abi.encodePacked(baseSymbol)) == keccak256(abi.encodePacked(\"WBNB\")) ? \"BNB\" : baseSymbol;\r\n        quoteSymbol = IBEP20(quote).symbol();\r\n        name = string(abi.encodePacked(bytes(\"TokenChop: \"), bytes(baseSymbol), bytes(\"/\"), bytes(quoteSymbol), bytes(\" Stable\")));\r\n        symbol = string(abi.encodePacked(bytes(baseSymbol), bytes(quoteSymbol), bytes('0')));\r\n    }\r\n\r\n    function setBandAddress(address _bandAddr) external override onlyFactory {\r\n        bandProtocol = _bandAddr;\r\n    }\r\n\r\n    function getOwner() external override view returns (address) {\r\n        return factory;\r\n    }\r\n\r\n    function decimals() external override pure returns (uint8) {\r\n        return 18;\r\n    }\r\n\r\n    function transfer(address _recipient, uint256 _amount) external override returns (bool) {\r\n        _transfer(msg.sender, _recipient, _amount);\r\n        return true;\r\n    }\r\n\r\n    function approve(address _spender, uint256 _amount) external override returns (bool) {\r\n        _approve(msg.sender, _spender, _amount);\r\n        return true;\r\n    }\r\n\r\n    function transferFrom(address _sender, address _recipient, uint256 _amount) external override returns (bool) {\r\n        _transfer(_sender, _recipient, _amount);\r\n        require(allowance[_sender][msg.sender] >= _amount, \"BEP20: transfer amount exceeds allowance\");\r\n        _approve(_sender, msg.sender, allowance[_sender][msg.sender] - _amount);\r\n        return true;\r\n    }\r\n\r\n    function _transfer(address _sender, address _recipient, uint256 _amount) internal {\r\n        require(_sender != address(0), \"BEP20: transfer from the zero address\");\r\n        require(_recipient != address(0), \"BEP20: transfer to the zero address\");\r\n        require(balanceOf[_sender] >= _amount, \"BEP20: transfer amount exceeds balance\");\r\n        \r\n        balanceOf[_sender] = balanceOf[_sender].sub(_amount);\r\n        balanceOf[_recipient] = balanceOf[_recipient].add(_amount);\r\n\r\n        emit Transfer(_sender, _recipient, _amount);\r\n    }\r\n\r\n    function _approve(address _owner, address _spender, uint256 _amount) internal {\r\n        require(_owner != address(0), \"BEP20: approve from the zero address\");\r\n        require(_spender != address(0), \"BEP20: approve to the zero address\");\r\n\r\n        allowance[_owner][_spender] = _amount;\r\n        emit Approval(_owner, _spender, _amount);\r\n    }\r\n\r\n    function updatePrice() internal {\r\n        IStdReference bandProtocolContract = IStdReference(bandProtocol);\r\n        IStdReference.ReferenceData memory data = bandProtocolContract.getReferenceData(baseSymbol, quoteSymbol);\r\n        uint256 newPrice = data.rate;\r\n        require(newPrice != 0, \"TokenChop: Price update Failed\");\r\n        emit PriceUpdate(price, newPrice);\r\n        previousPrice = price;\r\n        price = newPrice;\r\n    }\r\n\r\n    function updateCollateral() internal {\r\n        uint256 quoteCollateral = Math.baseToQuote(price, collateral);\r\n        if (quoteCollateral == totalSupply) return;\r\n        if (quoteCollateral < totalSupply) {\r\n            uint256 required = totalSupply.sub(quoteCollateral);\r\n            uint256 obtained = getCollateralFromSister(required);\r\n            if (obtained < required) {\r\n                uint newTotalSupply = totalSupply.sub(required).add(obtained);\r\n                emit InsufficientCollateral(required, obtained);\r\n                //dealWithShortfall(newTotalSupply) - Have to rebalance all of the individual balances\r\n            }\r\n        } else {\r\n            uint256 surplus = quoteCollateral.sub(totalSupply);\r\n            sendStableCollateralToSpec(surplus);\r\n        }\r\n    }\r\n\r\n    function updateCollateralBySister() external onlySister {\r\n        updatePrice();\r\n        updateCollateral();\r\n    }\r\n\r\n    function getCollateralFromSister(uint256 _quoteAmount) internal returns (uint256 quoteReceived) {\r\n        uint baseAmount = Math.quoteToBase(price, _quoteAmount);\r\n        TokenChopSpec _sisterContract = TokenChopSpec(sister);\r\n        uint baseReceived = _sisterContract.sendCollateralToSister(baseAmount);\r\n        collateral = collateral.add(baseReceived);\r\n        return Math.baseToQuote(price, baseReceived);\r\n    }\r\n\r\n    function sendStableCollateralToSpec(uint256 _quoteAmount) internal {\r\n        uint256 baseAmount = Math.quoteToBase(price, _quoteAmount);\r\n        collateral = collateral.sub(baseAmount);\r\n        // Reentry risk?\r\n        _safeTransfer(base, sister, baseAmount);\r\n        emit CollateralTransfer(address(this), sister, baseAmount);\r\n    }\r\n\r\n    function mintAtBaseAmount(uint256 baseAmount) public returns (bool) {\r\n        updatePrice();\r\n        updateCollateral();\r\n        _safeTransferFrom(base, msg.sender, address(this), baseAmount);\r\n        uint256 quoteAmount = Math.baseToQuote(price, baseAmount);\r\n        balanceOf[msg.sender] = balanceOf[msg.sender].add(quoteAmount);\r\n        totalSupply = totalSupply.add(quoteAmount);\r\n        collateral = collateral.add(baseAmount);\r\n        emit Transfer(address(0), msg.sender, quoteAmount);\r\n        emit CollateralTransfer(msg.sender, address(this), baseAmount);\r\n        return true;\r\n    }\r\n\r\n    function burn(uint256 quoteAmount) public returns (bool) {\r\n        updatePrice();\r\n        updateCollateral();\r\n        require(quoteAmount <= balanceOf[msg.sender], \"Bad quote amount\");\r\n        emit PriceUpdate(4, 4);\r\n        balanceOf[msg.sender] = balanceOf[msg.sender].sub(quoteAmount);\r\n        uint256 baseAmount = Math.quoteToBase(price, quoteAmount);\r\n        collateral = collateral.sub(baseAmount);\r\n        _safeTransfer(base, msg.sender, baseAmount);\r\n        emit Transfer(msg.sender, address(0), quoteAmount);\r\n        emit CollateralTransfer(address(this), msg.sender, baseAmount);\r\n        return true;\r\n    }\r\n\r\n    function _safeTransfer(address _token, address _to, uint _value) private {\r\n        (bool _success, bytes memory _data) = _token.call(abi.encodeWithSelector(TRANSFER_SELECTOR, _to, _value));\r\n        require(_success && (_data.length == 0 || abi.decode(_data, (bool))), 'TokenChop: TRANSFER_FAILED');\r\n    }\r\n\r\n    function _safeTransferFrom(address _token, address _sender, address _recipient, uint _value) private {\r\n        (bool _success, bytes memory _data) = _token.call(abi.encodeWithSelector(TRANSFER_FROM_SELECTOR, _sender, _recipient, _value));\r\n        require(_success && (_data.length == 0 || abi.decode(_data, (bool))), 'TokenChop: TRANSFER_FROM_FAILED');\r\n    }\r\n\r\n}",
  "sourcePath": "C:\\Repos\\tokenchop\\contracts\\TokenChopStable.sol",
  "compiler": {
    "name": "solc",
    "version": "0.7.6+commit.7338295f.Emscripten.clang"
  },
  "schemaVersion": "3.3.3",
  "updatedAt": "2021-02-11T10:04:41.949Z",
  "devdoc": {
    "kind": "dev",
    "methods": {
      "decimals()": {
        "details": "Returns the token decimals."
      },
      "getOwner()": {
        "details": "Returns the bep token owner."
      }
    },
    "stateVariables": {
      "allowance": {
        "details": "Returns the remaining number of tokens that `spender` will be allowed to spend on behalf of `owner` through {transferFrom}. This is zero by default. This value changes when {approve} or {transferFrom} are called."
      },
      "balanceOf": {
        "details": "Returns the amount of tokens owned by `account`."
      },
      "name": {
        "details": "Returns the token name."
      },
      "symbol": {
        "details": "Returns the token symbol."
      },
      "totalSupply": {
        "details": "Returns the amount of tokens in existence."
      }
    },
    "version": 1
  },
  "userdoc": {
    "kind": "user",
    "methods": {},
    "version": 1
  }
}