{
  "contractName": "TokenChopSpec",
  "abi": [
    {
      "inputs": [],
      "stateMutability": "nonpayable",
      "type": "constructor"
    },
    {
      "anonymous": false,
      "inputs": [
        {
          "indexed": true,
          "internalType": "address",
          "name": "owner",
          "type": "address"
        },
        {
          "indexed": true,
          "internalType": "address",
          "name": "spender",
          "type": "address"
        },
        {
          "indexed": false,
          "internalType": "uint256",
          "name": "value",
          "type": "uint256"
        }
      ],
      "name": "Approval",
      "type": "event"
    },
    {
      "anonymous": false,
      "inputs": [
        {
          "indexed": true,
          "internalType": "address",
          "name": "from",
          "type": "address"
        },
        {
          "indexed": true,
          "internalType": "address",
          "name": "to",
          "type": "address"
        },
        {
          "indexed": false,
          "internalType": "uint256",
          "name": "value",
          "type": "uint256"
        }
      ],
      "name": "CollateralTransfer",
      "type": "event"
    },
    {
      "anonymous": false,
      "inputs": [
        {
          "indexed": false,
          "internalType": "uint256",
          "name": "oldPrice",
          "type": "uint256"
        },
        {
          "indexed": false,
          "internalType": "uint256",
          "name": "newPrice",
          "type": "uint256"
        }
      ],
      "name": "PriceUpdate",
      "type": "event"
    },
    {
      "anonymous": false,
      "inputs": [
        {
          "indexed": true,
          "internalType": "address",
          "name": "from",
          "type": "address"
        },
        {
          "indexed": true,
          "internalType": "address",
          "name": "to",
          "type": "address"
        },
        {
          "indexed": false,
          "internalType": "uint256",
          "name": "value",
          "type": "uint256"
        }
      ],
      "name": "Transfer",
      "type": "event"
    },
    {
      "inputs": [
        {
          "internalType": "address",
          "name": "",
          "type": "address"
        },
        {
          "internalType": "address",
          "name": "",
          "type": "address"
        }
      ],
      "name": "allowance",
      "outputs": [
        {
          "internalType": "uint256",
          "name": "",
          "type": "uint256"
        }
      ],
      "stateMutability": "view",
      "type": "function"
    },
    {
      "inputs": [
        {
          "internalType": "address",
          "name": "",
          "type": "address"
        }
      ],
      "name": "balanceOf",
      "outputs": [
        {
          "internalType": "uint256",
          "name": "",
          "type": "uint256"
        }
      ],
      "stateMutability": "view",
      "type": "function"
    },
    {
      "inputs": [],
      "name": "bandProtocol",
      "outputs": [
        {
          "internalType": "address",
          "name": "",
          "type": "address"
        }
      ],
      "stateMutability": "view",
      "type": "function"
    },
    {
      "inputs": [],
      "name": "base",
      "outputs": [
        {
          "internalType": "address",
          "name": "",
          "type": "address"
        }
      ],
      "stateMutability": "view",
      "type": "function"
    },
    {
      "inputs": [],
      "name": "baseSymbol",
      "outputs": [
        {
          "internalType": "string",
          "name": "",
          "type": "string"
        }
      ],
      "stateMutability": "view",
      "type": "function"
    },
    {
      "inputs": [],
      "name": "collateral",
      "outputs": [
        {
          "internalType": "uint256",
          "name": "",
          "type": "uint256"
        }
      ],
      "stateMutability": "view",
      "type": "function"
    },
    {
      "inputs": [],
      "name": "factory",
      "outputs": [
        {
          "internalType": "address",
          "name": "",
          "type": "address"
        }
      ],
      "stateMutability": "view",
      "type": "function"
    },
    {
      "inputs": [],
      "name": "name",
      "outputs": [
        {
          "internalType": "string",
          "name": "",
          "type": "string"
        }
      ],
      "stateMutability": "view",
      "type": "function"
    },
    {
      "inputs": [],
      "name": "poolType",
      "outputs": [
        {
          "internalType": "string",
          "name": "",
          "type": "string"
        }
      ],
      "stateMutability": "view",
      "type": "function"
    },
    {
      "inputs": [],
      "name": "previousPrice",
      "outputs": [
        {
          "internalType": "uint256",
          "name": "",
          "type": "uint256"
        }
      ],
      "stateMutability": "view",
      "type": "function"
    },
    {
      "inputs": [],
      "name": "price",
      "outputs": [
        {
          "internalType": "uint256",
          "name": "",
          "type": "uint256"
        }
      ],
      "stateMutability": "view",
      "type": "function"
    },
    {
      "inputs": [],
      "name": "quote",
      "outputs": [
        {
          "internalType": "address",
          "name": "",
          "type": "address"
        }
      ],
      "stateMutability": "view",
      "type": "function"
    },
    {
      "inputs": [],
      "name": "quoteSymbol",
      "outputs": [
        {
          "internalType": "string",
          "name": "",
          "type": "string"
        }
      ],
      "stateMutability": "view",
      "type": "function"
    },
    {
      "inputs": [],
      "name": "sister",
      "outputs": [
        {
          "internalType": "address",
          "name": "",
          "type": "address"
        }
      ],
      "stateMutability": "view",
      "type": "function"
    },
    {
      "inputs": [],
      "name": "symbol",
      "outputs": [
        {
          "internalType": "string",
          "name": "",
          "type": "string"
        }
      ],
      "stateMutability": "view",
      "type": "function"
    },
    {
      "inputs": [],
      "name": "totalSupply",
      "outputs": [
        {
          "internalType": "uint256",
          "name": "",
          "type": "uint256"
        }
      ],
      "stateMutability": "view",
      "type": "function"
    },
    {
      "inputs": [],
      "name": "typeId",
      "outputs": [
        {
          "internalType": "uint8",
          "name": "",
          "type": "uint8"
        }
      ],
      "stateMutability": "view",
      "type": "function"
    },
    {
      "inputs": [
        {
          "internalType": "address",
          "name": "_base",
          "type": "address"
        },
        {
          "internalType": "address",
          "name": "_quote",
          "type": "address"
        },
        {
          "internalType": "address",
          "name": "_sister",
          "type": "address"
        }
      ],
      "name": "initialize",
      "outputs": [],
      "stateMutability": "nonpayable",
      "type": "function"
    },
    {
      "inputs": [
        {
          "internalType": "address",
          "name": "_bandAddr",
          "type": "address"
        }
      ],
      "name": "setBandAddress",
      "outputs": [],
      "stateMutability": "nonpayable",
      "type": "function"
    },
    {
      "inputs": [],
      "name": "getOwner",
      "outputs": [
        {
          "internalType": "address",
          "name": "",
          "type": "address"
        }
      ],
      "stateMutability": "view",
      "type": "function"
    },
    {
      "inputs": [],
      "name": "decimals",
      "outputs": [
        {
          "internalType": "uint8",
          "name": "",
          "type": "uint8"
        }
      ],
      "stateMutability": "pure",
      "type": "function"
    },
    {
      "inputs": [
        {
          "internalType": "address",
          "name": "_recipient",
          "type": "address"
        },
        {
          "internalType": "uint256",
          "name": "_amount",
          "type": "uint256"
        }
      ],
      "name": "transfer",
      "outputs": [
        {
          "internalType": "bool",
          "name": "",
          "type": "bool"
        }
      ],
      "stateMutability": "nonpayable",
      "type": "function"
    },
    {
      "inputs": [
        {
          "internalType": "address",
          "name": "_spender",
          "type": "address"
        },
        {
          "internalType": "uint256",
          "name": "_amount",
          "type": "uint256"
        }
      ],
      "name": "approve",
      "outputs": [
        {
          "internalType": "bool",
          "name": "",
          "type": "bool"
        }
      ],
      "stateMutability": "nonpayable",
      "type": "function"
    },
    {
      "inputs": [
        {
          "internalType": "address",
          "name": "_sender",
          "type": "address"
        },
        {
          "internalType": "address",
          "name": "_recipient",
          "type": "address"
        },
        {
          "internalType": "uint256",
          "name": "_amount",
          "type": "uint256"
        }
      ],
      "name": "transferFrom",
      "outputs": [
        {
          "internalType": "bool",
          "name": "",
          "type": "bool"
        }
      ],
      "stateMutability": "nonpayable",
      "type": "function"
    },
    {
      "inputs": [
        {
          "internalType": "uint256",
          "name": "baseRequested",
          "type": "uint256"
        }
      ],
      "name": "sendCollateralToSister",
      "outputs": [
        {
          "internalType": "uint256",
          "name": "sent",
          "type": "uint256"
        }
      ],
      "stateMutability": "nonpayable",
      "type": "function"
    },
    {
      "inputs": [
        {
          "internalType": "uint256",
          "name": "_collateralAmount",
          "type": "uint256"
        }
      ],
      "name": "mint",
      "outputs": [
        {
          "internalType": "bool",
          "name": "",
          "type": "bool"
        }
      ],
      "stateMutability": "nonpayable",
      "type": "function"
    },
    {
      "inputs": [
        {
          "internalType": "uint256",
          "name": "_tokenAmount",
          "type": "uint256"
        }
      ],
      "name": "burn",
      "outputs": [
        {
          "internalType": "bool",
          "name": "",
          "type": "bool"
        }
      ],
      "stateMutability": "nonpayable",
      "type": "function"
    }
  ],
  "bytecode": "0x608060405234801561001057600080fd5b5033600960006101000a81548173ffffffffffffffffffffffffffffffffffffffff021916908373ffffffffffffffffffffffffffffffffffffffff160217905550612bbc806100616000396000f3fe608060405234801561001057600080fd5b50600436106101a95760003560e01c80638f940f63116100f9578063a9ed003d11610097578063c45a015511610071578063c45a0155146104c8578063d8dfeb45146104e6578063dd62ed3e14610504578063f33ab2b814610534576101a9565b8063a9ed003d14610470578063b1dd61b61461048e578063c0c53b8b146104ac576101a9565b8063999b93af116100d3578063999b93af146103d4578063a035b1fe146103f2578063a0712d6814610410578063a9059cbb14610440576101a9565b80638f940f631461037a578063914e245a1461039857806395d89b41146103b6576101a9565b806342966c68116101665780636fea6b1c116101405780636fea6b1c146102f057806370a082311461030e57806380583be71461033e578063893d20e81461035c576101a9565b806342966c68146102845780635001f3b5146102b457806360d6df6e146102d2576101a9565b806306fdde03146101ae578063095ea7b3146101cc57806318160ddd146101fc57806323b872dd1461021a5780632e4e3d111461024a578063313ce56714610266575b600080fd5b6101b6610564565b6040516101c391906127c1565b60405180910390f35b6101e660048036038101906101e19190611f7f565b610602565b6040516101f391906127a6565b60405180910390f35b610204610619565b604051610211919061295a565b60405180910390f35b610234600480360381019061022f9190611f30565b61061f565b60405161024191906127a6565b60405180910390f35b610264600480360381019061025f9190611e7c565b61077f565b005b61026e610853565b60405161027b919061299e565b60405180910390f35b61029e6004803603810190610299919061204e565b61085c565b6040516102ab91906127a6565b60405180910390f35b6102bc61086f565b6040516102c9919061272b565b60405180910390f35b6102da610895565b6040516102e791906127c1565b60405180910390f35b6102f8610933565b604051610305919061272b565b60405180910390f35b61032860048036038101906103239190611e7c565b610959565b604051610335919061295a565b60405180910390f35b610346610971565b60405161035391906127c1565b60405180910390f35b610364610a0f565b604051610371919061272b565b60405180910390f35b610382610a39565b60405161038f919061299e565b60405180910390f35b6103a0610a3e565b6040516103ad919061295a565b60405180910390f35b6103be610a44565b6040516103cb91906127c1565b60405180910390f35b6103dc610ae2565b6040516103e9919061272b565b60405180910390f35b6103fa610b08565b604051610407919061295a565b60405180910390f35b61042a6004803603810190610425919061204e565b610b0e565b60405161043791906127a6565b60405180910390f35b61045a60048036038101906104559190611f7f565b610b4f565b60405161046791906127a6565b60405180910390f35b610478610b66565b604051610485919061272b565b60405180910390f35b610496610b8c565b6040516104a391906127c1565b60405180910390f35b6104c660048036038101906104c19190611ee1565b610bc5565b005b6104d0611177565b6040516104dd919061272b565b60405180910390f35b6104ee61119d565b6040516104fb919061295a565b60405180910390f35b61051e60048036038101906105199190611ea5565b6111a3565b60405161052b919061295a565b60405180910390f35b61054e6004803603810190610549919061204e565b6111c8565b60405161055b919061295a565b60405180910390f35b60028054600181600116156101000203166002900480601f0160208091040260200160405190810160405280929190818152602001828054600181600116156101000203166002900480156105fa5780601f106105cf576101008083540402835291602001916105fa565b820191906000526020600020905b8154815290600101906020018083116105dd57829003601f168201915b505050505081565b600061060f33848461136b565b6001905092915050565b600d5481565b600061062c848484611536565b81600160008673ffffffffffffffffffffffffffffffffffffffff1673ffffffffffffffffffffffffffffffffffffffff16815260200190815260200160002060003373ffffffffffffffffffffffffffffffffffffffff1673ffffffffffffffffffffffffffffffffffffffff1681526020019081526020016000205410156106eb576040517f08c379a00000000000000000000000000000000000000000000000000000000081526004016106e29061289a565b60405180910390fd5b610774843384600160008973ffffffffffffffffffffffffffffffffffffffff1673ffffffffffffffffffffffffffffffffffffffff16815260200190815260200160002060003373ffffffffffffffffffffffffffffffffffffffff1673ffffffffffffffffffffffffffffffffffffffff168152602001908152602001600020540361136b565b600190509392505050565b600960009054906101000a900473ffffffffffffffffffffffffffffffffffffffff1673ffffffffffffffffffffffffffffffffffffffff163373ffffffffffffffffffffffffffffffffffffffff161461080f576040517f08c379a0000000000000000000000000000000000000000000000000000000008152600401610806906128fa565b60405180910390fd5b80600e60006101000a81548173ffffffffffffffffffffffffffffffffffffffff021916908373ffffffffffffffffffffffffffffffffffffffff16021790555050565b60006012905090565b6000610866611827565b60019050919050565b600660009054906101000a900473ffffffffffffffffffffffffffffffffffffffff1681565b60058054600181600116156101000203166002900480601f01602080910402602001604051908101604052809291908181526020018280546001816001161561010002031660029004801561092b5780601f106109005761010080835404028352916020019161092b565b820191906000526020600020905b81548152906001019060200180831161090e57829003601f168201915b505050505081565b600e60009054906101000a900473ffffffffffffffffffffffffffffffffffffffff1681565b60006020528060005260406000206000915090505481565b60048054600181600116156101000203166002900480601f016020809104026020016040519081016040528092919081815260200182805460018160011615610100020316600290048015610a075780601f106109dc57610100808354040283529160200191610a07565b820191906000526020600020905b8154815290600101906020018083116109ea57829003601f168201915b505050505081565b6000600960009054906101000a900473ffffffffffffffffffffffffffffffffffffffff16905090565b600181565b600b5481565b60038054600181600116156101000203166002900480601f016020809104026020016040519081016040528092919081815260200182805460018160011615610100020316600290048015610ada5780601f10610aaf57610100808354040283529160200191610ada565b820191906000526020600020905b815481529060010190602001808311610abd57829003601f168201915b505050505081565b600760009054906101000a900473ffffffffffffffffffffffffffffffffffffffff1681565b600c5481565b6000610b3e600660009054906101000a900473ffffffffffffffffffffffffffffffffffffffff1633308561197c565b610b46611827565b60019050919050565b6000610b5c338484611536565b6001905092915050565b600860009054906101000a900473ffffffffffffffffffffffffffffffffffffffff1681565b6040518060400160405280600481526020017f537065630000000000000000000000000000000000000000000000000000000081525081565b600960009054906101000a900473ffffffffffffffffffffffffffffffffffffffff1673ffffffffffffffffffffffffffffffffffffffff163373ffffffffffffffffffffffffffffffffffffffff1614610c55576040517f08c379a0000000000000000000000000000000000000000000000000000000008152600401610c4c906128fa565b60405180910390fd5b73da7a001b254cd22e46d3eab04d937489c93174c3600e60006101000a81548173ffffffffffffffffffffffffffffffffffffffff021916908373ffffffffffffffffffffffffffffffffffffffff16021790555082600660006101000a81548173ffffffffffffffffffffffffffffffffffffffff021916908373ffffffffffffffffffffffffffffffffffffffff16021790555081600760006101000a81548173ffffffffffffffffffffffffffffffffffffffff021916908373ffffffffffffffffffffffffffffffffffffffff16021790555080600860006101000a81548173ffffffffffffffffffffffffffffffffffffffff021916908373ffffffffffffffffffffffffffffffffffffffff160217905550600660009054906101000a900473ffffffffffffffffffffffffffffffffffffffff1673ffffffffffffffffffffffffffffffffffffffff166395d89b416040518163ffffffff1660e01b815260040160006040518083038186803b158015610dd557600080fd5b505afa158015610de9573d6000803e3d6000fd5b505050506040513d6000823e3d601f19601f82011682018060405250810190610e129190611fe4565b60049080519060200190610e27929190611cb5565b50604051602001610e3790612716565b604051602081830303815290604052805190602001206004604051602001610e5f91906126ff565b6040516020818303038152906040528051906020012014610f1a5760048054600181600116156101000203166002900480601f016020809104026020016040519081016040528092919081815260200182805460018160011615610100020316600290048015610f105780601f10610ee557610100808354040283529160200191610f10565b820191906000526020600020905b815481529060010190602001808311610ef357829003601f168201915b5050505050610f51565b6040518060400160405280600381526020017f424e4200000000000000000000000000000000000000000000000000000000008152505b60049080519060200190610f66929190611cb5565b50600760009054906101000a900473ffffffffffffffffffffffffffffffffffffffff1673ffffffffffffffffffffffffffffffffffffffff166395d89b416040518163ffffffff1660e01b815260040160006040518083038186803b158015610fcf57600080fd5b505afa158015610fe3573d6000803e3d6000fd5b505050506040513d6000823e3d601f19601f8201168201806040525081019061100c9190611fe4565b60059080519060200190611021929190611cb5565b506040518060400160405280600b81526020017f546f6b656e43686f703a2000000000000000000000000000000000000000000081525060046040518060400160405280600181526020017f2f0000000000000000000000000000000000000000000000000000000000000081525060056040518060400160405280600581526020017f20537065630000000000000000000000000000000000000000000000000000008152506040516020016110dc959493929190612683565b60405160208183030381529060405260029080519060200190611100929190611cb5565b50600460056040518060400160405280600181526020017f310000000000000000000000000000000000000000000000000000000000000081525060405160200161114d939291906126ce565b60405160208183030381529060405260039080519060200190611171929190611cb5565b50505050565b600960009054906101000a900473ffffffffffffffffffffffffffffffffffffffff1681565b600a5481565b6001602052816000526040600020602052806000526040600020600091509150505481565b6000600860009054906101000a900473ffffffffffffffffffffffffffffffffffffffff1673ffffffffffffffffffffffffffffffffffffffff163373ffffffffffffffffffffffffffffffffffffffff161461125a576040517f08c379a0000000000000000000000000000000000000000000000000000000008152600401611251906128fa565b60405180910390fd5b600082600a541061126b578261126f565b600a545b90506112c0600660009054906101000a900473ffffffffffffffffffffffffffffffffffffffff16600860009054906101000a900473ffffffffffffffffffffffffffffffffffffffff1683611aec565b6112d581600a54611c7690919063ffffffff16565b600a81905550600860009054906101000a900473ffffffffffffffffffffffffffffffffffffffff1673ffffffffffffffffffffffffffffffffffffffff163073ffffffffffffffffffffffffffffffffffffffff167f14395d6fb6ac3870af345d12d989b966ccf04dcdd9e02b95722d12dca39eb4b08360405161135a919061295a565b60405180910390a380915050919050565b600073ffffffffffffffffffffffffffffffffffffffff168373ffffffffffffffffffffffffffffffffffffffff1614156113db576040517f08c379a00000000000000000000000000000000000000000000000000000000081526004016113d29061283a565b60405180910390fd5b600073ffffffffffffffffffffffffffffffffffffffff168273ffffffffffffffffffffffffffffffffffffffff16141561144b576040517f08c379a00000000000000000000000000000000000000000000000000000000081526004016114429061293a565b60405180910390fd5b80600160008573ffffffffffffffffffffffffffffffffffffffff1673ffffffffffffffffffffffffffffffffffffffff16815260200190815260200160002060008473ffffffffffffffffffffffffffffffffffffffff1673ffffffffffffffffffffffffffffffffffffffff168152602001908152602001600020819055508173ffffffffffffffffffffffffffffffffffffffff168373ffffffffffffffffffffffffffffffffffffffff167f8c5be1e5ebec7d5bd14f71427d1e84f3dd0314c0f7b2291e5b200ac8c7c3b92583604051611529919061295a565b60405180910390a3505050565b600073ffffffffffffffffffffffffffffffffffffffff168373ffffffffffffffffffffffffffffffffffffffff1614156115a6576040517f08c379a000000000000000000000000000000000000000000000000000000000815260040161159d9061281a565b60405180910390fd5b600073ffffffffffffffffffffffffffffffffffffffff168273ffffffffffffffffffffffffffffffffffffffff161415611616576040517f08c379a000000000000000000000000000000000000000000000000000000000815260040161160d906128da565b60405180910390fd5b806000808573ffffffffffffffffffffffffffffffffffffffff1673ffffffffffffffffffffffffffffffffffffffff168152602001908152602001600020541015611697576040517f08c379a000000000000000000000000000000000000000000000000000000000815260040161168e906128ba565b60405180910390fd5b6116e8816000808673ffffffffffffffffffffffffffffffffffffffff1673ffffffffffffffffffffffffffffffffffffffff16815260200190815260200160002054611c7690919063ffffffff16565b6000808573ffffffffffffffffffffffffffffffffffffffff1673ffffffffffffffffffffffffffffffffffffffff1681526020019081526020016000208190555061177b816000808573ffffffffffffffffffffffffffffffffffffffff1673ffffffffffffffffffffffffffffffffffffffff16815260200190815260200160002054611c9690919063ffffffff16565b6000808473ffffffffffffffffffffffffffffffffffffffff1673ffffffffffffffffffffffffffffffffffffffff168152602001908152602001600020819055508173ffffffffffffffffffffffffffffffffffffffff168373ffffffffffffffffffffffffffffffffffffffff167fddf252ad1be2c89b69c2b068fc378daa952ba7f163c4a11628f55a4df523b3ef8360405161181a919061295a565b60405180910390a3505050565b6000600e60009054906101000a900473ffffffffffffffffffffffffffffffffffffffff16905060008173ffffffffffffffffffffffffffffffffffffffff166365555bcc600460056040518363ffffffff1660e01b815260040161188d9291906127e3565b60606040518083038186803b1580156118a557600080fd5b505afa1580156118b9573d6000803e3d6000fd5b505050506040513d601f19601f820116820180604052508101906118dd9190612025565b9050600081600001519050600081141561192c576040517f08c379a00000000000000000000000000000000000000000000000000000000081526004016119239061291a565b60405180910390fd5b7f92664190cca12aca9cd5309d87194bdda75bb51362d71c06e1a6f75c7c765711600c548260405161195f929190612975565b60405180910390a1600c54600b8190555080600c81905550505050565b6000808573ffffffffffffffffffffffffffffffffffffffff16604051806060016040528060258152602001612b6260259139805190602001208686866040516024016119cb93929190612746565b604051602081830303815290604052907bffffffffffffffffffffffffffffffffffffffffffffffffffffffff19166020820180517bffffffffffffffffffffffffffffffffffffffffffffffffffffffff8381831617835250505050604051611a35919061266c565b6000604051808303816000865af19150503d8060008114611a72576040519150601f19603f3d011682016040523d82523d6000602084013e611a77565b606091505b5091509150818015611aa55750600081511480611aa4575080806020019051810190611aa39190611fbb565b5b5b611ae4576040517f08c379a0000000000000000000000000000000000000000000000000000000008152600401611adb9061285a565b60405180910390fd5b505050505050565b6000808473ffffffffffffffffffffffffffffffffffffffff166040518060400160405280601981526020017f7472616e7366657228616464726573732c75696e743235362900000000000000815250805190602001208585604051602401611b5692919061277d565b604051602081830303815290604052907bffffffffffffffffffffffffffffffffffffffffffffffffffffffff19166020820180517bffffffffffffffffffffffffffffffffffffffffffffffffffffffff8381831617835250505050604051611bc0919061266c565b6000604051808303816000865af19150503d8060008114611bfd576040519150601f19603f3d011682016040523d82523d6000602084013e611c02565b606091505b5091509150818015611c305750600081511480611c2f575080806020019051810190611c2e9190611fbb565b5b5b611c6f576040517f08c379a0000000000000000000000000000000000000000000000000000000008152600401611c669061287a565b60405180910390fd5b5050505050565b600082821115611c8557600080fd5b600082840390508091505092915050565b600080828401905083811015611cab57600080fd5b8091505092915050565b828054600181600116156101000203166002900490600052602060002090601f016020900481019282611ceb5760008555611d32565b82601f10611d0457805160ff1916838001178555611d32565b82800160010185558215611d32579182015b82811115611d31578251825591602001919060010190611d16565b5b509050611d3f9190611d43565b5090565b5b80821115611d5c576000816000905550600101611d44565b5090565b6000611d73611d6e846129ea565b6129b9565b905082815260208101848484011115611d8b57600080fd5b611d96848285612ad6565b509392505050565b600081359050611dad81612b1c565b92915050565b600081519050611dc281612b33565b92915050565b600082601f830112611dd957600080fd5b8151611de9848260208601611d60565b91505092915050565b600060608284031215611e0457600080fd5b611e0e60606129b9565b90506000611e1e84828501611e67565b6000830152506020611e3284828501611e67565b6020830152506040611e4684828501611e67565b60408301525092915050565b600081359050611e6181612b4a565b92915050565b600081519050611e7681612b4a565b92915050565b600060208284031215611e8e57600080fd5b6000611e9c84828501611d9e565b91505092915050565b60008060408385031215611eb857600080fd5b6000611ec685828601611d9e565b9250506020611ed785828601611d9e565b9150509250929050565b600080600060608486031215611ef657600080fd5b6000611f0486828701611d9e565b9350506020611f1586828701611d9e565b9250506040611f2686828701611d9e565b9150509250925092565b600080600060608486031215611f4557600080fd5b6000611f5386828701611d9e565b9350506020611f6486828701611d9e565b9250506040611f7586828701611e52565b9150509250925092565b60008060408385031215611f9257600080fd5b6000611fa085828601611d9e565b9250506020611fb185828601611e52565b9150509250929050565b600060208284031215611fcd57600080fd5b6000611fdb84828501611db3565b91505092915050565b600060208284031215611ff657600080fd5b600082015167ffffffffffffffff81111561201057600080fd5b61201c84828501611dc8565b91505092915050565b60006060828403121561203757600080fd5b600061204584828501611df2565b91505092915050565b60006020828403121561206057600080fd5b600061206e84828501611e52565b91505092915050565b61208081612a81565b82525050565b61208f81612a93565b82525050565b60006120a082612a44565b6120aa8185612a5a565b93506120ba818560208601612ad6565b80840191505092915050565b6000815460018116600081146120e357600181146121085761214c565b607f60028304166120f48187612a5a565b955060ff198316865280860193505061214c565b600282046121168187612a5a565b955061212185612a1a565b60005b8281101561214357815481890152600182019150602081019050612124565b82880195505050505b505092915050565b600061215f82612a4f565b6121698185612a65565b9350612179818560208601612ad6565b61218281612b0b565b840191505092915050565b6000815460018116600081146121aa57600181146121d057612214565b607f60028304166121bb8187612a65565b955060ff198316865260208601935050612214565b600282046121de8187612a65565b95506121e985612a2f565b60005b8281101561220b578154818901526001820191506020810190506121ec565b80880195505050505b505092915050565b600081546001811660008114612239576001811461225e576122a2565b607f600283041661224a8187612a76565b955060ff19831686528086019350506122a2565b6002820461226c8187612a76565b955061227785612a2f565b60005b828110156122995781548189015260018201915060208101905061227a565b82880195505050505b505092915050565b60006122b7602583612a65565b91507f42455032303a207472616e736665722066726f6d20746865207a65726f20616460008301527f64726573730000000000000000000000000000000000000000000000000000006020830152604082019050919050565b600061231d602483612a65565b91507f42455032303a20617070726f76652066726f6d20746865207a65726f2061646460008301527f72657373000000000000000000000000000000000000000000000000000000006020830152604082019050919050565b6000612383601f83612a65565b91507f546f6b656e43686f703a205452414e534645525f46524f4d5f4641494c4544006000830152602082019050919050565b60006123c3601a83612a65565b91507f546f6b656e43686f703a205452414e534645525f4641494c45440000000000006000830152602082019050919050565b6000612403602883612a65565b91507f42455032303a207472616e7366657220616d6f756e742065786365656473206160008301527f6c6c6f77616e63650000000000000000000000000000000000000000000000006020830152604082019050919050565b6000612469600483612a76565b91507f57424e42000000000000000000000000000000000000000000000000000000006000830152600482019050919050565b60006124a9602683612a65565b91507f42455032303a207472616e7366657220616d6f756e742065786365656473206260008301527f616c616e636500000000000000000000000000000000000000000000000000006020830152604082019050919050565b600061250f602383612a65565b91507f42455032303a207472616e7366657220746f20746865207a65726f206164647260008301527f65737300000000000000000000000000000000000000000000000000000000006020830152604082019050919050565b6000612575601483612a65565b91507f546f6b656e43686f703a20464f5242494444454e0000000000000000000000006000830152602082019050919050565b60006125b5601e83612a65565b91507f546f6b656e43686f703a20507269636520757064617465204661696c656400006000830152602082019050919050565b60006125f5602283612a65565b91507f42455032303a20617070726f766520746f20746865207a65726f20616464726560008301527f73730000000000000000000000000000000000000000000000000000000000006020830152604082019050919050565b61265781612abf565b82525050565b61266681612ac9565b82525050565b60006126788284612095565b915081905092915050565b600061268f8288612095565b915061269b82876120c6565b91506126a78286612095565b91506126b382856120c6565b91506126bf8284612095565b91508190509695505050505050565b60006126da82866120c6565b91506126e682856120c6565b91506126f28284612095565b9150819050949350505050565b600061270b828461221c565b915081905092915050565b60006127218261245c565b9150819050919050565b60006020820190506127406000830184612077565b92915050565b600060608201905061275b6000830186612077565b6127686020830185612077565b612775604083018461264e565b949350505050565b60006040820190506127926000830185612077565b61279f602083018461264e565b9392505050565b60006020820190506127bb6000830184612086565b92915050565b600060208201905081810360008301526127db8184612154565b905092915050565b600060408201905081810360008301526127fd818561218d565b90508181036020830152612811818461218d565b90509392505050565b60006020820190508181036000830152612833816122aa565b9050919050565b6000602082019050818103600083015261285381612310565b9050919050565b6000602082019050818103600083015261287381612376565b9050919050565b60006020820190508181036000830152612893816123b6565b9050919050565b600060208201905081810360008301526128b3816123f6565b9050919050565b600060208201905081810360008301526128d38161249c565b9050919050565b600060208201905081810360008301526128f381612502565b9050919050565b6000602082019050818103600083015261291381612568565b9050919050565b60006020820190508181036000830152612933816125a8565b9050919050565b60006020820190508181036000830152612953816125e8565b9050919050565b600060208201905061296f600083018461264e565b92915050565b600060408201905061298a600083018561264e565b612997602083018461264e565b9392505050565b60006020820190506129b3600083018461265d565b92915050565b6000604051905081810181811067ffffffffffffffff821117156129e0576129df612b09565b5b8060405250919050565b600067ffffffffffffffff821115612a0557612a04612b09565b5b601f19601f8301169050602081019050919050565b60008190508160005260206000209050919050565b60008190508160005260206000209050919050565b600081519050919050565b600081519050919050565b600081905092915050565b600082825260208201905092915050565b600081905092915050565b6000612a8c82612a9f565b9050919050565b60008115159050919050565b600073ffffffffffffffffffffffffffffffffffffffff82169050919050565b6000819050919050565b600060ff82169050919050565b60005b83811015612af4578082015181840152602081019050612ad9565b83811115612b03576000848401525b50505050565bfe5b6000601f19601f8301169050919050565b612b2581612a81565b8114612b3057600080fd5b50565b612b3c81612a93565b8114612b4757600080fd5b50565b612b5381612abf565b8114612b5e57600080fd5b5056fe7472616e7366657246726f6d28616464726573732c616464726573732c75696e7432353629a2646970667358221220c540959cb3e0bb1d9aba10fefba90fabba1cef61b91d5f6f0516e327e609157864736f6c63430007060033",
  "immutableReferences": {},
  "source": "// SPDX-License-Identifier: MIT\r\npragma solidity =0.7.6;\r\npragma abicoder v2;\r\n\r\nimport \"./interfaces/IBEP20.sol\";\r\nimport \"./interfaces/ITokenChopToken.sol\";\r\nimport \"./TokenChopStable.sol\";\r\nimport \"./interfaces/IStdReference.sol\";\r\nimport \"./libs/SafeMath.sol\";\r\nimport \"./libs/Math.sol\";\r\n\r\ncontract TokenChopSpec is IBEP20, ITokenChopToken {\r\n    using SafeMath for uint256;\r\n    mapping(address => uint256) public override balanceOf;\r\n    mapping(address => mapping(address => uint256)) public override allowance;\r\n\r\n    string  public override name;\r\n    string  public override symbol;\r\n    string  public baseSymbol;\r\n    string  public quoteSymbol;\r\n    string  public constant poolType = \"Spec\";\r\n    uint8   public constant typeId = 1;\r\n    address public base;\r\n    address public quote;\r\n    address public sister;\r\n    address public factory;\r\n    uint256 public collateral;\r\n    uint256 public previousPrice;\r\n    uint256 public price;\r\n    uint256 public override totalSupply;\r\n    address public bandProtocol;\r\n\r\n    event CollateralTransfer(address indexed from, address indexed to, uint256 value);\r\n    event PriceUpdate(uint256 oldPrice, uint256 newPrice);\r\n\r\n    bytes4 private constant TRANSFER_SELECTOR = bytes4(keccak256(bytes('transfer(address,uint256)')));\r\n    bytes4 private constant TRANSFER_FROM_SELECTOR = bytes4(keccak256(bytes('transferFrom(address,address,uint256)')));\r\n    \r\n    constructor() {\r\n        factory = msg.sender;\r\n    }\r\n\r\n    modifier onlyFactory() {\r\n        require(msg.sender == factory, 'TokenChop: FORBIDDEN');\r\n        _;\r\n    }\r\n\r\n    modifier onlySister() {\r\n        require(msg.sender == sister, 'TokenChop: FORBIDDEN');\r\n        _;\r\n    }\r\n\r\n    function initialize(address _base, address _quote, address _sister) external override onlyFactory {\r\n        bandProtocol = 0xDA7a001b254CD22e46d3eAB04d937489c93174C3;\r\n        base = _base;\r\n        quote = _quote;\r\n        sister = _sister;\r\n        baseSymbol = IBEP20(base).symbol();\r\n        baseSymbol = keccak256(abi.encodePacked(baseSymbol)) == keccak256(abi.encodePacked(\"WBNB\")) ? \"BNB\" : baseSymbol;\r\n        quoteSymbol = IBEP20(quote).symbol();\r\n        name = string(abi.encodePacked(bytes(\"TokenChop: \"), bytes(baseSymbol), bytes(\"/\"), bytes(quoteSymbol), bytes(\" Spec\")));\r\n        symbol = string(abi.encodePacked(bytes(baseSymbol), bytes(quoteSymbol), bytes('1')));\r\n    }\r\n\r\n    function setBandAddress(address _bandAddr) external override onlyFactory {\r\n        bandProtocol = _bandAddr;\r\n    }\r\n\r\n    function getOwner() external override view returns (address) {\r\n        return factory;\r\n    }\r\n\r\n    function decimals() external override pure returns (uint8) {\r\n        return 18;\r\n    }\r\n\r\n    function transfer(address _recipient, uint256 _amount) external override returns (bool) {\r\n        _transfer(msg.sender, _recipient, _amount);\r\n        return true;\r\n    }\r\n\r\n    function approve(address _spender, uint256 _amount) external override returns (bool) {\r\n        _approve(msg.sender, _spender, _amount);\r\n        return true;\r\n    }\r\n\r\n    function transferFrom(address _sender, address _recipient, uint256 _amount) external override returns (bool) {\r\n        _transfer(_sender, _recipient, _amount);\r\n        require(allowance[_sender][msg.sender] >= _amount, \"BEP20: transfer amount exceeds allowance\");\r\n        _approve(_sender, msg.sender, allowance[_sender][msg.sender] - _amount);\r\n        return true;\r\n    }\r\n\r\n    function _transfer(address _sender, address _recipient, uint256 _amount) internal {\r\n        require(_sender != address(0), \"BEP20: transfer from the zero address\");\r\n        require(_recipient != address(0), \"BEP20: transfer to the zero address\");\r\n        require(balanceOf[_sender] >= _amount, \"BEP20: transfer amount exceeds balance\");\r\n        \r\n        balanceOf[_sender] = balanceOf[_sender].sub(_amount);\r\n        balanceOf[_recipient] = balanceOf[_recipient].add(_amount);\r\n\r\n        emit Transfer(_sender, _recipient, _amount);\r\n    }\r\n\r\n    function _approve(address _owner, address _spender, uint256 _amount) internal {\r\n        require(_owner != address(0), \"BEP20: approve from the zero address\");\r\n        require(_spender != address(0), \"BEP20: approve to the zero address\");\r\n\r\n        allowance[_owner][_spender] = _amount;\r\n        emit Approval(_owner, _spender, _amount);\r\n    }\r\n\r\n    function updatePrice() internal {\r\n        IStdReference bandProtocolContract = IStdReference(bandProtocol);\r\n        IStdReference.ReferenceData memory data = bandProtocolContract.getReferenceData(baseSymbol, quoteSymbol);\r\n        uint256 newPrice = data.rate;\r\n        require(newPrice != 0, \"TokenChop: Price update Failed\");\r\n        emit PriceUpdate(price, newPrice);\r\n        previousPrice = price;\r\n        price = newPrice;\r\n    }\r\n\r\n    function updateCollateral() internal {\r\n        TokenChopStable(sister).updateCollateralBySister();\r\n    }\r\n\r\n    function sendCollateralToSister(uint256 baseRequested) public onlySister returns (uint256 sent) {\r\n        uint baseSent = collateral < baseRequested ? collateral : baseRequested;\r\n        // reentry risk?\r\n        _safeTransfer(base, sister, baseSent);\r\n        collateral = collateral.sub(baseSent);\r\n        emit CollateralTransfer(address(this), sister, baseSent);\r\n        return baseSent;\r\n    }\r\n\r\n    function mint(uint256 _collateralAmount) public returns (bool) {\r\n        _safeTransferFrom(base, msg.sender, address(this), _collateralAmount);\r\n        //do i need pending collateral\r\n        updatePrice();\r\n        // updateCollateral();\r\n        // // value of amount in tokens is _totalSupply/collateral\r\n        // uint256 _tokenAmount = _collateralAmount;\r\n        // if (totalSupply != 0 && collateral != 0 && _collateralAmount != 0) {\r\n        //     _tokenAmount = Math.mulDiv(totalSupply, collateral, _collateralAmount);\r\n        // }\r\n        // balanceOf[msg.sender] = balanceOf[msg.sender].add(_tokenAmount);\r\n        // totalSupply = totalSupply.add(_tokenAmount);\r\n        // collateral = collateral.add(_collateralAmount);\r\n        //emit Transfer(address(0), msg.sender, _tokenAmount);\r\n        //emit CollateralTransfer(msg.sender, address(this), _collateralAmount);\r\n        return true;\r\n    }\r\n\r\n    function burn(uint256 _tokenAmount) public returns (bool) {\r\n        //require(_tokenAmount <= balanceOf[msg.sender]);\r\n        //balanceOf[msg.sender] = balanceOf[msg.sender].sub(_tokenAmount);\r\n        updatePrice();\r\n        // updateCollateral();\r\n        // // amount to return is colat*tokens/totalsupply\r\n        // uint256 collateralAmount = Math.mulDiv(collateral, _tokenAmount, totalSupply);\r\n        // collateral = collateral.sub(collateralAmount);\r\n        // _safeTransfer(base, msg.sender, collateralAmount);\r\n        // emit Transfer(msg.sender, address(0), _tokenAmount);\r\n        // emit CollateralTransfer(address(this), msg.sender, collateralAmount);        \r\n        return true;\r\n    }\r\n\r\n    function _safeTransfer(address _token, address _to, uint _value) private {\r\n        (bool _success, bytes memory _data) = _token.call(abi.encodeWithSelector(TRANSFER_SELECTOR, _to, _value));\r\n        require(_success && (_data.length == 0 || abi.decode(_data, (bool))), 'TokenChop: TRANSFER_FAILED');\r\n    }\r\n\r\n    function _safeTransferFrom(address _token, address _sender, address _recipient, uint _value) private {\r\n        (bool _success, bytes memory _data) = _token.call(abi.encodeWithSelector(TRANSFER_FROM_SELECTOR, _sender, _recipient, _value));\r\n        require(_success && (_data.length == 0 || abi.decode(_data, (bool))), 'TokenChop: TRANSFER_FROM_FAILED');\r\n    }\r\n\r\n}",
  "sourcePath": "C:\\Repos\\tokenchop\\contracts\\TokenChopSpec.sol",
  "compiler": {
    "name": "solc",
    "version": "0.7.6+commit.7338295f.Emscripten.clang"
  },
  "schemaVersion": "3.3.3",
  "updatedAt": "2021-02-11T09:04:36.095Z",
  "devdoc": {
    "kind": "dev",
    "methods": {
      "decimals()": {
        "details": "Returns the token decimals."
      },
      "getOwner()": {
        "details": "Returns the bep token owner."
      }
    },
    "stateVariables": {
      "allowance": {
        "details": "Returns the remaining number of tokens that `spender` will be allowed to spend on behalf of `owner` through {transferFrom}. This is zero by default. This value changes when {approve} or {transferFrom} are called."
      },
      "balanceOf": {
        "details": "Returns the amount of tokens owned by `account`."
      },
      "name": {
        "details": "Returns the token name."
      },
      "symbol": {
        "details": "Returns the token symbol."
      },
      "totalSupply": {
        "details": "Returns the amount of tokens in existence."
      }
    },
    "version": 1
  },
  "userdoc": {
    "kind": "user",
    "methods": {},
    "version": 1
  }
}