{
  "contractName": "TokenChopStable",
  "abi": [
    {
      "inputs": [],
      "stateMutability": "nonpayable",
      "type": "constructor"
    },
    {
      "anonymous": false,
      "inputs": [
        {
          "indexed": true,
          "internalType": "address",
          "name": "owner",
          "type": "address"
        },
        {
          "indexed": true,
          "internalType": "address",
          "name": "spender",
          "type": "address"
        },
        {
          "indexed": false,
          "internalType": "uint256",
          "name": "value",
          "type": "uint256"
        }
      ],
      "name": "Approval",
      "type": "event"
    },
    {
      "anonymous": false,
      "inputs": [
        {
          "indexed": true,
          "internalType": "address",
          "name": "from",
          "type": "address"
        },
        {
          "indexed": true,
          "internalType": "address",
          "name": "to",
          "type": "address"
        },
        {
          "indexed": false,
          "internalType": "uint256",
          "name": "value",
          "type": "uint256"
        }
      ],
      "name": "CollateralTransfer",
      "type": "event"
    },
    {
      "anonymous": false,
      "inputs": [
        {
          "indexed": false,
          "internalType": "uint256",
          "name": "required",
          "type": "uint256"
        },
        {
          "indexed": false,
          "internalType": "uint256",
          "name": "obtained",
          "type": "uint256"
        }
      ],
      "name": "InsufficientCollateral",
      "type": "event"
    },
    {
      "anonymous": false,
      "inputs": [
        {
          "indexed": false,
          "internalType": "uint256",
          "name": "oldPrice",
          "type": "uint256"
        },
        {
          "indexed": false,
          "internalType": "uint256",
          "name": "newPrice",
          "type": "uint256"
        }
      ],
      "name": "PriceUpdate",
      "type": "event"
    },
    {
      "anonymous": false,
      "inputs": [
        {
          "indexed": true,
          "internalType": "address",
          "name": "from",
          "type": "address"
        },
        {
          "indexed": true,
          "internalType": "address",
          "name": "to",
          "type": "address"
        },
        {
          "indexed": false,
          "internalType": "uint256",
          "name": "value",
          "type": "uint256"
        }
      ],
      "name": "Transfer",
      "type": "event"
    },
    {
      "inputs": [
        {
          "internalType": "address",
          "name": "",
          "type": "address"
        },
        {
          "internalType": "address",
          "name": "",
          "type": "address"
        }
      ],
      "name": "allowance",
      "outputs": [
        {
          "internalType": "uint256",
          "name": "",
          "type": "uint256"
        }
      ],
      "stateMutability": "view",
      "type": "function"
    },
    {
      "inputs": [
        {
          "internalType": "address",
          "name": "",
          "type": "address"
        }
      ],
      "name": "balanceOf",
      "outputs": [
        {
          "internalType": "uint256",
          "name": "",
          "type": "uint256"
        }
      ],
      "stateMutability": "view",
      "type": "function"
    },
    {
      "inputs": [],
      "name": "bandProtocol",
      "outputs": [
        {
          "internalType": "address",
          "name": "",
          "type": "address"
        }
      ],
      "stateMutability": "view",
      "type": "function"
    },
    {
      "inputs": [],
      "name": "base",
      "outputs": [
        {
          "internalType": "address",
          "name": "",
          "type": "address"
        }
      ],
      "stateMutability": "view",
      "type": "function"
    },
    {
      "inputs": [],
      "name": "baseSymbol",
      "outputs": [
        {
          "internalType": "string",
          "name": "",
          "type": "string"
        }
      ],
      "stateMutability": "view",
      "type": "function"
    },
    {
      "inputs": [],
      "name": "collateral",
      "outputs": [
        {
          "internalType": "uint256",
          "name": "",
          "type": "uint256"
        }
      ],
      "stateMutability": "view",
      "type": "function"
    },
    {
      "inputs": [],
      "name": "factory",
      "outputs": [
        {
          "internalType": "address",
          "name": "",
          "type": "address"
        }
      ],
      "stateMutability": "view",
      "type": "function"
    },
    {
      "inputs": [],
      "name": "name",
      "outputs": [
        {
          "internalType": "string",
          "name": "",
          "type": "string"
        }
      ],
      "stateMutability": "view",
      "type": "function"
    },
    {
      "inputs": [],
      "name": "poolType",
      "outputs": [
        {
          "internalType": "string",
          "name": "",
          "type": "string"
        }
      ],
      "stateMutability": "view",
      "type": "function"
    },
    {
      "inputs": [],
      "name": "previousPrice",
      "outputs": [
        {
          "internalType": "uint256",
          "name": "",
          "type": "uint256"
        }
      ],
      "stateMutability": "view",
      "type": "function"
    },
    {
      "inputs": [],
      "name": "price",
      "outputs": [
        {
          "internalType": "uint256",
          "name": "",
          "type": "uint256"
        }
      ],
      "stateMutability": "view",
      "type": "function"
    },
    {
      "inputs": [],
      "name": "priceDecimals",
      "outputs": [
        {
          "internalType": "uint8",
          "name": "",
          "type": "uint8"
        }
      ],
      "stateMutability": "view",
      "type": "function"
    },
    {
      "inputs": [],
      "name": "quote",
      "outputs": [
        {
          "internalType": "address",
          "name": "",
          "type": "address"
        }
      ],
      "stateMutability": "view",
      "type": "function"
    },
    {
      "inputs": [],
      "name": "quoteSymbol",
      "outputs": [
        {
          "internalType": "string",
          "name": "",
          "type": "string"
        }
      ],
      "stateMutability": "view",
      "type": "function"
    },
    {
      "inputs": [],
      "name": "sister",
      "outputs": [
        {
          "internalType": "address",
          "name": "",
          "type": "address"
        }
      ],
      "stateMutability": "view",
      "type": "function"
    },
    {
      "inputs": [],
      "name": "symbol",
      "outputs": [
        {
          "internalType": "string",
          "name": "",
          "type": "string"
        }
      ],
      "stateMutability": "view",
      "type": "function"
    },
    {
      "inputs": [],
      "name": "totalSupply",
      "outputs": [
        {
          "internalType": "uint256",
          "name": "",
          "type": "uint256"
        }
      ],
      "stateMutability": "view",
      "type": "function"
    },
    {
      "inputs": [],
      "name": "typeId",
      "outputs": [
        {
          "internalType": "uint8",
          "name": "",
          "type": "uint8"
        }
      ],
      "stateMutability": "view",
      "type": "function"
    },
    {
      "inputs": [
        {
          "internalType": "address",
          "name": "_base",
          "type": "address"
        },
        {
          "internalType": "address",
          "name": "_quote",
          "type": "address"
        },
        {
          "internalType": "address",
          "name": "_sister",
          "type": "address"
        }
      ],
      "name": "initialize",
      "outputs": [],
      "stateMutability": "nonpayable",
      "type": "function"
    },
    {
      "inputs": [
        {
          "internalType": "address",
          "name": "_bandAddr",
          "type": "address"
        }
      ],
      "name": "setBandAddress",
      "outputs": [],
      "stateMutability": "nonpayable",
      "type": "function"
    },
    {
      "inputs": [],
      "name": "getOwner",
      "outputs": [
        {
          "internalType": "address",
          "name": "",
          "type": "address"
        }
      ],
      "stateMutability": "view",
      "type": "function"
    },
    {
      "inputs": [],
      "name": "decimals",
      "outputs": [
        {
          "internalType": "uint8",
          "name": "",
          "type": "uint8"
        }
      ],
      "stateMutability": "pure",
      "type": "function"
    },
    {
      "inputs": [
        {
          "internalType": "address",
          "name": "_recipient",
          "type": "address"
        },
        {
          "internalType": "uint256",
          "name": "_amount",
          "type": "uint256"
        }
      ],
      "name": "transfer",
      "outputs": [
        {
          "internalType": "bool",
          "name": "",
          "type": "bool"
        }
      ],
      "stateMutability": "nonpayable",
      "type": "function"
    },
    {
      "inputs": [
        {
          "internalType": "address",
          "name": "_spender",
          "type": "address"
        },
        {
          "internalType": "uint256",
          "name": "_amount",
          "type": "uint256"
        }
      ],
      "name": "approve",
      "outputs": [
        {
          "internalType": "bool",
          "name": "",
          "type": "bool"
        }
      ],
      "stateMutability": "nonpayable",
      "type": "function"
    },
    {
      "inputs": [
        {
          "internalType": "address",
          "name": "_sender",
          "type": "address"
        },
        {
          "internalType": "address",
          "name": "_recipient",
          "type": "address"
        },
        {
          "internalType": "uint256",
          "name": "_amount",
          "type": "uint256"
        }
      ],
      "name": "transferFrom",
      "outputs": [
        {
          "internalType": "bool",
          "name": "",
          "type": "bool"
        }
      ],
      "stateMutability": "nonpayable",
      "type": "function"
    },
    {
      "inputs": [],
      "name": "updateCollateralBySister",
      "outputs": [],
      "stateMutability": "nonpayable",
      "type": "function"
    },
    {
      "inputs": [
        {
          "internalType": "uint256",
          "name": "baseAmount",
          "type": "uint256"
        }
      ],
      "name": "mintAtBaseAmount",
      "outputs": [
        {
          "internalType": "bool",
          "name": "",
          "type": "bool"
        }
      ],
      "stateMutability": "nonpayable",
      "type": "function"
    },
    {
      "inputs": [
        {
          "internalType": "uint256",
          "name": "quoteAmount",
          "type": "uint256"
        }
      ],
      "name": "burn",
      "outputs": [
        {
          "internalType": "bool",
          "name": "",
          "type": "bool"
        }
      ],
      "stateMutability": "nonpayable",
      "type": "function"
    }
  ],
  "bytecode": "0x608060405234801561001057600080fd5b5033600960006101000a81548173ffffffffffffffffffffffffffffffffffffffff021916908373ffffffffffffffffffffffffffffffffffffffff160217905550613237806100616000396000f3fe608060405234801561001057600080fd5b50600436106101c45760003560e01c80638f940f63116100f9578063b1dd61b611610097578063c6950a7c11610071578063c6950a7c146104ef578063cd0b4aed146104f9578063d8dfeb4514610529578063dd62ed3e14610547576101c4565b8063b1dd61b614610497578063c0c53b8b146104b5578063c45a0155146104d1576101c4565b8063999b93af116100d3578063999b93af1461040d578063a035b1fe1461042b578063a9059cbb14610449578063a9ed003d14610479576101c4565b80638f940f63146103b3578063914e245a146103d157806395d89b41146103ef576101c4565b806342966c68116101665780636fea6b1c116101405780636fea6b1c1461032957806370a082311461034757806380583be714610377578063893d20e814610395576101c4565b806342966c68146102bd5780635001f3b5146102ed57806360d6df6e1461030b576101c4565b806318160ddd116101a257806318160ddd1461023557806323b872dd146102535780632e4e3d1114610283578063313ce5671461029f576101c4565b806305300b28146101c957806306fdde03146101e7578063095ea7b314610205575b600080fd5b6101d1610577565b6040516101de9190613019565b60405180910390f35b6101ef61057c565b6040516101fc9190612e3c565b60405180910390f35b61021f600480360381019061021a91906125d1565b61061a565b60405161022c9190612e21565b60405180910390f35b61023d610631565b60405161024a9190612fd5565b60405180910390f35b61026d60048036038101906102689190612582565b610637565b60405161027a9190612e21565b60405180910390f35b61029d600480360381019061029891906124ce565b610797565b005b6102a761086b565b6040516102b49190613019565b60405180910390f35b6102d760048036038101906102d291906126a0565b610874565b6040516102e49190612e21565b60405180910390f35b6102f5610a91565b6040516103029190612da6565b60405180910390f35b610313610ab7565b6040516103209190612e3c565b60405180910390f35b610331610b55565b60405161033e9190612da6565b60405180910390f35b610361600480360381019061035c91906124ce565b610b7b565b60405161036e9190612fd5565b60405180910390f35b61037f610b93565b60405161038c9190612e3c565b60405180910390f35b61039d610c31565b6040516103aa9190612da6565b60405180910390f35b6103bb610c5b565b6040516103c89190613019565b60405180910390f35b6103d9610c60565b6040516103e69190612fd5565b60405180910390f35b6103f7610c66565b6040516104049190612e3c565b60405180910390f35b610415610d04565b6040516104229190612da6565b60405180910390f35b610433610d2a565b6040516104409190612fd5565b60405180910390f35b610463600480360381019061045e91906125d1565b610d30565b6040516104709190612e21565b60405180910390f35b610481610d47565b60405161048e9190612da6565b60405180910390f35b61049f610d6d565b6040516104ac9190612e3c565b60405180910390f35b6104cf60048036038101906104ca9190612533565b610da6565b005b6104d9611358565b6040516104e69190612da6565b60405180910390f35b6104f761137e565b005b610513600480360381019061050e91906126a0565b611420565b6040516105209190612e21565b60405180910390f35b61053161160e565b60405161053e9190612fd5565b60405180910390f35b610561600480360381019061055c91906124f7565b611614565b60405161056e9190612fd5565b60405180910390f35b601281565b60028054600181600116156101000203166002900480601f0160208091040260200160405190810160405280929190818152602001828054600181600116156101000203166002900480156106125780601f106105e757610100808354040283529160200191610612565b820191906000526020600020905b8154815290600101906020018083116105f557829003601f168201915b505050505081565b6000610627338484611639565b6001905092915050565b600d5481565b6000610644848484611804565b81600160008673ffffffffffffffffffffffffffffffffffffffff1673ffffffffffffffffffffffffffffffffffffffff16815260200190815260200160002060003373ffffffffffffffffffffffffffffffffffffffff1673ffffffffffffffffffffffffffffffffffffffff168152602001908152602001600020541015610703576040517f08c379a00000000000000000000000000000000000000000000000000000000081526004016106fa90612f15565b60405180910390fd5b61078c843384600160008973ffffffffffffffffffffffffffffffffffffffff1673ffffffffffffffffffffffffffffffffffffffff16815260200190815260200160002060003373ffffffffffffffffffffffffffffffffffffffff1673ffffffffffffffffffffffffffffffffffffffff1681526020019081526020016000205403611639565b600190509392505050565b600960009054906101000a900473ffffffffffffffffffffffffffffffffffffffff1673ffffffffffffffffffffffffffffffffffffffff163373ffffffffffffffffffffffffffffffffffffffff1614610827576040517f08c379a000000000000000000000000000000000000000000000000000000000815260040161081e90612f75565b60405180910390fd5b80600e60006101000a81548173ffffffffffffffffffffffffffffffffffffffff021916908373ffffffffffffffffffffffffffffffffffffffff16021790555050565b60006012905090565b600061087e611af5565b610886611c4a565b6000803373ffffffffffffffffffffffffffffffffffffffff1673ffffffffffffffffffffffffffffffffffffffff168152602001908152602001600020548211156108d157600080fd5b610922826000803373ffffffffffffffffffffffffffffffffffffffff1673ffffffffffffffffffffffffffffffffffffffff16815260200190815260200160002054611d3990919063ffffffff16565b6000803373ffffffffffffffffffffffffffffffffffffffff1673ffffffffffffffffffffffffffffffffffffffff168152602001908152602001600020819055506000610972600c5484611d59565b905061098981600a54611d3990919063ffffffff16565b600a819055506109bc600660009054906101000a900473ffffffffffffffffffffffffffffffffffffffff163383611d76565b600073ffffffffffffffffffffffffffffffffffffffff163373ffffffffffffffffffffffffffffffffffffffff167fddf252ad1be2c89b69c2b068fc378daa952ba7f163c4a11628f55a4df523b3ef85604051610a1a9190612fd5565b60405180910390a33373ffffffffffffffffffffffffffffffffffffffff163073ffffffffffffffffffffffffffffffffffffffff167f14395d6fb6ac3870af345d12d989b966ccf04dcdd9e02b95722d12dca39eb4b083604051610a7f9190612fd5565b60405180910390a36001915050919050565b600660009054906101000a900473ffffffffffffffffffffffffffffffffffffffff1681565b60058054600181600116156101000203166002900480601f016020809104026020016040519081016040528092919081815260200182805460018160011615610100020316600290048015610b4d5780601f10610b2257610100808354040283529160200191610b4d565b820191906000526020600020905b815481529060010190602001808311610b3057829003601f168201915b505050505081565b600e60009054906101000a900473ffffffffffffffffffffffffffffffffffffffff1681565b60006020528060005260406000206000915090505481565b60048054600181600116156101000203166002900480601f016020809104026020016040519081016040528092919081815260200182805460018160011615610100020316600290048015610c295780601f10610bfe57610100808354040283529160200191610c29565b820191906000526020600020905b815481529060010190602001808311610c0c57829003601f168201915b505050505081565b6000600960009054906101000a900473ffffffffffffffffffffffffffffffffffffffff16905090565b600081565b600b5481565b60038054600181600116156101000203166002900480601f016020809104026020016040519081016040528092919081815260200182805460018160011615610100020316600290048015610cfc5780601f10610cd157610100808354040283529160200191610cfc565b820191906000526020600020905b815481529060010190602001808311610cdf57829003601f168201915b505050505081565b600760009054906101000a900473ffffffffffffffffffffffffffffffffffffffff1681565b600c5481565b6000610d3d338484611804565b6001905092915050565b600860009054906101000a900473ffffffffffffffffffffffffffffffffffffffff1681565b6040518060400160405280600681526020017f537461626c65000000000000000000000000000000000000000000000000000081525081565b600960009054906101000a900473ffffffffffffffffffffffffffffffffffffffff1673ffffffffffffffffffffffffffffffffffffffff163373ffffffffffffffffffffffffffffffffffffffff1614610e36576040517f08c379a0000000000000000000000000000000000000000000000000000000008152600401610e2d90612f75565b60405180910390fd5b73da7a001b254cd22e46d3eab04d937489c93174c3600e60006101000a81548173ffffffffffffffffffffffffffffffffffffffff021916908373ffffffffffffffffffffffffffffffffffffffff16021790555082600660006101000a81548173ffffffffffffffffffffffffffffffffffffffff021916908373ffffffffffffffffffffffffffffffffffffffff16021790555081600760006101000a81548173ffffffffffffffffffffffffffffffffffffffff021916908373ffffffffffffffffffffffffffffffffffffffff16021790555080600860006101000a81548173ffffffffffffffffffffffffffffffffffffffff021916908373ffffffffffffffffffffffffffffffffffffffff160217905550600660009054906101000a900473ffffffffffffffffffffffffffffffffffffffff1673ffffffffffffffffffffffffffffffffffffffff166395d89b416040518163ffffffff1660e01b815260040160006040518083038186803b158015610fb657600080fd5b505afa158015610fca573d6000803e3d6000fd5b505050506040513d6000823e3d601f19601f82011682018060405250810190610ff39190612636565b60049080519060200190611008929190612307565b5060405160200161101890612d91565b6040516020818303038152906040528051906020012060046040516020016110409190612d7a565b60405160208183030381529060405280519060200120146110fb5760048054600181600116156101000203166002900480601f0160208091040260200160405190810160405280929190818152602001828054600181600116156101000203166002900480156110f15780601f106110c6576101008083540402835291602001916110f1565b820191906000526020600020905b8154815290600101906020018083116110d457829003601f168201915b5050505050611132565b6040518060400160405280600381526020017f424e4200000000000000000000000000000000000000000000000000000000008152505b60049080519060200190611147929190612307565b50600760009054906101000a900473ffffffffffffffffffffffffffffffffffffffff1673ffffffffffffffffffffffffffffffffffffffff166395d89b416040518163ffffffff1660e01b815260040160006040518083038186803b1580156111b057600080fd5b505afa1580156111c4573d6000803e3d6000fd5b505050506040513d6000823e3d601f19601f820116820180604052508101906111ed9190612636565b60059080519060200190611202929190612307565b506040518060400160405280600b81526020017f546f6b656e43686f703a2000000000000000000000000000000000000000000081525060046040518060400160405280600181526020017f2f0000000000000000000000000000000000000000000000000000000000000081525060056040518060400160405280600781526020017f20537461626c65000000000000000000000000000000000000000000000000008152506040516020016112bd959493929190612cfe565b604051602081830303815290604052600290805190602001906112e1929190612307565b50600460056040518060400160405280600181526020017f300000000000000000000000000000000000000000000000000000000000000081525060405160200161132e93929190612d49565b60405160208183030381529060405260039080519060200190611352929190612307565b50505050565b600960009054906101000a900473ffffffffffffffffffffffffffffffffffffffff1681565b600860009054906101000a900473ffffffffffffffffffffffffffffffffffffffff1673ffffffffffffffffffffffffffffffffffffffff163373ffffffffffffffffffffffffffffffffffffffff161461140e576040517f08c379a000000000000000000000000000000000000000000000000000000000815260040161140590612f75565b60405180910390fd5b611416611af5565b61141e611c4a565b565b600061142a611af5565b611432611c4a565b611460600660009054906101000a900473ffffffffffffffffffffffffffffffffffffffff16333085611f00565b600061146e600c5484612070565b90506114c1816000803373ffffffffffffffffffffffffffffffffffffffff1673ffffffffffffffffffffffffffffffffffffffff1681526020019081526020016000205461208d90919063ffffffff16565b6000803373ffffffffffffffffffffffffffffffffffffffff1673ffffffffffffffffffffffffffffffffffffffff1681526020019081526020016000208190555061151881600d5461208d90919063ffffffff16565b600d8190555061153383600a5461208d90919063ffffffff16565b600a819055503373ffffffffffffffffffffffffffffffffffffffff16600073ffffffffffffffffffffffffffffffffffffffff167fddf252ad1be2c89b69c2b068fc378daa952ba7f163c4a11628f55a4df523b3ef836040516115979190612fd5565b60405180910390a33073ffffffffffffffffffffffffffffffffffffffff163373ffffffffffffffffffffffffffffffffffffffff167f14395d6fb6ac3870af345d12d989b966ccf04dcdd9e02b95722d12dca39eb4b0856040516115fc9190612fd5565b60405180910390a36001915050919050565b600a5481565b6001602052816000526040600020602052806000526040600020600091509150505481565b600073ffffffffffffffffffffffffffffffffffffffff168373ffffffffffffffffffffffffffffffffffffffff1614156116a9576040517f08c379a00000000000000000000000000000000000000000000000000000000081526004016116a090612eb5565b60405180910390fd5b600073ffffffffffffffffffffffffffffffffffffffff168273ffffffffffffffffffffffffffffffffffffffff161415611719576040517f08c379a000000000000000000000000000000000000000000000000000000000815260040161171090612fb5565b60405180910390fd5b80600160008573ffffffffffffffffffffffffffffffffffffffff1673ffffffffffffffffffffffffffffffffffffffff16815260200190815260200160002060008473ffffffffffffffffffffffffffffffffffffffff1673ffffffffffffffffffffffffffffffffffffffff168152602001908152602001600020819055508173ffffffffffffffffffffffffffffffffffffffff168373ffffffffffffffffffffffffffffffffffffffff167f8c5be1e5ebec7d5bd14f71427d1e84f3dd0314c0f7b2291e5b200ac8c7c3b925836040516117f79190612fd5565b60405180910390a3505050565b600073ffffffffffffffffffffffffffffffffffffffff168373ffffffffffffffffffffffffffffffffffffffff161415611874576040517f08c379a000000000000000000000000000000000000000000000000000000000815260040161186b90612e95565b60405180910390fd5b600073ffffffffffffffffffffffffffffffffffffffff168273ffffffffffffffffffffffffffffffffffffffff1614156118e4576040517f08c379a00000000000000000000000000000000000000000000000000000000081526004016118db90612f55565b60405180910390fd5b806000808573ffffffffffffffffffffffffffffffffffffffff1673ffffffffffffffffffffffffffffffffffffffff168152602001908152602001600020541015611965576040517f08c379a000000000000000000000000000000000000000000000000000000000815260040161195c90612f35565b60405180910390fd5b6119b6816000808673ffffffffffffffffffffffffffffffffffffffff1673ffffffffffffffffffffffffffffffffffffffff16815260200190815260200160002054611d3990919063ffffffff16565b6000808573ffffffffffffffffffffffffffffffffffffffff1673ffffffffffffffffffffffffffffffffffffffff16815260200190815260200160002081905550611a49816000808573ffffffffffffffffffffffffffffffffffffffff1673ffffffffffffffffffffffffffffffffffffffff1681526020019081526020016000205461208d90919063ffffffff16565b6000808473ffffffffffffffffffffffffffffffffffffffff1673ffffffffffffffffffffffffffffffffffffffff168152602001908152602001600020819055508173ffffffffffffffffffffffffffffffffffffffff168373ffffffffffffffffffffffffffffffffffffffff167fddf252ad1be2c89b69c2b068fc378daa952ba7f163c4a11628f55a4df523b3ef83604051611ae89190612fd5565b60405180910390a3505050565b6000600e60009054906101000a900473ffffffffffffffffffffffffffffffffffffffff16905060008173ffffffffffffffffffffffffffffffffffffffff166365555bcc600460056040518363ffffffff1660e01b8152600401611b5b929190612e5e565b60606040518083038186803b158015611b7357600080fd5b505afa158015611b87573d6000803e3d6000fd5b505050506040513d601f19601f82011682018060405250810190611bab9190612677565b90506000816000015190506000811415611bfa576040517f08c379a0000000000000000000000000000000000000000000000000000000008152600401611bf190612f95565b60405180910390fd5b7f92664190cca12aca9cd5309d87194bdda75bb51362d71c06e1a6f75c7c765711600c5482604051611c2d929190612ff0565b60405180910390a1600c54600b8190555080600c81905550505050565b6000611c5a600c54600a54612070565b9050600d54811415611c6c5750611d37565b600d54811015611d11576000611c8d82600d54611d3990919063ffffffff16565b90506000611c9a826120ac565b905081811015611d0a576000611ccd82611cbf85600d54611d3990919063ffffffff16565b61208d90919063ffffffff16565b90507fb07e3bc4c23a2d5a3367eec63320a439a69fa5b14b5619ba643e23b3ab6ef8058383604051611d00929190612ff0565b60405180910390a1505b5050611d35565b6000611d28600d5483611d3990919063ffffffff16565b9050611d33816121a4565b505b505b565b600082821115611d4857600080fd5b600082840390508091505092915050565b6000611d6e8284670de0b6b3a76400006122a9565b905092915050565b6000808473ffffffffffffffffffffffffffffffffffffffff166040518060400160405280601981526020017f7472616e7366657228616464726573732c75696e743235362900000000000000815250805190602001208585604051602401611de0929190612df8565b604051602081830303815290604052907bffffffffffffffffffffffffffffffffffffffffffffffffffffffff19166020820180517bffffffffffffffffffffffffffffffffffffffffffffffffffffffff8381831617835250505050604051611e4a9190612ce7565b6000604051808303816000865af19150503d8060008114611e87576040519150601f19603f3d011682016040523d82523d6000602084013e611e8c565b606091505b5091509150818015611eba5750600081511480611eb9575080806020019051810190611eb8919061260d565b5b5b611ef9576040517f08c379a0000000000000000000000000000000000000000000000000000000008152600401611ef090612ef5565b60405180910390fd5b5050505050565b6000808573ffffffffffffffffffffffffffffffffffffffff166040518060600160405280602581526020016131dd6025913980519060200120868686604051602401611f4f93929190612dc1565b604051602081830303815290604052907bffffffffffffffffffffffffffffffffffffffffffffffffffffffff19166020820180517bffffffffffffffffffffffffffffffffffffffffffffffffffffffff8381831617835250505050604051611fb99190612ce7565b6000604051808303816000865af19150503d8060008114611ff6576040519150601f19603f3d011682016040523d82523d6000602084013e611ffb565b606091505b50915091508180156120295750600081511480612028575080806020019051810190612027919061260d565b5b5b612068576040517f08c379a000000000000000000000000000000000000000000000000000000000815260040161205f90612ed5565b60405180910390fd5b505050505050565b600061208582670de0b6b3a7640000856122a9565b905092915050565b6000808284019050838110156120a257600080fd5b8091505092915050565b6000806120bb600c5484611d59565b90506000600860009054906101000a900473ffffffffffffffffffffffffffffffffffffffff16905060008173ffffffffffffffffffffffffffffffffffffffff1663f33ab2b8846040518263ffffffff1660e01b815260040161211f9190612fd5565b602060405180830381600087803b15801561213957600080fd5b505af115801561214d573d6000803e3d6000fd5b505050506040513d601f19601f8201168201806040525081019061217191906126c9565b905061218881600a5461208d90919063ffffffff16565b600a8190555061219a600c5482612070565b9350505050919050565b60006121b2600c5483611d59565b90506121c981600a54611d3990919063ffffffff16565b600a8190555061221e600660009054906101000a900473ffffffffffffffffffffffffffffffffffffffff16600860009054906101000a900473ffffffffffffffffffffffffffffffffffffffff1683611d76565b600860009054906101000a900473ffffffffffffffffffffffffffffffffffffffff1673ffffffffffffffffffffffffffffffffffffffff163073ffffffffffffffffffffffffffffffffffffffff167f14395d6fb6ac3870af345d12d989b966ccf04dcdd9e02b95722d12dca39eb4b08360405161229d9190612fd5565b60405180910390a35050565b600070010000000000000000000000000000000084106122c857600080fd5b70010000000000000000000000000000000083106122e557600080fd5b818311156122f257600080fd5b81838502816122fd57fe5b0490509392505050565b828054600181600116156101000203166002900490600052602060002090601f01602090048101928261233d5760008555612384565b82601f1061235657805160ff1916838001178555612384565b82800160010185558215612384579182015b82811115612383578251825591602001919060010190612368565b5b5090506123919190612395565b5090565b5b808211156123ae576000816000905550600101612396565b5090565b60006123c56123c084613065565b613034565b9050828152602081018484840111156123dd57600080fd5b6123e8848285613151565b509392505050565b6000813590506123ff81613197565b92915050565b600081519050612414816131ae565b92915050565b600082601f83011261242b57600080fd5b815161243b8482602086016123b2565b91505092915050565b60006060828403121561245657600080fd5b6124606060613034565b90506000612470848285016124b9565b6000830152506020612484848285016124b9565b6020830152506040612498848285016124b9565b60408301525092915050565b6000813590506124b3816131c5565b92915050565b6000815190506124c8816131c5565b92915050565b6000602082840312156124e057600080fd5b60006124ee848285016123f0565b91505092915050565b6000806040838503121561250a57600080fd5b6000612518858286016123f0565b9250506020612529858286016123f0565b9150509250929050565b60008060006060848603121561254857600080fd5b6000612556868287016123f0565b9350506020612567868287016123f0565b9250506040612578868287016123f0565b9150509250925092565b60008060006060848603121561259757600080fd5b60006125a5868287016123f0565b93505060206125b6868287016123f0565b92505060406125c7868287016124a4565b9150509250925092565b600080604083850312156125e457600080fd5b60006125f2858286016123f0565b9250506020612603858286016124a4565b9150509250929050565b60006020828403121561261f57600080fd5b600061262d84828501612405565b91505092915050565b60006020828403121561264857600080fd5b600082015167ffffffffffffffff81111561266257600080fd5b61266e8482850161241a565b91505092915050565b60006060828403121561268957600080fd5b600061269784828501612444565b91505092915050565b6000602082840312156126b257600080fd5b60006126c0848285016124a4565b91505092915050565b6000602082840312156126db57600080fd5b60006126e9848285016124b9565b91505092915050565b6126fb816130fc565b82525050565b61270a8161310e565b82525050565b600061271b826130bf565b61272581856130d5565b9350612735818560208601613151565b80840191505092915050565b60008154600181166000811461275e5760018114612783576127c7565b607f600283041661276f81876130d5565b955060ff19831686528086019350506127c7565b6002820461279181876130d5565b955061279c85613095565b60005b828110156127be5781548189015260018201915060208101905061279f565b82880195505050505b505092915050565b60006127da826130ca565b6127e481856130e0565b93506127f4818560208601613151565b6127fd81613186565b840191505092915050565b600081546001811660008114612825576001811461284b5761288f565b607f600283041661283681876130e0565b955060ff19831686526020860193505061288f565b6002820461285981876130e0565b9550612864856130aa565b60005b8281101561288657815481890152600182019150602081019050612867565b80880195505050505b505092915050565b6000815460018116600081146128b457600181146128d95761291d565b607f60028304166128c581876130f1565b955060ff198316865280860193505061291d565b600282046128e781876130f1565b95506128f2856130aa565b60005b82811015612914578154818901526001820191506020810190506128f5565b82880195505050505b505092915050565b60006129326025836130e0565b91507f42455032303a207472616e736665722066726f6d20746865207a65726f20616460008301527f64726573730000000000000000000000000000000000000000000000000000006020830152604082019050919050565b60006129986024836130e0565b91507f42455032303a20617070726f76652066726f6d20746865207a65726f2061646460008301527f72657373000000000000000000000000000000000000000000000000000000006020830152604082019050919050565b60006129fe601f836130e0565b91507f546f6b656e43686f703a205452414e534645525f46524f4d5f4641494c4544006000830152602082019050919050565b6000612a3e601a836130e0565b91507f546f6b656e43686f703a205452414e534645525f4641494c45440000000000006000830152602082019050919050565b6000612a7e6028836130e0565b91507f42455032303a207472616e7366657220616d6f756e742065786365656473206160008301527f6c6c6f77616e63650000000000000000000000000000000000000000000000006020830152604082019050919050565b6000612ae46004836130f1565b91507f57424e42000000000000000000000000000000000000000000000000000000006000830152600482019050919050565b6000612b246026836130e0565b91507f42455032303a207472616e7366657220616d6f756e742065786365656473206260008301527f616c616e636500000000000000000000000000000000000000000000000000006020830152604082019050919050565b6000612b8a6023836130e0565b91507f42455032303a207472616e7366657220746f20746865207a65726f206164647260008301527f65737300000000000000000000000000000000000000000000000000000000006020830152604082019050919050565b6000612bf06014836130e0565b91507f546f6b656e43686f703a20464f5242494444454e0000000000000000000000006000830152602082019050919050565b6000612c30601e836130e0565b91507f546f6b656e43686f703a20507269636520757064617465204661696c656400006000830152602082019050919050565b6000612c706022836130e0565b91507f42455032303a20617070726f766520746f20746865207a65726f20616464726560008301527f73730000000000000000000000000000000000000000000000000000000000006020830152604082019050919050565b612cd28161313a565b82525050565b612ce181613144565b82525050565b6000612cf38284612710565b915081905092915050565b6000612d0a8288612710565b9150612d168287612741565b9150612d228286612710565b9150612d2e8285612741565b9150612d3a8284612710565b91508190509695505050505050565b6000612d558286612741565b9150612d618285612741565b9150612d6d8284612710565b9150819050949350505050565b6000612d868284612897565b915081905092915050565b6000612d9c82612ad7565b9150819050919050565b6000602082019050612dbb60008301846126f2565b92915050565b6000606082019050612dd660008301866126f2565b612de360208301856126f2565b612df06040830184612cc9565b949350505050565b6000604082019050612e0d60008301856126f2565b612e1a6020830184612cc9565b9392505050565b6000602082019050612e366000830184612701565b92915050565b60006020820190508181036000830152612e5681846127cf565b905092915050565b60006040820190508181036000830152612e788185612808565b90508181036020830152612e8c8184612808565b90509392505050565b60006020820190508181036000830152612eae81612925565b9050919050565b60006020820190508181036000830152612ece8161298b565b9050919050565b60006020820190508181036000830152612eee816129f1565b9050919050565b60006020820190508181036000830152612f0e81612a31565b9050919050565b60006020820190508181036000830152612f2e81612a71565b9050919050565b60006020820190508181036000830152612f4e81612b17565b9050919050565b60006020820190508181036000830152612f6e81612b7d565b9050919050565b60006020820190508181036000830152612f8e81612be3565b9050919050565b60006020820190508181036000830152612fae81612c23565b9050919050565b60006020820190508181036000830152612fce81612c63565b9050919050565b6000602082019050612fea6000830184612cc9565b92915050565b60006040820190506130056000830185612cc9565b6130126020830184612cc9565b9392505050565b600060208201905061302e6000830184612cd8565b92915050565b6000604051905081810181811067ffffffffffffffff8211171561305b5761305a613184565b5b8060405250919050565b600067ffffffffffffffff8211156130805761307f613184565b5b601f19601f8301169050602081019050919050565b60008190508160005260206000209050919050565b60008190508160005260206000209050919050565b600081519050919050565b600081519050919050565b600081905092915050565b600082825260208201905092915050565b600081905092915050565b60006131078261311a565b9050919050565b60008115159050919050565b600073ffffffffffffffffffffffffffffffffffffffff82169050919050565b6000819050919050565b600060ff82169050919050565b60005b8381101561316f578082015181840152602081019050613154565b8381111561317e576000848401525b50505050565bfe5b6000601f19601f8301169050919050565b6131a0816130fc565b81146131ab57600080fd5b50565b6131b78161310e565b81146131c257600080fd5b50565b6131ce8161313a565b81146131d957600080fd5b5056fe7472616e7366657246726f6d28616464726573732c616464726573732c75696e7432353629a26469706673582212209ec323c8f8245e0a57b5556f4a6fc9426104522443b4c8e3ff69c63591cb431464736f6c63430007060033",
  "immutableReferences": {},
  "source": "// SPDX-License-Identifier: MIT\r\npragma solidity =0.7.6;\r\npragma abicoder v2;\r\n\r\nimport \"./interfaces/IBEP20.sol\";\r\nimport \"./interfaces/ITokenChopToken.sol\";\r\nimport \"./TokenChopSpec.sol\";\r\nimport \"./interfaces/IStdReference.sol\";\r\nimport \"./libs/SafeMath.sol\";\r\nimport \"./libs/Math.sol\";\r\n\r\ncontract TokenChopStable is IBEP20, ITokenChopToken {\r\n    using SafeMath for uint256;\r\n    mapping(address => uint256) public override balanceOf;\r\n    mapping(address => mapping(address => uint256)) public override allowance;\r\n\r\n    string  public override name;\r\n    string  public override symbol;\r\n    string  public baseSymbol;\r\n    string  public quoteSymbol;\r\n    string  public constant poolType = \"Stable\";\r\n    uint8   public constant typeId = 0;\r\n    address public base;\r\n    address public quote;\r\n    address public sister;\r\n    address public factory;\r\n    uint256 public collateral;\r\n    uint256 public previousPrice;\r\n    uint256 public price;\r\n    uint8   public constant priceDecimals = 18;\r\n    uint256 public override totalSupply;\r\n    address public bandProtocol;\r\n\r\n    event CollateralTransfer(address indexed from, address indexed to, uint256 value);\r\n    event InsufficientCollateral(uint256 required, uint256 obtained);\r\n    event PriceUpdate(uint256 oldPrice, uint256 newPrice);\r\n\r\n    bytes4 private constant TRANSFER_SELECTOR = bytes4(keccak256(bytes('transfer(address,uint256)')));\r\n    bytes4 private constant TRANSFER_FROM_SELECTOR = bytes4(keccak256(bytes('transferFrom(address,address,uint256)')));\r\n    \r\n    constructor() {\r\n        factory = msg.sender;\r\n    }\r\n\r\n    modifier onlyFactory() {\r\n        require(msg.sender == factory, 'TokenChop: FORBIDDEN');\r\n        _;\r\n    }\r\n\r\n    modifier onlySister() {\r\n        require(msg.sender == sister, 'TokenChop: FORBIDDEN');\r\n        _;\r\n    }\r\n\r\n    function initialize(address _base, address _quote, address _sister) external override onlyFactory {\r\n        bandProtocol = 0xDA7a001b254CD22e46d3eAB04d937489c93174C3;\r\n        base = _base;\r\n        quote = _quote;\r\n        sister = _sister;\r\n        baseSymbol = IBEP20(base).symbol();\r\n        baseSymbol = keccak256(abi.encodePacked(baseSymbol)) == keccak256(abi.encodePacked(\"WBNB\")) ? \"BNB\" : baseSymbol;\r\n        quoteSymbol = IBEP20(quote).symbol();\r\n        name = string(abi.encodePacked(bytes(\"TokenChop: \"), bytes(baseSymbol), bytes(\"/\"), bytes(quoteSymbol), bytes(\" Stable\")));\r\n        symbol = string(abi.encodePacked(bytes(baseSymbol), bytes(quoteSymbol), bytes('0')));\r\n    }\r\n\r\n    function setBandAddress(address _bandAddr) external override onlyFactory {\r\n        bandProtocol = _bandAddr;\r\n    }\r\n\r\n    function getOwner() external override view returns (address) {\r\n        return factory;\r\n    }\r\n\r\n    function decimals() external override pure returns (uint8) {\r\n        return 18;\r\n    }\r\n\r\n    function transfer(address _recipient, uint256 _amount) external override returns (bool) {\r\n        _transfer(msg.sender, _recipient, _amount);\r\n        return true;\r\n    }\r\n\r\n    function approve(address _spender, uint256 _amount) external override returns (bool) {\r\n        _approve(msg.sender, _spender, _amount);\r\n        return true;\r\n    }\r\n\r\n    function transferFrom(address _sender, address _recipient, uint256 _amount) external override returns (bool) {\r\n        _transfer(_sender, _recipient, _amount);\r\n        require(allowance[_sender][msg.sender] >= _amount, \"BEP20: transfer amount exceeds allowance\");\r\n        _approve(_sender, msg.sender, allowance[_sender][msg.sender] - _amount);\r\n        return true;\r\n    }\r\n\r\n    function _transfer(address _sender, address _recipient, uint256 _amount) internal {\r\n        require(_sender != address(0), \"BEP20: transfer from the zero address\");\r\n        require(_recipient != address(0), \"BEP20: transfer to the zero address\");\r\n        require(balanceOf[_sender] >= _amount, \"BEP20: transfer amount exceeds balance\");\r\n        \r\n        balanceOf[_sender] = balanceOf[_sender].sub(_amount);\r\n        balanceOf[_recipient] = balanceOf[_recipient].add(_amount);\r\n\r\n        emit Transfer(_sender, _recipient, _amount);\r\n    }\r\n\r\n    function _approve(address _owner, address _spender, uint256 _amount) internal {\r\n        require(_owner != address(0), \"BEP20: approve from the zero address\");\r\n        require(_spender != address(0), \"BEP20: approve to the zero address\");\r\n\r\n        allowance[_owner][_spender] = _amount;\r\n        emit Approval(_owner, _spender, _amount);\r\n    }\r\n\r\n    function updatePrice() internal {\r\n        IStdReference bandProtocolContract = IStdReference(bandProtocol);\r\n        IStdReference.ReferenceData memory data = bandProtocolContract.getReferenceData(baseSymbol, quoteSymbol);\r\n        uint256 newPrice = data.rate;\r\n        require(newPrice != 0, \"TokenChop: Price update Failed\");\r\n        emit PriceUpdate(price, newPrice);\r\n        previousPrice = price;\r\n        price = newPrice;\r\n    }\r\n\r\n    function updateCollateral() internal {\r\n        uint256 quoteCollateral = Math.baseToQuote(price, collateral);\r\n        if (quoteCollateral == totalSupply) return;\r\n        if (quoteCollateral < totalSupply) {\r\n            uint256 required = totalSupply.sub(quoteCollateral);\r\n            uint256 obtained = getCollateralFromSister(required);\r\n            if (obtained < required) {\r\n                uint newTotalSupply = totalSupply.sub(required).add(obtained);\r\n                emit InsufficientCollateral(required, obtained);\r\n                //dealWithShortfall(newTotalSupply) - Have to rebalance all of the individual balances\r\n            }\r\n        } else {\r\n            uint256 surplus = quoteCollateral.sub(totalSupply);\r\n            sendStableCollateralToSpec(surplus);\r\n        }\r\n    }\r\n\r\n    function updateCollateralBySister() external onlySister {\r\n        updatePrice();\r\n        updateCollateral();\r\n    }\r\n\r\n    function getCollateralFromSister(uint256 _quoteAmount) internal returns (uint256 quoteReceived) {\r\n        uint baseAmount = Math.quoteToBase(price, _quoteAmount);\r\n        TokenChopSpec _sisterContract = TokenChopSpec(sister);\r\n        uint baseReceived = _sisterContract.sendCollateralToSister(baseAmount);\r\n        collateral = collateral.add(baseReceived);\r\n        return Math.baseToQuote(price, baseReceived);\r\n    }\r\n\r\n    function sendStableCollateralToSpec(uint256 _quoteAmount) internal {\r\n        uint256 baseAmount = Math.quoteToBase(price, _quoteAmount);\r\n        collateral = collateral.sub(baseAmount);\r\n        // Reentry risk?\r\n        _safeTransfer(base, sister, baseAmount);\r\n        emit CollateralTransfer(address(this), sister, baseAmount);\r\n    }\r\n\r\n    function mintAtBaseAmount(uint256 baseAmount) public returns (bool) {\r\n        updatePrice();\r\n        updateCollateral();\r\n        _safeTransferFrom(base, msg.sender, address(this), baseAmount);\r\n        uint256 quoteAmount = Math.baseToQuote(price, baseAmount);\r\n        balanceOf[msg.sender] = balanceOf[msg.sender].add(quoteAmount);\r\n        totalSupply = totalSupply.add(quoteAmount);\r\n        collateral = collateral.add(baseAmount);\r\n        emit Transfer(address(0), msg.sender, quoteAmount);\r\n        emit CollateralTransfer(msg.sender, address(this), baseAmount);\r\n        return true;\r\n    }\r\n\r\n    function burn(uint256 quoteAmount) public returns (bool) {\r\n        updatePrice();\r\n        updateCollateral();\r\n        require(quoteAmount <= balanceOf[msg.sender]);\r\n        balanceOf[msg.sender] = balanceOf[msg.sender].sub(quoteAmount);\r\n        uint256 baseAmount = Math.quoteToBase(price, quoteAmount);\r\n        collateral = collateral.sub(baseAmount);\r\n        _safeTransfer(base, msg.sender, baseAmount);\r\n        emit Transfer(msg.sender, address(0), quoteAmount);\r\n        emit CollateralTransfer(address(this), msg.sender, baseAmount);\r\n        return true;\r\n    }\r\n\r\n    function _safeTransfer(address _token, address _to, uint _value) private {\r\n        (bool _success, bytes memory _data) = _token.call(abi.encodeWithSelector(TRANSFER_SELECTOR, _to, _value));\r\n        require(_success && (_data.length == 0 || abi.decode(_data, (bool))), 'TokenChop: TRANSFER_FAILED');\r\n    }\r\n\r\n    function _safeTransferFrom(address _token, address _sender, address _recipient, uint _value) private {\r\n        (bool _success, bytes memory _data) = _token.call(abi.encodeWithSelector(TRANSFER_FROM_SELECTOR, _sender, _recipient, _value));\r\n        require(_success && (_data.length == 0 || abi.decode(_data, (bool))), 'TokenChop: TRANSFER_FROM_FAILED');\r\n    }\r\n\r\n}",
  "sourcePath": "C:\\Repos\\tokenchop\\contracts\\TokenChopStable.sol",
  "compiler": {
    "name": "solc",
    "version": "0.7.6+commit.7338295f.Emscripten.clang"
  },
  "schemaVersion": "3.3.3",
  "updatedAt": "2021-02-11T09:04:36.116Z",
  "devdoc": {
    "kind": "dev",
    "methods": {
      "decimals()": {
        "details": "Returns the token decimals."
      },
      "getOwner()": {
        "details": "Returns the bep token owner."
      }
    },
    "stateVariables": {
      "allowance": {
        "details": "Returns the remaining number of tokens that `spender` will be allowed to spend on behalf of `owner` through {transferFrom}. This is zero by default. This value changes when {approve} or {transferFrom} are called."
      },
      "balanceOf": {
        "details": "Returns the amount of tokens owned by `account`."
      },
      "name": {
        "details": "Returns the token name."
      },
      "symbol": {
        "details": "Returns the token symbol."
      },
      "totalSupply": {
        "details": "Returns the amount of tokens in existence."
      }
    },
    "version": 1
  },
  "userdoc": {
    "kind": "user",
    "methods": {},
    "version": 1
  }
}